:020000040800F2
:10000000001800205D040008310400083D040008C9
:1000100000000000000000000000000000000000E0
:10002000000000000000000000000000450400087F
:10003000000000000000000051040008D505000881
:10004000AD040008AD040008AD040008AD040008CC
:10005000AD040008AD040008AD040008AD040008BC
:10006000AD040008AD040008AD040008AD040008AC
:10007000AD040008AD040008AD040008AD0400089C
:10008000AD040008AD04000800000000AD04000845
:10009000AD040008AD040008AD040008AD0400087C
:1000A000AD040008AD040008AD040008AD0400086C
:1000B000AD04000800000000AD04000800000000CE
:1000C00010B5064C2378002B07D1054B002B02D02E
:1000D000044800E000BF0123237010BD140000207D
:1000E00000000000B0170008044B10B5002B03D02F
:1000F0000349044800E000BF10BDC04600000000F6
:1001000018000020B0170008002243088B4274D367
:1001100003098B425FD3030A8B4244D3030B8B4208
:1001200028D3030C8B420DD3FF22090212BA030C11
:100130008B4202D31212090265D0030B8B4219D3F2
:1001400000E0090AC30B8B4201D3CB03C01A524112
:10015000830B8B4201D38B03C01A5241430B8B425A
:1001600001D34B03C01A5241030B8B4201D30B0343
:10017000C01A5241C30A8B4201D3CB02C01A52416A
:10018000830A8B4201D38B02C01A5241430A8B422D
:1001900001D34B02C01A5241030A8B4201D30B0216
:1001A000C01A5241CDD2C3098B4201D3CB01C01A30
:1001B000524183098B4201D38B01C01A524143093A
:1001C0008B4201D34B01C01A524103098B4201D328
:1001D0000B01C01A5241C3088B4201D3CB00C01A95
:1001E000524183088B4201D38B00C01A524143080D
:1001F0008B4201D34B00C01A5241411A00D2014632
:10020000524110467047FFE701B5002000F006F8A4
:1002100002BDC0460029F7D076E770477047C04658
:1002200080B500AF1B4B1B4A126801210A431A60BC
:10023000184B184A526818490A405A60154B154A1B
:10024000126816490A401A60124B124A1268144981
:100250000A401A600F4B0F4A526812490A405A600E
:100260000C4B0C4AD26A0F218A43DA62094B094AC5
:10027000126B0D490A401A63064B064A526B012164
:100280008A435A63034B00229A6000F079F8C04613
:10029000BD4680BD001002400CB8FFF8FFFFF6FE1F
:1002A000FFFFFBFFFFFFC0FFACFEFFFF80B584B088
:1002B00000AF0023FB600023BB6000237B600023B2
:1002C0003B602A4B5B680C221340FB60FB68042BED
:1002D00007D0082B09D0002B31D1254B254A1A60B5
:1002E00031E0234B234A1A602DE0204B5A68F0235B
:1002F0009B031340BB601D4B5A68C0235B02134035
:100300007B60BB689B0C0233BB607B68002B05D114
:10031000BB68194A5A43164B1A6014E0134BDB6A48
:100320000F22134001333B6039681248FFF7ECFE9F
:1003300003001A00BB685A430D4B1A6003E00C4BD4
:100340000C4A1A60C046094B5B68F02213401B0937
:100350000A4AD35CDBB2FB60054B1A68FB68DA40E3
:10036000034B1A60C046BD4604B080BD0010024079
:100370000000002000127A0000093D000400002067
:1003800080B582B000AF00237B6000233B60264B2A
:10039000254A126801210A431A60234B1B68022276
:1003A00013403B607B6801337B603B68002B04D1CA
:1003B0007A68A023DB019A42EFD11B4B1B68022213
:1003C000134002D001233B6001E000233B603B6807
:1003D000012B25D1154B11221A60134B5B68124B70
:1003E000114A1268802149040A431A60C0460E4B24
:1003F0001A6880239B041340F9D00B4B0A4A5268B9
:1004000003218A435A60084B074A526802210A4373
:100410005A60C046044B5B680C221340082BF9D18C
:10042000C046BD4602B080BD001002400020024020
:1004300080B500AFC046BD4680BDC04680B500AFA8
:10044000FEE7C04680B500AFC046BD4680BDC04691
:1004500080B500AFC046BD4680BDC0460D4885464C
:10046000002103E00C4B5B58435004310B480C4B0C
:1004700042189A42F6D30B4A02E00023136004327A
:10048000094B9A42F9D3FFF7CBFE01F06BF900F06C
:10049000D7F8FEE700180020D01700080000002061
:1004A0001400002014000020C8000020FEE7000017
:1004B000B0B582B000AF02003960FB1D1A70FB1DA1
:1004C0001B787F2B32D92F4CFB1D1B781A000F2372
:1004D0001340083B99082B4AFB1D1B7818000F237B
:1004E0000340083B9B0806339B00D31804331B686A
:1004F000FA1D1278100003220240D200FF20904023
:100500000200D2431A403B689B01FF201840FB1DAC
:100510001B781D0003232B40DB00984003001A4387
:100520008B1D9B00E31804331A6027E0164CFB1D5B
:100530001B785BB29B081449FA1D127852B29208DC
:10054000C03292005258F91D097808000321014079
:10055000C900FF2088400100C94311403A68920158
:10056000FF201040FA1D1278150003222A40D20005
:10057000904002000A43C0339B001A51C046BD465A
:1005800002B0B0BD00ED00E000E100E080B582B057
:1005900000AF78607B68013B0C4A934201D901238C
:1005A00010E00B4B7A68013A5A6001235B42032149
:1005B0001800FFF77DFF064B00229A60044B0722CC
:1005C0001A6000231800BD4602B080BDFFFFFF0087
:1005D00010E000E080B500AF0D4B1B68002B04D08D
:1005E0000B4B1B685A1E0A4B1A600A4B1B685A1C9D
:1005F000084B1A60074B1B68642B05D9064B012278
:100600001A70044B00221A60C046BD4680BDC04629
:1006100038000020300000203400002080B582B077
:1006200000AF7860054B7A681A60C046034B1B68C0
:10063000002BFBD1C046BD4602B080BD3800002073
:1006400080B582B000AFFFF7EBFDFFF72FFE3C4B0C
:100650001800FFF79BFF00F03DFB00F0F9F90020C8
:1006600000F0C4FA052000F09BFABB1D00221A70AE
:100670000DE0BB1D1B780A21180000F0ADFC142012
:10068000FFF7CCFFBB1D1A78BB1D01321A70BB1DD2
:100690001B780F2BEDD900F0B9FC2A4B1B78002BEF
:1006A000FBD0284B00221A7000F0D2FA03001A0087
:1006B0003B00111C19701104090E59701202120E20
:1006C0009A703B0001229A563B1D1A803B1D002266
:1006D0009B5E002B06D1C0235B000221180000F0B6
:1006E000FFFBDAE73B1D00229B5E002B13DA3B1D6C
:1006F0001B88DAB2FB1D08321A70FB1D1B78FA2B1F
:1007000002D9FB1D00221A70FB1D1B780221180064
:1007100000F062FCC1E73B1D1B88DAB2FB1D07320B
:100720001A70FB1D1B780F2B02D9FB1D0F221A70AC
:10073000FB1D1B780221180000F04EFCADE7C046FF
:10074000701700003400002090B587B002AF396008
:100750001100FB1D021C1A70BB1D0A1C1A700E230F
:10076000FB1800221A70C04680231B023D4A190064
:10077000100000F06FFE031E012BF5D039488023D6
:100780009B010093002301223A2100F011FEC04694
:10079000344B0221180000F05DFE031EF8D0FB1D53
:1007A0001B78304A1900100000F038FEC0462D4B6F
:1007B0004021180000F04EFE031EF8D0802399045B
:1007C000BB1D1A78274890239B0100930B003A2108
:1007D00000F0EEFD0F23FB1800221A7026E0C04641
:1007E000204B0421180000F035FE031EF8D0BB1D7D
:1007F0001B78012B0BD90F23FB181B783A68D418F0
:10080000184B180000F01AFE0300237007E00E23B7
:10081000FC18144B180000F011FE030023700F2386
:10082000FB181A780F23FB1801321A700F23FA18DD
:10083000BB1D12781B789A42D1D3C046094B2021A8
:10084000180000F007FE031EF8D0064B2021180008
:1008500000F026FE0E23FB181B781800BD4605B0DD
:1008600090BDC0460054004080B584B002AF020085
:10087000FB1D1A70BB1D0A1C1A70C04680231B0288
:10088000294A1900100000F0E5FD031E012BF5D0E8
:1008900080235A04244880239B01009313000122E3
:1008A0003A2100F085FDC0461F4B0221180000F0E0
:1008B000D1FD031EF8D0FB1D1B781B4A1900100048
:1008C00000F0ACFDC046184B8021180000F0C2FDBE
:1008D000031EF8D080239A041348002300931300CA
:1008E00001223A2100F064FDC0460F4B022118009E
:1008F00000F0B0FD031EF8D0BB1D1B780A4A19009A
:10090000100000F08BFDC046074B2021180000F0BE
:10091000A1FD031EF8D0044B2021180000F0C0FDFB
:10092000C046BD4602B080BD0054004090B585B0C1
:1009300000AF040008001100FB1D221C1A70BB1D33
:10094000021C1A707B1D0A1C1A700F23FC1819490F
:10095000FB1D1B7801221800FFF7F6FE0300237031
:100960007B1D1B78002B09D00F23FB180F22B91811
:10097000BA1D097812780A431A700DE0BB1D1B7866
:100980005BB2DB435BB20F22BA18127852B213404B
:100990005AB20F23FB181A700F23FB181A78FB1D8D
:1009A0001B7811001800FFF75FFFC046BD4605B079
:1009B00090BDC0463C00002080B500AF0F4B1B78B7
:1009C000002B01D1002315E0002201212A20FFF78E
:1009D000ADFF6420FFF722FE094B012219000B2016
:1009E000FFF7B2FE031E01D0012303E0034B0022F8
:1009F0001A7000231800BD4680BDC0463500002097
:100A00003C00002080B500AF0F4B1B78002B01D0BD
:100A1000002316E0012201212A20FFF787FF64202E
:100A2000FFF7FCFD094B012219000B20FFF78CFE9C
:100A3000031E012B01D0012303E0034B01221A7096
:100A400000231800BD4680BD350000203C0000207A
:100A500080B58AB000AF80239B020121180000F00E
:100A6000C1FB8023DB030121180000F0BBFB8023C6
:100A70009B030121180000F0F5FB2023FB18032243
:100A80001A602023FB1802221A712023FB1801226E
:100A90009A712023FB1800225A712023FB183B4A2D
:100AA0001900100000F008FD384B01220021180049
:100AB00000F09AFD354B01220121180000F094FD51
:100AC0002023FB180C221A602023FB1800221A7125
:100AD0002023FB180122DA712023FB1803225A710C
:100AE0002023FA189023DB051100180000F0E4FC25
:100AF0003B1D00225A613B1D00225A603B1DAB2268
:100B00001A613B1D00229A603B1D00229A613B1D29
:100B10000022DA603B1D1E4A1A603B1D1D4A190067
:100B2000100000F0BFFB1B4B0121180000F022FC5D
:100B30003220FFF773FD184B012219000D20FFF73B
:100B400003FE031E5A2B01D001231BE001220221C8
:100B50002B20FFF7EBFE012229212A20FFF7E6FEDA
:100B60000D4B012219000B20FFF7EEFD031E012B98
:100B700004D00A4B00221A70022303E0074B012223
:100B80001A7000231800BD460AB080BD001400484A
:100B90000A021000005400403C00002035000020F4
:100BA00080B582B000AF0200FB1D1A70FFF704FF92
:100BB000031E01D0012314E0002238212A20FFF770
:100BC000B5FEFB1D1B78DB00DBB2012219002A20D9
:100BD000FFF7ACFEFFF716FF031E01D0032300E072
:100BE00000231800BD4602B080BDC04680B582B06B
:100BF00000AF0200FB1D1A70FFF7DEFE031E01D0DE
:100C0000012320E000223E212A20FFF78FFEFB1D5A
:100C10001B78002B02D0012B06D00BE00122022111
:100C20002A20FFF783FE07E0012228212A20FFF770
:100C30007DFE01E0022306E0FFF7E4FE031E01D083
:100C4000032300E000231800BD4602B080BDC0466B
:100C500080B584B000AF0823FB18032219000120DF
:100C6000FFF772FD0823FB181B785AB23B1D1A7060
:100C70000823FB185B785AB23B1D5A700823FB18F7
:100C80009B785AB23B1D9A700C23FB183A1D1188B1
:100C9000198092789A700C23FA1800231178FF209B
:100CA0000140FF2083430B435178FF20014009029C
:100CB000064803400B439278FF210A40120404497E
:100CC0000B4013431800BD4604B080BDFF00FFFF7A
:100CD000FFFF00FF80B592B000AF80239B0201218F
:100CE000180000F07FFA80235B010121180000F05A
:100CF00099FA0121012000F075FA4023FB18A02287
:100D00001A604023FB1802221A714023FB180022AC
:100D10009A714023FB1803225A714023FA1890233A
:100D2000DB051100180000F0C7FB2C23FB18102274
:100D30009A812C23FB1801221A812C23FB180222F2
:100D4000DA802C23FB18E022D2009A802C23FB1897
:100D50008022D2011A802C23FB180022DA812C2356
:100D6000FB18822252005A802C23FB18802292000A
:100D70005A812C23FB181D4A1900100000F064F959
:100D80001A4B01220221180000F002FA174B012130
:100D9000180000F0DDF93B0010229A603B000022B1
:100DA0009A62134A3B005A603B000022DA613B0022
:100DB00080225A613B0000221A623B000D4A1A60F1
:100DC0003B0000229A613B0000221A613B00802216
:100DD00092015A623B00084A1900100000F056FCCC
:100DE00000F014F9C046BD4612B080BD003001408D
:100DF000800000200C3001403000024080B584B0FB
:100E000000AF0023FB60334B0021180000F07CFC96
:100E10000023BB6007E0304ABB68D31800221A7079
:100E2000BB680133BB60BB68032BF4DD04237B602C
:100E300030E02A4BFA689200D35C202252421343DE
:100E4000D9B2254A7B68D3180A1C1A707B68013313
:100E50002249FA6892008A18013211781E4AD15448
:100E60007B6802331D49FA6892008A1802321178B1
:100E7000194AD1547B6803331849FA6892008A18DA
:100E800003321178144AD154FB680133FB607B684C
:100E900004337B607B68432BCBDD44233B6007E05E
:100EA0000D4A3B68D318FF221A703B6801333B6040
:100EB0003B68472BF4DD074B4821180000F042FC4B
:100EC000044B0121180000F01FFCC046BD4604B0D1
:100ED00080BDC0463000024080000020400000205D
:100EE00080B584B000AF0200BB1D1A807B1D0A1CB8
:100EF0001A707B1D1B781F2B02D97B1D1F221A70B5
:100F00000E23FB1800221A8059E0BB1D1A880E23FD
:100F1000FB181B881A4113000122134026D00E2310
:100F2000FB181A887B1D1B781F210B40D9B2294B57
:100F30009200D1540E23FB181B88264A9B00D3181D
:100F40000133FF221A700E23FB181B88214A9B00D5
:100F5000D3180233FF221A700E23FB181B881D4A78
:100F60009B00D3180333FF221A7021E00E23FB18D5
:100F70001A88184B92000021D1540E23FB181B88AD
:100F8000144A9B00D318013300221A700E23FB1859
:100F90001B88104A9B00D318023300221A700E23BC
:100FA000FB181B880B4A9B00D318033300221A70CE
:100FB0000E23FB181A880E23FB1801321A800E2309
:100FC000FB181B880F2BA0D9FFF718FFC046BD46A2
:100FD00004B080BD4000002080B582B000AF0200A8
:100FE000FB1D1A70BB1D0A1C1A70FB1D1B78012209
:100FF0009A4013009AB2BB1D1B7819001000FFF72E
:101000006FFFC046BD4602B080BDC04680B582B00D
:1010100000AFBB1D00221A800AE0BB1D1A88094BD5
:1010200092000021D154BB1D1A88BB1D01321A80C9
:10103000BB1D1B880F2BF0D9FFF7E0FEC046BD4655
:1010400002B080BD4000002080B584B000AF786061
:1010500039600E23FB1800221A800E23FB187A68D1
:1010600012881A800E23FB180E22BA181188C1228A
:1010700092010A401A803B681A883B68DB89134357
:101080009AB23B68DB8813439AB23B681B891343CF
:101090009AB23B685B8913439AB23B689B891343BE
:1010A00099B20E23FB180E22BA1812880A431A802E
:1010B0007B680E22BA1812881A800E23FB187A68F1
:1010C00092881A800E23FB180E22BA1812881E4925
:1010D0000A401A803B6899880E23FB180E22BA1822
:1010E00012880A431A807B680E22BA1812889A80E6
:1010F0003B681A8A7B681A820E23FB187A6812886A
:101100001A800E23FB180E22BA18128804218A4373
:101110001A803B6859880E23FB180E22BA181288D1
:101120000A431A807B680E22BA1812881A807B68DC
:101130009B8B9BB2054A13409AB27B689A83C04648
:10114000BD4604B080BDC046FFF0FFFFFFF7FFFFC4
:1011500080B582B000AF78600A00FB1C1A70FB1CDF
:101160001B78002B08D07B681B889BB2402213435E
:101170009AB27B681A8007E07B681B889BB240228A
:1011800093439AB27B681A80C046BD4602B080BDC8
:1011900080B582B000AF786008001100BB1C021C53
:1011A0001A807B1C0A1C1A707B1C1B78002B09D030
:1011B0007B689B889AB2BB1C1B8813439AB27B68DE
:1011C0009A800AE07B689B889BB2BA1C1288D24343
:1011D00092B213409AB27B689A80C046BD4602B074
:1011E00080BDC04680B582B000AF78600A00FB1CAD
:1011F0001A70FB1C1B78002B06D0094B084A51695A
:101200007A680A435A6106E0054B054A52697968D3
:10121000C9430A405A61C046BD4602B080BDC046BF
:101220000010024080B582B000AF78600A00FB1C5D
:101230001A70FB1C1B78002B06D0094B084A9169D9
:101240007A680A439A6106E0054B054A9269796813
:10125000C9430A409A61C046BD4602B080BDC0463F
:101260000010024080B582B000AF78600A00FB1C1D
:101270001A70FB1C1B78002B06D0094B084AD16959
:101280007A680A43DA6106E0054B054AD269796853
:10129000C9430A40DA61C046BD4602B080BDC046BF
:1012A0000010024080B584B000AF78603960002340
:1012B000FB607B681B68012293431A007B681A60FD
:1012C0007B681B68FB60FB68274A1340FB603B6838
:1012D0005A683B689B681B021343FA681343FB6020
:1012E0007B68FA681A603B681B68204A1A407B6872
:1012F0001A617B681B6801221A437B681A6000230D
:10130000FB607B68FA689A607B68FA68DA603B6821
:101310009A693B681B691343FB607B68FA689A60B3
:101320007B689B68802212021A437B689A603B6844
:10133000DB68FB607B681A68FB681A437B681A608D
:101340007B685B68FB60FB68094A1340FB603B6895
:101350005B69FA681343FB607B68FA685A60C046B1
:10136000BD4604B080BDC046FFE0CF00FFFFFFF0E8
:10137000FF7FFF0780B582B000AF78600A00FB1CDA
:101380001A70FB1C1B78002B06D07B681B6801229F
:101390001A437B681A6006E07B681B68012293434E
:1013A0001A007B681A60C046BD4602B080BDC046C8
:1013B00080B586B000AFF860080011007B600A239A
:1013C000FB18021C1A800923FB180A1C1A70002340
:1013D0007B61FB685B687B617B690F4A13407B61C3
:1013E0000A23FB181B889B059A0D0923FB181B7801
:1013F0001904FF231B040B401A437B681A433B6A02
:1014000013437A6913437B61FB687A695A60C0466B
:10141000BD4606B080BDC046009800FC80B582B0D5
:1014200000AF78600A00FB1C1A70FB1C1A787B68FE
:101430009A62C046BD4602B080BDC04680B582B04B
:1014400000AF78607B685B6ADBB21800BD4602B013
:1014500080BDC04680B584B000AF7860396000239D
:10146000BB600F23FB1800221A707B689B69BB606E
:10147000BB683A681340BB60BB68002B04D00F23E5
:10148000FB1801221A7003E00F23FB1800221A70C8
:101490000F23FB181B781800BD4604B080BDC04662
:1014A00080B582B000AF786039607B683A68DA61F5
:1014B000C046BD4602B080BD80B586B000AF786042
:1014C000396000237B6100233B610023FB60002324
:1014D0007B6181E001227B699A4013003B613B689C
:1014E0001B683A691340FB60FA683B699A4270D105
:1014F0003B681B79012B03D03B681B79022B38D149
:101500007B689B687A695200032191400A00D243AC
:101510001A407B689A607B689A683B685B7919001F
:101520007B695B0099400B001A437B689A607B687B
:101530009B889BB27A691204120C012191400A0027
:1015400092B2D24392B213409AB27B689A807B687F
:101550009B889BB21AB23B689B7919007B691B047C
:101560001B0C99400B001BB213431BB29AB27B6851
:101570009A807B681B687A695200032191400A00B7
:10158000D2431A407B681A607B681A683B681B79F3
:1015900019007B695B0099400B001A437B681A6055
:1015A0007B68DB687A691204120C520003219140B7
:1015B0000A00D2431A407B68DA607B68DA683B68CD
:1015C000DB7919007B695B0099400B001A437B684B
:1015D000DA607B6901337B617B690F2B00D879E787
:1015E000C046BD4606B080BD80B584B000AF78600F
:1015F00008001100BB1C021C1A807B1C0A1C1A70FC
:101600000023FB600023BB607B1C1A78BB1C1B887B
:1016100007210B409B009A401300FB60BB1C1B88FA
:10162000DB089BB21800BB1C1B88DB089BB21A00AE
:101630007B6808329200D358BA1C128807210A40EE
:1016400092000F2191400A00D2431A4011007B689A
:10165000020008329200D150BB1C1B88DB089BB2F1
:101660001A007B6808329200D258FB681343BB60B3
:10167000BB1C1B88DB089BB21A007B6808329200F7
:10168000B968D150C046BD4604B080BD80B584B0B5
:1016900000AF786039600023FB607B681B68FB60EB
:1016A000FB68184A1340FB603B689A683B681B6AFA
:1016B0001A433B681B691A433B685B691A433B68E2
:1016C0009B691A433B68DB691A433B685B6A1A43B0
:1016D0003B689B6A1343FA681343FB607B68FA68B4
:1016E0001A603B68DA687B685A603B681A687B68F6
:1016F0009A603B685A687B68DA60C046BD4604B0B1
:1017000080BDC0460F80FFFF80B582B000AF78601B
:101710000A00FB1C1A70FB1C1B78002B06D07B6890
:101720001B6801221A437B681A6005E07B681B680E
:10173000034A1A407B681A60C046BD4602B080BDAD
:10174000FEFF000080B582B000AF78600A00BB1CCD
:101750001A80BB1C1A887B685A60C046BD4602B01E
:1017600080BDC0460E4B70B500251E000D4CE41A1E
:10177000A410A54204D0AB00F35898470135F8E710
:1017800000F016F8084B00251E00084CE41AA410BF
:10179000A54204D0AB00F35898470135F8E770BD77
:1017A000C8170008C8170008C8170008CC17000899
:1017B000F8B5C046F8BC08BC9E467047F8B5C046B0
:0817C000F8BC08BC9E4670470E
:0417C800E90000082C
:0417CC00C100000850
:1017D000006CDC02000000000000000001020304B5
:0417E00006070809E7
:040000050800045D8E
:00000001FF
