:020000040800F2
:1000000000180020CD0300087D03000885030008C8
:1000100000000000000000000000000000000000E0
:100020000000000000000000000000008D03000838
:100030000000000000000000950300089124000863
:100040001D0400081D0400081D0400081D0400080C
:100050001D0400081D040008A90300081D04000871
:100060001D0400081D0400081D0400081D040008EC
:100070001D0400081D0400081D040008B503000845
:10008000C10300081D040008000000001D04000852
:100090001D0400081D0400081D0400081D040008BC
:1000A0001D0400081D0400081D0400081D040008AC
:1000B0001D040008000000001D0400089D03000846
:1000C00010B5064C2378002B07D1054B002B02D02E
:1000D000044800E000BF0123237010BD2001002070
:1000E00000000000A871000808B5044B002B03D0E5
:1000F0000348044900E000BF08BDC04600000000FE
:10010000A871000824010020002934D00123002216
:1001100010B488422CD301242407A14204D2814286
:1001200002D209011B01F8E7E400A14204D2814296
:1001300002D249005B00F8E7884201D3401A1A4313
:100140004C08A04202D3001B5C0822438C08A0424A
:1001500002D3001B9C082243CC08A04202D3001B00
:10016000DC082243002803D01B0901D00909E3E77A
:10017000101C10BC7047002801D00020C04307B4F9
:10018000024802A14018029003BDC04619000000B9
:100190000029F0D003B5FFF7B9FF0EBC4243891A1E
:1001A0001847C0467047C04680B500AF1B4B1B4A7E
:1001B000126801210A431A60184B184A5168184AFC
:1001C0000A405A60154B154A1168164A0A401A60CF
:1001D000124B124A1168144A0A401A600F4B0F4A18
:1001E0005168124A0A405A600C4B0C4AD26A0F21DD
:1001F0008A43DA62094B094A116B0D4A0A401A63B5
:10020000064B064A516B0B4A0A405A63034B0022C5
:100210009A6000F085F8BD4680BDC04600100240DF
:100220000CB8FF80FFFFF6FEFFFFFBFFFF7FC0FF64
:10023000ACFEFFFFFEFFFEFF80B584B000AF0023E1
:10024000FB600023BB6000237B6000233B602E4BE0
:100250005A680C231340FB60FB68042B0CD002D8B7
:10026000002B05D039E0082B0AD00C2B31D034E01C
:10027000264B274A1A6034E0244B254A1A6030E0A6
:10028000214B5A68F0239B031340BB601E4B5A68F6
:10029000C0235B0213407B60BB689B0C0233BB60D6
:1002A0007B68002B05D1BB681A4A5A43174B1A606A
:1002B00017E0154BDA6A0F23134001333B601448F3
:1002C0003968FFF721FF031CBA685A430F4B1A60C5
:1002D00007E00E4B104A1A6003E00C4B0C4A1A6000
:1002E000C046094B5A68F02313401B090B4AD35CE4
:1002F000DBB2FB60054B1A68FB68DA40034B1A60FF
:10030000BD4604B080BDC046001002400000002081
:1003100000127A0000093D00006CDC02040000209D
:1003200080B500AF134B11221A60134B124A52686A
:100330005A60114B104A52685A600F4B0E4A526B6A
:10034000802149020A435A63C0460B4B5A6B8023F3
:100350009B021340F9D0084B074A526803218A4395
:100360005A60054B044A526803210A435A60BD464D
:1003700080BDC046002002400010024080B500AFA2
:10038000BD4680BD80B500AFFEE7C04680B500AF7A
:10039000BD4680BD80B500AFBD4680BD80B500AF15
:1003A00004F07CFBBD4680BD80B500AF01F00EFDC2
:1003B000BD4680BD80B500AF01F09CFCBD4680BD50
:1003C00080B500AF01F02CFCBD4680BD0D488546D0
:1003D000002103E00C4B5B58435004310B480C4B9D
:1003E00042189A42F6D30B4A02E00023136004320B
:1003F000094B9A42F9D3FFF7D7FE06F085FA02F0CF
:100400007BF8FEE700180020B4750008000000200B
:100410002001002020010020E80E0020FEE700005F
:1004200080B584B000AF78600A1CFB1C1A707A6833
:100430008423D3585A1C7F231340FB607A6880239F
:10044000D258FB689A4201D101230BE07A688423D9
:10045000D3587A68F91C0978D1547A688423F968EA
:10046000D1500023181CBD4604B080BD80B582B0B9
:1004700000AF786039607A688023D2587968842325
:10048000CB589A4201D1012311E07A688023D358D6
:100490007A68D25C3B681A707A688023D3585A1CF9
:1004A0007F23111C19407A688023D1500023181C27
:1004B000BD4602B080BDC04680B582B000AF786056
:1004C0007A688423D25879688023CB589A4207D31C
:1004D0007A688423D25879688023CB58D31A07E0EE
:1004E0007A688423D25879688023CB58D31A803312
:1004F000181CBD4602B080BD80B500AFBD4680BDB2
:1005000080B582B000AF021CFB1D1A70BD4602B060
:1005100080BDC04680B500AFBD4680BD80B500AF90
:10052000BD4680BD80B500AFBD4680BD80B582B000
:1005300000AF0F4B1A68BB1D1A80BB1DBA1D128875
:1005400008210A431A800A4BBA1D12881A60084B08
:100550001A68BB1D1A80BB1DBA1D128804210A43EC
:100560001A80034BBA1D12881A60BD4602B080BDC6
:10057000405C004080B582B000AF0A4B1A68BB1DDA
:100580001A80BB1DBA1D128804218A431A80054BAC
:10059000BA1D12881A60034BBF2212021A60BD46B0
:1005A00002B080BD405C004080B584B000AF021C4A
:1005B000FB1D1A70FB1D1B78072B03D0414BFA1D46
:1005C00012781A703F4B1B78DBB2052B00D972E012
:1005D0009A003D4BD3181B689F463C4B1B68002B71
:1005E00005D1FFF7C7FF374B06221A7067E0354B7E
:1005F00005221A7063E0FFF7BDFF324B04221A7028
:10060000324B01221A605AE02E4B02225A702D4BB7
:1006100003221A7053E02B4B5B78DBB2013BDAB25A
:10062000284B5A70274B5B78DBB2002B03D1254B4C
:1006300004221A7043E042E0254B1A683B1C0E333B
:100640001A803B1C0E333A1C0E32128810210A43CA
:100650001A801F4B3A1C0E3212881A60194B052261
:100660001A70184B0A225A7029E0164B5B78DBB2DD
:10067000013BDAB2134B5A70124B5B78DBB2002BA2
:1006800018D1134B1A683B1C0E331A803B1C0E33D7
:100690003A1C0E32128810218A431A800C4B3A1CE5
:1006A0000E3212881A60074B06221A70074B00227E
:1006B0001A6004E003E0034B06221A70C046BD46F0
:1006C00004B080BDD0010020787400083C010020F7
:1006D000405C004080B582B000AF021C3960FB1D59
:1006E0001A703B6812221A80024B181CBD4602B0D9
:1006F00080BDC0469074000880B582B000AF021C77
:100700003960FB1D1A703B6804221A80024B181CCA
:10071000BD4602B080BDC046A474000880B582B05A
:1007200000AF021C3960FB1D1A700649064A3B687F
:10073000081C111C1A1C03F02FF9034B181CBD4692
:1007400002B080BDC07100085805002080B582B09D
:1007500000AF021C3960FB1D1A700649064A3B684F
:10076000081C111C1A1C03F017F9034B181CBD467A
:1007700002B080BDE47100085805002080B582B049
:1007800000AF021C3960FB1D1A703B681A221A80E8
:10079000024B181CBD4602B080BDC046440000207C
:1007A00080B582B000AF021C3960FB1D1A7006498B
:1007B000064A3B68081C111C1A1C03F0EDF8034B99
:1007C000181CBD4602B080BDF87100085805002015
:1007D00080B582B000AF021C3960FB1D1A7006495B
:1007E000064A3B68081C111C1A1C03F0D5F8034B81
:1007F000181CBD4602B080BD0472000858050020D8
:1008000080B584B000AF104B1B68FB600F4B1B68BA
:10081000BB600F4B1B687B60FA687B68D318FB607A
:10082000FB68002B0DD0FA680A4B101C191C08221B
:1008300000F014F8BA68084B101C191C042200F0D0
:100840000DF8BD4604B080BDACF7FF1FB0F7FF1F29
:10085000B4F7FF1F460000205600002080B586B088
:1008600000AFF860B960FB1D1A703B1C1733002203
:100870001A703B1C173300221A702FE0FB681B0F05
:10088000092B0CD83B1C17331B785B00BA68D318B4
:10089000FA68120FD2B23032D2B21A700BE03B1C9F
:1008A00017331B785B00BA68D318FA68120FD2B2FC
:1008B0003732D2B21A70FB681B01FB603B1C173346
:1008C0001B785B000133BA68D31800221A703B1CF6
:1008D00017331A783B1C173301321A703A1C17323F
:1008E000FB1D12781B789A42C8D3BD4606B080BD66
:1008F00080B582B000AF786080231B04181C0121F2
:1009000005F06EFB002005F019FB00F01BF8BD465A
:1009100002B080BD80B584B000AF78603B1C0C3362
:100920001F221A703B1C0C3301225A703B1C0C33E3
:1009300001229A703B1C0C33181C05F06FFBBD465E
:1009400004B080BD80B500AF80231B05181C0121B9
:1009500005F046FB80239B05181C05F0BDFF012018
:1009600005F09EFF012005F07FFFBD4680BDC0461B
:1009700090B585B000AF3B1C0A3306221A803B1CA1
:10098000083306221A803B1C0E3300221A80BB1D3E
:1009900000221A803B1D00221A803B1C0C330122CE
:1009A00052421A80BC4A3B1C0A3312881A80BB4A46
:1009B0003B1C083312881A803B1C0A331B88B84A38
:1009C00093424DD0B74A934203D0002B00D1F2E0BE
:1009D0009EE13B1C08331B88002B0ED1AE4B181C2C
:1009E00005F08EFD031C1A1CBB1C1A80BB1C1B8847
:1009F000042B34D0BB1C1B8899E13B1C08331A889C
:100A0000A74B9A421ED1A44B181C05F079FD031C7C
:100A10001A1CBB1C1A80BB1C1B88042B02D0BB1CDD
:100A20001B8884E19D4B181C002105F0A7FD031CC9
:100A30001A1CBB1C1A80BB1C1B88042B0FD0BB1CB0
:100A40001B8874E100F012FA031C1A1CBB1C1A80EC
:100A5000BB1C1B88042B02D0BB1C1B8867E165E113
:100A60003B1C08331B88002B00D071E03B1C0E336D
:100A700000221A8048E08C4B1B889AB23B1C0E3334
:100A800019888A4B4900CB5A9A4205D13B1C0C333A
:100A90003A1C0E3212881A803B1C0E331A883B1CFB
:100AA0000C3300215B5E9A4227D03B1C0E331A8820
:100AB0007E4B5200D25A3C1D7D4B101C191C00F07D
:100AC0003FF9031C23803B1D1B88012B15D03B1CC9
:100AD0000E331A88754B5200D25A754B1B88BC1DB9
:100AE000101C191C00F050FA031C2380BB1D1B882E
:100AF000042B02D0BB1D1B8819E13B1C0E331A8846
:100B00003B1C0E3301321A803B1C0E331B88242BF6
:100B1000B1D9614B181C002105F030FD031C1A1CD3
:100B2000BB1C1A80BB1C1B88042B02D0BB1C1B885F
:100B3000FDE05A4B181C05F0E3FC031C1A1CBB1CFF
:100B40001A80BB1C1B88042B34D0BB1C1B88EEE016
:100B50003B1C08331A88534B9A421ED14F4B181C2A
:100B600005F0CEFC031C1A1CBB1C1A80BB1C1B8886
:100B7000042B02D0BB1C1B88D9E0474B181C00215A
:100B800005F0FCFC031C1A1CBB1C1A80BB1C1B8838
:100B9000042B0FD0BB1C1B88C9E000F067F9031CB5
:100BA0001A1CBB1C1A80BB1C1B88042B02D0BB1C4C
:100BB0001B88BCE0BAE03B1C08331B88002B0DD11E
:100BC00000F054F9031C1A1CBB1C1A80BB1C1B88A8
:100BD000042B00D19BE0BB1C1B88A8E03B1C083306
:100BE0001A88304B9A420FD12C4B181C05F088FC08
:100BF000031C1A1CBB1C1A80BB1C1B88042B00D1B5
:100C000085E0BB1C1B8892E03B1C0E3300221A803F
:100C100059E0284B1B889AB23B1C0E331988234B92
:100C20004900CB5A9A4205D13B1C0C333A1C0E3278
:100C300012881A803B1C0E331A883B1C0C3300218F
:100C40005B5E9A4238D03B1C0E331A88174B520019
:100C5000D25A3C1D164B101C191C00F071F8031CD5
:100C600023803B1D1B88012B26D03B1C0E331A888A
:100C70000E4B5200D25A0E4B1B88BC1D101C191C67
:100C800000F082F9031C2380BB1D1B88042B13D0AA
:100C9000BB1D1B884BE0C04600780008007C0008A4
:100CA000EEEE0000FFFF0000067800088004002040
:100CB00040010020067C00083B1C0E331A883B1CB8
:100CC0000E3301321A803B1C0E331B88242BA0D913
:100CD000194B181C002105F051FC031C1A1CBB1CED
:100CE0001A80BB1C1B88042B02D0BB1C1B881EE077
:100CF000124B181C05F004FC031C1A1CBB1C1A80A8
:100D0000BB1C1B88042B02D0BB1C1B880FE00DE012
:100D100000F0ACF8031C1A1CBB1C1A80BB1C1B88FF
:100D2000042B02D0BB1C1B8801E0C0460423181C06
:100D3000BD4605B090BDC046007C000800780008A4
:100D400090B587B000AF021C3960BB1D1A803B1CF8
:100D50000E3300221A803B1C0C33274A1A803B1C9E
:100D6000163301221A80254B3B61244BBB603C1C8F
:100D70000E34002000F0AEF8031C23803B1C0E3321
:100D80001B88AB2B01D1AB2331E03B1C0E331B88FE
:100D90001B4A9B189B02BB603B1C0E331B88013314
:100DA0009B02184A9B183B6119E03A693B1C0C33C3
:100DB00012881A803A1C0C32BB1D12881B889A427A
:100DC0000AD13B69023B1B889AB23B681A803B1CE4
:100DD000163300221A8007E03B69043B3B61BB6885
:100DE0009A1C3B699A42E0D33B1C16331B88181CA3
:100DF000BD4607B090BDC046555500000000010833
:100E00001E000200FE77000890B585B000AF0A1CF6
:100E1000BB1D011C19803B1D1A803B1C0E33002298
:100E20001A803C1C0E34BB1D1A883B1D1B88101CED
:100E3000191C00F0A9F8031C23803B1C0E331B88EF
:100E4000802B0BD13C1C0E34BB1D1A883B1D1B880C
:100E5000101C191C00F00AF9031C23803B1C0E33E4
:100E60001B88181CBD4605B090BDC04690B583B028
:100E700000AFFB1D04221A70FC1D144B181C05F05A
:100E80003FFB031C2370FB1D1B78042B02D0FB1DB2
:100E90001B7817E0FC1D0D4B181C002105F06EFBA4
:100EA000031C2370FB1D1B78042B02D0FB1D1B7839
:100EB00008E0FC1D064B181C05F022FB031C2370E8
:100EC000FB1D1B78181CBD4603B090BD00780008C0
:100ED000007C000880B584B000AF021CFB1D1A70B6
:100EE0003B1C0E3306221A803B1C0C3306221A8050
:100EF000224A3B1C0E3312881A80214A3B1C0C33B9
:100F000012881A80FB1D1B78002B21D0012B2FD1BA
:100F10003B1C0C331B88002B09D13B1C0E331A8859
:100F2000184B9A4201D1002323E0012321E03B1C0E
:100F30000E331B88002B09D13B1C0C331A88114B34
:100F40009A4201D1012314E0002312E0AB2310E008
:100F50003B1C0E331B88002B01D1002309E03B1CF6
:100F60000C331B88002B01D1012302E0AB2300E0EE
:100F70000023181CBD4604B080BDC04600780008A0
:100F8000007C0008EEEE000090B587B000AF0A1CB0
:100F9000BB1D011C19803B1D1A803B1C133304220E
:100FA0001A703B1C103300221A802C4B7B612C4B97
:100FB000FB603C1C10340120FFF78CFF031C2380D6
:100FC0003B1C10331B88AB2B01D1AB2341E03B1CF6
:100FD00010331B88234A9B189B027B613B1C1033F8
:100FE0001B8801339B02204A9B18FB602CE07B6925
:100FF0001B68013325D13C1C13347A693B1D1B88C7
:10100000101C191C05F0BAFA031C23703B1C133387
:101010001B78042B04D03B1C13331B789BB218E0C5
:101020007B699A1C3C1C1334BB1D1B88101C191CAB
:1010300005F0A4FA031C23703B1C13331B789BB2EE
:1010400007E07B6904337B617A69FB689A42CED3FF
:101050008023181CBD4607B090BDC04600000108A3
:10106000FF0701081E000200FE77000890B589B056
:1010700000AF0A1CBB1D011C19803B1D1A803B1CC4
:10108000153304221A70674BFB61674BBB613B1C35
:10109000123300221A803B1C163300221A803B1C9C
:1010A000103300221A803B1C0E3300221A803C1C95
:1010B00012340020FFF70EFF031C23803B1C123369
:1010C0001B88012B04D1594BFB61594BBB610BE0D1
:1010D0003B1C12331B88002B04D1554BFB61534B37
:1010E000BB6101E0AB2399E03C1C1534FA69514B1C
:1010F000101C191C05F042FA031C23703B1C15330D
:101100001B78042B04D03B1C15331B789BB285E065
:101110003C1C1034BB1D1A883B1D1B88101C191C5D
:10112000FFF732FF031C23803B1C10331B88042B6A
:1011300003D03B1C10331B8870E03B1C163300228D
:101140001A803DE03B1C16331A883B4B5200D35AA1
:10115000BA1D12889A422CD03B1C16331A88364B83
:101160005200D25A3C1C0E34344B101C191CFFF791
:10117000E7FD031C23803B1C0E331B88012B18D07A
:101180003B1C16331A882C4B5200D25A2B4B1B880F
:101190003C1C1034101C191CFFF7F6FE031C2380A6
:1011A0003B1C10331B88042B03D03B1C10331B88C3
:1011B00034E03B1C16331A883B1C163301321A806C
:1011C0003B1C16331B88242BBCD93C1C1534BB6933
:1011D000181C05F095F9031C23703B1C15331B7874
:1011E000042B04D03B1C15331B789BB216E03C1C2F
:1011F0001534FB69181C002105F0C0F9031C23708D
:101200003B1C15331B78042B04D03B1C15331B7877
:101210009BB203E03B1C15331B789BB2181CBD46E8
:1012200009B090BDFF030108000001080078000824
:10123000007C0008EEEE0000800400204001002049
:1012400080B500AF0120012104F0ACFE0E4B0E4A28
:10125000126810210A431A600C480D490D4A0E4BC2
:1012600002F0C0FC0D4B1B78DBB201229343DAB2D3
:101270000A4B1A700A4A80230021D150084A84235D
:101280000021D150BD4680BD000001405C0200201D
:10129000280000209800002014000020D201002027
:1012A000D401002080B500AF0023181CBD4680BDCE
:1012B00080B500AF0023181CBD4680BD80B584B04A
:1012C00000AFF860B9607A60FB68222B10D10B4B3D
:1012D0001B78DBB21A1C0223134008D0074B1B7883
:1012E000DBB202229343DAB2044B1A70FFE7C04626
:1012F0000023181CBD4604B080BDC046D2010020AA
:1013000080B584B000AF786039603B68002B20D096
:101310000023FB6018E0224B1B687968FA688A1882
:101320001178204AD1541E4B1B685A1C1C4B1A6062
:101330001B4B1A6880231B019A4202D1184B0022D2
:101340001A60FB680133FB60FA683B689A42E2D39B
:1013500021E00023BB6018E0114B1B687968BA6874
:101360008A1811780F4AD1540D4B1B685A1C0C4B2C
:101370001A600B4B1A6880231B019A4202D1084B5A
:1013800000221A60BB680133BB607A68BB68D3185F
:101390001B78002BE0D10023181CBD4604B080BD93
:1013A00060010020E406002080B584B000AF7860C2
:1013B0003960204B1B78DBB21A1C0223134019D171
:1013C0001D4A80230021D1501B4A84230021D15083
:1013D000184B1B78DBB202221343DAB2154B1A709A
:1013E000144B1B78DBB204221343DAB2114B1A7090
:1013F00000231BE00F4B1B78DBB201221343DAB250
:101400000C4B1A700023FB600BE07A68FB68D31862
:101410001B78094A101C191CFFF702F8FB680133FE
:10142000FB60FA683B689A42EFD30023181CBD4664
:1014300004B080BDD2010020D401002080B584B06A
:1014400000AF7860144B1B78DBB201229343DAB211
:10145000114B1A70114B181CFFF72EF8031CBB60C0
:101460000023FB600AE07A68FB68D3180B4A101C63
:10147000191CFEF7FBFFFB680133FB60FA68BB68D1
:101480009A42F0D37A68BB68D31800221A70BB68FE
:10149000181CBD4604B080BDD2010020D40100203C
:1014A00090B587B002AF3960FB1D011C1970BB1DE0
:1014B0001A703B1C0E3300221A70C046404A80232B
:1014C0001B02101C191C04F0E9FE031C012BF5D0B3
:1014D0003B4B802292010092181C3A2101220023EA
:1014E00004F092FEC046364B181C022104F0D6FED2
:1014F000031C002BF7D0324AFB1D1B78101C191C53
:1015000004F0B2FEC0462E4B181C402104F0C6FE6B
:10151000031C002BF7D02A49BB1D1A7880239B049B
:10152000902080010090081C3A2104F06DFE3B1CC5
:101530000F3300221A7027E0C046214B181C0421EB
:1015400004F0ACFE031C002BF7D0BB1D1B78012B55
:101550000BD93B1C0F331B783A68D418184B181C56
:1015600004F090FE031C237007E03C1C0E34144B67
:10157000181C04F087FE031C23703B1C0F331A78E1
:101580003B1C0F3301321A703A1C0F32BB1D12780C
:101590001B789A42D0D3C046094B181C202104F076
:1015A0007DFE031C002BF7D0054B181C202104F0F6
:1015B0009BFE3B1C0E331B78181CBD4605B090BD2E
:1015C0000054004080B584B002AF0A1CFB1D011C12
:1015D0001970BB1D1A70C0462C4A80231B02101CB8
:1015E000191C04F05BFE031C012BF5D0274A802355
:1015F0005B04802189010091101C3A21012204F032
:1016000003FEC046214B181C022104F047FE031CB8
:10161000002BF7D01D4AFB1D1B78101C191C04F071
:1016200023FEC046194B181C802104F037FE031C12
:10163000002BF7D0154A80239B0400210091101C39
:101640003A21012204F0E0FDC046104B181C022193
:1016500004F024FE031C002BF7D00C4ABB1D1B78A2
:10166000101C191C04F000FEC046084B181C202159
:1016700004F014FE031C002BF7D0044B181C20218F
:1016800004F032FEBD4602B080BDC04600540040AA
:1016900090B585B000AFFB1D1870BB1D19707B1D88
:1016A0001A703C1C0F34FB1D1A78174B101C191CA8
:1016B0000122FFF7F5FE031C23707B1D1B78002B16
:1016C00009D03B1C0F33391C0F31BA1D0978127831
:1016D0000A431A700BE0BB1D1B78DB43DBB23A1CDC
:1016E0000F3212781340DAB23B1C0F331A70FB1D15
:1016F0001A783B1C0F331B78101C191CFFF762FF74
:10170000BD4605B090BDC046C403002080B500AF03
:101710000F4B1B78002B01D1002316E02A2001215A
:101720000022FFF7B5FF642000F0D4FE094B0B2028
:10173000191C0122FFF7B4FE031C002B01D001236A
:1017400003E0034B00221A700023181CBD4680BD25
:1017500042010020C403002080B500AF0F4B1B786E
:10176000002B01D0002316E02A2001210122FFF7DF
:101770008FFF642000F0AEFE094B0B20191C0122E4
:10178000FFF78EFE031C012B01D0012303E0034B66
:1017900001221A700023181CBD4680BD42010020A2
:1017A000C403002080B58AB000AF80239B02181CC0
:1017B000012104F0D9FB8023DB03181C012104F074
:1017C000D3FB80239B03181C012104F009FC3B1C64
:1017D000203303221A603B1C203302221A713B1C67
:1017E000203301229A713B1C203300225A713C4A5B
:1017F0003B1C2033101C191C04F082FD384B181CB4
:101800000021012204F018FE354B181C0121012291
:1018100004F012FE3B1C20330C221A603B1C2033C8
:1018200000221A713B1C20330122DA713B1C203349
:1018300003225A719023DA053B1C2033101C191C1B
:1018400004F05EFD3B1D00225A613B1D00225A60E0
:101850003B1DAB221A613B1D00229A603B1D0022FA
:101860009A613B1D0022DA603B1D1E4A1A601E4A27
:101870003B1D101C191C04F041FC1B4B181C0121C2
:1018800004F0A4FC322000F025FE184B0D20191C9A
:101890000122FFF705FE031C5A2B01D001231BE098
:1018A0002B2002210122FFF7F3FE2A202921012209
:1018B000FFF7EEFE0D4B0B20191C0122FFF7F0FD88
:1018C000031C012B04D00A4B00221A70022303E0F0
:1018D000074B01221A700023181CBD460AB080BDB8
:1018E000001400480A02100000540040C403002005
:1018F0004201002080B582B000AF021CFB1D1A70AF
:10190000FFF704FF031C002B01D0012313E00E207E
:1019100003210022FFF7BCFEFB1D1B780E20191CC3
:101920000122FFF7B5FEFFF717FF031C002B01D0C4
:10193000032300E00023181CBD4602B080BDC04652
:1019400080B582B000AF021CFB1D1A70FFF7DEFEEF
:10195000031C002B01D0012315E02A20382100228E
:10196000FFF796FEFB1D1B78DB00DBB22A20191C5B
:101970000122FFF78DFEFFF7EFFE031C002B01D0C5
:10198000032300E00023181CBD4602B080BDC04602
:1019900080B582B000AF021CFB1D1A70FFF7B6FEC7
:1019A000031C002B01D0012321E02A203E2100222C
:1019B000FFF76EFEFB1D1B78002B02D0012B06D01B
:1019C0000BE02A2002210122FFF762FE07E02A2015
:1019D00028210122FFF75CFE01E0022307E0FFF768
:1019E000BBFE031C002B01D0032300E00023181CC6
:1019F000BD4602B080BDC04680B584B000AF3B1C80
:101A000008330120191C0322FFF74AFD3B1C083351
:101A10001B78DAB23B1D1A703B1C08335B78DAB2D4
:101A20003B1D5A703B1C08339B78DAB23B1D9A7001
:101A30003B1C0C333A1D1188198092789A703A1C1D
:101A40000C3200231078FF210140FF2083430B4319
:101A50005078FF2101400902064803400B4391786A
:101A6000FF220A40120404490B401343181CBD46D0
:101A700004B080BDFF00FFFFFFFF00FF80B584B012
:101A800000AFFFF743FE2D2001210122FFF700FEEA
:101A90002E2001210122FFF7FBFD0120012104F08E
:101AA00081FA0020022104F03BF93B1C0833042298
:101AB0001A603B1C083300221A713B1C08330C22AD
:101AC0005A713B1C083301229A713B1C0833181CC5
:101AD00004F0EAFD3B1D06221A703B1D01229A709C
:101AE0003B1D181C04F09AFAFFF736FEBD4604B001
:101AF00080BDC04680B582B000AF021CFB1D1A70CD
:101B0000064BFA1D1278111C1F220A400121081CE5
:101B10009040021C1A60BD4602B080BD00E100E0AA
:101B200080B500AF0220FFF7E5FE0020FFF730FF91
:101B30000220FFF705FFFFF7A1FF00F0E3FB334BA7
:101B40001B78DBB2DB18DAB2314B1B78DBB2D3186F
:101B5000DAB2304B1A700120012104F041FA8023DF
:101B6000DB0500221A808023DB0530221A858023C2
:101B7000DB058022D205928A92B201210A4392B2F9
:101B80009A828023DB058022D205128892B201213D
:101B90000A4392B21A808023DB058022D205928903
:101BA00092B202210A4392B29A818023DB051A4A3B
:101BB0005A638023DB058022D205128C92B2012168
:101BC0000A4392B21A840F20FFF794FF02200121EA
:101BD00004F006FA114B00221A80104B30221A85AD
:101BE0000E4B0E4A928992B201210A4392B29A8117
:101BF0000A4B0A4A128A92B201218A4392B21A828D
:101C00001020FFF777FFBD4680BDC0468801002049
:101C1000CC010020CD010020307500000004004000
:101C200080B500AF2B4B2B4A128A92B201218A4316
:101C300092B21A82284B1B78DBB2002B28D1274B9B
:101C40001B78DAB2264B1B78DBB29A421AD3234BAD
:101C50001B78DBB21A1C224B1B78DBB2191C214B00
:101C60001B78DBB2CB189A420CDA1C4B1B78DBB228
:101C70001A1C1D4B5200D35A9BB2181C1F2100F096
:101C8000C7FA01E000F03EFB134B01221A701FE07F
:101C900000F038FB114B1B78DAB2144B1B78DBB227
:101CA000DBB2D318DAB20D4B1A700B4B00221A704C
:101CB0000A4B1B78DAB20E4B1B78DBB29A4207D381
:101CC000044B044A128892B201218A4392B21A80CC
:101CD000BD4680BD00040040C80300204401002030
:101CE00088010020CC0100208C010020430100204D
:101CF000CD01002080B500AF0C4B0C4A5269042185
:101D00000A435A61FFF778FE084B084A126804211B
:101D10000A431A608023DB058022D205128A92B220
:101D200002218A4392B21A82BD4680BD000401405E
:101D300090B583B000AF224B214A126804218A4338
:101D40001A608023DB055B6A7B601E4C1E4B1B7890
:101D5000DBB25B007868191CFEF7D6F9031C9BB256
:101D6000E362184B174A128A92B201218A4392B257
:101D70001A828023DB058022D205928A92B2012149
:101D80000A4392B29A820F4B0E4A928A92B2012172
:101D90000A4392B29A828023DB058022D205128800
:101DA00092B201210A4392B21A80064B054A128868
:101DB00092B201210A4392B21A80BD4603B090BD8F
:101DC0000004014000040040CD01002080B582B035
:101DD00000AFFFF711FE031C1A1C3B1C111C1970ED
:101DE0001104090E59701202120E9A70BB1D3A1C92
:101DF00012781A70BB1D1B787F2B04D8FB1DBA1DEF
:101E000012781A7004E0BB1D1A78FB1D52421A703A
:101E10005D4B1B78DBB2042B00D98FE09A005B4B43
:101E2000D3181B689F46FB1D1B78642B1ED980238B
:101E3000DB058022D205128892B201218A4392B238
:101E40001A80534B524A128892B201218A4392B2AD
:101E50001A80BB1D1B785BB2002B03DD4A4B0322AB
:101E60001A7003E0484B01221A7067E066E0FB1D20
:101E70001B78632B0ED8474B01221A70464B002269
:101E80001A70464B00221A70FFF752FF3E4B022297
:101E90001A7053E052E0FB1D1B78632B10D83D4BAA
:101EA000FF221A703E4B1B78DAB23B4B1A703B4B49
:101EB00001221A70FFF73CFF334B04221A703DE0F9
:101EC0003CE0BB1D1B785BB2642B17DD8023DB0578
:101ED0008022D205128892B201218A4392B21A80DE
:101EE0002B4B2B4A128892B201218A4392B21A805C
:101EF00000F008FA244B03221A701FE01EE0BB1DFD
:101F00001B785BB21A1C643217DA8023DB0580224F
:101F1000D205128892B201218A4392B21A801C4BD8
:101F20001B4A128892B201218A4392B21A8000F0B1
:101F3000E9F9154B01221A70FFE7C0468023DB0543
:101F40005A6A184B9A4218D98023DB058022D205A1
:101F5000928A92B201210A4392B29A828023DB05CF
:101F60008022D205128892B201210A4392B21A80CD
:101F700000F0C8F9044B00221A70042004F000FCA1
:101F8000BD4602B080BDC046C9030020A874000849
:101F9000000400404301002044010020C803002049
:101FA000CD010020C0FF3F0080B592B000AF80237C
:101FB0009B02181C012103F0D7FF80235B01181C32
:101FC000012103F0EFFF0120012103F0CDFF3B1CB5
:101FD0004033A0221A603B1C403302221A713B1C82
:101FE000403300229A713B1C403303225A719023E4
:101FF000DA053B1C4033101C191C04F081F93B1C12
:102000002C3310229A813B1C2C3301221A813B1C59
:102010002C330222DA803B1C2C33E022D2009A803F
:102020003B1C2C338022D2011A803B1C2C33002213
:10203000DA813B1C2C33822252005A803B1C2C3309
:10204000802292005A811E4A3B1C2C33101C191C02
:1020500003F0AEFE1A4B181C0221012203F04AFFC6
:10206000174B181C012103F025FF3B1C10229A601E
:102070003B1C00229A62134A3B1C5A603B1C002204
:10208000DA613B1C80225A613B1C00221A623B1C15
:102090000D4A1A603B1C00229A613B1C00221A6107
:1020A0003B1C802292015A62084A3B1C101C191CDE
:1020B00004F072FB00F026F9BD4612B080BDC046A8
:1020C00000300140100400200C300140300002407C
:1020D00080B582B000AFFB1D00221A70BB1D00222C
:1020E0001A70484B181C002104F092FB7B1D002243
:1020F0001A700EE0BB1D1B78434A0021D154BB1D52
:102100001A78BB1D01321A707B1D1A787B1D0132B3
:102110001A707B1D1B78032BECD93B1D00221A7013
:1021200048E0BB1D1B78FA1D1178384A89008A5C8B
:10213000202149420A43D1B2334AD154BB1D1A78F7
:10214000BB1D01321A70BB1D1B78FA1D12782F4976
:1021500092008A1851782C4AD154BB1D1A78BB1DA5
:1021600001321A70BB1D1B78FA1D127827499200A4
:102170008A189178244AD154BB1D1A78BB1D0132AC
:102180001A70BB1D1B78FA1D1278204992008A181C
:10219000D1781D4AD154BB1D1A78BB1D01321A706B
:1021A000FB1D1A78FB1D01321A703B1D1A783B1D6E
:1021B00001321A703B1D1B780F2BB2D9FB1C002279
:1021C0001A700EE0BB1D1B780F4A0021D154BB1DB5
:1021D0001A78BB1D01321A70FB1C1A78FB1C0132E5
:1021E0001A70FB1C1B78072BECD9064B181C4C21D2
:1021F00004F02CFB034B181C012104F009FBBD4625
:1022000002B080BD3000024010040020D003002046
:1022100080B584B000AF0A1CBB1D011C19807B1D5A
:102220001A707B1D1B781F2B02D97B1D1F221A7071
:10223000254B7A1D12781A703B1C0E3300221A802F
:1022400037E0BB1D1A883B1C0E331B881A41012343
:10225000134008D03B1C0E331B881C4A99001A4BB4
:102260001B688B501EE03B1C0E331A88174B9200E4
:102270000021D1543B1C0E331B88144A9B00D318F9
:1022800000225A703B1C0E331B88104A9B00D31847
:1022900000229A703B1C0E331B880C4A9B00D318FB
:1022A0000022DA703B1C0E331A883B1C0E330132BD
:1022B0001A803B1C0E331B880F2BC2D9FFF708FF77
:1022C000BD4604B080BDC046CC030020D003002032
:1022D00080B582B000AF0A1CFB1D011C1970BB1D2C
:1022E0001A70FB1D1B780122111C99400B1C9AB21D
:1022F000BB1D1B78101C191CFFF78AFFBD4602B0DE
:1023000080BDC04680B582B000AFBB1D00221A80E0
:102310001FE0BB1D1A88134B92000021D154BB1D36
:102320001B88104A9B00D31800225A70BB1D1B88C3
:102330000C4A9B00D31800229A70BB1D1B88094AC7
:102340009B00D3180022DA70BB1D1A88BB1D013216
:102350001A80BB1D1B880F2BDBD9FFF7B9FEBD46CA
:1023600002B080BDD0030020B0B582B000AF021C27
:102370003960FB1D1A70FB1D1B787F2B32D9304949
:10238000FB1D1B781A1C0F231340083B98082C4A8E
:10239000FB1D1B781C1C0F232340083B9B080633A6
:1023A0009B00D3185B68FA1D1278141C032222408C
:1023B000D200FF24251C95402A1CD2431A403B68BA
:1023C0009C01FF231C40FB1D1B781D1C03232B407D
:1023D000DB00251C9D402B1C1A43831D9B00CB1842
:1023E0005A6029E0174BFA1D127852B2920815492B
:1023F000F81D007840B28008C03080004158F81DB8
:102400000078041C03202040C000FF24251C8540C8
:10241000281CC043084039688C01FF210C40F91D7D
:1024200009780D1C03212940C900251C8D40291C59
:102430000143C0329200D150BD4602B0B0BDC0468B
:1024400000ED00E000E100E080B582B000AF786010
:102450007B685A1E0C4B9A4201D9012310E00B4BAA
:102460007A68013A5A6001235B42181C0321FFF786
:102470007BFF064B00229A60044B07221A60002360
:10248000181CBD4602B080BDFFFFFF0010E000E059
:1024900080B500AF0C4B1B68002B04D00A4B1B68A7
:1024A0005A1E094B1A60094B1B685A1C074B1A60CD
:1024B000064B1B68632B05D9054B01221A70034B91
:1024C00000221A60BD4680BD5C0400204801002047
:1024D0004C01002080B582B000AF7860054B7A686F
:1024E0001A60C046034B1B68002BFBD1BD4602B0EF
:1024F00080BDC0465C04002080B582B000AFFDF70F
:1025000053FEFDF799FE384B1B68181CFA2359013E
:10251000FDF7FAFD031C181CFFF796FF01235B4231
:10252000181C0021FFF720FF05235B42181C03F055
:10253000CBFDFEF785FE00F023FAFFF733F9FFF736
:1025400033FDFB1D00221A700DE0FB1D1B78181CCB
:102550000A21FFF7BDFE1E20FFF7BCFFFB1D1A7806
:10256000FB1D01321A70FB1D1B780F2BEDD9FFF7F5
:10257000C9FEFFF7D5FA1D4B1B78DBB2002B32D01A
:102580001A4B00221A701A4B1B78DBB21A1C042358
:1025900013400CD0164B1B78DBB204229343DAB203
:1025A000134B1A70134B181C0021FEF7A9FE104B99
:1025B0001B78DBB21A1C0223134014D00E4B1B787D
:1025C000002B0DD00C4B1B780C490D4A081C111C1C
:1025D0001A1C04F0C9F9094B181C0021FEF790FEE3
:1025E00000F0DCFAC7E7C6E7000000204C0100203D
:1025F000D2010020147200084D0100206004002068
:102600004472000880B584B000AF7860081C111CCB
:102610001A1CFB1C1870BB1C19707B1C1A703B1C0D
:102620000E33BA1C12781A8022E03B1C0E331B8832
:102630007A68D3181B78FA1C12789A4203D13B1C93
:102640000E331B881FE07B1C1B78FF2B09D13B1C22
:102650000E331B887A68D3181B78002B01D10C4BE2
:1026600011E03B1C0E331A883B1C0E3301321A80DA
:102670003B1C0E331A887B1C1978BB1C1B78CB18AB
:102680009A42D2DB024B181CBD4604B080BDC04646
:10269000FFFF000080B586B000AF7860FB1C1970AA
:1026A000BB1C1A703B1C173300221A703B1C1633DC
:1026B00002221A70BB1C1B78FF2B0FD17A68FB1CFF
:1026C0001B78101C00211A1CFF23FFF79BFF031C23
:1026D000D9B2BB1CFA1C12788A1A1A70FA1CBB1CDD
:1026E00012781B78D318DAB23B1C0E33013A1A70F9
:1026F0003B1C0D33FA1C12781A703A1C0D323B1C2D
:102700000E3312781B789A4200D985E03B1C0D33BA
:102710001B787A68D3181B782F2B00D879E03B1CE4
:102720000D331B787A68D3181B78392B00D970E0E9
:102730003A1C0D323B1C0E3312781B789A4207D19B
:102740003B1C0D331B787A68D3181B78303B13E1A0
:102750003B1C0D331B7801337A68D3181B782F2B61
:1027600013D93B1C0D331B7801337A68D3181B78BF
:10277000392B0AD83B1C16330A221A703B1C17331C
:102780003A1C0D3212781A7046E03B1C0D331B7850
:1027900001337A68D3181B78582B08D03B1C0D33B3
:1027A0001B7801337A68D3181B78782B0BD13B1C2C
:1027B000163310221A703B1C17333A1C0D32127854
:1027C00002321A7028E03B1C0D331B7801337A6803
:1027D000D3181B78422B08D03B1C0D331B780133D8
:1027E0007A68D3181B78622B0BD13B1C163302225C
:1027F0001A703B1C17333A1C0D32127802321A70D1
:102800000AE03B1C0D331B787A68D3181B78303BE9
:10281000B2E001235B42AFE000233B613B1C0F337E
:1028200000221A709CE03B1C17331A783B1C0F33B4
:102830001B78D3187A68D2183B1C0C3312781A70A4
:102840003B1C16331B780A2B1ED0102B36D0022BC4
:1028500000D07EE03B1C0C331B78302B04D03B1C9B
:102860000C331B78312B0DD13B1C16331A783B6986
:1028700053433B613B1C0C331A783B69D318303B04
:102880003B6166E03B6977E03B1C0C331B782F2BE8
:1028900012D93B1C0C331B78392B0DD83B1C16333B
:1028A0001A783B6953433B613B1C0C331A783B69F4
:1028B000D318303B3B614CE03B695DE03B1C0C3383
:1028C0001B782F2B12D93B1C0C331B78392B0DD8BE
:1028D0003B1C16331A783B6953433B613B1C0C335A
:1028E0001A783B69D318303B3B6131E03B1C0C3319
:1028F0001B78602B12D93B1C0C331B78662B0DD830
:102900003B1C16331A783B6953433B613B1C0C3329
:102910001A783B69D318573B3B6119E03B1C0C33D9
:102920001B78402B12D93B1C0C331B78462B0DD83F
:102930003B1C16331A783B6953433B613B1C0C33F9
:102940001A783B69D318373B3B6101E03B6913E0E0
:10295000C0463B1C0F331A783B1C0F3301321A70F0
:102960003B1C0F331A78BB1C1978FB1C1B78CB1A45
:102970009A4200DA57E73B69181CBD4606B080BD95
:1029800080B582B000AF664B00221A70654B1B7891
:1029900001221343DAB2634B1A7003F09BFDFB1D57
:1029A00000221A700CE0FB1D1A78FB1D1B7899B2EF
:1029B0005D4B5200D152FB1D1A78FB1D01321A707B
:1029C000FB1D1B78242BEED9FDF7D2FFBB1D002287
:1029D0001A7012E0BB1D1A78534B5200D25ABB1D1D
:1029E0001B785900514BCB18101C191CFEF7A8F985
:1029F000BB1D1A78BB1D01321A70BB1D1B78242B1E
:102A0000E8D94A4B1B88DAB2494BDA70474B5B88EE
:102A1000DAB2474B9A70454B9B88DAB2444B5A70F6
:102A2000424BDB88DAB2434B1A70404B1B89DAB257
:102A3000414B1A703F4B1B78DBB2FF2B02D13D4B51
:102A400000221A703B4B1B78DBB2202B02D9394B8A
:102A500020221A707B1D00221A700FE07B1D1A784D
:102A60007B1D1B78591D314B4900C95A334B52000D
:102A7000D1527B1D1A787B1D01321A702D4B1B78A9
:102A8000DBB27A1D12789A42E8D32A4B1B78DBB26C
:102A9000002B42D1274B10221A70274B00221A70AC
:102AA000264BF02292001A80244BC32212015A8036
:102AB000224B234A9A80214B224ADA801F4B224A1A
:102AC0001A811E4B204A5A811C4B204A9A811B4B6B
:102AD0001F4ADA81194B1D4A1A82184B1B4A5A8227
:102AE000164B194A9A82154B174ADA82134B154A2C
:102AF0001A83124B124A5A83104BC32212019A8333
:102B00000E4BF0229200DA83094BFF22DA70084B59
:102B1000FF229A70064BFF225A70BD4602B080BD5C
:102B2000CA04002057050020800400200C05002066
:102B3000CC030020CC010020880100208C01002063
:102B40000810000004200000124400000980FFFF6C
:102B50008981FFFF80B500AF0C4B181C0021FEF7E8
:102B6000CFFB0B4B181C0021FEF7CAFB094B181CAE
:102B70000021FEF7C5FB084B1B7801221343DAB294
:102B8000054B1A70C046BD4680BDC046587200084D
:102B9000CC040020687200085705002090B58BB067
:102BA00002AFD94B181CFEF749FC021C3B1C1F331B
:102BB0001A70D64B1B78042B00D98DE29A00D44BA7
:102BC000D3181B689F46D34B1B781A1C0123134054
:102BD0001AD0D04B1B7801229343DAB2CD4B1A7036
:102BE000CD4B181C0021FEF78BFBCC4B1B78DBB2C6
:102BF000C549CB4A081C111C1A1C03F0B5FEC24B78
:102C0000181C0021FEF77CFB3B1C1F331B78002B9C
:102C100000D161E2BC4B1B780A2B0BD1C14B181CB5
:102C20000021FEF76DFBB94B01221A70B94B01224E
:102C30001A7051E2B44A3B1C1F331B78101C002150
:102C40001A1CFFF727FD031CBB61BB69202B02D9AF
:102C5000FFF780FF40E2B44BDA88BB69DBB2101C9F
:102C6000191CFEF7D1F8BB69DAB2AC4B1A70AB4B4A
:102C70001B78DBB2A449AD4A081C111C1A1C03F0D6
:102C800073FEA14B181C0021FEF73AFB9F4B01225B
:102C90001A70A04B01221A701EE29E4B1B781A1C60
:102CA000012313401FD09B4B1B7801229343DAB2C0
:102CB000984B1A709E4B181C0021FEF721FB9D4B70
:102CC0001B78DBB29049964A081C111C1A1C03F0B1
:102CD0004BFE8D4B181C0021FEF712FB964B181C67
:102CE0000021FEF70DFB3B1C1F331B78002B00D18E
:102CF000F2E1854B1B780A2B0BD18A4B181C002163
:102D0000FEF7FEFA814B02221A70824B01221A70E2
:102D1000E2E17D4A3B1C1F331B78101C00211A1C6A
:102D2000FFF7B8FC031C7B617B69FF2B02D9FFF71F
:102D300011FFD1E17C4B1A897B69DBB2101C191C95
:102D4000FEF762F87B69DAB27A4B1A70734B1B7824
:102D5000DBB26D49794A081C111C1A1C03F004FEF1
:102D6000694B181C0021FEF7CBFA684B02221A703F
:102D7000684B01221A70AFE1664B1B781A1C0123C5
:102D8000134021D0634B1B7801229343DAB2614B8D
:102D90001A706B4B181C0021FEF7B2FA694B181C15
:102DA0000021FEF7ADFA684B00221A70664B1B78C3
:102DB0005549664A081C111C1A1C03F0D5FD524BDC
:102DC000181C0021FEF79CFA5F4B1A78534B1B78B6
:102DD000DBB29A4251D23B1C1F331B78002B00D12F
:102DE0007AE1494B1B780A2B0FD1574B1B78002BEC
:102DF0000BD1574B181C0021FEF782FA434B0322DC
:102E00001A70444B01221A7066E13F4A3B1C1F3383
:102E10001B78101C00211A1CFFF73CFC031C3B61B3
:102E20003A694C4B9A4202D9FFF794FE54E1464B63
:102E30001B785A1D3C4B5200D25A3B699BB2101C66
:102E4000191CFDF7E1FF444B181C0021FEF758FA4E
:102E50003D4B1B780133DAB23B4B1A703A4B1B786F
:102E600029493A4A081C111C1A1C03F07DFD264B07
:102E7000181C0021FEF744FA2EE1384B181C0021E3
:102E8000FEF73EFA214B03221A70224B01221A70E0
:102E900022E1204B1B781A1C012313401DD01D4B2F
:102EA0001B7801229343DAB21A4B1A702C4B181C70
:102EB0000021FEF725FA2B4B1B881A1C294B5B8837
:102EC000284989880C1C10482749009403F04CFDC0
:102ED0000D4B181C0021FEF713FA3B1C1F331B7807
:102EE000002B00D1F8E0084B1B780A2B3ED10D4B8C
:102EF000181C0021FEF704FA044B04221A70054B3B
:102F000001221A70E8E0C046CC040020CA04002068
:102F1000BC740008570500206C720008CC0100202A
:102F2000907200089872000880040020A4720008C3
:102F3000C872000888010020F47200083473000889
:102F4000587300088073000856050020AC73000811
:102F5000B0730008FFFF0000CC730008D4730008B2
:102F6000F47300080C0500202C7400083C1C0E347F
:102F70005B4A3B1C1F331B78101C2C210122FFF7DE
:102F800041FB031C23803B1C0E331A88554B9A428D
:102F900002D1FFF7DFFD9FE03B1C0E331B88DBB245
:102FA0000133DAB23C1C0C344D493B1C1F331B78F7
:102FB000081C2C21FFF726FB031C23803B1C0E332F
:102FC0001A88484B9A4202D1FFF7C4FD84E03B1CAB
:102FD0000E331B88DBB2424A101C00211A1CFFF77B
:102FE00059FB031CBB60BB68FF2B02D9FFF7B2FD86
:102FF00072E03B1C0E331B88DBB20133DAB23B1CA0
:103000000C331B88DBB23649081C111C1A1CFFF755
:1030100041FB031C7B607B68FF2B02D9FFF79AFD05
:103020005AE03B1C0C331B88DBB20133DAB22C496B
:103030003B1C1F331B78081C111C1A1CFFF72AFBB2
:10304000031C3B603B68FF2B02D9FFF783FD43E085
:10305000254B1A88BB68DBB2101C191CFDF7D4FE87
:10306000214B5A887B68DBB2101C191CFDF7CCFE83
:103070001D4B9A883B68DBB2101C191CFDF7C4FE7F
:10308000BB68DBB21A1C7B68DBB23968C9B20C1CA6
:1030900013481649009403F067FC114B181C0021DB
:1030A000FEF72EF9124B04221A70124B01221A70ED
:1030B00012E0104B1B781A1C012313400BD00D4B50
:1030C0001B7801229343DAB20A4B1A700A4B181C80
:1030D0000021FEF715F9C046BD4609B090BDC046B7
:1030E000CC040020FFFF000080040020387400089A
:1030F000CA040020570500205874000880B584B029
:1031000000AF786039603B1C0F3300221A703B68B7
:103110005B78092B35D89A00214BD3181B689F4642
:103120007A683B68101C191C00F092F930E07A684C
:103130003B68101C191C00F079FA29E07A683B689A
:10314000101C191C00F0BAFA22E07A683B68101CC7
:10315000191C00F031FB1BE07A683B68101C191C3D
:1031600000F05EFB14E07A683B68101C191C00F04C
:1031700081FB0DE07A683B68101C191C00F098FB7D
:1031800006E07A683B68101C191C00F0F7FBC0468B
:103190003B1C0F331B78181CBD4604B080BDC046D5
:1031A000D074000890B585B000AF786039603B1CE2
:1031B0000F3300221A707B689B78032B28D13B6861
:1031C0009B88DBB2012B1BD87A68AC235B00D358F9
:1031D0009B683C1C0F3479683A68081C111C98479E
:1031E000031C23703B68DB88002B10D13B1C0F3382
:1031F0001B78002B0BD17B68181C00F0BFFC0EE085
:103200007A683B68101C191C00F0B8FB07E006E068
:103210007A683B68101C191C00F0B0FBC0463B1CD0
:103220000F331B78181CBD4605B090BD80B584B027
:1032300000AF786039600023BB603B1C0F33002275
:103240001A703B689A883B1C0E331A703B685B7897
:10325000012B4DD0032B03D0002B00D190E0EFE0E9
:103260007B689B78022B02D0032B14D038E03B1CE8
:103270000E331B78002B0DD03B1C0E331B78802B9C
:1032800008D07A683B1C0E331B78101C191C01F007
:10329000C5FF2CE02BE03B685B88002B11D13B1C69
:1032A0000E331B78002B0CD03B1C0E331B78802B6D
:1032B00007D07A683B1C0E331B78101C191C01F0D8
:1032C000ADFF7A68AC235B00D3589B6879683A6895
:1032D000081C111C98477B68181C00F04FFC06E086
:1032E0007A683B68101C191C00F048FBC046A7E038
:1032F0007B689B78022B02D0032B14D038E03B1C58
:103300000E331B78002B0DD03B1C0E331B78802B0B
:1033100008D07A683B1C0E331B78101C191C01F076
:103320007DFF2CE02BE03B685B88002B11D13B1C20
:103330000E331B78002B0CD03B1C0E331B78802BDC
:1033400007D07A683B1C0E331B78101C191C01F047
:10335000D1FF7A68AC235B00D3589B6879683A68E0
:10336000081C111C98477B68181C00F007FC06E03D
:103370007A683B68101C191C00F000FBC0465FE037
:103380007B689B78022B02D0032B14D050E03B1CAF
:103390000E331B78002B0DD03B1C0E331B78802B7B
:1033A00008D07A683B1C0E331B78101C191C01F0E6
:1033B00035FF44E043E03B1C0E331B785BB2002B2F
:1033C00014DA3B1C0E331A787F231A407968131CD9
:1033D0009B009B18DB00CB1818339B78002B02D086
:1033E0000123BB601BE00023BB6018E03B1C0E33D5
:1033F0001B785BB2002B12DB3B1C0E331A7878680B
:10340000B821131C9B009B18DB00C3185B189B782A
:10341000002B02D00123BB6001E00023BB607A686F
:103420003B1C0833101C191C022200F025FB06E08F
:103430007A683B68101C191C00F0A0FAC046C04610
:103440003B1C0F331B78181CBD4604B080BDC04622
:1034500080B584B000AF786039603B685B881B0A38
:103460009BB2072B00D9B2E09A006E4BD3181B68B1
:103470009F467A68B0235B00D3581A687B68DB6884
:10348000D9B23B1C0A33081C191C9047031CFB6073
:103490003B68DB88402B04D13B1C0A3308221A808E
:1034A0009CE09BE07A68AC235B00D3581A6A7B6887
:1034B000DB68D9B23B1C0A33081C191C9047031C5B
:1034C000FB607A68B2235B00F968D15086E03B6804
:1034D0005B88DBB2052B64D89A00534BD3181B686A
:1034E0009F467A68B0235B00D3585A687B68DB68D4
:1034F000D9B23B1C0A33081C191C9047031CFB6003
:1035000056E07A68B0235B00D3589A687B68DB6822
:10351000D9B23B1C0A33081C191C9047031CFB60E2
:1035200046E07A68B0235B00D358DA687B68DB68D2
:10353000D9B23B1C0A33081C191C9047031CFB60C2
:1035400036E07A68B0235B00D3581A697B68DB6881
:10355000D9B23B1C0A33081C191C9047031CFB60A2
:1035600026E07A68B0235B00D3585A697B68DB6831
:10357000D9B23B1C0A33081C191C9047031CFB6082
:1035800016E07A68B0235B00D3589A697B68DB68E1
:10359000D9B23B1C0A33081C191C9047031CFB6062
:1035A00006E07A683B68101C191C00F0E7F936E069
:1035B00014E07A683B68101C191C00F0DFF92EE05B
:1035C0007A683B68101C191C00F0D8F927E07A686B
:1035D0003B68101C191C00F0D1F920E03B1C0A3399
:1035E0001B88002B1BD03B68DB88002B17D03B6867
:1035F000DB883A1C0A32128898B291B2884200D90C
:10360000131C9AB23B1C0A331A803B1C0A331B88DA
:103610007968FA68081C111C1A1C00F02DFABD46C6
:1036200004B080BDF87400081875000880B584B037
:1036300000AF786039603B689B88002B32D13B68D3
:10364000DB88002B2ED13B685B88D9B23B1C0F3343
:103650007F220A401A707B689B78032B06D17A6818
:103660003B68101C191C00F089F91AE07B683A1CB1
:103670000F3212781A713B1C0F331A780E4B1A60F6
:103680007B68181C00F07AFA3B1C0F331B78002B68
:1036900003D07B6802229A7003E07B6801229A7053
:1036A00006E005E07A683B68101C191C00F066F91A
:1036B000BD4604B080BDC0465001002080B582B038
:1036C00000AF786039603B685B88DAB2394B1A70BA
:1036D000384B1B78012B06D97A683B68101C191CE3
:1036E00000F04CF963E07B689B78022B02D0032B3F
:1036F0001CD055E02F4B1B78002B12D02D4B1A7885
:103700007B681A707B6803229A702A4B1B787A6850
:10371000101C191C00F054FC7B68181C00F02EFAD9
:1037200045E07B68181C00F029FA40E0214B1B782B
:10373000002B12D17B6802229A701E4B1A787B688C
:103740001A701C4B1B787A68101C191C00F056FC70
:103750007B68181C00F012FA21E07B681A78154B80
:103760001B789A4216D07B681B787A68101C191C4B
:1037700000F044FC0F4B1A787B681A700D4B1B78D5
:103780007A68101C191C00F01BFC7B68181C00F0E8
:10379000F5F904E07B68181C00F0F0F907E006E09A
:1037A0007A683B68101C191C00F0E8F8C046BD465A
:1037B00002B080BD5401002080B584B000AF7860B5
:1037C00039600023FB603B68DB88012B06D07A68F8
:1037D0003B68101C191C00F0D1F81EE07B689B7838
:1037E000022B02D0032B09D010E07A683B1C0C336B
:1037F000101C191C012200F03FF90EE07B687A686A
:10380000101C191C012200F037F906E07A683B68A9
:10381000101C191C00F0B2F8C046BD4604B080BDB3
:1038200080B584B000AF786039600023FB607B68AE
:103830009B78023B012B12D80123FB607B689B68BD
:10384000002B03D0FB6802221343FB607A683B1C09
:103850000C33101C191C022200F00EF906E07A68E5
:103860003B68101C191C00F089F8C046BD4604B026
:1038700080BDC04680B582B000AF786039603B68DB
:103880005B88012B10D17B6801229A607A68AC2397
:103890005B00D3589B6879683A68081C111C9847EC
:1038A0007B68181C00F06AF9BD4602B080BDC046B6
:1038B00080B582B000AF786039607B689B78023B4E
:1038C000012B16D83B685B88012B11D17B68002245
:1038D0009A607A68AC235B00D3589B6879683A6831
:1038E000081C111C98477B68181C00F047F907E07A
:1038F00006E07A683B68101C191C00F03FF8C046CF
:10390000BD4602B080BDC04680B582B000AF7860D1
:1039100039607B681A7C3B681A707B685A7C3B680C
:103920005A707B689B7C1A1C7B68DB7C1B029BB2F9
:10393000D3189AB23B685A807B681B7D1A1C7B683F
:103940005B7D1B029BB2D3189AB23B689A807B685E
:103950009B7D1A1C7B68DB7D1B029BB2D3189AB23D
:103960003B68DA803B68DB881A1C7B68DA637B681B
:1039700001225A70BD4602B080BDC04680B582B0FB
:1039800000AF786039607B68181C002101F046FCAC
:10399000BD4602B080BDC04680B586B000AFF860BD
:1039A000B9607A603B1C173300221A70FB68002B49
:1039B00040D0FB68181C00F041F8031C01339BB297
:1039C000DB189AB27B681A803B1C17331B783A1CB1
:1039D0001732591C1170BA68D3187A681288D2B29B
:1039E0001A703B1C17331B783A1C1732591C117084
:1039F000BA68D31803221A7018E03B1C17331B78DF
:103A00003A1C1732591C1170BA68D218FB68591C3D
:103A1000F9601B7813703B1C17331B783A1C173264
:103A2000591C1170BA68D31800221A70FB681B78F1
:103A3000002BE2D1BD4606B080BDC04680B584B043
:103A400000AF78603B1C0F3300221A7009E03B1C6A
:103A50000F331A783B1C0F3301321A707B68013325
:103A60007B607B681B78002BF1D13B1C0F331B78EC
:103A7000181CBD4604B080BD80B586B000AFF860AC
:103A8000B960BB1D1A803B1C173300221A70BB1D86
:103A90001A88FB689A63BB1D1A88FB685A63FB6827
:103AA00002225A70BB1D1B88F968BA68081C0021E5
:103AB00001F018FB3B1C17331B78181CBD4606B0E1
:103AC00080BDC04680B586B000AFF860B960BB1D50
:103AD0001A803B1C173300221A70BB1D1B88F96823
:103AE000BA68081C002101F0FDFA3B1C17331B7853
:103AF000181CBD4606B080BD80B586B000AFF8602A
:103B0000B960BB1D1A803B1C173300221A70BB1D05
:103B10001988FA68D823D150BB1D1988FA68D423B4
:103B2000D150FB6803225A70F968BA68BB1D1B8824
:103B3000081C002101F074FA3B1C17331B78181C79
:103B4000BD4606B080BDC04680B586B000AFF86007
:103B5000B960BB1D1A803B1C173300221A70F9682C
:103B6000BA68BB1D1B88081C002101F059FA3B1CD8
:103B700017331B78181CBD4606B080BD80B584B0D5
:103B800000AF78603B1C0F3300221A707B68042260
:103B90005A707B68181C00210022002301F0A2FA51
:103BA0003B1C0F331B78181CBD4604B080BDC046BB
:103BB00080B584B000AF78603B1C0F3300221A70D0
:103BC0007B6805225A707B68181C002100220023A4
:103BD00001F026FA3B1C0F331B78181CBD4604B0BD
:103BE00080BDC04680B584B000AFF860B9607A602F
:103BF0003B60FB68181CFCF77BFEFB68181C00F0A0
:103C000027F8FA68AC235B007968D150FA68AE23D4
:103C10005B003968D150FA68B0235B00B968D150B5
:103C2000FCF7EEFDFB68181C00F0E0FFFA68AE231D
:103C30005B00D3581B689847FB68181CFCF76AFEAA
:103C4000FB68181C01F0E0FBBD4604B080BDC04617
:103C500080B582B000AF78600023181CBD4602B06A
:103C600080BDC04680B584B000AF78607A683B1CE8
:103C70000833101C191CFFF747FE3B1C08331B7848
:103C80001A1C1F231340012B0BD0022B11D0002B29
:103C900017D17A683B1C0833101C191CFFF72EFA49
:103CA0001BE07A683B1C0833101C191CFFF77AFADA
:103CB00013E07A683B1C0833101C191CFFF7B6FA96
:103CC0000BE03B1C08331B787F229343DBB27A68FE
:103CD000101C191C01F0A2FAC0460023181CBD4696
:103CE00004B080BD80B584B000AF78600A1CFB1CB6
:103CF0001A70FB1C1B78002B3CD17B68B833FB602F
:103D00007B685B78032B4BD1FB68DA69FB68DB6867
:103D10009A4217D9FB68DA69FB68DB68D21AFB683C
:103D2000DA61FB681969FB68D868FB68DA69031C0B
:103D3000934200D9131C9BB27A68101C1A1CFFF71F
:103D400003FF2DE07A68AC235B00D3581B69002B7E
:103D50000BD07B689B78032B07D17A68AC235B0080
:103D6000D3581B697A68101C98477B68181CFFF7AA
:103D700005FF15E07A68AC235B00D3589B69002BE4
:103D80000ED07B689B78032B0AD17A68AC235B004A
:103D9000D3589B697968FA1C1278081C111C984743
:103DA0000023181CBD4604B080BDC04680B584B059
:103DB00000AF78600A1CFB1C1A70FB1C1B78002BE0
:103DC00000D06CE07B681833FB607B685B78022B6B
:103DD00051D1FB68DA69FB68DB689A4212D9FB684B
:103DE000DA69FB68DB68D21AFB68DA61FB681A697A
:103DF000FB68DB699BB27968081C111C1A1CFFF771
:103E000061FE62E0FB681A6AFB68DB68101C191C23
:103E1000FCF7BEF90B1C002B15D1FB681A6AFB6876
:103E2000DB689A420FD3FB681A6AFB685B6A9A42A6
:103E300009D27B68181C00210022FFF743FEFB68B3
:103E400000225A6241E07A68AC235B00D358DB68F9
:103E5000002B0BD07B689B78032B07D17A68AC23AF
:103E60005B00D358DB687A68101C98477B68181C85
:103E7000FFF79EFE29E07B685B78042B25D1154B6C
:103E80001B68002B21D0134B1B68DBB27A68101C17
:103E9000191C01F07BFA0F4B00221A6015E07A68BA
:103EA000AC235B00D3585B69002B0ED07B689B78FA
:103EB000032B0AD17A68AC235B00D3585B6979681D
:103EC000FA1C1278081C111C98470023181CBD46C8
:103ED00004B080BD5001002080B582B000AF786092
:103EE0007B68181C00210022402300F0ABFE7B6899
:103EF000181C80210022802300F0A4FE7B68181C7F
:103F000000214022002300F0E7FE7B68181C80217E
:103F10004022002300F0E0FE7B6801229A707A685C
:103F2000AE235B00D3585A687B68DB68DBB2181C91
:103F300090470023181CBD4602B080BD80B582B0FA
:103F400000AF78607A68AE235B00D3581B6998474E
:103F50007B68DA787B689A700023181CBD4602B033
:103F600080BDC04680B582B000AF78607B689A782B
:103F70007B68DA707B6804229A707A68AE235B00F3
:103F8000D358DB6898470023181CBD4602B080BD9B
:103F900080B582B000AF78607A68AC235B00D358FC
:103FA000DB69002B07D07A68AC235B00D358DB6950
:103FB0007A68101C98470023181CBD4602B080BDCB
:103FC00080B582B000AF78600A1CFB1C1A707A685A
:103FD000AC235B00D3581B687968FA1C1278081C64
:103FE000111C98477A68AE235B00D3589B689847AA
:103FF0000023181CBD4602B080BDC04680B582B00B
:1040000000AF78600A1CFB1C1A707A68AC235B0056
:10401000D3585B687968FA1C1278081C111C984701
:104020000023181CBD4602B080BDC04680B582B0DA
:1040300000AF78600A1CFB1C1A707B68181C812179
:104040000022C02300F0FEFD7A6880235B00101C74
:104050008221002200F0F6FD7A6888235B00101CA4
:104060000321002200F0EEFD7B68181C8121402214
:10407000022300F031FE7B68181C0321402202233A
:1040800000F02AFE7B68181C82210822032300F01E
:1040900023FE084B1B6898477A68074B101C0321C6
:1040A0001A1C402300F0BCFF0023181CBD4602B0C0
:1040B00080BDC046600000209C06002080B582B014
:1040C00000AF78600A1CFB1C1A707B68181C8121E9
:1040D00000F020FF7B68181C032100F01BFF7B68A9
:1040E000181C822100F016FF034B5B6898470023E1
:1040F000181CBD4602B080BD6000002080B584B0B1
:1041000000AF786039603B1C0E333A221A80484B6E
:10411000BB603B681B781A1C6023134044D0202BE3
:104120003AD13B68DB88002B2CD03B681B78DBB294
:104130005BB2002B12DA3F4B9B683A685278101C36
:104140003A68D2883C4998473B68DB8879683A4AA4
:10415000081C111C1A1CFFF78FFC1BE03B685B78E6
:104160001A1C364B1A603B68DB881A1C344B1A60E9
:104170003B68DB887968304A081C111C1A1CFFF761
:10418000BBFC07E02B4B9B683A685278101C00215F
:1041900000229847002347E07A683B68101C191CEE
:1041A000FFF7ECFB02233FE03B685B780A2B1FD054
:1041B0000B2B25D0062B36D13B685B881B0A9BB2A4
:1041C000212B0AD11F4BBB603B68DB883A1C0E32A7
:1041D00099B23A2900D93A2313807968BA683B1C0E
:1041E0000E331B88081C111C1A1CFFF745FC1AE033
:1041F0007A68154B101C191C0122FFF73DFC12E0D8
:104200003B685B88DBB2002B06D13B685B88DBB286
:104210001A1C0D4B1A6005E07A683B68101C191CCB
:10422000FFF7ACFBC0460023181CBD4604B080BDA0
:104230003975000860000020DC0600209400002092
:1042400070010020427500085801002090B583B02D
:1042500000AF78600B4B1B68FF2B0DD00A4B9C689E
:10426000084B1968094B1B68094A081C111C1A1CC9
:10427000A047044BFF221A600023181CBD4603B060
:1042800090BDC04694000020600000207001002016
:10429000DC06002080B584B000AF78600A1CFB1CEF
:1042A0001A70314B1B78012B58D1304B1B68002BF7
:1042B00012D12F4B1B68012B0AD12D4B00221A6003
:1042C0007B68181C81210022002300F00BFF45E0D1
:1042D000254B00221A7041E0244B1B68402B15D956
:1042E000244B1A683B1C0E331A803B1C0C334022B3
:1042F0001A80204B1B681A1C40321E4B1A601B4B45
:104300001B681A1C403A194B1A601AE0194B1A68BC
:104310003B1C0E331A80154B1A683B1C0C331A8059
:10432000144B1A68114B1B68D218124B1A600F4BB2
:1043300000221A600D4B1B68402B02D10C4B01224E
:104340001A603B1C0E331A880B4BD2183B1C0C33E3
:104350001B887968081C812100F0C4FE0023181C0A
:10436000BD4604B080BDC0466C010020680100203D
:104370005C01002064010020E406002080B584B0C8
:1043800000AF78600A1CFB1C1A70FB1C1A78786856
:10439000D021131C9B009B18DB00C3185B181A6804
:1043A0003B1C0E331A800B4B1B693A1C0E321288D1
:1043B0000949081C111C98477A68074B101C0321F7
:1043C0001A1C402300F02CFE0023181CBD4604B02C
:1043D00080BDC046600000209C06002080B582B0F1
:1043E00000AF7860094B1B68591C084A1160052B07
:1043F00006D1064B00221A607B68181C00F008F8F2
:104400000023181CBD4602B080BDC04674010020C8
:1044100080B584B000AF78603E4B1B78012B00D193
:1044200074E03D4B1A6880231B019A4202D13A4B3B
:1044300000221A60384B1A68384B1B689A4203D125
:10444000344B00221A7061E0334B1A68334B1B68FF
:104450009A4207D9304B1B6880221201D21A304B86
:104460001A6006E02D4B1A682B4B1B68D21A2C4B96
:104470001A602B4B1B68402B15D9274B1A683B1C25
:104480000E331A803B1C0C3340221A80224B1B68CF
:104490001A1C4032204B1A60214B1B681A1C403AF0
:1044A0001F4B1A6022E01C4B1A683B1C0E331A800B
:1044B0001B4B1A683B1C0C331A80174B1A68184B9D
:1044C0001B68D218144B1A60154B00221A603B1C53
:1044D0000C331B88402B02D1124B01221A600F4B68
:1044E0001B68402B02D10D4B00221A60094B0122A0
:1044F0001A703B1C0E331A880B4BD2183B1C0C3322
:104500001B887968081C812100F0ECFDBD4604B0D1
:1045100080BDC0466C0100206401002060010020C5
:10452000680100205C010020E406002080B582B014
:1045300000AF021C3960FB1D1A703B6843221A80D1
:10454000024B181CBD4602B080BDC0463075000845
:1045500090B587B000AF3B1C163300221A803B1D7C
:1045600000221A8082E2BB1D1B889BB2D9B23B1C81
:1045700013330F220A401A703B1C13331B78002B95
:1045800000D0E6E0BB1D1B889BB21A1C1023134011
:1045900021D1CD4BCC4A126892B2111CCB4A0A40B1
:1045A0001A60CB4BFB60FB681B78181C01F09EF96E
:1045B000031C1A1CFB689A61FB681A69FB689B69FB
:1045C000D218FB681A61C34B1B685B68C24A101C97
:1045D000002198474AE2C14BFB60BB4B1B689AB273
:1045E0003B1D1A803B1D1B889BB21A1C80231B019C
:1045F000134022D0FB681B78181C01F093F9031CB0
:104600001A1CFB689A61FB689A88FB689B699BB2DD
:10461000B349081C111C1A1C01F056FBAA4BAA4AEC
:10462000126892B2111CAF4A0A401A60A94B1B686B
:104630009B68A94A101C984718E23B1D1B889BB237
:104640009BB21BB2002B00DB10E29F4B9E4A12680C
:1046500092B2111CA34A0A401A60FB681B78181C0E
:1046600001F060F9031C1A1CFB689A61FB689B69E6
:10467000002B12D0FB681969FB689A88FB689B695C
:104680009BB2081C111C1A1C01F01EFBFB681A6966
:10469000FB689B69D218FB681A618E4B1B681B680C
:1046A0008D4A101C002198478F4B1B689BB28F4985
:1046B0005B18BB60FB68DB683E2B1DD9FB68DB68C1
:1046C0005A093B1C14331A80FB68DA681F23134015
:1046D00006D13B1C14331A883B1C1433013A1A8050
:1046E0003B1C14331B889B029BB2814A13439BB231
:1046F0009AB2BB681A8018E0FB68DB685A083B1C5A
:1047000014331A80FB68DA680123134006D03B1C7F
:1047100014331A883B1C143301321A803B1C1433A7
:104720001B889B029AB2BB681A80674B1B689AB2BF
:10473000704B13409CB280235B0163409CB280238A
:104740009B0163409CB2604B6B4A224392B21A6059
:104750008CE13B1C13331B789B005B4A9B181B6846
:104760009AB23B1D1A803B1D1B889BB29BB21BB2A9
:10477000002B00DBCCE03B1C13331B789B00524921
:104780005B183A1C1332127892004F495218126883
:1047900092B2111C534A0A401A603B1C13331A7818
:1047A000131C9B009B18DB001A1CB8324A4BD31811
:1047B000FB60FB689B7A002B1AD1FB681B783C1CC2
:1047C0001634181C01F0AEF8031C23803B1C163372
:1047D0001B88002B52D0FB681969FB689A883B1C28
:1047E00016331B88081C111C1A1C01F06DFA45E0D9
:1047F000FB681B78181C00F04FFE031C1A1C80235A
:10480000DB0113401AD0FB681B783C1C1634181CC3
:1048100001F0A2F9031C23803B1C16331B88002BDC
:1048200026D0FB681969FB68DA883B1C16331B88A5
:10483000081C111C1A1C01F047FA19E0FB681B78D0
:104840003C1C1634181C01F0A3F9031C23803B1CEC
:1048500016331B88002B0BD0FB681969FB681A897B
:104860003B1C16331B88081C111C1A1C01F02CFA67
:10487000FB681B78181C002101F0A6F9FB689A69F7
:104880003B1C16331B88D218FB689A61FB681A69B7
:104890003B1C16331B88D218FB681A61FB685B69E6
:1048A000002B06D03B1C16331A88FB68DB689A4243
:1048B00024D2084B1B681B68FA6812780649081C4A
:1048C000111C984724E0C046005C00400F8F000098
:1048D00074020020900000205C02002014030020DD
:1048E0006C0200208F0F0000505C0040066000400A
:1048F0000080FFFF8FBFFFFF8080FFFFFB681978FC
:10490000FB681A69FB685B699BB25F4800F088FB33
:104910003B1D1B889BB21A1C8023134000D1A5E0CD
:104920003B1C13331A78131C9B009B18DB001A1CCA
:104930001832554BD318FB603B1C13331B789B007C
:10494000524A9B183A1C1332127892004F4952185F
:10495000126892B2111C4E4A0A401A60FB689B7A98
:10496000002B19D1FB681B78181C00F0BFFF031C3B
:104970001A1CFB689A61FB689B69002B4FD0FB688F
:104980001969FB689A88FB689B699BB2081C111C1B
:104990001A1C01F05BF942E0FB681B78181C00F060
:1049A0007BFD031C1A1C4023134019D0FB681B78A5
:1049B000181C01F0D1F8031C1A1CFB689A61FB68F3
:1049C0009B69002B25D0FB681969FB68DA88FB68B6
:1049D0009B699BB2081C111C1A1C01F037F918E0E6
:1049E000FB681B78181C01F0D3F8031C1A1CFB6829
:1049F0009A61FB689B69002B0BD0FB681969FB6807
:104A00001A89FB689B699BB2081C111C1A1C01F0D7
:104A10001DF9FB681B78181C012101F0D5F8FB6813
:104A20001B78181C00F062FF031C1A1CFB689A61BB
:104A3000FB681A69FB689B69D218FB681A61FB68FE
:104A40005B69002B09D1134B1B685B68FA6812780D
:104A50000D49081C111C984708E0FB681978FB6891
:104A60001A69FB685B69084800F03CFB0A4B1B684D
:104A70009BB2BA1D191C11809BB21BB2002B00DA2D
:104A800071E5BD4607B090BD5C020020005C0040AF
:104A90000F8F000090000020445C004080B582B081
:104AA00000AFBB1D00221A80464B1B689AB2BB1D8B
:104AB0001A80BB1D1B889BB21A1C434B1B681A40F3
:104AC00080231B02134001D0FFF742FDBB1D1B8852
:104AD0009BB21A1C3C4B1B681A408023DB0013401E
:104AE0000DD0384B394A1A60394B1B681B69394A5B
:104AF000101C9847374B181C002100F047FCBB1DC9
:104B00001B889BB21A1C304B1B681A4080239B01E8
:104B1000134002D02B4B304A1A60BB1D1B889BB23E
:104B20001A1C294B1B681A4080235B0113400BD0D1
:104B3000244B2A4A1A60264B1B689B69254A101C85
:104B400098470020FBF730FDBB1D1B889BB21A1C49
:104B50001D4B1B681A4080231B0113400AD0194BC0
:104B60001F4A1A601A4B1B685B691A4A101C984747
:104B7000FBF7DCFCBB1D1B889BB21A1C124B1B688D
:104B80001A4080239B00134008D00E4B154A1A6030
:104B90000F4B1B68DB680F4A101C9847BB1D1B8816
:104BA0009BB21A1C084B1B681A4080235B00134001
:104BB00005D0044B0C4A1A600720FBF7F5FCBD46F4
:104BC00002B080BD445C004078010020FFFB000083
:104BD000900000205C020020FFDF0000FFEF0000DB
:104BE000FFF70000FFFD0000FFFE000080B582B06F
:104BF00000AF78607B6801229A707B6800221A718E
:104C00007B6800229A607B680122DA60012000F054
:104C10000FFC002000F00CFC002000F019FC00202C
:104C200000F026FC064BBF2212021A60044B1B68E0
:104C30009BB2181C00F0FCFBBD4602B080BDC04614
:104C40007801002080B586B000AFF8607B603B1C27
:104C50000A3319803B1C08331A803B1C0A331A881C
:104C6000802313400DD03B1C0A331A887F231A403F
:104C7000131C9B009B18DB001833FA68D3187B6168
:104C80000CE03B1C0A331A887F231A40131C9B003C
:104C90009B18DB00B833FA68D3187B613B1C0833E0
:104CA0001B88002B07D17B6900229A727B689AB21D
:104CB0007B699A800BE07B6901229A727B689AB2C9
:104CC0007B69DA807B681B0C9AB27B691A810023AE
:104CD000181CBD4606B080BD80B586B000AFF86038
:104CE000081C111C1A1C3B1C0A3318803B1C08337F
:104CF0001980FB1D1A703B1C0A331A88802313404D
:104D000010D03B1C0A331A887F231A40131C9B00C7
:104D10009B18DB001833FA68D3187B617B6901228A
:104D20005A700FE03B1C0A331A887F231A40131C69
:104D30009B009B18DB00B833FA68D3187B617B6952
:104D400000225A703B1C08331A887B69DA607B6941
:104D5000FA1D1278DA703B1C0A331B88DAB27F2303
:104D60001340DAB27B691A707B691B78002B08D17B
:104D70007B6900225A627B690022DA617B6900222A
:104D80001A627B6900221A617B6900225A617B6981
:104D900000229A617B6900229A707B69DB78012B83
:104DA00021D002DC002B05D026E0022B0BD0032BF8
:104DB00010D021E07B691A7880239B00101C191CFD
:104DC00000F07EFB18E07B691B78181C002100F0C6
:104DD00077FB11E07B691A78C023DB00101C191CDB
:104DE00000F06EFB08E07B691A788023DB00101C62
:104DF000191C00F065FBC0467B699B7A002B36D1FD
:104E00007B695B78002B13D07B691A787B699B8860
:104E1000101C191C00F0B4FC7B691B78181C00F0F6
:104E200083FC7B691B78181C202100F06FFB6BE072
:104E30007B691A787B699B88101C191C00F0C0FCE8
:104E40007B691A787B69DB689BB2101C191C00F027
:104E5000F5FC7B691B78181C00F038FC7B691A781C
:104E6000C0239B01101C191C00F08AFB4CE07B69DD
:104E70001B78181C00F0C2FB7B6919787B69DA8803
:104E80007B691B89081C111C1A1C00F067FD7B69DB
:104E90005B78002B1DD17B691B78181C00F016FC79
:104EA0007B691B78181C00F03FFC7B691B78181C81
:104EB00000F0EAFB7B691A78C0239B01101C191CC7
:104EC00000F05EFB7B691B78181C002100F01EFBC4
:104ED0001AE07B691B78181C00F0F8FB7B691B78D3
:104EE000181C00F021FC7B691B78181C00F0AAFB41
:104EF0007B691B78181C002100F008FB7B691B787C
:104F0000181C002100F03CFB0023181CBD4606B015
:104F100080BDC04680B584B000AF78600A1CFB1C21
:104F20001A70FB1C1B785BB2002B0CDAFB1C1A7886
:104F30007F231A40131C9B009B18DB0018337A68F0
:104F4000D318FB600BE0FB1C1A787F231A40131C5C
:104F50009B009B18DB00B8337A68D318FB60FB68B2
:104F60009B7A002B1BD1FB685B78002B0BD0FB6876
:104F70001B78181C00F0D8FBFB681B78181C00215C
:104F800000F0C4FA46E0FB681B78181C00F09EFB9A
:104F9000FB681B78181C002100F0F2FA3AE0FB686D
:104FA0005B78002B1BD1FB681B78181C00F08EFB74
:104FB000FB681B78181C00F0B7FBFB681B78181CFB
:104FC00000F062FBFB681B78181C002100F0D8FA87
:104FD000FB681B78181C002100F098FA1AE0FB68A7
:104FE0001B78181C00F072FBFB681B78181C00F083
:104FF0009BFBFB681B78181C00F024FBFB681B78EC
:10500000181C002100F082FAFB681B78181C002194
:1050100000F0B6FA0023181CBD4604B080BDC0469F
:1050200080B586B000AFF8607A601A1C3B1C0B3369
:1050300019703B1C08331A8000233B613B1C0B3367
:105040001A787F231A40131C9B009B18DB00B8338F
:10505000FA68D3187B617B697A681A613B1C083354
:105060001A887B695A617B6900229A617B695A6957
:105070007B69DB689A4209D97B69DB683B617B69A4
:105080005A693B69D21A7B695A6105E07B695B69A1
:105090003B617B6900225A617B699B7A002B08D1B6
:1050A0007B691A783B699BB2101C191C00F0C6FB87
:1050B0000AE07B6919787B695A783B699BB2081CC6
:1050C000111C1A1C00F07CFC7B691A78C0239B0120
:1050D000101C191C00F054FA0023181CBD4606B021
:1050E00080BDC04680B588B000AFF8607A603B6094
:1050F0003B1C0B330A1C1A7000237B613B1C0B33D7
:105100001A787F231A40131C9B009B18DB0018336E
:10511000FA68D318BB613B1C0B331A787F2313400A
:10512000DAB2BB691A70BB697A681A61BB693A68FE
:105130005A61BB6900229A61BB695A69BB69DB6825
:105140009A4209D9BB69DB687B61BB695A697B6993
:10515000D21ABB695A6105E0BB695B697B61BB69B7
:1051600000225A61BB699B7A002B13D1BB69196974
:10517000BB699A887B699BB2081C111C1A1C00F041
:1051800065FDBB691A787B699BB2101C191C00F085
:1051900037FB37E03B1C1E3300221A80BB691978AD
:1051A000BB695A787B699BB2081C111C1A1C00F061
:1051B00007FCBB691B78181C00F06EF9031C1A1C55
:1051C0004023134005D03B1C1E33BA6912891A8054
:1051D00004E03B1C1E33BA69D2881A80BB69196986
:1051E0007B699BB23A1C1E321288081C111C1A1CC7
:1051F00000F02CFDBB691A78BB695B78101C191C88
:1052000000F0E2FCBB691B78181C302100F07EF92D
:105210000023181CBD4608B080BDC04690B585B0BF
:1052200000AF78600A1CFB1C1A70FB1C1B785BB279
:10523000002B0CDAFB1C1A787F231A40131C9B00EE
:105240009B18DB0018337A68D318FB6009E0FB1C5D
:105250001A78131C9B009B18DB00B8337A68D318AC
:10526000FB60FB681B78002B20D1FB681B789B0040
:105270001D4A9B181B689BB21A1C1C4B141C1C401B
:1052800080235B0163401C1C102363401C1CFB68D3
:105290001B789B00144A9B18A2B215490A4392B28C
:1052A0001A60FB6801229A70002319E0FB685B78A2
:1052B000002B09D0FB6801229A70FB681B78181C30
:1052C000102100F023F90AE0FB6801229A70FB68C4
:1052D0001A7880235B01101C191C00F051F900237F
:1052E000181CBD4605B090BD005C0040BFBF00006B
:1052F0008080FFFF80B584B000AF78600A1CFB1C83
:105300001A70FB1C1B785BB2002B0CDAFB1C1A78A2
:105310007F231A40131C9B009B18DB0018337A680C
:10532000D318FB6009E0FB1C1A78131C9B009B1828
:10533000DB00B8337A68D318FB60FB685B78002B1E
:105340000ED0FB681B78181C00F0EEF9FB681B7888
:10535000181C302100F0DAF8FB6800229A700FE088
:10536000FB681B78181C00F0B1F9FB681A78C023A1
:105370009B01101C191C00F003F9FB6800229A70B5
:105380000023181CBD4604B080BDC04680B584B063
:1053900000AF78600A1CFB1C1A700023FB607B685E
:1053A000FA1C12781A710023FB6017E0FB68DBB26D
:1053B0009B0011495B18FA68D2B292000E4952184C
:1053C000126892B2111C0D4A0A400D491143FA6845
:1053D000D2B20A431A60FB680133FB60FB68032BFF
:1053E000E4D9084BFA1C1278802149420A43D2B210
:1053F0001A60BD4604B080BD005C00400F0F000085
:10540000808000004C5C004080B582B000AF7860C6
:10541000064B064A1268802109020A431A607B681B
:1054200001229A70BD4602B080BDC046585C004063
:1054300080B582B000AF021CBB1D1A80034BBA1DA1
:1054400012881A60BD4602B080BDC046405C004074
:1054500080B582B000AF021CBB1D1A80034BBA1D81
:1054600012881A60BD4602B080BDC046445C004050
:1054700080B582B000AF021CBB1D1A80044BBA1D60
:105480001188044A0A401A60BD4602B080BDC04679
:10549000505C0040F8FF000080B582B000AF021CF5
:1054A000FB1D1A70FB1D1B789B00044A9B181B6890
:1054B0009BB2181CBD4602B080BDC046005C0040D7
:1054C00080B582B000AF0A1CFB1D011C19703B1D8A
:1054D0001A80FB1D1B789B000A495B18FA1D127885
:1054E000920008495218126892B2111C064A0A40EA
:1054F00091B23A1D12880A4392B292B21A60BD4626
:1055000002B080BD005C00408F89FFFF90B583B082
:1055100000AF0A1CFB1D011C19703B1D1A80FB1DEE
:105520001B789B00134A9B181B689AB2124B1340BE
:105530009CB23B1D1A88102313409BB2002B02D053
:10554000102363409CB23B1D1A88202313409BB25A
:10555000002B02D0202363409CB2FB1D1B789B00D4
:10556000044A9B18054A224392B21A60BD4603B012
:1055700090BDC046005C0040BF8FFFFF8080FFFFF2
:1055800090B583B000AF0A1CFB1D011C19703B1DB8
:105590001A80FB1D1B789B00154A9B181B689AB24A
:1055A000144B13409CB23B1D1A8880235B011340AF
:1055B0009BB2002B03D080235B0163409CB23B1D58
:1055C0001A8880239B0113409BB2002B03D08023B9
:1055D0009B0163409CB2FB1D1B789B00044A9B18F7
:1055E000054A224392B21A60BD4603B090BDC04640
:1055F000005C00408FBFFFFF8080FFFF80B582B05E
:1056000000AF021CFB1D1A70FB1D1B789B000A4992
:105610005B18FA1D1278920007495218126892B26C
:10562000111C064A0A4092B205490A4392B292B24C
:105630001A60BD4602B080BD005C00400F0E000045
:105640008081FFFF80B582B000AF021CFB1D1A7085
:10565000FB1D1B789B0009495B18FA1D127892000C
:1056600006495218126892B2111C054A0A400549AF
:105670000A431A60BD4602B080BDC046005C0040CF
:105680000F0F000080C0000080B582B000AF021C88
:10569000FB1D1A70FB1D1B789B0009495B18FA1D46
:1056A0001278920006495218126892B2111C054AEB
:1056B0000A4005490A431A60BD4602B080BDC04693
:1056C000005C00400F0F0000C080000080B582B079
:1056D00000AF021CFB1D1A70FB1D1B789B000F49BD
:1056E0005B181B689BB21A1C8023DB01134011D08E
:1056F000FB1D1B789B00094A9B18FA1D127892002B
:1057000006495218126892B2111C054A0A4005490E
:105710000A431A60BD4602B080BDC046005C00402E
:105720000F0F000080C0000080B582B000AF021CE7
:10573000FB1D1A70FB1D1B789B000E495B181B6834
:105740009BB21A1C4023134011D0FB1D1B789B00F9
:10575000084A9B18FA1D12789200064952181268DE
:1057600092B2111C044A0A4004490A431A60BD4619
:1057700002B080BD005C00400F0F0000C080000040
:1057800080B582B000AF0A1CFB1D011C19703B1DC7
:105790001A80094B1B689BB21A1CFB1D1B78DB008F
:1057A000D318064A9B183A1D128801218A4392B2E7
:1057B0001A80BD4602B080BD505C004000600040D1
:1057C00080B582B000AF0A1CFB1D011C19703B1D87
:1057D0001A80094B1B689BB21A1CFB1D1B78DB004F
:1057E000D318064A9B183A1D128801218A4392B2A7
:1057F0001A80BD4602B080BD505C0040046000408D
:1058000080B582B000AF0A1CFB1D011C19703B1D46
:105810001A80084B1B689BB21A1CFB1D1B78DB000F
:10582000D318054A9B183A1D12881A80BD4602B04B
:1058300080BDC046505C00400260004080B584B02E
:1058400000AF0A1CFB1D011C19703B1D1A80244B64
:105850001B689BB21A1CFB1D1B78DB00D318214A66
:105860009B18BB603B1D1B883E2B1DD93B1C0E3378
:105870003A1D128852091A803B1D1A881F231340B3
:1058800006D13B1C0E331A883B1C0E33013A1A809A
:105890003B1C0E331B889B029BB2134A13439BB2E3
:1058A0009AB2BB681A8018E03B1C0E333A1D12886E
:1058B00052081A803B1D1A880123134006D03B1C56
:1058C0000E331A883B1C0E3301321A803B1C0E33F8
:1058D0001B889B029AB2BB681A80BD4604B080BD8B
:1058E000505C0040066000400080FFFF80B582B041
:1058F00000AF021CFB1D1A70084B1B689BB21A1CE0
:10590000FB1D1B78DB00D318054A9B181B889B05E1
:105910009B0D9BB2181CBD4602B080BD505C004080
:105920000260004080B582B000AF021CFB1D1A70FF
:10593000084B1B689BB21A1CFB1D1B78DB00D3189D
:10594000054A9B181B889B059B0D9BB2181CBD46E6
:1059500002B080BD505C00400660004080B582B05F
:1059600000AFFB1D18703B1D1980BB1C1A80114B2A
:105970001B689BB21A1CFB1D1B78DB00D3180E4A58
:105980009B183A1D128801218A4392B21A80094B52
:105990001B689BB21A1CFB1D1B78DB00D318074A3F
:1059A0009B18BA1C128801218A4392B21A80BD4604
:1059B00002B080BD505C00400060004004600040C8
:1059C00080B586B000AFFB1D1870BB1D19703B1D64
:1059D0001A80BB1D1B78002B46D15B4B1B689BB20A
:1059E0001A1CFB1D1B78DB00D318584A9B183B611F
:1059F0003B1D1B883E2B1DD93B1C16333A1D1288BC
:105A000052091A803B1D1A881F23134006D13B1CE4
:105A100016331A883B1C1633013A1A803B1C163386
:105A20001B889B029BB24A4A13439BB29AB23B69C2
:105A30001A802AE03B1C16333A1D128852081A803D
:105A40003B1D1A880123134006D03B1C16331A88CD
:105A50003B1C163301321A803B1C16331B889B02F9
:105A60009AB23B691A8010E0BB1D1B78012B0CD148
:105A7000354B1B689BB21A1CFB1D1B78DB00D3182F
:105A8000324A9B183A1D12881A80BB1D1B78002BC6
:105A900046D12D4B1B689BB21A1CFB1D1B78DB00EB
:105AA000D3182C4A9B18FB603B1D1B883E2B1DD92D
:105AB0003B1C14333A1D128852091A803B1D1A8868
:105AC0001F23134006D13B1C14331A883B1C14338C
:105AD000013A1A803B1C14331B889B029BB21C4A60
