:020000040800F2
:1000000000180020CD090008610900086D090008EA
:1000100000000000000000000000000000000000E0
:10002000000000000000000000000000750900084A
:10003000000000000000000081090008450B0008D6
:100040001D0A00081D0A00081D0A00081D0A0008F4
:100050001D0A00081D0A00089D0900081D0A000865
:100060001D0A00081D0A00081D0A00081D0A0008D4
:100070001D0A00081D0A00081D0A0008AD09000835
:10008000BD0900081D0A0008000000001D0A000844
:100090001D0A00081D0A00081D0A00081D0A0008A4
:1000A0001D0A00081D0A00081D0A00081D0A000894
:1000B0001D0A0008000000001D0A00088D09000844
:1000C00010B5064C2378002B07D1054B002B02D02E
:1000D000044800E000BF0123237010BD2001002070
:1000E000000000003C730008044B10B5002B03D047
:1000F0000349044800E000BF10BDC04600000000F6
:10010000240100203C730008002243088B4274D372
:1001100003098B425FD3030A8B4244D3030B8B4208
:1001200028D3030C8B420DD3FF22090212BA030C11
:100130008B4202D31212090265D0030B8B4219D3F2
:1001400000E0090AC30B8B4201D3CB03C01A524112
:10015000830B8B4201D38B03C01A5241430B8B425A
:1001600001D34B03C01A5241030B8B4201D30B0343
:10017000C01A5241C30A8B4201D3CB02C01A52416A
:10018000830A8B4201D38B02C01A5241430A8B422D
:1001900001D34B02C01A5241030A8B4201D30B0216
:1001A000C01A5241CDD2C3098B4201D3CB01C01A30
:1001B000524183098B4201D38B01C01A524143093A
:1001C0008B4201D34B01C01A524103098B4201D328
:1001D0000B01C01A5241C3088B4201D3CB00C01A95
:1001E000524183088B4201D38B00C01A524143080D
:1001F0008B4201D34B00C01A5241411A00D2014632
:10020000524110467047FFE701B5002000F006F8A4
:1002100002BDC0460029F7D076E770477047C04658
:1002200080B584B000AF78600A00FB1C1A707B6850
:1002300084229B5801337F221340FB607B6880221D
:100240009A58FB689A4201D101230BE07B68842213
:100250009B587A68F91C0978D1547B688421FA6824
:100260005A5000231800BD4604B080BD80B582B04E
:1002700000AF786039607B6880229A587B6884215F
:100280005B589A4201D1012310E07B6880229B5881
:100290007A68D25C3B681A707B6880229B58013375
:1002A0007F221A407B6880215A5000231800BD46E7
:1002B00002B080BD80B582B000AF78607B688422D8
:1002C0009A587B6880215B589A4207D37B688422C6
:1002D0009A587B6880215B58D31A07E07B68842298
:1002E0009A587B6880215B58D31A80331800BD462A
:1002F00002B080BD80B500AFC046BD4680BDC046DF
:1003000080B582B000AF0200FB1D1A70C046BD462A
:1003100002B080BD80B500AFC046BD4680BDC046BE
:1003200080B500AFC046BD4680BDC04680B500AFB9
:10033000C046BD4680BDC04680B582B000AF104B00
:100340001A68BB1D1A80BB1DBA1D128808210A43FA
:100350001A800B4BBA1D12881A60094B1A68BB1D14
:100360001A80BB1DBA1D128804210A431A80044B4F
:10037000BA1D12881A60C046BD4602B080BDC04694
:10038000405C004080B582B000AF0B4B1A68BB1DCB
:100390001A80BB1DBA1D128804218A431A80064B9D
:1003A000BA1D12881A60044BBF2212021A60C0469E
:1003B000BD4602B080BDC046405C004080B584B000
:1003C00000AF0200FB1D1A70FB1D1B78072B03D02A
:1003D000424BFA1D12781A70404B1B78DBB2052B8A
:1003E00000D970E09A003E4BD3181B689F463D4BE6
:1003F0001B68002B05D1FFF7C5FF384B06221A708A
:1004000068E0364B05221A7064E0FFF7BBFF334B00
:1004100004221A70334B01221A605BE02F4B022238
:100420005A702E4B03221A7054E02C4B5B78DBB2CF
:10043000013BDAB2294B5A70284B5B78DBB2002BB8
:1004400045D1264B04221A7041E0274B1A680E232F
:10045000FB181A800E23FB180E22BA1812881021DE
:100460000A431A80204B0E22BA1812881A601B4BBE
:1004700005221A70194B0A225A702BE0174B5B7831
:10048000DBB2013BDAB2154B5A70144B5B78DBB22E
:10049000002B1ED1144B1A680E23FB181A800E2352
:1004A000FB180E22BA18128810218A431A800E4BAC
:1004B0000E22BA1812881A60084B06221A70094BCD
:1004C00000221A6005E0054B06221A7002E0C046C1
:1004D00000E0C046C046BD4604B080BD8401002097
:1004E0000C7600083C010020405C004080B582B0E2
:1004F00000AF02003960FB1D1A703B6812221A809F
:10050000024B1800BD4602B080BDC04624760008EC
:1005100080B582B000AF02003960FB1D1A703B68E5
:1005200004221A80024B1800BD4602B080BDC046AE
:100530003876000880B582B000AF02003960FB1D3C
:100540001A703A680449054B180003F0A1FA024BEF
:100550001800BD4602B080BD540500205473000849
:1005600080B582B000AF02003960FB1D1A703A6896
:100570000449054B180003F08BFA024B1800BD46E6
:1005800002B080BD540500207873000880B582B0A9
:1005900000AF02003960FB1D1A703B681A221A80F6
:1005A000024B1800BD4602B080BDC046300000209E
:1005B00080B582B000AF02003960FB1D1A703A6846
:1005C0000449054B180003F063FA024B1800BD46BE
:1005D00002B080BD540500208C73000880B582B045
:1005E00000AF02003960FB1D1A703A680449054BE0
:1005F000180003F04DFA024B1800BD4602B080BD52
:10060000540500209873000880B584B000AF104BEB
:100610001B68FB600F4B1B68BB600F4B1B687B604C
:10062000FA687B68D318FB60FB68002B0BD00B4982
:10063000FB680822180000F015F80949BB6804227D
:10064000180000F00FF8C046BD4604B080BDC0469B
:10065000ACF7FF1FB0F7FF1FB4F7FF1F32000020F9
:100660004200002080B586B000AFF860B960FB1D85
:100670001A701723FB1800221A701723FB18002288
:100680001A7031E0FB681B0F092B0DD81723FB18DC
:100690001B785B001A00BB689B18FA68120FD2B275
:1006A0003032D2B21A700CE01723FB181B785B00B3
:1006B0001A00BB689B18FA68120FD2B23732D2B256
:1006C0001A70FB681B01FB601723FB181B785B008B
:1006D0000133BA68D31800221A701723FB181A784E
:1006E0001723FB1801321A701723FA18FB1D127812
:1006F0001B789A42C6D3C046BD4606B080BDC046F0
:1007000080B582B000AF786080231B0401211800FF
:1007100005F004FD002005F0ABFC00F01FF8C0461A
:10072000BD4602B080BDC04680B584B000AF7860E1
:100730000C23FB181F221A700C23FB1801225A707D
:100740000C23FB1801229A700C23FB18180005F0EB
:1007500005FDC046BD4604B080BDC04680B500AFB3
:1007600080231B050121180005F0D8FC80239B0580
:10077000180006F067F9012006F046F9012006F09E
:1007800025F9C046BD4680BD80B500AF1B4B1B4A56
:10079000126801210A431A60184B184A5268184916
:1007A0000A405A60154B154A126816490A401A60E9
:1007B000124B124A126814490A401A600F4B0F4A32
:1007C000526812490A405A600C4B0C4AD26A0F21F7
:1007D0008A43DA62094B094A126B0D490A401A63CF
:1007E000064B064A526B0B490A405A63034B0022E0
:1007F0009A6000F087F8C046BD4680BD00100240F8
:100800000CB8FF80FFFFF6FEFFFFFBFFFF7FC0FF7E
:10081000ACFEFFFFFEFFFEFF80B584B000AF0023FB
:10082000FB600023BB6000237B6000233B602F4BF9
:100830005B680C221340FB60FB68042B0CD002D8D1
:10084000002B05D03AE0082B0AD00C2B32D035E033
:10085000274B284A1A6035E0254B264A1A6031E0BA
:10086000224B5A68F0239B031340BB601F4B5A680E
:10087000C0235B0213407B60BB689B0C0233BB60F0
:100880007B68002B05D1BB681B4A5A43184B1A6082
:1008900018E0164BDB6A0F22134001333B603968C6
:1008A0001448FFF731FC03001A00BB685A43104B91
:1008B0001A6007E00E4B114A1A6003E00C4B0D4A18
:1008C0001A60C046094B5B68F02213401B090C4AB2
:1008D000D35CDBB2FB60064B1A68FB68DA40044B62
:1008E0001A60C046BD4604B080BDC046001002403C
:1008F0004C00002000127A0000093D00006CDC0270
:100900005000002080B500AF134B11221A60134B2A
:10091000124A52685A60114B104A52685A600F4B83
:100920000E4A526B802149020A435A63C0460B4B60
:100930005A6B80239B021340F9D0084B074A526838
:1009400003218A435A60054B044A526803210A4333
:100950005A60C046BD4680BD0020024000100240E3
:1009600080B500AFC046BD4680BDC04680B500AF73
:10097000FEE7C04680B500AFC046BD4680BDC0465C
:1009800080B500AFC046BD4680BDC04680B500AF53
:1009900004F0BCF8C046BD4680BDC04680B500AF7F
:1009A00001F0C6FBC046BD4680BDC04680B500AF65
:1009B00001F04EFBC046BD4680BDC04680B500AFCD
:1009C00001F0DAFAC046BD4680BDC0460D488546F6
:1009D000002103E00C4B5B58435004310B480C4B97
:1009E00042189A42F6D30B4A02E000231360043205
:1009F000094B9A42F9D3FFF7C7FE06F03BF800F027
:100A0000D7F8FEE700180020447700080000002017
:100A10002001002020010020E40E0020FEE700005D
:100A2000B0B582B000AF02003960FB1D1A70FB1D2B
:100A30001B787F2B32D92F4CFB1D1B781A000F23FC
:100A40001340083B99082B4AFB1D1B7818000F2305
:100A50000340083B9B0806339B00D31804331B68F4
:100A6000FA1D1278100003220240D200FF209040AD
:100A70000200D2431A403B689B01FF201840FB1D37
:100A80001B781D0003232B40DB00984003001A4312
:100A90008B1D9B00E31804331A6027E0164CFB1DE6
:100AA0001B785BB29B081449FA1D127852B2920867
:100AB000C03292005258F91D097808000321014004
:100AC000C900FF2088400100C94311403A689201E3
:100AD000FF201040FA1D1278150003222A40D20090
:100AE000904002000A43C0339B001A51C046BD46E5
:100AF00002B0B0BD00ED00E000E100E080B582B0E2
:100B000000AF78607B68013B0C4A934201D9012316
:100B100010E00B4B7A68013A5A6001235B420321D3
:100B20001800FFF77DFF064B00229A60044B072256
:100B30001A6000231800BD4602B080BDFFFFFF0011
:100B400010E000E080B500AF0D4B1B68002B04D017
:100B50000B4B1B685A1E0A4B1A600A4B1B685A1C27
:100B6000084B1A60074B1B68632B05D9064B012203
:100B70001A70044B00221A60C046BD4680BDC046B4
:100B8000D0010020400100204401002080B582B047
:100B900000AF7860054B7A681A60C046034B1B684B
:100BA000002BFBD1C046BD4602B080BDD001002065
:100BB00080B582B000AFFFF7E7FDFFF72DFE374BA2
:100BC0001A68FA2359011000FFF79EFA0300180073
:100BD000FFF794FF01235B4200211800FFF720FF7D
:100BE00005235B42180005F00FFB00F0D9FC01F073
:100BF00045FF00F089FF01F08DFBFB1D00221A70FC
:100C00000DE0FB1D1B780A21180001F023FD1E20BA
:100C1000FFF7BCFFFB1D1A78FB1D01321A70FB1D8C
:100C20001B780F2BEDD901F02FFD01F025F91C4B9E
:100C30001B78DBB2002BFAD0194B00221A70194B2B
:100C40001B78DBB21A00042313400CD0154B1B7821
:100C5000DBB204229343DAB2124B1A70124B00211A
:100C6000180000F0FDFC0F4B1B78DBB21A000223CA
:100C70001340DCD00D4B1B78002B0CD00B4B1B789A
:100C80001A000B490B4B180005F024FF094B0021FB
:100C9000180000F0E5FC01F0FFFFC8E74C00002061
:100CA0004401002086010020A873000845010020AF
:100CB000D8730008D401002090B585B000AF0A2396
:100CC000FB1806221A800823FB1806221A800E231E
:100CD000FB1800221A80BB1D00221A803B1D002237
:100CE0001A800C23FB18012252421A80BE4A0A23A2
:100CF000FB1812881A80BD4A0823FB1812881A8034
:100D00000A23FB181B88BA4A93424FD0B94A934230
:100D100003D0002B00D1F6E0A1E10823FB181B88CB
:100D2000002B0FD1B04B180005F092FC03001A0005
:100D3000BB1C1A80BB1C1B88042B00D19CE1BB1C74
:100D40001B88A1E10823FB181B88A94A93421FD1E5
:100D5000A54B180005F07CFC03001A00BB1C1A8090
:100D6000BB1C1B88042B02D0BB1C1B888CE19F4B37
:100D70000021180005F0AAFC03001A00BB1C1A8011
:100D8000BB1C1B88042B00D176E1BB1C1B887BE1BC
:100D900000F01AFA03001A00BB1C1A80BB1C1B8847
:100DA000042B00D168E1BB1C1B886DE10823FB18F4
:100DB0001B88002B00D072E00E23FB1800221A8043
:100DC00048E08D4B1B889AB20E23FB1819888B4B79
:100DD0004900CB5A9A4205D10C23FB180E22BA18AF
:100DE00012881A800E23FB181A880C23FB18002186
:100DF0005B5E9A4227D00E23FB181A887F4B520065
:100E0000D35A3C1D7E4A1100180000F045F903003A
:100E100023803B1D1B88012B15D00E23FB181A883D
:100E2000764B5200D25A764B1B88BC1D190010001D
:100E300000F058FA03002380BB1D1B88042B02D04E
:100E4000BB1D1B8820E10E23FB181A880E23FB18FC
:100E500001321A800E23FB181B88242BB1D9624B58
:100E60000021180005F032FC03001A00BB1C1A8098
:100E7000BB1C1B88042B02D0BB1C1B8804E15B4BF2
:100E8000180005F0E5FB03001A00BB1C1A80BB1C10
:100E90001B88042B00D1F1E0BB1C1B88F4E0082365
:100EA000FB181B88534A93421FD1504B180005F082
:100EB000CFFB03001A00BB1C1A80BB1C1B88042B31
:100EC00002D0BB1C1B88DFE0474B0021180005F057
:100ED000FDFB03001A00BB1C1A80BB1C1B88042BE3
:100EE00000D1CBE0BB1C1B88CEE000F06DF9030005
:100EF0001A00BB1C1A80BB1C1B88042B00D1BDE050
:100F0000BB1C1B88C0E00823FB181B88002B0DD1DD
:100F100000F05AF903001A00BB1C1A80BB1C1B8886
:100F2000042B00D1ACE0BB1C1B88ADE00823FB18F0
:100F30001B88304A93420FD12C4B180005F088FBD8
:100F400003001A00BB1C1A80BB1C1B88042B00D199
:100F500096E0BB1C1B8897E00E23FB1800221A802A
:100F600059E0284B1B889AB20E23FB181988234B93
:100F70004900CB5A9A4205D10C23FB180E22BA180D
:100F800012881A800E23FB181A880C23FB180021E4
:100F90005B5E9A4238D00E23FB181A88174B52001A
:100FA000D35A3C1D164A1100180000F075F80300D2
:100FB00023803B1D1B88012B26D00E23FB181A888B
:100FC0000E4B5200D25A0E4B1B88BC1D190010004C
:100FD00000F088F903002380BB1D1B88042B13D06D
:100FE000BB1D1B8850E0C04600780008007C00084C
:100FF000EEEE0000FFFF0000067800087C040020F1
:1010000046010020067C00080E23FB181A880E23D8
:10101000FB1801321A800E23FB181B88242BA0D941
:101020001B4B0021180005F051FB03001A00BB1CEC
:101030001A80BB1C1B88042B02D0BB1C1B8823E01E
:10104000144B180005F004FB03001A00BB1C1A80A7
:10105000BB1C1B88042B13D0BB1C1B8814E000F0A6
:10106000B3F803001A00BB1C1A80BB1C1B88042B9E
:1010700008D0BB1C1B8807E0C04604E0C04602E065
:10108000C04600E0C04604231800BD4605B090BD30
:10109000007C00080078000890B587B000AF02001F
:1010A0003960BB1D1A800E23FB1800221A800C2306
:1010B000FB18284A1A801623FB1801221A80264B97
:1010C0003B61254BBB600E23FC18002000F0B0F8FC
:1010D000030023800E23FB181B88AB2B01D1AB230D
:1010E00033E00E23FB181B881C4A944663449B0282
:1010F000BB600E23FB181B8801339B02184A9446E1
:1011000063443B6119E03A690C23FB1812881A808A
:101110000C23FA18BB1D12881B889A420AD13B691E
:10112000023B1B889AB23B681A801623FB180022E8
:101130001A8007E03B69043B3B61BB689A1C3B6932
:101140009A42E0D31623FB181B881800BD4607B04F
:1011500090BDC04655550000000001081E00020069
:10116000FE77000890B585B000AF0200BB1D1A8065
:101170003B1D0A1C1A800E23FB1800221A800E2326
:10118000FC183B1D1A88BB1D1B881100180000F0BD
:10119000A9F8030023800E23FB181B88802B0BD19A
:1011A0000E23FC183B1D1A88BB1D1B88110018005C
:1011B00000F00CF9030023800E23FB181B88180095
:1011C000BD4605B090BDC04690B583B000AFFB1DD5
:1011D00004221A70FC1D144B180005F039FA0300A4
:1011E0002370FB1D1B78042B02D0FB1D1B7817E01E
:1011F000FC1D0D4B0021180005F068FA0300237058
:10120000FB1D1B78042B02D0FB1D1B7808E0FC1D86
:10121000064B180005F01CFA03002370FB1D1B7819
:101220001800BD4603B090BD00780008007C00089F
:1012300080B584B000AF0200FB1D1A700E23FB18AE
:1012400006221A800C23FB1806221A80224A0E233B
:10125000FB1812881A80214A0C23FB1812881A8066
:10126000FB1D1B78002B21D0012B2FD10C23FB1849
:101270001B88002B09D10E23FB181B88184A9342A8
:1012800001D1002323E0012321E00E23FB181B885A
:10129000002B09D10C23FB181B88114A934201D162
:1012A000012314E0002312E0AB2310E00E23FB180F
:1012B0001B88002B01D1002309E00C23FB181B889D
:1012C000002B01D1012302E0AB2300E00023180032
:1012D000BD4604B080BDC04600780008007C000810
:1012E000EEEE000090B587B000AF0200BB1D1A8083
:1012F0003B1D0A1C1A801323FB1804221A701023AA
:10130000FB1800221A802D4B7B612D4BFB601023B4
:10131000FC180120FFF78CFF030023801023FB182B
:101320001B88AB2B01D1AB2343E01023FB181B8898
:10133000244A944663449B027B611023FB181B885C
:1013400001339B02204A94466344FB602CE07B6996
:101350001B68013325D11323FC183B1D1A887B69B8
:101360001100180005F0B2F9030023701323FB18D5
:101370001B78042B04D01323FB181B789BB218E0B6
:101380007B699A1C1323FC18BB1D1B8819001000D5
:1013900005F09CF9030023701323FB181B789BB204
:1013A00007E07B6904337B617A69FB689A42CED39C
:1013B00080231800BD4607B090BDC046000001085C
:1013C000FF0701081E000200FE77000890B589B0F3
:1013D00000AF0200BB1D1A803B1D0A1C1A8015239A
:1013E000FB1804221A70674BFB61674BBB61122329
:1013F000FB1800221A801623FB1800221A801023E3
:10140000FB1800221A800E23FB1800221A801223D8
:10141000FC180020FFF70CFF030023801223FB18A9
:101420001B88012B04D1594BFB61594BBB610BE06D
:101430001223FB181B88002B04D1554BFB61534B27
:10144000BB6101E0AB2399E01523FC18514AFB690D
:101450001100180005F03AF9030023701523FB185A
:101460001B78042B04D01523FB181B789BB285E056
:101470001023FC183B1D1A88BB1D1B881100180087
:10148000FFF730FF030023801023FB181B88042B79
:1014900003D01023FB181B8870E01623FB180022D2
:1014A0001A803DE01623FB181A883B4B5200D35A92
:1014B000BA1D12889A422CD01623FB181A88364B74
:1014C0005200D35A0E22BC18344A11001800FFF7FC
:1014D000E3FD030023800E23FB181B88012B18D08B
:1014E0001623FB181A882C4B5200D25A2B4B1B8800
:1014F00010217C1819001000FFF7F4FE0300238070
:101500001023FB181B88042B03D01023FB181B8807
:1015100034E01623FB181A881623FB1801321A80B0
:101520001623FB181B88242BBCD91523FC18BB6978
:10153000180005F08DF8030023701523FB181B78A5
:10154000042B04D01523FB181B789BB216E015233F
:10155000FC18FB690021180005F0B8F8030023709F
:101560001523FB181B78042B04D01523FB181B78BC
:101570009BB203E01523FB181B789BB21800BD46F5
:1015800009B090BDFF0301080000010800780008C1
:10159000007C0008EEEE00007C04002046010020E4
:1015A00080B500AF0121012004F098FD0F4B0F4AD8
:1015B000126810210A431A600D4B0E4A0E490F485B
:1015C00002F088FB0E4B1B78DBB201229343DAB2A8
:1015D0000B4B1A700B4B802200219950094B84222F
:1015E00000219950C046BD4680BDC0460000014064
:1015F000000000209800002014000020800200203D
:1016000086010020F801002080B500AF00231800FB
:10161000BD4680BD80B500AF00231800BD4680BD2B
:1016200080B584B000AFF860B9607A60FB68222BA7
:101630000FD10A4B1B78DBB21A000223134007D0EC
:10164000064B1B78DBB202229343DAB2034B1A70CB
:10165000C04600231800BD4604B080BD86010020AE
:1016600080B584B000AF786039603B68002B20D033
:101670000023FB6018E0224B1B687968FA688A181F
:101680001178204AD1541E4B1B685A1C1C4B1A60FF
:101690001B4B1A6880231B019A4202D1184B00226F
:1016A0001A60FB680133FB60FA683B689A42E2D338
:1016B00021E00023BB6018E0114B1B687968BA6811
:1016C0008A1811780F4AD1540D4B1B685A1C0C4BC9
:1016D0001A600B4B1A6880231B019A4202D1084BF7
:1016E00000221A60BB680133BB607A68BB68D318FC
:1016F0001B78002BE0D100231800BD4604B080BD4C
:101700005C010020E006002080B584B000AF786066
:101710003960204B1B78DBB21A000223134019D129
:101720001D4B8022002199501B4B8422002199508F
:10173000184B1B78DBB202221343DAB2154B1A7036
:10174000144B1B78DBB204221343DAB2114B1A702C
:1017500000231BE00F4B1B78DBB201221343DAB2EC
:101760000C4B1A700023FB600BE07A68FB68D318FF
:101770001A78094B11001800FEF752FDFB6801337F
:10178000FB60FA683B689A42EFD300231800BD461D
:1017900004B080BD86010020F801002080B584B02F
:1017A00000AF7860144B1B78DBB201229343DAB2AE
:1017B000114B1A70114B1800FEF77CFD0300BB6043
:1017C0000023FB600AE07A68FB68D2180B4B11001B
:1017D0001800FEF74BFDFB680133FB60FA68BB683D
:1017E0009A42F0D37A68BB68D31800221A70BB689B
:1017F0001800BD4604B080BD86010020F80100201D
:1018000090B587B002AF39601100FB1D021C1A7041
:10181000BB1D0A1C1A700E23FB1800221A70C0464A
:1018200080231B023D4A1900100004F0DFFD031E57
:10183000012BF5D0394880239B010093002301221E
:101840003A2104F081FDC046344B0221180004F017
:10185000CDFD031EF8D0FB1D1B78304A1900100087
:1018600004F0A8FDC0462D4B4021180004F0BEFD39
:10187000031EF8D080239904BB1D1A7827489023B3
:101880009B0100930B003A2104F05EFD0F23FB182F
:1018900000221A7026E0C046204B0421180004F0F4
:1018A000A5FD031EF8D0BB1D1B78012B0BD90F2300
:1018B000FB181B783A68D418184B180004F08AFDFE
:1018C0000300237007E00E23FC18144B180004F0EB
:1018D00081FD030023700F23FB181A780F23FB18D8
:1018E00001321A700F23FA18BB1D12781B789A4226
:1018F000D1D3C046094B2021180004F077FD031E08
:10190000F8D0064B2021180004F096FD0E23FB189A
:101910001B781800BD4605B090BDC046005400407D
:1019200080B584B002AF0200FB1D1A70BB1D0A1CFB
:101930001A70C04680231B02294A1900100004F0C7
:1019400055FD031E012BF5D080235A042448802323
:101950009B010093130001223A2104F0F5FCC046DC
:101960001F4B0221180004F041FD031EF8D0FB1D9F
:101970001B781B4A1900100004F01CFDC046184BD0
:101980008021180004F032FD031EF8D080239A0451
:10199000134800230093130001223A2104F0D4FCE1
:1019A000C0460F4B0221180004F020FD031EF8D0A2
:1019B000BB1D1B780A4A1900100004F0FBFCC0464E
:1019C000074B2021180004F011FD031EF8D0044B32
:1019D0002021180004F030FDC046BD4602B080BD95
:1019E0000054004090B585B000AF0400080011001D
:1019F000FB1D221C1A70BB1D021C1A707B1D0A1CC9
:101A00001A700F23FC181949FB1D1B7801221800BE
:101A1000FFF7F6FE030023707B1D1B78002B09D017
:101A20000F23FB180F22B918BA1D097812780A4340
:101A30001A700DE0BB1D1B785BB2DB435BB20F225B
:101A4000BA18127852B213405AB20F23FB181A7008
:101A50000F23FB181A78FB1D1B7811001800FFF7E5
:101A60005FFFC046BD4605B090BDC046E8030020FC
:101A700080B500AF0F4B1B78002B01D1002315E080
:101A8000002201212A20FFF7ADFF6420FFF77EF836
:101A9000094B012219000B20FFF7B2FE031E01D0F3
:101AA000012303E0034B00221A7000231800BD46F7
:101AB00080BDC04648010020E803002080B500AF8B
:101AC0000F4B1B78002B01D0002316E001220121CF
:101AD0002A20FFF787FF6420FFF758F8094B0122FF
:101AE00019000B20FFF78CFE031E012B01D00123F0
:101AF00003E0034B01221A7000231800BD4680BD8D
:101B000048010020E803002080B58AB000AF8023A0
:101B10009B020121180004F0C1FA8023DB0301219C
:101B2000180004F0BBFA80239B030121180004F085
:101B3000F5FA2023FB1803221A602023FB18022247
:101B40001A712023FB1801229A712023FB1800220E
:101B50005A712023FB183B4A1900100004F078FC4E
:101B6000384B01220021180004F00AFD354B0122F8
:101B70000121180004F004FD2023FB180C221A6038
:101B80002023FB1800221A712023FB180122DA718E
:101B90002023FB1803225A712023FA189023DB0517
:101BA0001100180004F054FC3B1D00225A613B1D3B
:101BB00000225A603B1DAB221A613B1D00229A6035
:101BC0003B1D00229A613B1D0022DA603B1D1E4A2C
:101BD0001A603B1D1D4A1900100004F02FFB1B4B1F
:101BE0000121180004F092FB3220FEF7CFFF184BC2
:101BF000012219000D20FFF703FE031E5A2B01D00E
:101C000001231BE0012202212B20FFF7EBFE012222
:101C100029212A20FFF7E6FE0D4B012219000B2097
:101C2000FFF7EEFD031E012B04D00A4B00221A70B1
:101C3000022303E0074B01221A7000231800BD465F
:101C40000AB080BD001400480A0210000054004091
:101C5000E80300204801002080B582B000AF0200F8
:101C6000FB1D1A70FFF704FF031E01D0012312E0D1
:101C7000002203210E20FFF7B5FEFB1D1B78012279
:101C800019000E20FFF7AEFEFFF718FF031E01D06C
:101C9000032300E000231800BD4602B080BDC0460B
:101CA00080B582B000AF0200FB1D1A70FFF7E0FEA6
:101CB000031E01D0012314E0002238212A20FFF75F
:101CC00091FEFB1D1B78DB00DBB2012219002A20EC
:101CD000FFF788FEFFF7F2FE031E01D0032300E0AA
:101CE00000231800BD4602B080BDC04680B582B05A
:101CF00000AF0200FB1D1A70FFF7BAFE031E01D0F1
:101D0000012320E000223E212A20FFF76BFEFB1D6D
:101D10001B78002B02D0012B06D00BE00122022100
:101D20002A20FFF75FFE07E0012228212A20FFF783
:101D300059FE01E0022306E0FFF7C0FE031E01D0BA
:101D4000032300E000231800BD4602B080BDC0465A
:101D500080B584B000AF0823FB18032219000120CE
:101D6000FFF74EFD0823FB181B785AB23B1D1A7073
:101D70000823FB185B785AB23B1D5A700823FB18E6
:101D80009B785AB23B1D9A700C23FB183A1D1188A0
:101D9000198092789A700C23FA1800231178FF208A
:101DA0000140FF2083430B435178FF20014009028B
:101DB000064803400B439278FF210A40120404496D
:101DC0000B4013431800BD4604B080BDFF00FFFF69
:101DD000FFFF00FF80B584B000AFFFF749FE01228E
:101DE00001212D20FFF7FEFD012201212E20FFF70A
:101DF000F9FD0121012004F071F90221002004F015
:101E00001FF80823FB1804221A600823FB1800227D
:101E10001A710823FB180C225A710823FB1801229F
:101E20009A710823FB18180004F0E6FC3B1D0622FB
:101E30001A703B1D01229A703B1D180004F08EF9A8
:101E4000FFF73CFEC046BD4604B080BD80B582B001
:101E500000AF0200FB1D1A70064BFA1D127811002C
:101E60001F220A40012191400A001A60C046BD4667
:101E700002B080BD00E100E080B500AF0220FFF7B6
:101E8000EBFE0020FFF732FF0220FFF709FFFFF70C
:101E9000A1FF00F0F9FB334B1B78DBB2DB18DAB2A1
:101EA000314B1B78DBB2D318DAB2304B1A700121F8
:101EB000012004F033F98023DB0500221A808023FF
:101EC000DB0530221A858023DB058022D205928A29
:101ED00092B201210A4392B29A828023DB058022CA
:101EE000D205128892B201210A4392B21A8080234D
:101EF000DB058022D205928992B202210A4392B276
:101F00009A818023DB051A4A5A638023DB058022ED
:101F1000D205128C92B201210A4392B21A840F2088
:101F2000FFF794FF0121022004F0F8F8114B002282
:101F30001A80104B30221A850E4A0E4B9B899BB299
:101F400001210B439BB293810A4A0A4B1B8A9BB225
:101F500001218B439BB213821020FFF777FFC0460D
:101F6000BD4680BD88010020CC010020CD010020AD
:101F7000307500000004004080B500AF2C4A2C4BA7
:101F80001B8A9BB201218B439BB21382294B1B7886
:101F9000DBB2002B28D1284B1B78DAB2274B1B78F9
:101FA000DBB29A421AD3244B1B78DBB21A00234BC4
:101FB0001B78DBB21900224B1B78DBB2CB189A429C
:101FC0000CDA1D4B1B78DBB21A001E4B5200D35AA1
:101FD0009BB21F21180000F0D5FA01E000F054FB7D
:101FE000144B01221A701FE000F04EFB164B1B78B9
:101FF0005BB2DAB2104B1B78DBB2D318DAB20E4BFD
:102000001A700C4B00221A700B4B1B78DAB20F4B74
:102010001B78DBB29A4207D3054A054B1B889BB25B
:1020200001218B439BB21380C046BD4680BDC04694
:1020300000040040EC0300204A0100208801002039
:10204000CC0100208C01002049010020CD0100209E
:1020500080B500AF0D4B0D4A526904210A435A6105
:10206000FFF776FE094B094A126804210A431A60F9
:102070008023DB058022D205128A92B202218A4394
:1020800092B21A82C046BD4680BDC04600040140DF
:1020900090B583B000AF234B224A126804218A43D3
:1020A0001A608023DB055B6A7B601F4C1F4B1B782B
:1020B000DBB25B0019007868FEF726F803001B040A
:1020C0001B0CE362184A184B1B8A9BB201218B43FD
:1020D0009BB213828023DB058022D205928A92B2C2
:1020E00001210A4392B29A820F4A0F4B9B8A9BB2FC
:1020F00001210B439BB293828023DB058022D20512
:10210000128892B201210A4392B21A80064A064B03
:102110001B889BB201210B439BB21380C046BD4676
:1021200003B090BD0004014000040040CD01002038
:1021300080B582B000AFFFF70BFE03001A003B0032
:10214000111C19701104090E59701202120E9A70A6
:10215000BB1D3A0012781A70BB1D1B787F2B04D868
:10216000FB1DBA1D12781A7004E0BB1D1A78FB1D06
:1021700052421A705F4B1B78DBB2042B00D993E0FC
:102180009A005D4BD3181B689F46FB1D1B78642B80
:1021900000D880E08023DB058022D205128892B22D
:1021A00001218A4392B21A80544A544B1B889BB235
:1021B00001218B439BB21380BB1D1B785BB2002BAC
:1021C00003DD4C4B03221A7065E04A4B01221A7062
:1021D00061E0FB1D1B78632B5FD8494B01221A700D
:1021E000484B00221A70484B00221A70FFF750FF2C
:1021F000404B02221A7050E0FB1D1B78632B4ED817
:102200003F4BFF221A70414B1B78DAB23D4B1A70DC
:102210003D4B01221A70FFF73BFF364B04221A7028
:102220003DE0BB1D1B785BB2642B3ADD8023DB05F0
:102230008022D205128892B201218A4392B21A807A
:102240002E4A2E4B1B889BB201218B439BB21380DD
:1022500000F01AFA274B03221A7022E0BB1D1B78EC
:102260005BB264331FDA8023DB058022D20512883B
:1022700092B201218A4392B21A80204A1F4B1B88D6
:102280009BB201218B439BB2138000F0FDF9194BE7
:1022900001221A7007E0C04606E0C04604E0C046CE
:1022A00002E0C04600E0C0468023DB055B6A184AB6
:1022B000934218D98023DB058022D205928A92B2FC
:1022C00001210A4392B29A828023DB058022D20543
:1022D000128892B201210A4392B21A8000F0D4F916
:1022E000044B00221A70042004F0F6FAC046BD46E2
:1022F00002B080BDED0300203C76000800040040E1
:10230000490100204A010020EC030020CD010020FB
:10231000C0FF3F0080B592B000AF80239B02012137
:10232000180003F0BBFE80235B010121180003F0BD
:10233000D5FE0121012003F0B1FE4023FB18A022AD
:102340001A604023FB1802221A714023FB18002256
:102350009A714023FB1803225A714023FA189023E4
:10236000DB051100180004F073F82C23FB18102271
:102370009A812C23FB1801221A812C23FB1802229C
:10238000DA802C23FB18E022D2009A802C23FB1841
:102390008022D2011A802C23FB180022DA812C2300
:1023A000FB18822252005A802C23FB1880229200B4
:1023B0005A812C23FB181D4A1900100003F08AFDD6
:1023C0001A4B01220221180003F028FE174B0121AD
:1023D000180003F003FE3B0010229A603B0000222D
:1023E0009A62134A3B005A603B000022DA613B00CC
:1023F00080225A613B0000221A623B000D4A1A609B
:102400003B0000229A613B0000221A613B008022BF
:1024100092015A623B00084A1900100004F06AFA5F
:1024200000F032F9C046BD4612B080BD0030014018
:10243000300400200C3001403000024080B582B0F2
:1024400000AFFB1D00221A70BB1D00221A704A4B00
:102450000021180004F08CFA7B1D00221A700EE097
:10246000BB1D1B78454A0021D154BB1D1A78BB1DEA
:1024700001321A707B1D1A787B1D01321A707B1D88
:102480001B78032BECD93B1D00221A704BE0BB1DBF
:102490001B78FA1D11783A4A89008A5C202149424A
:1024A0000A43D1B2354AD154BB1D1A78BB1D013243
:1024B0001A70BB1D1B78FA1D1278314992008A18D8
:1024C000013211782D4AD154BB1D1A78BB1D01323F
:1024D0001A70BB1D1B78FA1D1278294992008A18C0
:1024E00002321178254AD154BB1D1A78BB1D013226
:1024F0001A70BB1D1B78FA1D1278214992008A18A8
:10250000033211781D4AD154BB1D1A78BB1D01320C
:102510001A70FB1D1A78FB1D01321A703B1D1A78C8
:102520003B1D01321A703B1D1B780F2BAFD9FB1CD2
:1025300000221A700EE0BB1D1B78104A0021D154F6
:10254000BB1D1A78BB1D01321A70FB1C1A78FB1CCC
:1025500001321A70FB1C1B78072BECD9064B4C215F
:10256000180004F023FA044B0121180004F000FACB
:10257000C046BD4602B080BD30000240300400209D
:10258000F003002080B584B000AF0200BB1D1A80AC
:102590007B1D0A1C1A707B1D1B781F2B02D97B1D0B
:1025A0001F221A70294B7A1D12781A700E23FB18FD
:1025B00000221A803EE0BB1D1A880E23FB181B88E0
:1025C0001A411300012213400BD00E23FB181B8865
:1025D0001F4A9B001D49D3180422180004F070FA0A
:1025E00021E00E23FB181A88194B92000021D154C8
:1025F0000E23FB181B88164A9B00D31801330022B8
:102600001A700E23FB181B88114A9B00D318023343
:1026100000221A700E23FB181B880D4A9B00D3184A
:10262000033300221A700E23FB181A880E23FB189E
:1026300001321A800E23FB181B880F2BBBD9FFF722
:10264000FDFEC046BD4604B080BDC046F40100207A
:10265000F003002080B582B000AF0200FB1D1A70AD
:10266000BB1D0A1C1A70FB1D1B7801229A40130027
:102670009AB2BB1D1B7819001000FFF783FFC046FC
:10268000BD4602B080BDC04680B582B000AFBB1D64
:1026900000221A8022E0BB1D1A88154B92000021EF
:1026A000D154BB1D1B88124A9B00D3180133002252
:1026B0001A70BB1D1B880E4A9B00D31802330022E0
:1026C0001A70BB1D1B880A4A9B00D31803330022D3
:1026D0001A70BB1D1A88BB1D01321A80BB1D1B88D6
:1026E0000F2BD8D9FFF7AAFEC046BD4602B080BD69
:1026F000F003002090B585B000AF78600C001000AA
:102700001900FB1C221C1A70BB1C021C1A707B1CBB
:102710000A1C1A700E23FB18BA1C12781A8022E0C9
:102720000E23FB181B887A68D3181B78FA1C1278C2
:102730009A4203D10E23FB181B881FE07B1C1B78D9
:10274000FF2B09D10E23FB181B887A68D3181B783E
:10275000002B01D10B4B11E00E23FB181A880E231E
:10276000FB1801321A800E23FB181A887B1C19787B
:10277000BB1C1B78CB189A42D2DB024B1800BD461B
:1027800005B090BDFFFF000080B586B000AF786057
:1027900008001100FB1C021C1A70BB1C0A1C1A70DA
:1027A0001723FB1800221A701623FB1802221A7036
:1027B000BB1C1B78FF2B0DD1FB1C1A787868FF23FC
:1027C0000021FFF797FF0300D9B2BB1CFA1C127857
:1027D0008A1A1A70FA1CBB1C12781B78D318DAB24A
:1027E0000E23FB18013A1A700D23FB18FA1C1278FD
:1027F0001A700D23FA180E23FB1812781B789A42D0
:1028000000D985E00D23FB181B787A68D3181B7854
:102810002F2B00D879E00D23FB181B787A68D3188A
:102820001B78392B00D970E00D23FA180E23FB1802
:1028300012781B789A4207D10D23FB181B787A680F
:10284000D3181B78303B14E10D23FB181B780133A0
:102850007A68D3181B782F2B13D90D23FB181B78FC
:1028600001337A68D3181B78392B0AD81623FB1842
:102870000A221A701723FB180D22BA1812781A7040
:1028800046E00D23FB181B7801337A68D3181B78B8
:10289000582B08D00D23FB181B7801337A68D31806
:1028A0001B78782B0BD11623FB1810221A701723D4
:1028B000FB180D22BA18127802321A7028E00D2384
:1028C000FB181B7801337A68D3181B78422B08D089
:1028D0000D23FB181B7801337A68D3181B78622B01
:1028E0000BD11623FB1802221A701723FB180D2296
:1028F000BA18127802321A700AE00D23FB181B78FE
:102900007A68D3181B78303BB3E001235B42B0E018
:1029100000233B610F23FB1800221A709DE0172350
:10292000FB181A780F23FB181B78D3181A007B6842
:102930009A180C23FB1812781A701623FB181B78B0
:102940000A2B1ED0102B36D0022B00D07EE00C2399
:10295000FB181B78302B04D00C23FB181B78312B71
:102960000DD11623FB181A783B6953433B610C23A6
:10297000FB181A783B69D318303B3B6166E03B6932
:1029800077E00C23FB181B782F2B12D90C23FB1894
:102990001B78392B0DD81623FB181A783B69534343
:1029A0003B610C23FB181A783B69D318303B3B6121
:1029B0004CE03B695DE00C23FB181B782F2B12D9F0
:1029C0000C23FB181B78392B0DD81623FB181A780B
:1029D0003B6953433B610C23FB181A783B69D318BE
:1029E000303B3B6131E00C23FB181B78602B12D984
:1029F0000C23FB181B78662B0DD81623FB181A78AE
:102A00003B6953433B610C23FB181A783B69D3188D
:102A1000573B3B6119E00C23FB181B78402B12D964
:102A20000C23FB181B78462B0DD81623FB181A789D
:102A30003B6953433B610C23FB181A783B69D3185D
:102A4000373B3B6101E03B6913E0C0460F23FB18B5
:102A50001A780F23FB1801321A700F23FB181A780B
:102A6000BB1C1978FB1C1B78CB1A9A4200DA56E77C
:102A70003B691800BD4606B080BDC04680B582B037
:102A800000AF664B00221A70654B1B78012213437E
:102A9000DAB2634B1A7003F0C5FDFB1D00221A70F9
:102AA0000CE0FB1D1A78FB1D1B7899B25D4B5200A0
:102AB000D152FB1D1A78FB1D01321A70FB1D1B78C9
:102AC000242BEED9FEF7F8F8BB1D00221A7011E096
:102AD000BB1D1A78534B5200D05ABB1D1B785A00AD
:102AE000514BD3181900FEF7D7FABB1D1A78BB1D3E
:102AF00001321A70BB1D1B78242BE9D94A4B1B8865
:102B0000DAB24A4BDA70484B5B88DAB2474B9A70BC
:102B1000454B9B88DAB2454B5A70434BDB88DAB29F
:102B2000434B1A70404B1B89DAB2424B1A70404B30
:102B30001B78DBB2FF2B02D13D4B00221A703C4BBD
:102B40001B78DBB2202B02D9394B20221A707B1D57
:102B500000221A700FE07B1D1A787B1D1B78591D0F
:102B6000314B4900C95A344B5200D1527B1D1A785F
:102B70007B1D01321A702E4B1B78DBB27A1D127846
:102B80009A42E8D32A4B1B78DBB2002B42D1284B68
:102B900010221A70274B00221A70274BF022920045
:102BA0001A80254BC32212015A80234B234A9A8054
:102BB000214B234ADA80204B224A1A811E4B214A9C
:102BC0005A811D4B204A9A811B4B204ADA811A4BAD
:102BD0001D4A1A82184B1C4A5A82174B194A9A826C
:102BE000154B184ADA82144B154A1A83124B134AB2
:102BF0005A83114BC32212019A830F4BF022920089
:102C0000DA830A4BFF22DA70084BFF229A70074BD7
:102C1000FF225A70C046BD4602B080BDC6040020E7
:102C2000530500207C04002008050020F40100204A
:102C3000CC010020880100208C0100200810000039
:102C400004200000124400000980FFFF8981FFFF7B
:102C500080B500AF0C4B00211800FEF701FD0B4BB7
:102C600000211800FEF7FCFC094B00211800FEF7BC
:102C7000F7FC084B1B7801221343DAB2054B1A709C
:102C8000C046BD4680BDC046EC730008C8040020A5
:102C9000FC73000853050020B0B58AB002AFE04BCA
:102CA0001800FEF77BFD02001F23FB181A70DD4B96
:102CB0001B78042B00D991E29A00DB4BD3181B68D8
:102CC0009F46DA4B1B781A000123134019D0D74BCB
:102CD0001B7801229343DAB2D44B1A70D44B0021F3
:102CE0001800FEF7BDFCD34B1B78DBB21A00D249AB
:102CF000CB4B180003F0EEFEC94B00211800FEF785
:102D0000AFFC1F23FB181B78002B00D15DE2C44BE6
:102D10001B780A2B0BD1C94B00211800FEF7A0FC31
:102D2000C04B01221A70C14B01221A7056E21F23B8
:102D3000FB181A78BA4B00211800FFF725FD030095
:102D4000BB61BB69202B02D9FFF782FF46E2BC4B77
:102D5000DB88BA69D2B292B211001800FEF702FA0B
:102D6000BB69DAB2B34B1A70B24B1B78DBB21A00F4
:102D7000B449AB4B180003F0ADFEA94B002118007D
:102D8000FEF76EFCA74B01221A70A84B01221A70A5
:102D900024E2A64B1B781A00012313401ED0A34B3C
:102DA0001B7801229343DAB2A04B1A70A64B002184
:102DB0001800FEF755FCA54B1B78DBB21A009E49A4
:102DC000974B180003F086FE954B00211800FEF784
:102DD00047FC9F4B00211800FEF742FC1F23FB1805
:102DE0001B78002B00D1F2E18D4B1B780A2B0BD105
:102DF000924B00211800FEF733FC8A4B02221A7016
:102E00008A4B01221A70E9E11F23FB181A78844BC0
:102E100000211800FFF7B8FC03007B617B69FF2BE2
:102E200002D9FFF715FFD9E1854B1B897A69D2B228
:102E300092B211001800FEF795F97B69DAB2834B64
:102E40001A707C4B1B78DBB21A008249744B180055
:102E500003F040FE724B00211800FEF701FC714B9D
:102E600002221A70714B01221A70B7E16F4B1B7866
:102E70001A000123134020D06C4B1B78012293438E
:102E8000DAB26A4B1A70744B00211800FEF7E8FBA7
:102E9000724B00211800FEF7E3FB714B00221A7001
:102EA0006F4B1B781A006F495D4B180003F012FE40
:102EB0005B4B00211800FEF7D3FB694B1A785D4B82
:102EC0001B78DBB29A424FD21F23FB181B78002BD2
:102ED00000D17EE1524B1B780A2B0FD1604B1B783F
:102EE000002B0BD1604B00211800FEF7B9FB4D4BB6
:102EF00003221A704D4B01221A706FE11F23FB1839
:102F00001A78474B00211800FFF73EFC03003B6195
:102F10003B69564A934202D9FFF79AFE5EE1504B55
:102F20001B785A1D464B5200D35A3A6992B211008F
:102F30001800FEF717F94E4B00211800FEF790FB22
:102F4000474B1B780133DAB2454B1A70444B1B7860
:102F50001A004449324B180003F0BCFD304B0021ED
:102F60001800FEF77DFB39E1424B00211800FEF707
:102F700077FB2C4B03221A702C4B01221A702DE187
:102F80002A4B1B781A00012313401ED0274B1B78B5
:102F900001229343DAB2254B1A70374B00211800F7
:102FA000FEF75EFB354B1B881A00344B5B881C0018
:102FB000324B9B8832491A480093230003F08AFD64
:102FC000174B00211800FEF74BFB1F23FB181B7843
:102FD000002B00D1FFE0124B1B780A2B0BD1174BB3
:102FE00000211800FEF73CFB0E4B04221A700F4B19
:102FF00001221A70F2E00E23FC181F23FB181B7825
:10300000074801222C21FFF775FB030023800E23C4
:10301000FB181B88154A934234D1FFF719FEDDE0F7
:10302000C8040020C6040020507600085305002084
:1030300000740008CC010020247400082C740008DF
:103040007C040020387400085C74000888010020AB
:1030500088740008C8740008EC740008147500082F
:10306000520500204075000844750008FFFF00006D
:10307000607500086875000888750008080500205C
:10308000C07500080E23FB181B88DBB20133DAB2CF
:103090000C23FC181F23FB181B7852482C21FFF728
:1030A00029FB030023800E23FB181B884E4A934202
:1030B00002D1FFF7CDFD91E00E23FB181B88DAB299
:1030C000484B00211800FFF75FFB0300BB60BB68A3
:1030D000FF2B02D9FFF7BCFD80E00E23FB181B88F5
:1030E000DBB20133D9B20C23FB181B88DAB23D4B9B
:1030F0001800FFF749FB03007B607B68FF2B02D9B8
:10310000FFF7A6FD6AE00C23FB181B88DBB2013336
:10311000D9B21F23FB181A78324B1800FFF734FB83
:1031200003003B603B68FF2B02D9FFF791FD55E0A0
:103130002E4B1B88BA68D2B292B211001800FEF76B
:1031400011F82A4B5B887A68D2B292B2110018004B
:10315000FEF708F8254B9B883A68D2B292B211006C
:103160001800FDF7FFFFBB68FF2213401C007B68BF
:10317000FF2213401D003B68FF2213401C491948E1
:1031800000932B00220003F0A5FC164B0021180031
:10319000FEF766FA174B04221A70174B01221A70B9
:1031A0001CE0154B1B781A000123134015D0124B5D
:1031B0001B7801229343DAB20F4B1A700F4B002198
:1031C0001800FEF74DFAC04607E0C04606E0C046CC
:1031D00004E0C04602E0C04600E0C046BD4608B07C
:1031E000B0BDC046C8040020FFFF00007C040020E2
:1031F000CC750008C604002053050020EC750008BB
:1032000080B584B000AF786039600F23FB180022CE
:103210001A703B685B78092B35D89A00214BD3187C
:103220001B689F463A687B681100180000F08EF911
:1032300030E03A687B681100180000F06FFA29E06E
:103240003A687B681100180000F0B0FA22E03A6892
:103250007B681100180000F027FB1BE03A687B68D0
:103260001100180000F054FB14E03A687B6811006C
:10327000180000F077FB0DE03A687B681100180039
:1032800000F08EFB06E03A687B681100180000F041
:10329000F1FBC0460F23FB181B781800BD4604B095
:1032A00080BDC0466476000890B585B000AF7860F8
:1032B00039600F23FB1800221A707B689B78032B60
:1032C00026D13B689B88DBB2012B1AD87A68AC23E5
:1032D0005B00D3589B680F22BC1839687A681000CD
:1032E0009847030023703B68DB88002B17D10F231E
:1032F000FB181B78002B12D17B68180000F0BAFC79
:103300000DE03A687B681100180000F0B3FB06E09E
:103310003A687B681100180000F0ACFB00E0C04682
:103320000F23FB181B781800BD4605B090BDC046A2
:1033300080B584B000AF786039600023BB600F2394
:10334000FB1800221A703B689A880E23FB181A702B
:103350003B685B78012B4CD0032B03D0002B00D1B2
:103360008EE0ECE07B689B78022B02D0032B13D01D
:1033700036E00E23FB181B78002B38D00E23FB18E9
:103380001B78802B33D00E23FB181A787B68110032
:10339000180001F07BFF2AE03B685B88002B11D10D
:1033A0000E23FB181B78002B0CD00E23FB181B7868
:1033B000802B07D00E23FB181A787B6811001800A9
:1033C00001F064FF7A68AC235B00D3589B683968CE
:1033D0007A68100098477B68180000F04BFC07E003
:1033E0003A687B681100180000F044FB00E0C0461A
:1033F000A5E07B689B78022B02D0032B13D036E02C
:103400000E23FB181B78002B38D00E23FB181B78DB
:10341000802B33D00E23FB181A787B68110018001C
:1034200001F034FF2AE03B685B88002B11D10E23AA
:10343000FB181B78002B0CD00E23FB181B78802B5D
:1034400007D00E23FB181A787B681100180001F0D2
:103450008BFF7A68AC235B00D3589B6839687A6825
:10346000100098477B68180000F004FC07E03A68F9
:103470007B681100180000F0FDFA00E0C0465EE035
:103480007B689B78022B02D0032B13D04EE00E23D7
:10349000FB181B78002B50D00E23FB181B78802BB9
:1034A0004BD00E23FB181A787B681100180001F02E
:1034B000EDFE42E00E23FB181B785BB2002B14DA02
:1034C0000E23FB181B787F221A40796813009B009B
:1034D0009B18DB00CB181A331B78002B02D001237A
:1034E000BB601BE00023BB6018E00E23FB181B78B9
:1034F0005BB2002B12DB0E23FB181A787968BA2016
:1035000013009B009B18DB00CB181B181B78002BAB
:1035100002D00123BB6001E00023BB600823F9183F
:103520007B680222180000F027FB07E03A687B68FE
:103530001100180000F09EFA00E0C046C0460F23BC
:10354000FB181B781800BD4604B080BD80B584B060
:1035500000AF786039603B685B881B0A9BB2072B21
:1035600000D9AAE09A006B4BD3181B689F467A6873
:10357000B0235B00D3581A687B68DB68DBB20A2192
:103580007918180090470300FB603B68DB88402BEC
:1035900000D099E00A23FB1808221A8094E07A6888
:1035A000AC235B00D3581A6A7B68DB68DBB20A2164
:1035B0007918180090470300FB607A68B2235B001B
:1035C000F968D15081E03B685B88DBB2052B5ED89F
:1035D0009A00514BD3181B689F467A68B0235B0052
:1035E000D3585A687B68DB68DBB20A217918180067
:1035F00090470300FB6051E07A68B0235B00D3582A
:103600009A687B68DB68DBB20A217918180090475A
:103610000300FB6042E07A68B0235B00D358DA68AD
:103620007B68DB68DBB20A21791818009047030039
:10363000FB6033E07A68B0235B00D3581A697B687B
:10364000DB68DBB20A217918180090470300FB60A1
:1036500024E07A68B0235B00D3585A697B68DB6842
:10366000DBB20A217918180090470300FB6015E0CF
:103670007A68B0235B00D3589A697B68DB68DBB259
:103680000A217918180090470300FB6006E03A68A9
:103690007B681100180000F0EDF937E015E03A689A
:1036A0007B681100180000F0E5F92FE03A687B68AC
:1036B0001100180000F0DEF928E03A687B6811007C
:1036C000180000F0D7F921E0C0460A23FB181B8838
:1036D000002B1BD03B68DB88002B17D03B68DA88B7
:1036E0000A23FB181B88181C111C8AB283B29A4249
:1036F00000D9011C8AB20A23FB181A800A23FB187E
:103700001A88F9687B68180000F036FABD4604B0E4
:1037100080BDC0468C760008AC76000880B584B0C9
:1037200000AF786039603B689B88002B31D13B68E3
:10373000DB88002B2DD13B685B88DAB20F23FB18A6
:103740007F210A401A707B689B78032B06D13A6868
:103750007B681100180000F08DF920E07B680F22D3
:10376000BA1812781A710F23FB181A780E4B1A60C8
:103770007B68180000F07EFA0F23FB181B78002BE3
:1037800003D07B6802229A7009E07B6801229A705C
:1037900005E03A687B681100180000F06BF9C0463C
:1037A000BD4604B080BDC0464C01002080B582B04B
:1037B00000AF786039603B685B88DAB2394B1A70C9
:1037C000384B1B78012B06D93A687B68110018002A
:1037D00000F050F962E07B689B78022B02D0032B4B
:1037E0001CD054E02F4B1B78002B12D02D4B1A7895
:1037F0007B681A707B6803229A702A4B1A787B6860
:103800001100180000F048FC7B68180000F032FA44
:1038100044E07B68180000F02DFA3FE0214B1B7854
:10382000002B12D17B6802229A701E4B1A787B689B
:103830001A701C4B1A787B681100180000F048FCC5
:103840007B68180000F016FA28E07B681A78154BA0
:103850001B789A4216D07B681A787B681100180092
:1038600000F036FC0F4B1A787B681A700D4B1A78F3
:103870007B681100180000F00FFC7B68180000F056
:10388000F9F90BE07B68180000F0F4F906E03A68FB
:103890007B681100180000F0EDF8C046C046BD4638
:1038A00002B080BD5001002080B584B000AF7860C8
:1038B00039600023FB603B68DB88012B06D03A6847
:1038C0007B681100180000F0D5F81CE07B689B783D
:1038D000022B02D0032B08D00EE00C23F9187B68D2
:1038E0000122180000F048F90DE079687B68012298
:1038F000180000F041F906E03A687B6811001800F2
:1039000000F0B8F8C046C046BD4604B080BDC04611
:1039100080B584B000AF786039600023FB607B68BD
:103920009B78023B012B11D80123FB607B689B68CD
:10393000002B03D0FB6802221343FB600C23F91811
:103940007B680222180000F017F906E03A687B68ED
:103950001100180000F08EF8C046C046BD4604B005
:1039600080BDC04680B582B000AF786039603B68EA
:103970005B88012B0FD17B6801229A607A68AC23A7
:103980005B00D3589B6839687A68100098477B6859
:10399000180000F06FF9C046BD4602B080BDC046B9
:1039A00080B582B000AF786039607B689B78023B5D
:1039B000012B14D83B685B88012B17D17B68002250
:1039C0009A607A68AC235B00D3589B6839687A6840
:1039D000100098477B68180000F04CF906E03A6840
:1039E0007B681100180000F045F800E0C046C046B2
:1039F000BD4602B080BDC04680B582B000AF7860E1
:103A000039607B681A7C3B681A707B685A7C3B681B
:103A10005A707B689B7C9AB27B68DB7C9BB21B02F2
:103A20009BB2D3189AB23B685A807B681B7D9AB2CE
:103A30007B685B7D9BB21B029BB2D3189AB23B683A
:103A40009A807B689B7D9AB27B68DB7D9BB21B0270
:103A50009BB2D3189AB23B68DA803B68DB881A00C5
:103A60007B68DA637B6801225A70C046BD4602B0AB
:103A700080BDC04680B582B000AF786039607B6899
:103A80000021180001F002FCC046BD4602B080BD16
:103A900080B586B000AFF860B9607A601723FB1874
:103AA00000221A70FB68002B44D0FB68180000F05D
:103AB00045F8030001339BB2DB189AB27B681A8089
:103AC0001723FB181B781722BA18591C11701A00FB
:103AD000BB689B187A681288D2B21A701723FB1839
:103AE0001B781722BA18591C11701A00BB689B1852
:103AF00003221A701AE01723FB181B781722BA1832
:103B0000591C11701A00BB689A18FB68591CF9609F
:103B10001B7813701723FB181B781722BA18591C2F
:103B200011701A00BB689B1800221A70FB681B7882
:103B3000002BE0D1C046BD4606B080BD80B584B044
:103B400000AF78600F23FB1800221A7009E00F23E2
:103B5000FB181A780F23FB1801321A707B680133A7
:103B60007B607B681B78002BF1D10F23FB181B783F
:103B70001800BD4604B080BD80B586B000AFF860C7
:103B8000B960BB1D1A801723FB1800221A70BB1DD9
:103B90001A88FB689A63BB1D1A88FB685A63FB6826
:103BA00002225A70BB1D1B88BA68F868002101F018
:103BB000D7FA1723FB181B781800BD4606B080BD46
:103BC00080B586B000AFF860B960BB1D1A801723BE
:103BD000FB1800221A70BB1D1B88BA68F868002108
:103BE00001F0BEFA1723FB181B781800BD4606B07B
:103BF00080BDC04680B586B000AFF860B960BB1D1F
:103C00001A801723FB1800221A70BB1D1A88FB6844
:103C1000D8215A50BB1D1A88FB68D4215A50FB6822
:103C200003225A70BB1D1B88BA68F868002101F096
:103C300035FA1723FB181B781800BD4606B080BD67
:103C400080B586B000AFF860B960BB1D1A8017233D
:103C5000FB1800221A70BB1D1B88BA68F868002187
:103C600001F01CFA1723FB181B781800BD4606B09C
:103C700080BDC04680B584B000AF78600F23FB18CC
:103C800000221A707B6804225A7078680023002290
:103C9000002101F065FA0F23FB181B781800BD46C0
:103CA00004B080BD80B584B000AF78600F23FB18EE
:103CB00000221A707B6805225A707868002300225F
:103CC000002101F0EBF90F23FB181B781800BD460B
:103CD00004B080BD80B584B000AFF860B9607A6090
:103CE0003B60FB681800FCF70BFDFB68180000F058
:103CF00027F8FA68AC235B007968D150FA68AE23E4
:103D00005B003968D150FA68B0235B00B968D150C4
:103D1000FCF77AFCFB68180000F0A2FFFA68AE23FB
:103D20005B00D3581B689847FB681800FCF7FCFC45
:103D3000FB68180001F0A8FBC046BD4604B080BD7A
:103D400080B582B000AF786000231800BD4602B095
:103D500080BDC04680B584B000AF78600823FA18F3
:103D60007B6811001800FFF747FE0823FB181B783B
:103D70001A001F231340012B0BD0022B11D0002B54
:103D800017D10823FA187B6811001800FFF738FADA
:103D90001BE00823FA187B6811001800FFF784FA6B
:103DA00013E00823FA187B6811001800FFF7C0FA27
:103DB0000BE00823FB181B787F229343DAB27B6861
:103DC0001100180001F062FAC04600231800BD4639
:103DD00004B080BD80B584B000AF78600A00FB1CE1
:103DE0001A70FB1C1B78002B3AD17B68B833FB6040
:103DF0007B685B78032B48D1FB68DA69FB68DB687A
:103E00009A4215D9FB68DA69FB68DB68D21AFB684D
:103E1000DA61FB681969FB68DA68FB68DB699A425A
:103E200000D91A0092B27B681800FFF709FF2CE056
:103E30007A68AC235B00D3581B69002B0BD07B68DE
:103E40009B78032B07D17A68AC235B00D3581B699E
:103E50007A68100098477B681800FFF70BFF14E0A2
:103E60007A68AC235B00D3589B69002B0DD07B682C
:103E70009B78032B09D17A68AC235B00D3589B69EC
:103E8000FA1C11787A681000984700231800BD4684
:103E900004B080BD80B584B000AF78600A00FB1C20
:103EA0001A70FB1C1B78002B00D069E07B6818336C
:103EB000FB607B685B78022B4ED1FB68DA69FB689C
:103EC000DB689A4210D9FB68DA69FB68DB68D21AB2
:103ED000FB68DA61FB681969FB68DB699AB27B6889
:103EE0001800FFF76DFE60E0FB681A6AFB68DB688C
:103EF00019001000FCF78EF90B1E15D1FB681A6A29
:103F0000FB68DB689A420FD3FB681A6AFB685B6A3E
:103F10009A4209D27B68002200211800FFF750FE68
:103F2000FB6800225A6240E07A68AC235B00D358F9
:103F3000DB68002B0BD07B689B78032B07D17A685A
:103F4000AC235B00D358DB687A68100098477B6825
:103F50001800FFF7A7FE28E07B685B78042B24D1CC
:103F6000144B1B68002B20D0124B1B68DAB27B6805
:103F70001100180001F044FA0E4B00221A6014E000
:103F80007A68AC235B00D3585B69002B0DD07B684B
:103F90009B78032B09D17A68AC235B00D3585B690B
:103FA000FA1C11787A681000984700231800BD4663
:103FB00004B080BD4C01002080B582B000AF7860B5
:103FC000786840230022002100F076FE7868802384
:103FD0000022802100F070FE78680023402200213A
:103FE00000F0B8FE786800234022802100F0B2FE85
:103FF0007B6801229A707A68AE235B00D3585A68B6
:104000007B68DB68DBB21800904700231800BD46D0
:1040100002B080BD80B582B000AF78607A68AE2310
:104020005B00D3581B6998477B68DA787B689A7085
:1040300000231800BD4602B080BDC04680B582B0E6
:1040400000AF78607B689A787B68DA707B680422BE
:104050009A707A68AE235B00D358DB6898470023D8
:104060001800BD4602B080BD80B582B000AF786058
:104070007A68AC235B00D358DB69002B07D07A68E1
:10408000AC235B00D358DB697A68100098470023A3
:104090001800BD4602B080BD80B582B000AF786028
:1040A0000A00FB1C1A707A68AC235B00D3581B68AB
:1040B000FA1C11787A68100098477A68AE235B0082
:1040C000D3589B68984700231800BD4602B080BDB6
:1040D00080B582B000AF78600A00FB1C1A707A6865
:1040E000AC235B00D3585B68FA1C11787A68100027
:1040F000984700231800BD4602B080BD80B582B04D
:1041000000AF78600A00FB1C1A707868C023002298
:10411000812100F0D1FD80235B007868002282219C
:1041200000F0CAFD88235B0078680022032100F0BC
:10413000C3FD786802234022812100F00BFE7868DD
:1041400002234022032100F005FE786803230822A1
:10415000822100F0FFFD074B1B689847064A7868EC
:104160004023032100F09AFF00231800BD4602B04F
:1041700080BDC046600000209806002080B582B057
:1041800000AF78600A00FB1C1A707B688121180060
:1041900000F0FEFE7B680321180000F0F9FE7B684A
:1041A0008221180000F0F4FE034B5B68984700235F
:1041B0001800BD4602B080BD6000002080B584B00C
:1041C00000AF786039600E23FB183A221A80444B06
:1041D000BB603B681B781A00602313403FD0202B44
:1041E00035D13B68DB88002B27D03B681B785BB25E
:1041F000002B10DA3B4B9B683A68527810003A6803
:10420000D288394998473B68DA8837497B68180073
:10421000FFF7B2FC19E03B685B781A00334B1A6079
:104220003B68DB881A00324B1A603B68DA882E49FB
:104230007B681800FFF7DEFC07E02A4B9B683A68B2
:1042400052781000002200219847002344E03A6889
:104250007B6811001800FFF70DFC02233CE03B686F
:104260005B780A2B1DD00B2B22D0062B33D13B6859
:104270005B881B0A9BB2212B0AD11E4BBB603B689B
:10428000DB880E22BA1899B23A2900D93A23138052
:104290000E23FB181A88B9687B681800FFF76CFCBE
:1042A00019E015497B6801221800FFF765FC12E050
:1042B0003B685B88DBB2002B06D13B685B88DBB2D6
:1042C0001A000D4B1A6005E03A687B68110018006F
:1042D000FFF7D0FBC04600231800BD4604B080BDE8
:1042E000CD76000860000020D80600209400002051
:1042F0006C010020D67600085401002090B583B0F0
:1043000000AF78600A4B1B68FF2B0BD0094B9C68F1
:10431000074B1868084B1A68084B1900A047044B54
:10432000FF221A6000231800BD4603B090BDC046AE
:1043300094000020600000206C010020D8060020BE
:1043400080B584B000AF78600A00FB1C1A70304B57
:104350001B78012B56D12F4B1B68002B11D12E4BF4
:104360001B68012B09D12C4B00221A6078680023AE
:104370000022812100F0F4FE44E0254B00221A7057
:1043800040E0244B1B68402B15D9244B1A680E23A0
:10439000FB181A800C23FB1840221A801F4B1B6845
:1043A00040331A001D4B1A601A4B1B68403B1A0021
:1043B000184B1A601AE0194B1A680E23FB181A8062
:1043C000144B1A680C23FB181A80144B1A68114BF3
:1043D0001B68D218114B1A600E4B00221A600D4B4D
:1043E0001B68402B02D10C4B01221A600E23FB18D4
:1043F0001A880B4BD2180C23FB181B887868812174
:1044000000F0AEFE00231800BD4604B080BDC046DB
:104410006801002064010020580100206001002094
:10442000E006002080B584B000AF78600A00FB1C75
:104430001A70FB1C1A787968D02013009B009B1817
:10444000DB00CB181B181A680E23FB181A80094BC7
:104450001B690E22BA181188074A10009847064AAD
:1044600078684023032100F019FE00231800BD46A0
:1044700004B080BD600000209806002080B582B0A6
:1044800000AF7860094B1B68591C084A1160052B66
:1044900006D1064B00221A607B68180000F008F86D
:1044A00000231800BD4602B080BDC0467001002048
:1044B00080B584B000AF78603D4B1B78012B00D1F4
:1044C00073E03C4B1A6880231B019A4202D1394B9E
:1044D00000221A60374B1A68374B1B689A4203D187
:1044E000334B00221A7060E0324B1A68324B1B6863
:1044F0009A4207D92F4B1B6880221201D21A2F4BE8
:104500001A6006E02C4B1A682A4B1B68D21A2B4BF8
:104510001A602A4B1B68402B15D9264B1A680E23AC
:10452000FB181A800C23FB1840221A80214B1B68B1
:1045300040331A001F4B1A60204B1B68403B1A0087
:104540001E4B1A6022E01B4B1A680E23FB181A80C0
:104550001A4B1A680C23FB181A80164B1A68174B53
:104560001B68D218134B1A60144B00221A600C23DC
:10457000FB181B88402B02D1114B01221A600E4BF5
:104580001B68402B02D10C4B00221A60084B012201
:104590001A700E23FB181A880A4BD2180C23FB182A
:1045A0001B887868812100F0DBFDBD4604B080BD2A
:1045B00068010020600100205C01002064010020EF
:1045C00058010020E006002080B582B000AF020054
:1045D0003960FB1D1A703B6843221A80024B180099
:1045E000BD4602B080BDC046C476000890B587B015
:1045F00000AF1623FB1800221A803B1D00221A80F0
:104600006BE2BB1D1B889BB2DAB21323FB180F2190
:104610000A401A701323FB181B78002B00D0DDE032
:10462000BB1D1B889BB21A00102313401FD1C54B22
:10463000C44A1268C4490A401A60C44BFB60FB6854
:104640001B78180001F0B0F903001A00FB689A61AA
:10465000FB681A69FB689B69D218FB681A61BC4B3E
:104660001B685B68BB4A00211000984735E2BA4BD3
:10467000FB60B44B1B689AB23B1D1A803B1D1B8824
:104680009BB21A0080231B0113401ED0FB681B78CD
:10469000180001F0A7F903001A00FB689A61FB6893
:1046A0009988FB689B699AB2AC4B180001F096FBA5
:1046B000A44BA44A1268AA490A401A60A44B1B687A
:1046C0009B68A44A1000984707E23B1D1B889BB2D9
:1046D0001BB2002B00DB00E29A4B9A4A1268A049F9
:1046E0000A401A60FB681B78180001F07BF9030090
:1046F0001A00FB689A61FB689B69002B10D0FB686D
:104700001869FB689988FB689B699BB21A0001F0E5
:1047100065FBFB681A69FB689B69D218FB681A6124
:104720008B4B1B681B688B4A0021100098478D4BF0
:104730001B681B041B0C8C4A94466344BB60FB68DB
:10474000DB683E2B1DD9FB68DB685A091423FB1874
:104750001A80FB68DB681F22134006D11423FB1864
:104760001A881423FB18013A1A801423FB181B889B
:104770009B021BB27D4A13431BB29AB2BB681A80DC
:1047800018E0FB68DB685A081423FB181A80FB68E2
:10479000DB680122134006D01423FB181A88142367
:1047A000FB1801321A801423FB181B889B029AB253
:1047B000BB681A80634B1B689BB26D4A13409CB266
:1047C00080235B0163409CB280239B0163409CB2C9
:1047D0005C4B684A224392B21A607EE11323FB18B5
:1047E0001B789B00574A944663441B689AB23B1D52
:1047F0001A803B1D1B889BB21BB2002B00DBC5E05F
:104800001323FB181B789B004E4A944663441322E3
:10481000BA18127892004B498C466244126850498B
:104820000A401A601323FB181A7813009B009B1888
:10483000DB00B8331A00474BD318FB60FB689B7A48
:10484000002B18D1FB681B781622BC18180001F049
:10485000C9F8030023801623FB181B88002B4CD0BB
:10486000FB681869FB6899881623FB181B881A00D7
:1048700001F0B4FA41E0FB681B78180000F04CFE30
:1048800003001A008023DB01134018D0FB681B785B
:104890001622BC18180001F0DBF903002380162350
:1048A000FB181B88002B22D0FB681869FB68D9888D
:1048B0001623FB181B881A0001F090FA17E0FB681A
:1048C0001B781622BC18180001F0E0F903002380C1
:1048D0001623FB181B88002B09D0FB681869FB689E
:1048E00019891623FB181B881A0001F077FAFB6858
:1048F0001B780021180001F0E7F9FB689A6916237C
:10490000FB181B88D218FB689A61FB681A6916238A
:10491000FB181B88D218FB681A61FB685B69002BC7
:1049200006D01623FB181A88FB68DB689A4223D24C
:10493000074B1B681B68FA681178064A10009847F5
:1049400024E0C046005C00400F8F00009802002069
:1049500090000020800200203803002090020020F8
:104960008F0F0000505C0040066000400080FFFF99
:104970008FBFFFFF8080FFFFFB681978FB681A6913
:10498000FB685B699BB25C4800F088FB3B1D1B88A1
:104990009BB21A008023134000D19EE01323FB1822
:1049A0001A7813009B009B18DB0018331A00524B37
:1049B000D318FB601323FB181B789B004F4A9446C7
:1049C00063441322BA18127892004C498C46624410
:1049D00012684B490A401A60FB689B7A002B17D17A
:1049E000FB681B78180000F0DFFF03001A00FB686B
:1049F0009A61FB689B69002B49D0FB681869FB68CA
:104A00009988FB689B699BB21A0001F0A1F93EE00E
:104A1000FB681B78180000F07FFD03001A0040239C
:104A2000134017D0FB681B78180001F011F9030040
:104A30001A00FB689A61FB689B69002B21D0FB6818
:104A40001869FB68D988FB689B699BB21A0001F062
:104A50007FF916E0FB681B78180001F017F90300D6
:104A60001A00FB689A61FB689B69002B09D0FB6800
:104A70001869FB681989FB689B699BB21A0001F0F1
:104A800067F9FB681B780121180001F01DF9FB682C
:104A90001B78180000F088FF03001A00FB689A6179
:104AA000FB681A69FB689B69D218FB681A61FB688E
:104AB0005B69002B08D1134B1B685B68FA6811789F
:104AC0000D4A1000984708E0FB681978FB681A69DE
:104AD000FB685B69084800F043FB0B4B1B689AB20C
:104AE000BB1D111C198013B2002B00DA89E5C046EA
:104AF000BD4607B090BDC04680020020005C00406B
:104B00000F8F000090000020445C004080B582B010
:104B100000AFBB1D00221A80474B1B689AB2BB1D19
:104B20001A80BB1D1B889BB21A00444B1B681A409D
:104B300080231B02134001D0FFF758FDBB1D1B88CB
:104B40009BB21A003D4B1B681A408023DB001340C8
:104B50000DD0394B3A4A1A603A4B1B681B693A4AE6
:104B600010009847384B0021180000F049FCBB1D8D
:104B70001B889BB21A00314B1B681A4080239B0193
:104B8000134002D02C4B314A1A60BB1D1B889BB2CC
:104B90001A002A4B1B681A4080235B0113400BD07C
:104BA000254B2B4A1A60274B1B689B69264A10002D
:104BB00098470020FBF702FCBB1D1B889BB21A0024
:104BC0001E4B1B681A4080231B0113400AD01A4B4E
:104BD000204A1A601B4B1B685B691B4A10009847F0
:104BE000FBF7AAFBBB1D1B889BB21A00134B1B686B
:104BF0001A4080239B00134008D00F4B164A1A60BE
:104C0000104B1B68DB68104A10009847BB1D1B88BF
:104C10009BB21A00094B1B681A4080235B001340AB
:104C200005D0054B0D4A1A600720FBF7C7FBC046AD
:104C3000BD4602B080BDC046445C00407401002007
:104C4000FFFB00009000002080020020FFDF00003A
:104C5000FFEF0000FFF70000FFFD0000FFFE000077
:104C600080B582B000AF78607B6801229A707B6863
:104C700000221A717B6800229A607B680122DA6048
:104C8000012000F015FC002000F012FC002000F0D4
:104C90001FFC002000F02CFC064BBF2212021A6001
:104CA000044B1B689BB2180000F002FCC046BD46D6
:104CB00002B080BD7401002080B586B000AFF860FE
:104CC000080011007B600A23FB18021C1A800823CD
:104CD000FB180A1C1A800A23FB181B888022134029
:104CE0000DD00A23FB181B887F221A4013009B005B
:104CF0009B18DB001833FA68D3187B610CE00A2399
:104D0000FB181B887F221A4013009B009B18DB00B6
:104D1000B833FA68D3187B610823FB181B88002B73
:104D200007D17B6900229A727B689AB27B699A806C
:104D30000BE07B6901229A727B689AB27B69DA8008
:104D40007B681B0C9AB27B691A8100231800BD4650
:104D500006B080BD90B587B000AFF8600C001000C1
:104D600019000A23FB18221C1A800823FB18021CB6
:104D70001A80FB1D0A1C1A700A23FB181B8880224C
:104D8000134010D00A23FB181B887F221A401300FF
:104D90009B009B18DB001833FA68D3187B617B6992
:104DA00001225A700FE00A23FB181B887F221A4049
:104DB00013009B009B18DB00B833FA68D3187B61A3
:104DC0007B6900225A700823FB181A887B69DA6015
:104DD0007B69FA1D1278DA700A23FB181B88DBB294
:104DE0007F221340DAB27B691A707B691B78002B33
:104DF00008D17B6900225A627B690022DA617B69F3
:104E000000221A627B6900221A617B6900225A61C2
:104E10007B6900229A617B6900229A707B69DB784A
:104E2000012B21D002DC002B05D026E0022B0BD079
:104E3000032B10D021E07B691A7880239B00190096
:104E4000100000F07DFB18E07B691B780021180042
:104E500000F076FB11E07B691A78C023DB001900B3
:104E6000100000F06DFB08E07B691A788023DB00FE
:104E70001900100000F064FBC0467B699B7A002B90
:104E800036D17B695B78002B13D07B691A787B69FC
:104E90009B881900100000F0C5FC7B691B78180086
:104EA00000F092FC7B691B782021180000F072FB57
:104EB00069E07B691A787B699B881900100000F013
:104EC000D5FC7B691A787B69DB689BB219001000FE
:104ED00000F010FD7B691B78180000F045FC7B6931
:104EE0001A78C0239B011900100000F08FFB4AE0E4
:104EF0007B691B78180000F0C9FB7B6918787B6917
:104F0000D9887B691B891A0000F08AFD7B695B7870
:104F1000002B1DD17B691B78180000F025FC7B69F4
:104F20001B78180000F050FC7B691B78180000F01B
:104F3000F7FB7B691A78C0239B011900100000F071
:104F400065FB7B691B780021180000F023FB1AE049
:104F50007B691B78180000F007FC7B691B78180040
:104F600000F032FC7B691B78180000F0B5FB7B6910
:104F70001B780021180000F00DFB7B691B780021D5
:104F8000180000F043FB00231800BD4607B090BD99
:104F900080B584B000AF78600A00FB1C1A70FB1C5F
:104FA0001B785BB2002B0CDAFB1C1B787F221A40AB
:104FB00013009B009B18DB0018337A68D318FB6042
:104FC0000BE0FB1C1B787F221A4013009B009B18F0
:104FD000DB00B8337A68D318FB60FB689B7A002B40
:104FE0001BD1FB685B78002B0BD0FB681B7818008B
:104FF00000F0EAFBFB681B780021180000F0CAFAF9
:1050000046E0FB681B78180000F0AEFBFB681B78DD
:105010000021180000F0FAFA3AE0FB685B78002BF8
:105020001BD1FB681B78180000F09EFBFB681B7807
:10503000180000F0C9FBFB681B78180000F070FB3B
:10504000FB681B780021180000F0E0FAFB681B7871
:105050000021180000F09EFA1AE0FB681B78180087
:1050600000F082FBFB681B78180000F0ADFBFB68CA
:105070001B78180000F030FBFB681B78002118003B
:1050800000F088FAFB681B780021180000F0BEFAD7
:1050900000231800BD4604B080BDC04680B586B070
:1050A00000AFF86008007A6019000B23FB18021C9F
:1050B0001A700823FB180A1C1A8000233B610B237B
:1050C000FB181B787F221A4013009B009B18DB0003
:1050D000B833FA68D3187B617B697A681A61082350
:1050E000FB181A887B695A617B6900229A617B6987
:1050F0005A697B69DB689A4209D97B69DB683B6145
:105100003A697B695B699A1A7B695A6105E07B6938
:105110005B693B617B6900225A617B699B7A002B4A
:1051200008D17B691B783A6992B21100180000F02F
:10513000E1FB08E07B6918787B695B783A6992B299
:10514000190000F0ABFC7B691A78C0239B011900A1
:10515000100000F05BFA00231800BD4606B080BDC9
:1051600080B588B000AFF8607A603B600B23FB1815
:105170000A1C1A7000237B610B23FB181B787F220B
:105180001A4013009B009B18DB001833FA68D318F1
:10519000BB610B23FB181B787F221340DAB2BB697B
:1051A0001A70BB697A681A61BB693A685A61BB694F
:1051B00000229A61BB695A69BB69DB689A4209D9C6
:1051C000BB69DB687B617A69BB695B699A1ABB69F9
:1051D0005A6105E0BB695B697B61BB6900225A616A
:1051E000BB699B7A002B11D1BB691869BB699B888D
:1051F0007A6992B2190000F0ABFDBB691B787A693D
:1052000092B21100180000F055FB33E01E23FB188A
:1052100000221A80BB691878BB695B787A6992B200
:10522000190000F03BFCBB691B78180000F074F912
:1052300003001A004023134005D01E23FB18BA694F
:1052400012891A8004E01E23FB18BA69D2881A80DA
:10525000BB6918697B699AB21E23FB181B88190069
:1052600000F076FDBB691A78BB695B781900100005
:1052700000F02AFDBB691B783021180000F08AF984
:1052800000231800BD4608B080BDC04690B585B06B
:1052900000AF78600A00FB1C1A70FB1C1B785BB225
:1052A000002B0CDAFB1C1B787F221A4013009B009A
:1052B0009B18DB0018337A68D318FB6009E0FB1CED
:1052C0001A7813009B009B18DB00B8337A68D31858
:1052D000FB60FB681B78002B21D1FB681B789B00CF
:1052E0001E4A944663441B681D4A13401C008023D9
:1052F0005B0163401C00102363401C00FB681B78AB
:105300009B00164A9446634422001204120C15496D
:105310000A431A60FB6801229A70002319E0FB68B7
:105320005B78002B09D0FB6801229A70FB681B7820
:105330001021180000F02EF90AE0FB6801229A7093
:10534000FB681A7880235B011900100000F05EF9F9
:1053500000231800BD4605B090BDC046005C00406B
:10536000BFBF00008080000080B584B000AF7860CF
:105370000A00FB1C1A70FB1C1B785BB2002B0CDABA
:10538000FB1C1B787F221A4013009B009B18DB003C
:1053900018337A68D318FB6009E0FB1C1A781300F5
:1053A0009B009B18DB00B8337A68D318FB60FB685E
:1053B0005B78002B0ED0FB681B78180000F004FA15
:1053C000FB681B783021180000F0E4F8FB6800222D
:1053D0009A700FE0FB681B78180000F0C5F9FB68B5
:1053E0001A78C0239B011900100000F00FF9FB6828
:1053F00000229A7000231800BD4604B080BDC0464C
:1054000080B584B000AF78600A00FB1C1A700023DE
:10541000FB607B68FA1C12781A710023FB601BE0AA
:10542000FB68FF2213409B00134A94466344FA68CA
:10543000FF210A40920010498C4662441268110014
:105440000E4A0A400E491143FA68FF2002400A43FF
:105450001A60FB680133FB60FB68032BE0D9094B42
:10546000FA1C1278802149420A43D2B21A60C0461F
:10547000BD4604B080BDC046005C00400F0F000078
:10548000808000004C5C004080B582B000AF786046
:10549000064B064A1268802109020A431A607B689B
:1054A00001229A70C046BD4602B080BD585C0040E3
:1054B00080B582B000AF0200BB1D1A80034BBA1D3D
:1054C00012881A60C046BD4602B080BD405C0040F4
:1054D00080B582B000AF0200BB1D1A80034BBA1D1D
:1054E00012881A60C046BD4602B080BD445C0040D0
:1054F00080B582B000AF0200BB1D1A80044BBA1DFC
:10550000128804490A401A60C046BD4602B080BDF8
:10551000505C0040F8FF000080B582B000AF020090
:10552000FB1D1A70FB1D1B789B00044A94466344C4
:105530001B689BB21800BD4602B080BD005C0040F5
:1055400080B582B000AF0200FB1D1A703B1D0A1C23
:105550001A80FB1D1B789B000C4A94466344FA1D7D
:105560001278920009498C466244126812B20849C6
:105570000A4011B23A1D0020125E0A4312B292B2E2
:105580001A60C046BD4602B080BDC046005C004007
:105590008F89FFFF90B583B000AF0200FB1D1A702A
:1055A0003B1D0A1C1A80FB1D1B789B00144A944665
:1055B00063441B689BB2134A13409CB23B1D1B887B
:1055C000102213409BB2002B02D0102363409CB2E8
:1055D0003B1D1B88202213409BB2002B02D02023AE
:1055E00063409CB2FB1D1B789B00054A94466344B4
:1055F000054A224392B21A60C046BD4603B090BD30
:10560000005C0040BF8FFFFF8080FFFF90B583B03C
:1056100000AF0200FB1D1A703B1D0A1C1A80FB1D07
:105620001B789B00164A944663441B689BB2154A3C
:1056300013409CB23B1D1A8880235B0113409BB230
:10564000002B03D080235B0163409CB23B1D1A8872
:1056500080239B0113409BB2002B03D080239B012E
:1056600063409CB2FB1D1B789B00054A9446634433
:10567000054A224392B21A60C046BD4603B090BDAF
:10568000005C00408FBFFFFF8080FFFF80B582B0CD
:1056900000AF0200FB1D1A70FB1D1B789B000B4A1C
:1056A00094466344FA1D1278920008498C4662447D
:1056B000126812B206490A4012B206490A4312B2EF
:1056C00092B21A60C046BD4602B080BD005C004088
:1056D0000F0E00008081FFFF80B582B000AF020096
:1056E000FB1D1A70FB1D1B789B000A4A94466344FD
:1056F000FA1D1278920007498C4662441268110024
:10570000054A0A4005490A431A60C046BD4602B030
:1057100080BDC046005C00400F0F000080C000004C
:1057200080B582B000AF0200FB1D1A70FB1D1B7814
:105730009B000A4A94466344FA1D12789200074976
:105740008C46624412681100054A0A4005490A4322
:105750001A60C046BD4602B080BDC046005C004035
:105760000F0F0000C080000080B582B000AF0200C3
:10577000FB1D1A70FB1D1B789B00104A9446634466
:105780001B681A008023DB01134012D0FB1D1B781D
:105790009B000A4A94466344FA1D12789200074916
:1057A0008C46624412681100054A0A4005490A43C2
:1057B0001A60C046BD4602B080BDC046005C0040D5
:1057C0000F0F000080C0000080B582B000AF020063
:1057D000FB1D1A70FB1D1B789B000F4A9446634407
:1057E0001B681A004023134012D0FB1D1B789B003E
:1057F000094A94466344FA1D1278920006498C4681
:10580000624412681100054A0A4005490A431A60B9
:10581000C046BD4602B080BD005C00400F0F0000D6
:10582000C080000080B582B000AF0200FB1D1A707E
:105830003B1D0A1C1A800B4B1B681B041A0CFB1D1A
:105840001B78DB00D318084A9446634419003B1DBB
:105850001B88012293439BB20B80C046BD4602B019
:1058600080BDC046505C00400060004080B582B002
:1058700000AF0200FB1D1A703B1D0A1C1A800B4B67
:105880001B681B041A0CFB1D1B78DB00D318084A8D
:105890009446634419003B1D1B88012293439BB22D
:1058A0000B80C046BD4602B080BDC046505C004083
:1058B0000460004080B582B000AF0200FB1D1A708A
:1058C0003B1D0A1C1A80094B1B681B041A0CFB1D8C
:1058D0001B78DB00D318064A944663441A003B1D2C
:1058E0001B881380C046BD4602B080BD505C00409E
:1058F0000260004080B584B000AF0200FB1D1A704A
:105900003B1D0A1C1A80254B1B681B041A0CFB1D2F
:105910001B78DB00D318224A94466344BB603B1DCE
:105920001B883E2B1DD90E23FB183A1D12885209E5
:105930001A803B1D1B881F22134006D10E23FB1823
:105940001A880E23FB18013A1A800E23FB181B88B5
:105950009B021BB2134A13431BB29AB2BB681A8054
:1059600018E00E23FB183A1D128852081A803B1DBE
:105970001B880122134006D00E23FB181A880E2321
:10598000FB1801321A800E23FB181B889B029AB267
:10599000BB681A80C046BD4604B080BD505C004064
:1059A000066000400080FFFF80B582B000AF0200BB
:1059B000FB1D1A70094B1B681B041A0CFB1D1B787E
:1059C000DB00D318064A944663441B889B059B0D55
:1059D0009BB21800BD4602B080BDC046505C00407E
:1059E0000260004080B582B000AF0200FB1D1A705B
:1059F000094B1B681B041A0CFB1D1B78DB00D3181A
:105A0000064A944663441B889B059B0D9BB2180075
:105A1000BD4602B080BDC046505C004006600040FC
:105A200090B583B000AF040008001100FB1D221CDC
:105A30001A703B1D021C1A80BB1C0A1C1A80144BD6
:105A40001B681B041A0CFB1D1B78DB00D318114AC2
:105A50009446634419003B1D1B88012293439BB26B
:105A60000B800B4B1B681B041A0CFB1D1B78DB0007
:105A7000D318094A944663441900BB1C1B880122B1
:105A800093439BB20B80C046BD4603B090BDC04659
:105A9000505C0040006000400460004090B587B05A
:105AA00000AF040008001100FB1D221C1A70BB1D72
:105AB000021C1A703B1D0A1C1A80BB1D1B78002B90
:105AC00047D15F4B1B681B041A0CFB1D1B78DB00C6
:105AD000D3185C4A944663443B613B1D1B883E2BB4
