:020000040800F2
:1000000000180020E5250008A9250008B5250008EE
:1000100000000000000000000000000000000000E0
:10002000000000000000000000000000BD250008E6
:100030000000000000000000C92500085D2700083E
:100040003526000835260008352600083526000824
:100050003526000835260008ED3000083526000852
:100060003526000835260008352600083526000804
:1000700035260008352600083526000835260008F4
:100080003526000835260008000000003526000847
:1000900035260008352600083526000835260008D4
:1000A00035260008352600083526000835260008C4
:1000B000352600080000000035260008D525000878
:1000C00010B5064C2378002B07D1054B002B02D02E
:1000D000044800E000BF0123237010BD240100206C
:1000E0000000000040740008044B10B5002B03D042
:1000F0000349044800E000BF10BDC04600000000F6
:100100002801002040740008002243088B4274D369
:1001100003098B425FD3030A8B4244D3030B8B4208
:1001200028D3030C8B420DD3FF22090212BA030C11
:100130008B4202D31212090265D0030B8B4219D3F2
:1001400000E0090AC30B8B4201D3CB03C01A524112
:10015000830B8B4201D38B03C01A5241430B8B425A
:1001600001D34B03C01A5241030B8B4201D30B0343
:10017000C01A5241C30A8B4201D3CB02C01A52416A
:10018000830A8B4201D38B02C01A5241430A8B422D
:1001900001D34B02C01A5241030A8B4201D30B0216
:1001A000C01A5241CDD2C3098B4201D3CB01C01A30
:1001B000524183098B4201D38B01C01A524143093A
:1001C0008B4201D34B01C01A524103098B4201D328
:1001D0000B01C01A5241C3088B4201D3CB00C01A95
:1001E000524183088B4201D38B00C01A524143080D
:1001F0008B4201D34B00C01A5241411A00D2014632
:10020000524110467047FFE701B5002000F006F8A4
:1002100002BDC0460029F7D076E770477047C04658
:100220008446101C62468C46191C634600E0C0469A
:100230001FB500F037FF002801D40021C8421FBDC0
:1002400010B500F08BFE4042013010BD10B500F03B
:1002500029FF002801DB002010BD012010BDC04691
:1002600010B500F01FFF002801DD002010BD0120A7
:1002700010BDC04610B500F0B1FE002801DC002022
:1002800010BD012010BDC04610B500F0A7FE00282B
:1002900001DA002010BD012010BDC04670B500225B
:1002A0000C4B04000D00FFF7EFFF002804D12000E5
:1002B000290001F04FFD70BD064B002220002900EF
:1002C00001F0D4F901F046FD80231B069C466044F2
:1002D000F1E7C0460000E041F8B556465F464D469E
:1002E0004446F0B40F00FD0FAA4609037C002E001F
:1002F0005F00450F490A7F0D2943C5001803BC461E
:10030000400A570F640DDB0F3843D2009A4500D1E5
:10031000AAE06646A61B002E00DCFFE06346002B29
:1003200039D10300134300D0D9E06B0709D00F2364
:100330002B40042B05D02B1DAB42AD416D4249191A
:100340001D000B0200D482E0CA4B01349C4200D154
:10035000FEE00A005646C84BED081A4050076405F7
:1003600052020543120B640D002112030B0D1B05F5
:100370006405120B1A436308C04CF60714401C4373
:10038000640064083443280021003CBC9046994630
:10039000A246AB46F8BDB74B9C42C6D080231B0497
:1003A0001843382E00DDEBE01F2E00DD1EE1202378
:1003B0009B1B9C4603006746BB409846130047467C
:1003C000F3403B436746BA40571EBA41134302000D
:1003D000F240EB1A9D42B6411D008A1A7642911BEB
:1003E0000B0231D54A02560A002E00D1B4E030008B
:1003F00001F060FD0300083B1F2B00DDB5E020226B
:100400002900D21AD1409E400A009D4032439C42AE
:1004100000DDB1E01C1B631C1F2B00DDD5E020219B
:1004200014002800C91A8C40D8408D400443DA409B
:10043000681E854111002543002476E7414631437B
:1004400000D134E2310045466B0700D06FE75646D5
:100450004807ED08C9080543864B9C4235D00A037E
:100460006405120B640D7FE76346E31A9B46002B7D
:1004700000DC8BE06746002F3CD07E4FBC4200D1B1
:1004800053E780273F0438435B46382B00DCF7E016
:100490000243501E82410020D2B253194218AB428F
:1004A00089411D00494289180B02CDD5714B013499
:1004B0009C4200D13DE101206F4A6B080A40284070
:1004C0001843D507054351082FE72B000B4300D1F4
:1004D000CBE180231B030B431A03120B44E7013EBD
:1004E000002E6DD1AE1AB5429B41091A5B42C91A62
:1004F000350075E70700174300D116E701235B427B
:100500009C46E3445B46002B00D0E0E0AA18AA42D8
:100510009B4109185B4259181500C5E7002E75D19B
:10052000661C7605760D012E00DCF3E0AE1AB046AF
:100530004545BF410E1A7F42F61B370200D48FE0BB
:10054000551BAA42B641411A76428E1B9A464BE78A
:1005500056460022002507E7280001F0ABFC2030BA
:100560000300083B1F2B00DC49E72A0028388240A3
:1005700000259C4200DC4DE73F49E41A1140D4E6D7
:100580000243501E8241D3B2002222E7002B00D04A
:10059000F3E0631C9C465B055B0D012B00DC9FE0D8
:1005A000344B9C4500D1C3E0AA180918AA428041E7
:1005B00040424118CD075208154349086446B4E645
:1005C0002C4B9C4200D0ECE6AFE611001F3CE14012
:1005D0000C00202B00D17FE04021CB1A9A4015431C
:1005E0006A1E95410021254300242DE733000700B2
:1005F000203BDF403B00202E70D04027BE1BB04088
:100600000243501E824113430022E2E6002C4FD0E9
:10061000184CA44500D1ABE0802424047642214349
:10062000382E00DDDFE01F2E00DD43E12027BC1B5C
:10063000A1460C004F46BC40A0462C004746F44063
:100640003C434F46BD406F1EBD41F1402C43151B3E
:10065000AA429241411A5242891A64469A46BFE61A
:1006600041464546314300D0BEE600260024002521
:10067000F2E6C046FF070000FFFF7FFFFFFF0F808D
:100680001F2B59DC2027FF1ABC46070063469F40FA
:100690005B46B9461700DF40B8464F4643461F4306
:1006A00063469A40531E9A415B463A43D840F4E66B
:1006B0000C002C435CD0F643002E55D1551BAA42AA
:1006C000A441411A6442091B9A46644688E6964F43
:1006D000BC4200D0D8E628E6002280E700208FE761
:1006E0000B002B43002C00D0C2E0002B00D101E115
:1006F0000300134300D118E6AB18AB42B64109180A
:10070000764271180A0200D409E1884A1D0011409E
:1007100064460AE6002C5BD10E002E4300D08AE02E
:100720000100114300D1C2E0010015009A46FCE52A
:100730006446002100258FE620235B429C46DC4472
:1007400063460700DF405B46BC46202B00D1ACE08F
:1007500040235F46DB1B98400243501E82416346A4
:1007600013431A00002098E66F4CA44500D057E7C9
:100770000100150064469A46D7E5002C39D10C00DB
:100780002C436ED0DB43002B1AD0674CA44568D0B5
:10079000382B00DDA4E01F2B00DDAEE020240F008D
:1007A000E41AA740B9462F00DF40B846A3464F469B
:1007B000444627435C46A5406C1EA541D9403D43B5
:1007C000AD1895429B4109185B42591864466BE687
:1007D0000C002C4315D1010011437BD00100150002
:1007E0009A46514CA1E50D43691E8D410021ECB2A2
:1007F0002DE74D4CA44534D0802424045B42214392
:10080000C6E7040014434ED0ED084C072C43802566
:10081000C9082D03294208D0C6082E4205D1D208A6
:10082000410711430C009A463100620FC900E500F0
:1008300011433D4C79E50600164300D175E5AE1A2B
:10084000B0464545BF410E1A7F42F61B370200D421
:10085000F4E5551BAA42B641411A7642891B9A46D5
:1008600063E50100150064465FE5002200257BE595
:10087000002B3BD00300134315D0ED084B072B434F
:100880008025C9082D03294207D0C4082C4204D171
:1008900041070B002100D2081343C9005A0F11432E
:1008A000DD00214C41E5204C3FE5002054E70026C7
:1008B0000025D1E534000F00203CE7403C00202E0D
:1008C0002BD04027BE1BB1400D43691E8D41002136
:1008D0002C43BCE6802100260903134C0025BBE510
:1008E0000D43691E8D410021EDB269E7010015003D
:1008F0000D4C1AE50100150017E51C000F00203C07
:10090000E7403C00202B0CD04027FB1A99400D43B8
:10091000691E8D410021254352E70021D4E71D00C7
:1009200092E50021F3E7C046FF070000FFFF7FFFCD
:10093000F0B556464D4644465F46F0B41D000E03E2
:100940004C00CB0F87B0070092468146360B640DF2
:1009500098466AD06D4B9C4235D08022430F1204DA
:100960001343F6001E43C3009946694B00279C467B
:100970000023644402932B0368001B0BED0F5146C8
:100980009B46400D009500D178E0604B98426CD0BA
:100990005B46DA004B0F802109040B4313439B464F
:1009A0005346D9005A4B9C46002360444246201AC5
:1009B0006A40924601901F430F2F00D9B0E055487E
:1009C000BF00C0598746374300D088E000239946CE
:1009D0000233082700260293CDE74346B346494633
:1009E0000093029B009A9246022B00D0BFE10021A7
:1009F00053460122002689461A40444B0021360303
:100A00000C0D2405360B2643434C1B0526401E4384
:100A10007600D207760816434846310007B03CBC42
:100A200090469946A246AB46F0BD330003434FD0F3
:100A3000002E00D1BCE1300001F03CFA03000B3B7A
:100A40001C2B00DDADE11D220100D31A08393A004C
:100A50008F408E40DA40B9461643304B00279C4603
:100A6000002360444442029385E753465A461343A9
:100A70002CD1002300219B46023397E70B4320D063
:100A80005B46002B00D19EE1584601F013FA0300AB
:100A90000B3B1C2B00DD8FE102005946083A9140C8
:100AA0008B461D21CB1A5146D9400B0059460B43AA
:100AB00051469B469140194B9C466044404200235E
:100AC00074E7002300219B4601336FE703236DE7A2
:100AD0000023994601330427002602934BE70323A2
:100AE0000C27029347E70122D51A382D00DCB0E12C
:100AF00053461A4000210023002689467EE7002342
:100B00008026994600223603004B77E7FF07000056
:100B100001FCFFFFE8740008FFFF0F80F3030000F3
:100B20005E4500D972E100D16DE1019B4D46013B6C
:100B300001930023340002935B461E020B0E1E43FA
:100B40000B020393330C994633041B0C49462000D7
:100B50000093FFF7D9FA009B37004343060049464C
:100B600020009846FFF756FB2C0C09040C43A045C7
:100B700009D9E419731EA74200D95CE1A04500D849
:100B800059E1023EE4194346E41A49462000FFF7C2
:100B9000BBFA0300009A80465343494620009B4617
:100BA000FFF738FB2A040904120C0A4393450DD9B8
:100BB0004346D219013B974200D93AE1934500D808
:100BC00037E102235B429C46D219E0445B46D21ACD
:100BD0004346360433439B460399180C0B0C1D0007
:100BE000059309045B46090C0C001B041B0C4443D1
:100BF000049159436B4368431B190D0CEB189C423D
:100C000003D980246402A44660441C0C09041B041C
:100C1000090C20185D18824200D2DEE000D1D7E036
:100C2000161A029B9C465D1BAC459B415B42F61A23
:100C3000B74200D106E149463000FFF765FA009B54
:100C400004004343494630009846FFF7E3FA2E0C70
:100C500009040E43B04509D9F619631EB74200D9FD
:100C6000F3E0B04500D8F0E0023CF6194346F31A31
:100C7000494618000293FFF747FA009B06004343DA
:100C8000494602989846FFF7C5FA2D0409042D0C31
:100C90000D43A84509D9ED19731EAF4200D9D6E01E
:100CA000A84500D8D3E0023EED19240421004346B4
:100CB0003143049E059A3000ED1A0B040C0C1B0CFA
:100CC00058436643534354439A19030C9B189E425E
:100CD00003D980225202944664441A0C00041B0477
:100CE000000C14191B18A54250D34DD001231943F1
:100CF000964A019B94466344002B00DCF3E64A07C6
:100D000009D00F220A40042A05D00A1D8A428941CF
:100D100049428B4411005A46D20108D55A468C4BA1
:100D20001A4093468022D2009446019B6344894A2C
:100D3000934200DD5BE65A46C90850070843560255
:100D4000514601225B058146360B5B0D0A4055E694
:100D500080231B031E4211D05A461A420ED15E4612
:100D60001E433603360B2A0089467B4B46E6032B8F
:100D700000D1E1E0012BBBD11A40BBE61E43360394
:100D8000360B4246744B39E6002BB1D07D194A1E12
:100D9000AF4252D91100A542A8D1039A9A42A5D1D7
:100DA000A6E703003E00283B9E400023994654E6F8
:100DB00001F080F8203041E603005246283B9A407B
:100DC0000021934677E6504601F074F820305EE645
:100DD000029B0026AB4200D323E7039E0299B44650
:100DE00061448846B045B6415B467642F619B21872
:100DF000013B0291974213D290424FD800D18EE02E
:100E0000161A9B460DE7894500D28EE674084B46BC
:100E1000F60735005B081D434B46DB0702938BE664
:100E20009742EDD10399029CA142E5D93E1A9B4617
:100E3000F7E69846CAE61E00A5E6AC423ED874D056
:100E4000110053E70121494252E71C000EE71E0042
:100E50002BE71F2D3CDC20230A0058465B1B9840E3
:100E6000EA4099400243481E81415E461143EE40EC
:100E70004B0709D00F230B40042B05D00B00191D85
:100E800099429B415B42F61833023CD553460122FE
:100E900000211A40002601238946AFE502235B4268
:100EA0009C46039CE344A446029B63449846A045A9
:100EB000B6417642F6190293B218B1E603988A1E3B
:100EC00041008142B6417642F619AD19039161E7BE
:100ED0001F225242D31A5A46DA401300202D29D03D
:100EE00040225846551BA8400143481E8141072017
:100EF0000B4318400026002809D00F2200261A4074
:100F00001900042ABBD10B0070077602360BDB08F0
:100F100003439946012253461A4000236EE5029985
:100F20008D42BBD89B4600267BE603989842C5D3EA
:100F3000110032E70020D7E780265B4636031E43C8
:100F40003603360B009A8946034B57E5FF03000032
:100F5000FFFFFFFEFE070000FF070000F0B55F4641
:100F600056464D464446F0B41F035C00DB0F9A46DC
:100F7000194B0E034D00C90F8046360B6D0D8B4685
:100F800091463F0B640D9D4219D0134B9C421BD0E0
:100F90000123A54206D018003CBC90469946A246C3
:100FA000AB46F0BDBE42F6D1C845F4D1D34510D012
:100FB000002DF0D1304303005A1E9341EBE731007E
:100FC00001230143E7D1E0E73A430123002AE2D1BC
:100FD000DEE70023DFE7C046FF070000F0B55F460D
:100FE000444656464D46F0B41F033C0B2C4F0E03AF
:100FF0004D00A3465C008446360B6D0DC90F90462C
:10100000640DDB0FBD422BD0254FBC422ED0002DEE
:101010000ED130430700814678427841002C17D129
:101020005F463A4314D14B460020002B0AD006E01D
:10103000002C02D15846024301D099421AD0012314
:10104000484218433CBC90469946A246AB46F0BD88
:101050000028F2D058425841012240421043F1E7A3
:1010600037000743D0D002204042EBE75F461743EA
:10107000CDD0F8E7A542E2DC05DB5E45DFD808D03D
:1010800000205E45DED248424841012340421843D9
:10109000D8E7C445D3D80020C445F4D3D2E7C0462E
:1010A000FF070000F0B55F464D4644465646F0B493
:1010B0001C03240BA4462F4C0F034D005E00C90FE8
:1010C00080463F0B6D0D8B469146760DDB0FA5429A
:1010D00020D0284CA64222D0002D12D138434442C1
:1010E0004441002E20D0002C0DD05C4263410124ED
:1010F0005B421C4320003CBC90469946A246AB464E
:10110000F0BD002E17D05B4519D05B465C42012331
:101110001C43EFE7390002240143EBD1D9E76146D4
:1011200002241143E6D1D7E761460A43DBD100240C
:101130000028DFD0E9E761460A43E4D1E5E7B5429C
:1011400003DD01225C421443D4E7B542CDDB6745A1
:10115000DBD809D000246745CCD259464C426141C6
:10116000012449420C43C5E7C845CED80024C845F0
:10117000F3D3BFE7FF070000F0B55F4656464D4684
:101180004446F0B40D0399464E002B0B87B0070080
:10119000924680469B46760DCC0F002E69D06D4B53
:1011A0009E4235D05B468022DD001204430F13437C
:1011B0002B439B46C3009846674B00279C46002361
:1011C000664401934A4615035000D20F53462D0B37
:1011D000400D914600D176E05E4A90426CD080226C
:1011E0005B0F120413435C4AED0094461D435346C3
:1011F0000022DB00604449463618701C61400290B2
:1012000017430F2F00D9AFE05448BF00C759BF465E
:101210005B461F4300D088E000239B46984602337C
:1012200008270193CEE74946022A6AD0032A00D153
:1012300009E2012A00D0BBE1114000220023002571
:101240009046CCB200212D030A0D12052D0B15433B
:10125000434A1B0515401D436D00E4076D082543F7
:101260004046290007B03CBC90469946A246AB4692
:10127000F0BD034352D05B46002B00D18AE15846B3
:1012800000F018FE03000B3B1C2B00DD7BE11D2250
:10129000D31A3A0001005D46DA4008398D40130048
:1012A0008F402B439B46B8462E4B00279C4600237D
:1012B00060444642019385E752462A432CD10025DB
:1012C0000023022297E752462A4321D0002D00D165
:1012D00054E1280000F0EEFD03000B3B1C2B00DD69
:1012E00046E11D21CB1A51460200D9405346083A27
:1012F000954093400D431B4A94466044404200226F
:1013000079E7012400220C40124B0025904699E712
:101310000025002301226EE703226CE700239B4691
:1013200098460133042701934CE703230C270193CC
:1013300048E700238025984600242D03054B81E7CC
:101340005D464346019A6FE75D4643462100019A98
:101350006AE7C046FF07000001FCFFFF2875000890
:10136000FFFF0F80F30300004246120C91461A0C57
:101370009446424617044A461B041B0C5A436046D7
:1013800090464A4642431000039262461C003F0CBE
:101390007A437C4342440192220C9246019A524481
:1013A000904506D98246802040028046C24450467D
:1013B0000390100C049048462404240C12041219C3
:1013C00005922A0C2D042D0C68432C0082464846B9
:1013D0007C4350438146200C804657435744474442
:1013E000BA4503D9802040028046C144380C3F04EE
:1013F000B84648442404240C01900498A044404476
:1014000004905846000C814658460404200C82463D
:10141000070048465F434C4643436046604364468A
:10142000834650464443380C8446E4186444A3423F
:1014300003D980235B029C46E34448463F04230CC7
:101440003F0C2404E419574668436F4384464D46D5
:10145000504655434243380C814662444A445B44FB
:10146000944503D9802040028446654403983F0494
:10147000834604983F0C8446E344C3458041404280
:101480008246100484460198674484466744A34416
:10149000BC46A345A4419946D44464428742BF4117
:1014A000D4458041E144A04699459B417F4240425A
:1014B000C8440743120CBA18A045A4415F423B0040
:1014C00064422343D71843467D19DB0D6D021D434B
:1014D0005B465A02059B1A43531E9A415B46DB0D3D
:1014E0001A4343465B021343EA0107D501225C0815
:1014F00013402343EA07029E13436D08574AB2186C
:10150000002A4BDD580709D00F201840042805D0C9
:10151000181D98429B415B42ED180300E80104D579
:101520004F4A15408022D200B2184E48824200DD58
:10153000E7E60124DB08680718436D02530580467F
:101540002D0B5B0D0C407DE68022594612031142A3
:1015500008D0154206D115432D0398462D0B4C4655
:10156000414B6FE65D4615432D032D0B3E4B69E65F
:1015700003005546283B9D400023BCE6504600F042
:1015800099FC2030A8E60300283B9F400023BB467F
:10159000984689E600F08EFC203073E60124A61AF6
:1015A000382E07DD00220C4000230025904649E636
:1015B000029EA3E71F2E20DC20222C001800921B85
:1015C000F040944093400443581E83411C43F5402F
:1015D000630709D00F232340042B05D023001C1DD3
:1015E0009C4292415242AD182B021FD50124002289
:1015F0000C4001230025904624E61F202C00404289
:10160000821AD440202E1CD04022961BB5402B437A
:10161000581E83410720234318400025002809D085
:101620000F2200251A401C00042AD8D12300680785
:101630006D022D0B0124DB08034398460C40002368
:1016400000E60025E3E780220124120315432D0361
:1016500098462D0B0C40044BF4E5C046FF030000F8
:10166000FFFFFFFEFE070000FF070000F0B5574632
:101670004E464546E0B40E001100F20F9246C500FA
:10168000420F180337037400400A4E0F7F0A30439D
:10169000CF4E17435A00640D520DDB0FC900B24202
:1016A00000D1E5E001267340A61AB446534500D1A7
:1016B000AFE0002E00DC0DE1002A3AD103000B431D
:1016C00000D0E4E06B0709D00F232B40042B05D09A
:1016D0002B1DAB42AD416D427F191D003B0200D472
:1016E00088E0BB4B01349C4200D110E13A00B94B79
:1016F00051461A4001235007ED0852026405054384
:10170000120B640D0B400021280012030D0D120B6B
:1017100064052D0515436208AF4CDB072C401443CC
:10172000640064081C4321001CBC90469946A246F4
:10173000F0BDA74B9C42C5D080231B0418436346D1
:10174000382B00DDFDE01F2B00DD30E16246202359
:101750009B1A02009A40664690460A009940F24061
:1017600046464B1E99413243114363460200DA401C
:10177000691A8D429B410D00BA1A5B42D71A3B028F
:1017800035D57A02530A98464346002B00D1C4E06F
:10179000404600F08FFB0300083B1F2B00DDC5E037
:1017A00020222900D21A4746D1409F400A009D407E
:1017B0003A439C4200DDC0E01C1B631C1F2B00DD74
:1017C000E4E0202114002800C91AD8408C408D4044
:1017D0000443DA40681E854117002543002471E761
:1017E000424663461A4300D14CE2674645466B07C2
:1017F00000D069E7012351467807ED08FA080B404D
:10180000054373498C4238D012036405120B640DF2
:1018100079E7002E00DC9AE0002A47D06C4A944217
:1018200000D14FE78022120410436246382A00DCC0
:1018300008E10143481E81410022C9B24919D21969
:10184000A942BF410D007F42BF183A0200D442E1D5
:101850005F4A0134944200D14EE101205D4A69089B
:101860003A4028400843D507054357089A4629E7D8
:1018700006000E4300D017E714E72900114300D1FA
:10188000F9E1802109030A431203120B3BE701230C
:101890005B429846C4446346002B72D1691A8D425C
:1018A0009B413F1A5B42FF1A0D0068E702000A43A2
:1018B00000D107E7012252429046C4446246002A02
:1018C00000D0E6E06918A942B6413F187642F71900
:1018D0000D00BAE7002E00D080E0621C5205520DC8
:1018E000012A00DCF9E06A1A91464D45B6413A1AE0
:1018F0007642921B9046120200D499E04D1BA942F9
:101900008941C71B49427A1A90469A463CE752469B
:101910000123002513400022F5E6280000F0CAFA52
:1019200020300300083B1F2B00DC39E72A00283851
:10193000824000259C4200DC3EE7264FE41A174017
:10194000C0E60143481E81410022C9B210E7002EC3
:1019500000D0F1E0621C94465205520D012A00DCD1
:10196000A0E01B4A944500D1C5E06918A942924104
:101970003F185242D2194908D5070D43570864460B
:10198000A0E6134B9C4200D0D9E69BE611001F3C19
:10199000E1400C00202B00D180E04021CB1A9A407E
:1019A00015436A1E95410027254300241FE763461F
:1019B0000200203BDA406346202B71D0402366466C
:1019C0009B1B98400143481E814111430022CFE6F2
:1019D000FF070000FFFF7FFFFFFF0F80002C48D0B4
:1019E000CA4CA24200D1A2E07442A1468024240441
:1019F00027434C46382C00DDDBE01F2C00DD44E1A2
:101A00004E462024A41B3E00A640A246B0464C46AB
:101A10002E00E640B4464646644626435446A5405A
:101A20006C1EA54134002C434D46EF400D1B28E0B1
:101A30004A4643464D461A4300D0A5E600230024FB
:101A40000025DEE61F2A5ADC66462022921B06008D
:101A500096409146B04662460E00D6404246164336
:101A60004A4691404A1E9141020060463143C240BD
:101A7000E4E63C002C435AD0F443A146002C52D15A
:101A80004D1BA9428941C71B49427F1A14009A463F
:101A900075E69E4A944200D0C7E613E600227FE72F
:101AA00000208FE7002C00D0C8E03B002B4300D182
:101AB0000FE103000B4300D104E66918A9429B41E2
:101AC0003F185B42DF193B0200D41AE1904B0D0036
:101AD0001F406446F6E59A4689E63A002A43002C00
:101AE0005CD1002A75D102000A4300D1CAE0070088
:101AF0000D009A46E6E564460022002581E662462E
:101B00000600203AD6406246B046202A00D1B7E00F
:101B100040226646921B904001434246481E814146
:101B2000114300228AE6794CA24200D061E7070007
:101B30000D0014009A46C5E5002C41D13C002C4311
:101B400078D0F443A146002C20D0704CA24271D032
:101B50004C46382C00DDB2E01F2C00DDBCE0202616
:101B6000341BA2463C005646B4404E46A0462C00CC
:101B7000F440A446444666463443A4465446A54031
:101B800064466E1EB54125434C46E7406D188D42B4
:101B900089413F184942CF19140056E6002A2FD137
:101BA00002000A4300D184E007000D009A46574C1A
:101BB00088E53D436F1EBD41ECB200270D1B60E779
:101BC000524CA24236D0744280263604A146374396
:101BD000BEE702000A4300D174E56A1A9046454503
:101BE000B6413A1A7642921B9446120200D4F7E5A7
:101BF0004D1BA9428941C71B49427F1A9A4661E59C
:101C000002000A433AD0ED087C072C438025FA08ED
:101C10002D032A4208D0C7082F4205D145072C00C2
:101C20003A009A46C9080C43670FD200E5001743F3
:101C3000364C47E507000D00140043E53A002A43FF
:101C400043D002000A4319D0ED087C072C438025BD
:101C5000FA082D032A4207D0C6082E4204D14707AE
:101C60003C003200C9080C43D700620FE50017435F
:101C70009A46264C26E50022002544E5234C21E522
:101C8000002049E700230025BBE54C463E00203CF0
:101C9000E6404C46B446202C31D040244E46A61B8C
:101CA000B7403D436C1EA54164462C4300270D1BE5
:101CB000E7E6802200231203144C0025A1E53D43F2
:101CC0006F1EBD410027EDB260E707000D000F4C0D
:101CD000F8E407000D00F5E44E463C00203EF440D9
:101CE000A0464C46202C0ED040244E46A41BA740B4
:101CF0003D436F1EBD4144460027254346E700276C
:101D0000CFE70D0073E50027F2E7C046FF070000AC
:101D1000FFFF7FFF70B50E4E0C031D0349005B00F3
:101D2000240B490D2D0B5B0DB14204D00849002056
:101D30008B4208D070BD04430120002CFAD1044925
:101D400000208B42F6D115432800451EA841F1E73B
:101D5000FF0700000B0330B5134D1A0B4B005B0D52
:101D6000C90F0024AB4211DD104CA34210DC8024CB
:101D7000640322430E4CE41A1F2C0CDD0D48C31AD9
:101D8000DA4013005C42002900D11C00200030BD65
:101D9000094BCC18FAE7E040084CA44663449A404B
:101DA00013000343EEE7C046FE0300001D040000DD
:101DB0003304000013040000FFFFFF7FEDFBFFFF73
:101DC00070B5002830D0C317C4185C40C50F200080
:101DD00000F070F8174B184A1B1AD21A1F2A18DD88
:101DE000164AD21A9440002224035B05240B5B0D93
:101DF0000021100024030A0D1205240B1443104A7D
:101E00001B0514401C436400ED0764082C432100AB
:101E100070BD210091400A000B21081AC4405B05E7
:101E20002403240B5B0DE3E700250023002400229C
:101E3000DEE7C0461E040000330400001304000067
:101E4000FFFF0F8070B5051E28D000F033F8154B4A
:101E5000154A1B1AD21A1F2A16DD2C00134A002518
:101E6000D21A94405A052403240B520D0021240356
:101E70000B0D240B1B0523430D4C1205234013436C
:101E80005B002800590870BD0B212C00081AC440C3
:101E9000954024035A05240B520DE7E70022002445
:101EA000E4E7C0461E0400003304000013040000F1
:101EB000FFFF0F801C2101231B04984201D3000C5B
:101EC00010391B0A984201D3000A08391B099842AD
:101ED00001D30009043902A2105C40187047C046C3
:101EE00004030202010101010000000000000000E3
:101EF00080B584B000AF78600A00FB1C1A707B6864
:101F000084229B5801337F221340FB607B68802230
:101F10009A58FB689A4201D101230BE07B68842226
:101F20009B587A68F91C0978D1547B688421FA6837
:101F30005A5000231800BD4604B080BD80B500AFE4
:101F4000C046BD4680BDC04680B582B000AF02002D
:101F5000FB1D1A70C046BD4602B080BD80B500AF03
:101F6000C046BD4680BDC04680B500AFC046BD4638
:101F700080BDC04680B500AFC046BD4680BDC046EE
:101F800080B582B000AF104B1A68BB1D1A80BB1D14
:101F9000BA1D128808210A431A800B4BBA1D1288F9
:101FA0001A60094B1A68BB1D1A80BB1DBA1D128826
:101FB00004210A431A80044BBA1D12881A60C046D5
:101FC000BD4602B080BDC046405C004080B582B0D6
:101FD00000AF0B4B1A68BB1D1A80BB1DBA1D1288BF
:101FE00004218A431A80064BBA1D12881A60044BDA
:101FF000BF2212021A60C046BD4602B080BDC04674
:10200000405C004080B584B000AF0200FB1D1A7038
:10201000FB1D1B78072B03D0424BFA1D12781A7058
:10202000404B1B78DBB2052B00D970E09A003E4B89
:10203000D3181B689F463D4B1B68002B05D1FFF74B
:10204000C5FF384B06221A7068E0364B05221A701D
:1020500064E0FFF7BBFF334B04221A70334B0122BD
:102060001A605BE02F4B02225A702E4B03221A702B
:1020700054E02C4B5B78DBB2013BDAB2294B5A704F
:10208000284B5B78DBB2002B45D1264B04221A701B
:1020900041E0274B1A680E23FB181A800E23FB1809
:1020A0000E22BA18128810210A431A80204B0E22E1
:1020B000BA1812881A601B4B05221A70194B0A2293
:1020C0005A702BE0174B5B78DBB2013BDAB2154B51
:1020D0005A70144B5B78DBB2002B1ED1144B1A687C
:1020E0000E23FB181A800E23FB180E22BA18128832
:1020F00010218A431A800E4B0E22BA1812881A60D9
:10210000084B06221A70094B00221A6005E0054BA5
:1021100006221A7002E0C04600E0C046C046BD4636
:1021200004B080BD840100206875000840010020D3
:10213000405C004080B582B000AF02003960FB1DFA
:102140001A703B6812221A80024B1800BD4602B07A
:1021500080BDC0468075000880B582B000AF020027
:102160003960FB1D1A703B6804221A80024B18006C
:10217000BD4602B080BDC0469475000880B582B0EF
:1021800000AF02003960FB1D1A703A680449054B24
:10219000180001F08BFD024B1800BD4602B080BD57
:1021A000280400205874000880B582B000AF0200F7
:1021B0003960FB1D1A703A680449054B180001F09C
:1021C00075FD024B1800BD4602B080BD28040020FA
:1021D0007C74000880B582B000AF02003960FB1D3E
:1021E0001A703B681A221A80024B1800BD4602B0D2
:1021F00080BDC0463000002080B582B000AF020034
:102200003960FB1D1A703A680449054B180001F04B
:102210004DFD024B1800BD4602B080BD28040020D1
:102220009074000880B582B000AF02003960FB1DD9
:102230001A703A680449054B180001F037FD024B4B
:102240001800BD4602B080BD280400209C74000820
:1022500080B584B000AF104B1B68FB600F4B1B6850
:10226000BB600F4B1B687B60FA687B68D318FB6010
:10227000FB68002B0BD00B49FB680822180000F00C
:1022800015F80949BB680422180000F00FF8C04691
:10229000BD4604B080BDC046ACF7FF1FB0F7FF1FBE
:1022A000B4F7FF1F320000204200002080B586B046
:1022B00000AFF860B960FB1D1A701723FB180022ED
:1022C0001A701723FB1800221A7031E0FB681B0FED
:1022D000092B0DD81723FB181B785B001A00BB686D
:1022E0009B18FA68120FD2B23032D2B21A700CE0D8
:1022F0001723FB181B785B001A00BB689B18FA6851
:10230000120FD2B23732D2B21A70FB681B01FB60D7
:102310001723FB181B785B000133BA68D31800221F
:102320001A701723FB181A781723FB1801321A703A
:102330001723FA18FB1D12781B789A42C6D3C046A1
:10234000BD4606B080BDC04680B582B000AF7860A3
:1023500080231B040121180003F0A4FF002003F0D8
:102360004BFF00F01FF8C046BD4602B080BDC0461E
:1023700080B584B000AF78600C23FB181F221A7060
:102380000C23FB1801225A700C23FB1801229A70AF
:102390000C23FB18180003F0A5FFC046BD4604B08F
:1023A00080BDC04680B500AF80231B050121180009
:1023B00003F078FF80239B05180004F09FFA0120AA
:1023C00004F07EFA012004F05DFAC046BD4680BDEF
:1023D00080B500AF1B4B1B4A126801210A431A60EB
:1023E000184B184A526818490A405A60154B154A4A
:1023F000126816490A401A60124B124A12681449B0
:102400000A401A600F4B0F4A526812490A405A603C
:102410000C4B0C4AD26A0F218A43DA62094B094AF3
:10242000126B0D490A401A63064B064A526B0B4960
:102430000A405A63034B00229A6000F087F8C046B6
:10244000BD4680BD001002400CB8FF80FFFFF6FEC5
:10245000FFFFFBFFFF7FC0FFACFEFFFFFEFFFEFFA5
:1024600080B584B000AF0023FB600023BB60002375
:102470007B6000233B602F4B5B680C221340FB60AA
:10248000FB68042B0CD002D8002B05D03AE0082BB7
:102490000AD00C2B32D035E0274B284A1A6035E0A1
:1024A000254B264A1A6031E0224B5A68F0239B03E1
:1024B0001340BB601F4B5A68C0235B0213407B6014
:1024C000BB689B0C0233BB607B68002B05D1BB68EB
:1024D0001B4A5A43184B1A6018E0164BDB6A0F224E
:1024E000134001333B6039681448FDF70DFE0300CB
:1024F0001A00BB685A43104B1A6007E00E4B114A92
:102500001A6003E00C4B0D4A1A60C046094B5B6829
:10251000F02213401B090C4AD35CDBB2FB60064B74
:102520001A68FB68DA40044B1A60C046BD4604B026
:1025300080BDC046001002404C00002000127A000E
:1025400000093D00006CDC025000002080B500AFA7
:10255000134B11221A60134B124A52685A60114BE6
:10256000104A52685A600F4B0E4A526B8021490242
:102570000A435A63C0460B4B5A6B80239B0213409D
:10258000F9D0084B074A526803218A435A60054B29
:10259000044A526803210A435A60C046BD4680BDC2
:1025A000002002400010024080B500AFC046BD468A
:1025B00080BDC04680B500AFFEE7C04680B500AF25
:1025C000C046BD4680BDC04680B500AFC046BD46D2
:1025D00080BDC04680B500AF02F0A6FBC046BD4638
:1025E00080BDC0460D488546002103E00C4B5B587A
:1025F000435004310B480C4B42189A42F6D30B4A15
:1026000002E0002313600432094B9A42F9D3FFF72A
:10261000DFFE04F08BF900F0D7F8FEE70018002089
:102620008076000800000020240100202401002002
:10263000B80D0020FEE70000B0B582B000AF020088
:102640003960FB1D1A70FB1D1B787F2B32D92F4C74
:10265000FB1D1B781A000F231340083B99082B4AD7
:10266000FB1D1B7818000F230340083B9B08063313
:102670009B00D31804331B68FA1D12781000032244
:102680000240D200FF2090400200D2431A403B6833
:102690009B01FF201840FB1D1B781D0003232B40CE
:1026A000DB00984003001A438B1D9B00E3180433A2
:1026B0001A6027E0164CFB1D1B785BB29B0814497F
:1026C000FA1D127852B29208C03292005258F91D87
:1026D0000978080003210140C900FF20884001005B
:1026E000C94311403A689201FF201040FA1D127848
:1026F000150003222A40D200904002000A43C03352
:102700009B001A51C046BD4602B0B0BD00ED00E0CE
:1027100000E100E080B582B000AF78607B68013BEB
:102720000C4A934201D9012310E00B4B7A68013A1D
:102730005A6001235B4203211800FFF77DFF064B1F
:1027400000229A60044B07221A6000231800BD463D
:1027500002B080BDFFFFFF0010E000E080B500AFD9
:102760000D4B1B68002B04D00B4B1B685A1E0A4BE9
:102770001A600A4B1B685A1C084B1A60074B1B68EF
:10278000052B05D9064B01221A70044B00221A6052
:10279000C046BD4680BDC0468801002044010020DF
:1027A0004801002080B582B000AF7860054B7A68A0
:1027B0001A60C046034B1B68002BFBD1C046BD46C8
:1027C00002B080BD8801002090B585B000AFFFF752
:1027D000FFFDFFF745FE7B4B1A68FA2359011000F5
:1027E000FDF792FC03001800FFF794FF05235B42FE
:1027F000180003F0CDFD00F0FFFD00F003FEFA230A
:102800005B001800FFF7CEFF00F002FEFA235B002A
:102810001800FFF7C7FF00F0E9F800F04BFB00F0ED
:102820006BFC002000F0EEFB03001A00664B1A70F0
:10283000664B1B78002BFBD0644B00221A7000F013
:1028400013FC03001A003B1D111C19701104090E22
:1028500059701202120E9A703B1D1B785BB21A005F
:102860003B1D1B785BB25A433B1D5B785BB2190082
:102870003B1D5B785BB24B43D2183B1D9B785BB230
:1028800019003B1D9B785BB24B43D3181800FFF730
:1028900097FA03000C001800210004F09BFC0300D1
:1028A0000C0018002100FDF7F9FC0300BB60B868BC
:1028B000FFF7C8FA464A474BFEF75EFC03000C00E0
:1028C00018002100FDF7EAFC0300BB600E23FB1893
:1028D00000221A800D23FB1800221A7030E00D230D
:1028E000FB181A78BB681B0A9A4210D80D23FB18F4
:1028F0001B7801229A4013001AB20E23FB18002104
:102900005B5E13431AB20E23FB181A8011E00D23ED
:10291000FB181B7801229A4013001BB2DB431BB249
:102920000E22BA180021525E13401AB20E23FB1871
:102930001A800D23FB181A780D23FB1801321A7028
:102940000D23FB181B780F2BC9D90E23FB181B88EE
:102950000221180000F0D4FC1F4B1B781A0004233E
:1029600013400BD01C4B1B7804229343DAB21A4B52
:102970001A701A4B1421180000F09CF8164B1B78A3
:102980001A000223134000D152E70F4B1B78002B93
:102990000CD00D4B1B781A001149124B180003F094
:1029A000F5FF104B1321180000F084F8BA680E49A7
:1029B0000C4B180003F0EAFF0A4B0021180000F04E
:1029C00079F835E74C00002049010020480100203B
:1029D0003333333333332F4086010020AC74000887
:1029E000C87400088C010020DC74000880B500AFBA
:1029F0000121012003F036FC0E4B0E4A1268102113
:102A00000A431A600C4B0D4A0D490E4801F070FA4A
:102A10000D4B1B7801229343DAB20B4B1A700B4B10
:102A2000802200219950094B842200219950C046F0
:102A3000BD4680BD0000014000000020980000203D
:102A4000140000203402002086010020AC01002088
:102A500080B500AF00231800BD4680BD80B500AF33
:102A600000231800BD4680BD80B584B000AFF8607B
:102A7000B9607A60FB68202B14D10D4B1B781A00CB
:102A8000022313400DD10A4B1B7802221343DAB202
:102A9000074B1A70064B1B7804221343DAB2044B1F
:102AA0001A70C04600231800BD4604B080BDC04661
:102AB0008601002080B584B000AF786039603B6843
:102AC000002B20D00023FB6018E0224B1B687968A4
:102AD000FA688A181178204AD1541E4B1B685A1C78
:102AE0001C4B1A601B4B1A6880231B019A4202D1AF
:102AF000184B00221A60FB680133FB60FA683B68E0
:102B00009A42E2D321E00023BB6018E0114B1B681E
:102B10007968BA688A1811780F4AD1540D4B1B682E
:102B20005A1C0C4B1A600B4B1A6880231B019A42EB
:102B300002D1084B00221A60BB680133BB607A687F
:102B4000BB68D3181B78002BE0D100231800BD46CA
:102B500004B080BD5C010020B405002080B584B0C5
:102B600000AF786039600F4B1B7801221343DAB253
:102B70000C4B1A700023FB600BE07A68FB68D318DB
:102B80001A78094B11001800FFF7B2F9FB680133FE
:102B9000FB60FA683B689A42EFD300231800BD46F9
:102BA00004B080BD86010020AC01002090B587B044
:102BB00002AF39601100FB1D021C1A70BB1D0A1CFC
:102BC0001A700E23FB1800221A70C04680231B02C5
:102BD0003D4A1900100003F0CDFC031E012BF5D077
:102BE000394880239B010093002301223A2103F0FE
:102BF0006FFCC046344B0221180003F0BBFC031EDF
:102C0000F8D0FB1D1B78304A1900100003F096FC29
:102C1000C0462D4B4021180003F0ACFC031EF8D039
:102C200080239904BB1D1A78274890239B010093A9
:102C30000B003A2103F04CFC0F23FB1800221A7002
:102C400026E0C046204B0421180003F093FC031E2D
:102C5000F8D0BB1D1B78012B0BD90F23FB181B7859
:102C60003A68D418184B180003F078FC030023705E
:102C700007E00E23FC18144B180003F06FFC030050
:102C800023700F23FB181A780F23FB1801321A70D8
:102C90000F23FA18BB1D12781B789A42D1D3C04675
:102CA000094B2021180003F065FC031EF8D0064BE9
:102CB0002021180003F084FC0E23FB181B78180059
:102CC000BD4605B090BDC0460054004080B584B0FC
:102CD00002AF0200FB1D1A70BB1D0A1C1A70C04611
:102CE00080231B02294A1900100003F043FC031E35
:102CF000012BF5D080235A04244880239B010093A4
:102D0000130001223A2103F0E3FBC0461F4B0221CE
:102D1000180003F02FFC031EF8D0FB1D1B781B4A84
:102D20001900100003F00AFCC046184B802118005F
:102D300003F020FC031EF8D080239A0413480023DC
:102D40000093130001223A2103F0C2FBC0460F4B4F
:102D50000221180003F00EFC031EF8D0BB1D1B78E7
:102D60000A4A1900100003F0E9FBC046074B202176
:102D7000180003F0FFFB031EF8D0044B20211800BD
:102D800003F01EFCC046BD4602B080BD00540040AA
:102D900090B585B000AF040008001100FB1D221C97
:102DA0001A70BB1D021C1A707B1D0A1C1A700F239F
:102DB000FC181949FB1D1B7801221800FFF7F6FECD
:102DC000030023707B1D1B78002B09D00F23FB18F9
:102DD0000F22B918BA1D097812780A431A700DE04B
:102DE000BB1D1B785BB2DB435BB20F22BA181278B3
:102DF00052B213405AB20F23FB181A700F23FB185C
:102E00001A78FB1D1B7811001800FFF75FFFC04602
:102E1000BD4605B090BDC0469C03002080B500AF04
:102E20000F4B1B78002B01D1002315E0002201215C
:102E30002A20FFF7ADFF6420FFF7B4FC094B012205
:102E400019000B20FFF7B2FE031E01D0012303E09F
:102E5000034B00221A7000231800BD4680BDC046F7
:102E60004A0100209C03002080B500AF0F4B1B7867
:102E7000002B01D0002316E0012201212A20FFF7B8
:102E800087FF6420FFF78EFC094B012219000B20FD
:102E9000FFF78CFE031E012B01D0012303E0034B3F
:102EA00001221A7000231800BD4680BD4A0100208F
:102EB0009C03002080B58AB000AF80239B020121D3
:102EC000180003F0AFF98023DB030121180003F0A1
:102ED000A9F980239B030121180003F0E3F92023C3
:102EE000FB1803221A602023FB1802221A712023E8
:102EF000FB1801229A712023FB1800225A7120230B
:102F0000FB183B4A1900100003F066FB384B012206
:102F10000021180003F0F8FB354B012201211800B5
:102F200003F0F2FB2023FB180C221A602023FB186D
:102F300000221A712023FB180122DA712023FB18CA
:102F400003225A712023FA189023DB051100180080
:102F500003F042FB3B1D00225A613B1D00225A60D8
:102F60003B1DAB221A613B1D00229A603B1D0022D3
:102F70009A613B1D0022DA603B1D1E4A1A603B1D10
:102F80001D4A1900100003F01DFA1B4B0121180007
:102F900003F080FA3220FFF705FC184B01221900DC
:102FA0000D20FFF703FE031E5A2B01D001231BE067
:102FB000012202212B20FFF7EBFE012229212A20EA
:102FC000FFF7E6FE0D4B012219000B20FFF7EEFD87
:102FD000031E012B04D00A4B00221A70022303E0C7
:102FE000074B01221A7000231800BD460AB080BDAD
:102FF000001400480A021000005400409C03002006
:103000004A01002080B582B000AF0200FB1D1A709B
:10301000FFF704FF031E01D0012320E000223E2120
:103020002A20FFF7B5FEFB1D1B78002B02D0012BD9
:1030300006D00BE0012202212A20FFF7A9FE07E0BB
:10304000012228212A20FFF7A3FE01E0022306E047
:10305000FFF70AFF031E01D0032300E0002318003E
:10306000BD4602B080BDC04680B584B000AF082325
:10307000FB18032219000120FFF798FD0823FB1815
:103080001B785AB23B1D1A700823FB185B785AB2A2
:103090003B1D5A700823FB189B785AB23B1D9A704F
:1030A0000C23FB183A1D1188198092789A700C2312
:1030B000FA1800231178FF200140FF2083430B43BF
:1030C0005178FF2001400902064803400B439278E3
:1030D000FF210A40120404490B4013431800BD4667
:1030E00004B080BDFF00FFFFFFFF00FF80B500AF11
:1030F000C046BD4680BDC04680B592B000AF8023BB
:103100009B020121180003F08DF880235B0101214F
:10311000180003F0A7F80121012003F083F84023F1
:10312000FB18A0221A604023FB1802221A714023C8
:10313000FB1800229A714023FB1803225A71402386
:10314000FA189023DB051100180003F045FA2C2330
:10315000FB1810229A812C23FB1801221A812C23A0
:10316000FB180222DA802C23FB18E022D2009A807E
:103170002C23FB188022D2011A802C23FB1800225A
:10318000DA812C23FB18822252005A802C23FB1850
:10319000802292005A812C23FB181C4A190010002F
:1031A00002F05CFF194B01220221180002F0FAFF25
:1031B000164B0121180002F0D5FF3B0010229A6047
:1031C0003B0000229A62124A3B005A603B000022F8
:1031D000DA613B0080225A613B0000221A623B0008
:1031E0000C4A1A603B0000229A613B0000221A61DF
:1031F0003B00802292015A623B00074A19001000EE
:1032000003F0D4FAC046BD4612B080BD0030014084
:10321000E00300200C3001403000024080B584B053
:1032200000AF0023FB60334B0021180003F0FCFAD1
:103230000023BB6007E0304ABB68D31800221A7035
:10324000BB680133BB60BB68032BF4DD04237B60E8
:1032500030E02A4BFA689200D35C2022524213439A
:10326000D9B2254A7B68D3180A1C1A707B680133CF
:103270002249FA6892008A18013211781E4AD15404
:103280007B6802331D49FA6892008A18023211786D
:10329000194AD1547B6803331849FA6892008A1896
:1032A00003321178144AD154FB680133FB607B6808
:1032B00004337B607B68432BCBDD44233B6007E01A
:1032C0000D4A3B68D318FF221A703B6801333B60FC
:1032D0003B68472BF4DD074B4821180003F0C2FA86
:1032E000044B0121180003F09FFAC046BD4604B00C
:1032F00080BDC04630000240E0030020A003002053
:1033000080B584B000AF0200BB1D1A807B1D0A1C73
:103310001A707B1D1B781F2B02D97B1D1F221A7070
:103320000E23FB1800221A8059E0BB1D1A880E23B9
:10333000FB181B881A4113000122134026D00E23CC
:10334000FB181A887B1D1B781F210B40D9B2294B13
:103350009200D1540E23FB181B88264A9B00D318D9
:103360000133FF221A700E23FB181B88214A9B0091
:10337000D3180233FF221A700E23FB181B881D4A34
:103380009B00D3180333FF221A7021E00E23FB1891
:103390001A88184B92000021D1540E23FB181B8869
:1033A000144A9B00D318013300221A700E23FB1815
:1033B0001B88104A9B00D318023300221A700E2378
:1033C000FB181B880B4A9B00D318033300221A708A
:1033D0000E23FB181A880E23FB1801321A800E23C5
:1033E000FB181B880F2BA0D9FFF718FFC046BD465E
:1033F00004B080BDA003002080B500AFC046BD462C
:1034000080BDC04680B500AFC046BD4680BDC04649
:1034100080B500AFC046BD4680BDC04680B584B013
:1034200000AF786039600F23FB1800221A703B68E8
:103430005B78092B35D89A00214BD3181B689F461F
:103440003A687B681100180000F08EF930E03A68A5
:103450007B681100180000F06FFA29E03A687B6879
:103460001100180000F0B0FA22E03A687B68110001
:10347000180000F027FB1BE03A687B681100180079
:1034800000F054FB14E03A687B681100180000F06B
:1034900077FB0DE03A687B681100180000F08EFBA6
:1034A00006E03A687B681100180000F0F1FBC046A6
:1034B0000F23FB181B781800BD4604B080BDC04622
:1034C0009875000890B585B000AF786039600F231B
:1034D000FB1800221A707B689B78032B26D13B686F
:1034E0009B88DBB2012B1AD87A68AC235B00D358D7
:1034F0009B680F22BC1839687A681000984703004F
:1035000023703B68DB88002B17D10F23FB181B7837
:10351000002B12D17B68180000F0BAFC0DE03A686D
:103520007B681100180000F0B3FB06E03A687B6886
:103530001100180000F0ACFB00E0C0460F23FB18A0
:103540001B781800BD4605B090BDC04680B584B05C
:1035500000AF786039600023BB600F23FB180022A6
:103560001A703B689A880E23FB181A703B685B78C8
:10357000012B4CD0032B03D0002B00D18EE0ECE0CC
:103580007B689B78022B02D0032B13D036E00E23EE
:10359000FB181B78002B38D00E23FB181B78802BD0
:1035A00033D00E23FB181A787B681100180001F045
:1035B0007BFF2AE03B685B88002B11D10E23FB18B0
:1035C0001B78002B0CD00E23FB181B78802B07D008
:1035D0000E23FB181A787B681100180001F064FFB5
:1035E0007A68AC235B00D3589B6839687A6810000E
:1035F00098477B68180000F04BFC07E03A687B684E
:103600001100180000F044FB00E0C046A5E07B6814
:103610009B78022B02D0032B13D036E00E23FB182D
:103620001B78002B38D00E23FB181B78802B33D04F
:103630000E23FB181A787B681100180001F034FF84
:103640002AE03B685B88002B11D10E23FB181B7806
:10365000002B0CD00E23FB181B78802B07D00E23D9
:10366000FB181A787B681100180001F08BFF7A684C
:10367000AC235B00D3589B6839687A681000984780
:103680007B68180000F004FC07E03A687B681100D2
:10369000180000F0FDFA00E0C0465EE07B689B7811
:1036A000022B02D0032B13D04EE00E23FB181B7805
:1036B000002B50D00E23FB181B78802B4BD00E23F1
:1036C000FB181A787B681100180001F0EDFE42E04B
:1036D0000E23FB181B785BB2002B14DA0E23FB18A9
:1036E0001B787F221A40796813009B009B18DB002F
:1036F000CB181A331B78002B02D00123BB601BE0D0
:103700000023BB6018E00E23FB181B785BB2002B74
:1037100012DB0E23FB181A787968BA2013009B007D
:103720009B18DB00CB181B181B78002B02D0012341
:10373000BB6001E00023BB600823F9187B6802220C
:10374000180000F027FB07E03A687B6811001800BA
:1037500000F09EFA00E0C046C0460F23FB181B781D
:103760001800BD4604B080BD80B584B000AF78605D
:1037700039603B685B881B0A9BB2072B00D9AAE023
:103780009A006B4BD3181B689F467A68B0235B0086
:10379000D3581A687B68DB68DBB20A2179181800F5
:1037A00090470300FB603B68DB88402B00D099E02A
:1037B0000A23FB1808221A8094E07A68AC235B0085
:1037C000D3581A6A7B68DB68DBB20A2179181800C3
:1037D00090470300FB607A68B2235B00F968D15020
:1037E00081E03B685B88DBB2052B5ED89A00514BC9
:1037F000D3181B689F467A68B0235B00D3585A6879
:103800007B68DB68DBB20A21791818009047030057
:10381000FB6051E07A68B0235B00D3589A687B68FC
:10382000DB68DBB20A217918180090470300FB60BF
:1038300042E07A68B0235B00D358DA687B68DB68C3
:10384000DBB20A217918180090470300FB6033E0CF
:103850007A68B0235B00D3581A697B68DB68DBB2F7
:103860000A217918180090470300FB6024E07A6869
:10387000B0235B00D3585A697B68DB68DBB20A214E
:103880007918180090470300FB6015E07A68B023B0
:103890005B00D3589A697B68DB68DBB20A21791830
:1038A000180090470300FB6006E03A687B6811004F
:1038B000180000F0EDF937E015E03A687B68110078
:1038C000180000F0E5F92FE03A687B681100180055
:1038D00000F0DEF928E03A687B681100180000F07B
:1038E000D7F921E0C0460A23FB181B88002B1BD008
:1038F0003B68DB88002B17D03B68DA880A23FB186B
:103900001B88181C111C8AB283B29A4200D9011C70
:103910008AB20A23FB181A800A23FB181A88F9684E
:103920007B68180000F036FABD4604B080BDC04682
:10393000C0750008E075000880B584B000AF7860FD
:1039400039603B689B88002B31D13B68DB88002BBA
:103950002DD13B685B88DAB20F23FB187F210A4028
:103960001A707B689B78032B06D13A687B6811003C
:10397000180000F08DF920E07B680F22BA18127849
:103980001A710F23FB181A780E4B1A607B68180007
:1039900000F07EFA0F23FB181B78002B03D07B6806
:1039A00002229A7009E07B6801229A7005E03A6869
:1039B0007B681100180000F06BF9C046BD4604B0EA
:1039C00080BDC0464C01002080B582B000AF786059
:1039D00039603B685B88DAB2394B1A70384B1B7818
:1039E000012B06D93A687B681100180000F050F9E5
:1039F00062E07B689B78022B02D0032B1CD054E042
:103A00002F4B1B78002B12D02D4B1A787B681A7025
:103A10007B6803229A702A4B1A787B681100180081
:103A200000F048FC7B68180000F032FA44E07B6844
:103A3000180000F02DFA3FE0214B1B78002B12D12B
:103A40007B6802229A701E4B1A787B681A701C4B96
:103A50001A787B681100180000F048FC7B68180099
:103A600000F016FA28E07B681A78154B1B789A420A
:103A700016D07B681A787B681100180000F036FCBD
:103A80000F4B1A787B681A700D4B1A787B681100FF
:103A9000180000F00FFC7B68180000F0F9F90BE04B
:103AA0007B68180000F0F4F906E03A687B681100C2
:103AB000180000F0EDF8C046C046BD4602B080BD1B
:103AC0005001002080B584B000AF786039600023D9
:103AD000FB603B68DB88012B06D03A687B681100ED
:103AE000180000F0D5F81CE07B689B78022B02D010
:103AF000032B08D00EE00C23F9187B680122180074
:103B000000F048F90DE079687B680122180000F0A8
:103B100041F906E03A687B681100180000F0B8F837
:103B2000C046C046BD4604B080BDC04680B584B026
:103B300000AF786039600023FB607B689B78023BB4
:103B4000012B11D80123FB607B689B68002B03D0FD
:103B5000FB6802221343FB600C23F9187B680222E6
:103B6000180000F017F906E03A687B6811001800A9
:103B700000F08EF8C046C046BD4604B080BDC046C9
:103B800080B582B000AF786039603B685B88012BFC
:103B90000FD17B6801229A607A68AC235B00D3580E
:103BA0009B6839687A68100098477B68180000F0B5
:103BB0006FF9C046BD4602B080BDC04680B582B038
:103BC00000AF786039607B689B78023B012B14D88A
:103BD0003B685B88012B17D17B6800229A607A686A
:103BE000AC235B00D3589B6839687A68100098470B
:103BF0007B68180000F04CF906E03A687B68110019
:103C0000180000F045F800E0C046C046BD4602B0CE
:103C100080BDC04680B582B000AF786039607B68F7
:103C20001A7C3B681A707B685A7C3B685A707B68C8
:103C30009B7C9AB27B68DB7C9BB21B029BB2D31845
:103C40009AB23B685A807B681B7D9AB27B685B7D29
:103C50009BB21B029BB2D3189AB23B689A807B68D6
:103C60009B7D9AB27B68DB7D9BB21B029BB2D31813
:103C70009AB23B68DA803B68DB881A007B68DA63BB
:103C80007B6801225A70C046BD4602B080BDC04666
:103C900080B582B000AF786039607B680021180081
:103CA00001F002FCC046BD4602B080BD80B586B0C2
:103CB00000AFF860B9607A601723FB1800221A7011
:103CC000FB68002B44D0FB68180000F045F80300A7
:103CD00001339BB2DB189AB27B681A801723FB185A
:103CE0001B781722BA18591C11701A00BB689B1850
:103CF0007A681288D2B21A701723FB181B78172221
:103D0000BA18591C11701A00BB689B1803221A704C
:103D10001AE01723FB181B781722BA18591C1170C8
:103D20001A00BB689A18FB68591CF9601B7813705D
:103D30001723FB181B781722BA18591C11701A0088
:103D4000BB689B1800221A70FB681B78002BE0D11F
:103D5000C046BD4606B080BD80B584B000AF786077
:103D60000F23FB1800221A7009E00F23FB181A78A2
:103D70000F23FB1801321A707B6801337B607B686C
:103D80001B78002BF1D10F23FB181B781800BD46C0
:103D900004B080BD80B586B000AFF860B960BB1DCF
:103DA0001A801723FB1800221A70BB1D1A88FB68A3
:103DB0009A63BB1D1A88FB685A63FB6802225A701B
:103DC000BB1D1B88BA68F868002101F0D7FA1723D9
:103DD000FB181B781800BD4606B080BD80B586B0C4
:103DE00000AFF860B960BB1D1A801723FB180022D2
:103DF0001A70BB1D1B88BA68F868002101F0BEFA72
:103E00001723FB181B781800BD4606B080BDC046BE
:103E100080B586B000AFF860B960BB1D1A8017236B
:103E2000FB1800221A70BB1D1A88FB68D8215A5053
:103E3000BB1D1A88FB68D4215A50FB6803225A70B4
:103E4000BB1D1B88BA68F868002101F035FA1723FA
:103E5000FB181B781800BD4606B080BD80B586B043
:103E600000AFF860B960BB1D1A801723FB18002251
:103E70001A70BB1D1B88BA68F868002101F01CFA93
:103E80001723FB181B781800BD4606B080BDC0463E
:103E900080B584B000AF78600F23FB1800221A7041
:103EA0007B6804225A70786800230022002101F008
:103EB00065FA0F23FB181B781800BD4604B080BDBF
:103EC00080B584B000AF78600F23FB1800221A7011
:103ED0007B6805225A70786800230022002101F0D7
:103EE000EBF90F23FB181B781800BD4604B080BD0A
:103EF00080B584B000AFF860B9607A603B60FB6861
:103F00001800FEF721FAFB68180000F027F8FA689D
:103F1000AC235B007968D150FA68AE235B00396846
:103F2000D150FA68B0235B00B968D150FEF790F920
:103F3000FB68180000F0A2FFFA68AE235B00D358BC
:103F40001B689847FB681800FEF712FAFB68180018
:103F500001F0A8FBC046BD4604B080BD80B582B06C
:103F600000AF786000231800BD4602B080BDC04697
:103F700080B584B000AF78600823FA187B68110020
:103F80001800FFF747FE0823FB181B781A001F23B1
:103F90001340012B0BD0022B11D0002B17D108237B
:103FA000FA187B6811001800FFF738FA1BE00823A5
:103FB000FA187B6811001800FFF784FA13E0082351
:103FC000FA187B6811001800FFF7C0FA0BE008230D
:103FD000FB181B787F229343DAB27B68110018002C
:103FE00001F062FAC04600231800BD4604B080BD4F
:103FF00080B584B000AF78600A00FB1C1A70FB1C0F
:104000001B78002B3AD17B68B833FB607B685B7808
:10401000032B48D1FB68DA69FB68DB689A4215D943
:10402000FB68DA69FB68DB68D21AFB68DA61FB6857
:104030001969FB68DA68FB68DB699A4200D91A00E3
:1040400092B27B681800FFF709FF2CE07A68AC2376
:104050005B00D3581B69002B0BD07B689B78032B2C
:1040600007D17A68AC235B00D3581B697A681000CB
:1040700098477B681800FFF70BFF14E07A68AC23C1
:104080005B00D3589B69002B0DD07B689B78032B7A
:1040900009D17A68AC235B00D3589B69FA1C11786C
:1040A0007A681000984700231800BD4604B080BD10
:1040B00080B584B000AF78600A00FB1C1A70FB1C4E
:1040C0001B78002B00D069E07B681833FB607B68AD
:1040D0005B78022B4ED1FB68DA69FB68DB689A4299
:1040E00010D9FB68DA69FB68DB68D21AFB68DA6111
:1040F000FB681969FB68DB699AB27B681800FFF7F7
:104100006DFE60E0FB681A6AFB68DB68190010004E
:10411000FCF780F80B1E15D1FB681A6AFB68DB6898
:104120009A420FD3FB681A6AFB685B6A9A4209D20B
:104130007B68002200211800FFF750FEFB68002278
:104140005A6240E07A68AC235B00D358DB68002BEE
:104150000BD07B689B78032B07D17A68AC235B007C
:10416000D358DB687A68100098477B681800FFF71F
:10417000A7FE28E07B685B78042B24D1144B1B68D6
:10418000002B20D0124B1B68DAB27B68110018009C
:1041900001F044FA0E4B00221A6014E07A68AC2356
:1041A0005B00D3585B69002B0DD07B689B78032B99
:1041B00009D17A68AC235B00D3585B69FA1C11788B
:1041C0007A681000984700231800BD4604B080BDEF
:1041D0004C01002080B582B000AF78607868402341
:1041E0000022002100F076FE7868802300228021E2
:1041F00000F070FE786800234022002100F0B8FE35
:10420000786800234022802100F0B2FE7B68012202
:104210009A707A68AE235B00D3585A687B68DB6873
:10422000DBB21800904700231800BD4602B080BDE5
:1042300080B582B000AF78607A68AE235B00D35857
:104240001B6998477B68DA787B689A7000231800AE
:10425000BD4602B080BDC04680B582B000AF786078
:104260007B689A787B68DA707B6804229A707A6837
:10427000AE235B00D358DB68984700231800BD4687
:1042800002B080BD80B582B000AF78607A68AC23A0
:104290005B00D358DB69002B07D07A68AC235B0046
:1042A000D358DB697A681000984700231800BD4690
:1042B00002B080BD80B582B000AF78600A00FB1C00
:1042C0001A707A68AC235B00D3581B68FA1C11780B
:1042D0007A68100098477A68AE235B00D3589B68D1
:1042E000984700231800BD4602B080BD80B582B05B
:1042F00000AF78600A00FB1C1A707A68AC235B0080
:10430000D3585B68FA1C11787A681000984700232C
:104310001800BD4602B080BD80B582B000AF7860A5
:104320000A00FB1C1A707868C0230022812100F06B
:10433000D1FD80235B0078680022822100F0CAFD55
:1043400088235B0078680022032100F0C3FD7868B1
:1043500002234022812100F00BFE786802234022D4
:10436000032100F005FE786803230822822100F073
:10437000FFFD074B1B689847064A786840230321D6
:1043800000F09AFF00231800BD4602B080BDC04671
:10439000600000206C05002080B582B000AF78601E
:1043A0000A00FB1C1A707B688121180000F0FEFED9
:1043B0007B680321180000F0F9FE7B688221180059
:1043C00000F0F4FE034B5B68984700231800BD46DD
:1043D00002B080BD6000002080B584B000AF78607E
:1043E00039600E23FB183A221A80444BBB603B68AD
:1043F0001B781A00602313403FD0202B35D13B6837
:10440000DB88002B27D03B681B785BB2002B10DACF
:104410003B4B9B683A68527810003A68D288394919
:1044200098473B68DA8837497B681800FFF7B2FC89
:1044300019E03B685B781A00334B1A603B68DB88F5
:104440001A00324B1A603B68DA882E497B681800E4
:10445000FFF7DEFC07E02A4B9B683A6852781000B1
:10446000002200219847002344E03A687B6811004D
:104470001800FFF70DFC02233CE03B685B780A2B39
:104480001DD00B2B22D0062B33D13B685B881B0A37
:104490009BB2212B0AD11E4BBB603B68DB880E22EE
:1044A000BA1899B23A2900D93A2313800E23FB187F
:1044B0001A88B9687B681800FFF76CFC19E0154989
:1044C0007B6801221800FFF765FC12E03B685B88FF
:1044D000DBB2002B06D13B685B88DBB21A000D4BC8
:1044E0001A6005E03A687B6811001800FFF7D0FBFE
:1044F000C04600231800BD4604B080BD0176000808
:1045000060000020AC050020940000206C01002019
:104510000A7600085401002090B583B000AF78609F
:104520000A4B1B68FF2B0BD0094B9C68074B186884
:10453000084B1A68084B1900A047044BFF221A6069
:1045400000231800BD4603B090BDC0469400002073
:10455000600000206C010020AC05002080B584B014
:1045600000AF78600A00FB1C1A70304B1B78012BDF
:1045700056D12F4B1B68002B11D12E4B1B68012BE2
:1045800009D12C4B00221A60786800230022812177
:1045900000F0F4FE44E0254B00221A7040E0244B6A
:1045A0001B68402B15D9244B1A680E23FB181A8060
:1045B0000C23FB1840221A801F4B1B6840331A0043
:1045C0001D4B1A601A4B1B68403B1A00184B1A60AF
:1045D0001AE0194B1A680E23FB181A80144B1A683C
:1045E0000C23FB181A80144B1A68114B1B68D21845
:1045F000114B1A600E4B00221A600D4B1B68402BAA
:1046000002D10C4B01221A600E23FB181A880B4BA7
:10461000D2180C23FB181B887868812100F0AEFEAD
:1046200000231800BD4604B080BDC04668010020CC
:10463000640100205801002060010020B405002022
:1046400080B584B000AF78600A00FB1C1A70FB1CB8
:104650001A787968D02013009B009B18DB00CB18D8
:104660001B181A680E23FB181A80094B1B690E22AF
:10467000BA181188074A10009847064A78684023FC
:10468000032100F019FE00231800BD4604B080BDD0
:10469000600000206C05002080B582B000AF78601B
:1046A000094B1B68591C084A1160052B06D1064BA3
:1046B00000221A607B68180000F008F80023180038
:1046C000BD4602B080BDC0467001002080B584B0F8
:1046D00000AF78603D4B1B78012B00D173E03C4B61
:1046E0001A6880231B019A4202D1394B00221A60BA
:1046F000374B1A68374B1B689A4203D1334B002261
:104700001A7060E0324B1A68324B1B689A4207D924
:104710002F4B1B6880221201D21A2F4B1A6006E021
:104720002C4B1A682A4B1B68D21A2B4B1A602A4B47
:104730001B68402B15D9264B1A680E23FB181A80CC
:104740000C23FB1840221A80214B1B6840331A00AF
:104750001F4B1A60204B1B68403B1A001E4B1A600F
:1047600022E01B4B1A680E23FB181A801A4B1A689A
:104770000C23FB181A80164B1A68174B1B68D218AB
:10478000134B1A60144B00221A600C23FB181B8871
:10479000402B02D1114B01221A600E4B1B68402B9B
:1047A00002D10C4B00221A60084B01221A700E2312
:1047B000FB181A880A4BD2180C23FB181B88786840
:1047C000812100F0DBFDBD4604B080BD6801002002
:1047D000600100205C0100206401002058010020DD
:1047E000B405002080B582B000AF02003960FB1D27
:1047F0001A703B6843221A80024B1800BD4602B073
:1048000080BDC046F875000890B587B000AF16238C
:10481000FB1800221A803B1D00221A806BE2BB1D90
:104820001B889BB2DAB21323FB180F210A401A70BF
:104830001323FB181B78002B00D0DDE0BB1D1B8869
:104840009BB21A00102313401FD1C54BC44A1268F3
:10485000C4490A401A60C44BFB60FB681B7818000F
:1048600001F0B0F903001A00FB689A61FB681A694D
:10487000FB689B69D218FB681A61BC4B1B685B68BC
:10488000BB4A00211000984735E2BA4BFB60B44B9D
:104890001B689AB23B1D1A803B1D1B889BB21A00F5
:1048A00080231B0113401ED0FB681B78180001F009
:1048B000A7F903001A00FB689A61FB689988FB68F6
:1048C0009B699AB2AC4B180001F096FBA44BA44A2A
:1048D0001268AA490A401A60A44B1B689B68A44A44
:1048E0001000984707E23B1D1B889BB21BB2002BB0
:1048F00000DB00E29A4B9A4A1268A0490A401A600B
:10490000FB681B78180001F07BF903001A00FB68B4
:104910009A61FB689B69002B10D0FB681869FB68E3
:104920009988FB689B699BB21A0001F065FBFB68E4
:104930001A69FB689B69D218FB681A618B4B1B686C
:104940001B688B4A0021100098478D4B1B681B0485
:104950001B0C8C4A94466344BB60FB68DB683E2BAF
:104960001DD9FB68DB685A091423FB181A80FB6801
:10497000DB681F22134006D11423FB181A88142366
:10498000FB18013A1A801423FB181B889B021BB2E8
:104990007D4A13431BB29AB2BB681A8018E0FB68C9
:1049A000DB685A081423FB181A80FB68DB680122B5
:1049B000134006D01423FB181A881423FB18013265
:1049C0001A801423FB181B889B029AB2BB681A80BA
:1049D000634B1B689BB26D4A13409CB280235B0102
:1049E00063409CB280239B0163409CB25C4B684A4D
:1049F000224392B21A607EE11323FB181B789B00BE
:104A0000574A944663441B689AB23B1D1A803B1D6B
:104A10001B889BB21BB2002B00DBC5E01323FB18E5
:104A20001B789B004E4A944663441322BA181278AE
:104A300092004B498C466244126850490A401A6001
:104A40001323FB181A7813009B009B18DB00B83364
:104A50001A00474BD318FB60FB689B7A002B18D1D8
:104A6000FB681B781622BC18180001F0C9F8030077
:104A700023801623FB181B88002B4CD0FB68186979
:104A8000FB6899881623FB181B881A0001F0B4FAFA
:104A900041E0FB681B78180000F04CFE03001A0090
:104AA0008023DB01134018D0FB681B781622BC184A
:104AB000180001F0DBF9030023801623FB181B8884
:104AC000002B22D0FB681869FB68D9881623FB18D5
:104AD0001B881A0001F090FA17E0FB681B78162279
:104AE000BC18180001F0E0F9030023801623FB181E
:104AF0001B88002B09D0FB681869FB6819891623ED
:104B0000FB181B881A0001F077FAFB681B7800215C
:104B1000180001F0E7F9FB689A691623FB181B8857
:104B2000D218FB689A61FB681A691623FB181B8868
:104B3000D218FB681A61FB685B69002B06D016234C
:104B4000FB181A88FB68DB689A4223D2074B1B6864
:104B50001B68FA681178064A1000984724E0C0469E
:104B6000005C00400F8F00004C02002090000020ED
:104B700034020020EC020020440200208F0F0000CD
:104B8000505C0040066000400080FFFF8FBFFFFFC9
:104B90008080FFFFFB681978FB681A69FB685B6916
:104BA0009BB25C4800F088FB3B1D1B889BB21A003F
:104BB0008023134000D19EE01323FB181A781300C2
:104BC0009B009B18DB0018331A00524BD318FB6074
:104BD0001323FB181B789B004F4A9446634413220F
:104BE000BA18127892004C498C46624412684B49BC
:104BF0000A401A60FB689B7A002B17D1FB681B7870
:104C0000180000F0DFFF03001A00FB689A61FB68E0
:104C10009B69002B49D0FB681869FB689988FB6881
:104C20009B699BB21A0001F0A1F93EE0FB681B787A
:104C3000180000F07FFD03001A004023134017D036
:104C4000FB681B78180001F011F903001A00FB68DB
:104C50009A61FB689B69002B21D0FB681869FB688F
:104C6000D988FB689B699BB21A0001F07FF916E0B6
:104C7000FB681B78180001F017F903001A00FB68A5
:104C80009A61FB689B69002B09D0FB681869FB6877
:104C90001989FB689B699BB21A0001F067F9FB68F0
:104CA0001B780121180001F01DF9FB681B78180022
:104CB00000F088FF03001A00FB689A61FB681A691C
:104CC000FB689B69D218FB681A61FB685B69002B63
:104CD00008D1134B1B685B68FA6811780D4A100005
:104CE000984708E0FB681978FB681A69FB685B69FC
:104CF000084800F043FB0B4B1B689AB2BB1D111C0C
:104D0000198013B2002B00DA89E5C046BD4607B012
:104D100090BDC04634020020005C00400F8F0000B0
:104D200090000020445C004080B582B000AFBB1D05
:104D300000221A80474B1B689AB2BB1D1A80BB1D0C
:104D40001B889BB21A00444B1B681A4080231B022D
:104D5000134001D0FFF758FDBB1D1B889BB21A0002
:104D60003D4B1B681A408023DB0013400DD0394BAC
:104D70003A4A1A603A4B1B681B693A4A1000984736
:104D8000384B0021180000F049FCBB1D1B889BB26A
:104D90001A00314B1B681A4080239B01134002D03C
:104DA0002C4B314A1A60BB1D1B889BB21A002A4B40
:104DB0001B681A4080235B0113400BD0254B2B4A04
:104DC0001A60274B1B689B69264A100098470020F1
:104DD000FDF718F9BB1D1B889BB21A001E4B1B6800
:104DE0001A4080231B0113400AD01A4B204A1A6034
:104DF0001B4B1B685B691B4A10009847FDF7C0F806
:104E0000BB1D1B889BB21A00134B1B681A408023E2
:104E10009B00134008D00F4B164A1A60104B1B68BA
:104E2000DB68104A10009847BB1D1B889BB21A0014
:104E3000094B1B681A4080235B00134005D0054BCB
:104E40000D4A1A600720FDF7DDF8C046BD4602B0E6
:104E500080BDC046445C004074010020FFFB0000A0
:104E60009000002034020020FFDF0000FFEF000070
:104E7000FFF70000FFFD0000FFFE000080B582B0DC
:104E800000AF78607B6801229A707B6800221A71FB
:104E90007B6800229A607B680122DA60012000F0C2
:104EA00015FC002000F012FC002000F01FFC002088
:104EB00000F02CFC064BBF2212021A60044B1B6848
:104EC0009BB2180000F002FCC046BD4602B080BD97
:104ED0007401002080B586B000AFF86008001100B2
:104EE0007B600A23FB18021C1A800823FB180A1C8B
:104EF0001A800A23FB181B88802213400DD00A2336
:104F0000FB181B887F221A4013009B009B18DB00B4
:104F10001833FA68D3187B610CE00A23FB181B884E
:104F20007F221A4013009B009B18DB00B833FA68FD
:104F3000D3187B610823FB181B88002B07D17B69E2
:104F400000229A727B689AB27B699A800BE07B6937
:104F500001229A727B689AB27B69DA807B681B0CAB
:104F60009AB27B691A8100231800BD4606B080BD45
:104F700090B587B000AFF8600C00100019000A234C
:104F8000FB18221C1A800823FB18021C1A80FB1D28
:104F90000A1C1A700A23FB181B888022134010D0A9
:104FA0000A23FB181B887F221A4013009B009B18C2
:104FB000DB001833FA68D3187B617B6901225A70D1
:104FC0000FE00A23FB181B887F221A4013009B0066
:104FD0009B18DB00B833FA68D3187B617B69002229
:104FE0005A700823FB181A887B69DA607B69FA1DFE
:104FF0001278DA700A23FB181B88DBB27F22134079
:10500000DAB27B691A707B691B78002B08D17B6947
:1050100000225A627B690022DA617B6900221A62EF
:105020007B6900221A617B6900225A617B69002238
:105030009A617B6900229A707B69DB78012B21D011
:1050400002DC002B05D026E0022B0BD0032B10D066
:1050500021E07B691A7880239B001900100000F082
:105060007DFB18E07B691B780021180000F076FBBF
:1050700011E07B691A78C023DB001900100000F0F2
:105080006DFB08E07B691A788023DB0019001000B3
:1050900000F064FBC0467B699B7A002B36D17B69AC
:1050A0005B78002B13D07B691A787B699B88190089
:1050B000100000F0C5FC7B691B78180000F092FC22
:1050C0007B691B782021180000F072FB69E07B6986
:1050D0001A787B699B881900100000F0D5FC7B6969
:1050E0001A787B69DB689BB21900100000F010FD94
:1050F0007B691B78180000F045FC7B691A78C02397
:105100009B011900100000F08FFB4AE07B691B78BF
:10511000180000F0C9FB7B6918787B69D9887B6926
:105120001B891A0000F08AFD7B695B78002B1DD17A
:105130007B691B78180000F025FC7B691B78180040
:1051400000F050FC7B691B78180000F0F7FB7B69CE
:105150001A78C0239B011900100000F065FB7B69E1
:105160001B780021180000F023FB1AE07B691B78F4
:10517000180000F007FC7B691B78180000F032FC77
:105180007B691B78180000F0B5FB7B691B78002158
:10519000180000F00DFB7B691B780021180000F05F
:1051A00043FB00231800BD4607B090BD80B584B016
:1051B00000AF78600A00FB1C1A70FB1C1B785BB206
:1051C000002B0CDAFB1C1B787F221A4013009B007B
:1051D0009B18DB0018337A68D318FB600BE0FB1CCC
:1051E0001B787F221A4013009B009B18DB00B8330A
:1051F0007A68D318FB60FB689B7A002B1BD1FB6895
:105200005B78002B0BD0FB681B78180000F0EAFBE2
:10521000FB681B780021180000F0CAFA46E0FB6822
:105220001B78180000F0AEFBFB681B78002118000B
:1052300000F0FAFA3AE0FB685B78002B1BD1FB68C0
:105240001B78180000F09EFBFB681B78180000F02C
:10525000C9FBFB681B78180000F070FBFB681B782B
:105260000021180000F0E0FAFB681B78002118000C
:1052700000F09EFA1AE0FB681B78180000F082FB31
:10528000FB681B78180000F0ADFBFB681B7818006A
:1052900000F030FBFB681B780021180000F088FA52
:1052A000FB681B780021180000F0BEFA00231800EC
:1052B000BD4604B080BDC04680B586B000AFF86082
:1052C00008007A6019000B23FB18021C1A700823CF
:1052D000FB180A1C1A8000233B610B23FB181B7868
:1052E0007F221A4013009B009B18DB00B833FA683A
:1052F000D3187B617B697A681A610823FB181A88C6
:105300007B695A617B6900229A617B695A697B6972
:10531000DB689A4209D97B69DB683B613A697B6942
:105320005B699A1A7B695A6105E07B695B693B613D
:105330007B6900225A617B699B7A002B08D17B69CB
:105340001B783A6992B21100180000F0E1FB08E006
:105350007B6918787B695B783A6992B2190000F032
:10536000ABFC7B691A78C0239B011900100000F088
:105370005BFA00231800BD4606B080BD80B588B03A
:1053800000AFF8607A603B600B23FB180A1C1A70B0
:1053900000237B610B23FB181B787F221A4013002C
:1053A0009B009B18DB001833FA68D318BB610B23F2
:1053B000FB181B787F221340DAB2BB691A70BB69F5
:1053C0007A681A61BB693A685A61BB6900229A61BE
:1053D000BB695A69BB69DB689A4209D9BB69DB685A
:1053E0007B617A69BB695B699A1ABB695A6105E09E
:1053F000BB695B697B61BB6900225A61BB699B7AAF
:10540000002B11D1BB691869BB699B887A6992B27C
:10541000190000F0ABFDBB691B787A6992B21100EC
:10542000180000F055FB33E01E23FB1800221A8001
:10543000BB691878BB695B787A6992B2190000F091
:105440003BFCBB691B78180000F074F903001A00DC
:105450004023134005D01E23FB18BA6912891A8015
:1054600004E01E23FB18BA69D2881A80BB69186948
:105470007B699AB21E23FB181B88190000F076FD89
:10548000BB691A78BB695B781900100000F02AFD2F
:10549000BB691B783021180000F08AF9002318003E
:1054A000BD4608B080BDC04690B585B000AF7860FD
:1054B0000A00FB1C1A70FB1C1B785BB2002B0CDA79
:1054C000FB1C1B787F221A4013009B009B18DB00FB
:1054D00018337A68D318FB6009E0FB1C1A781300B4
:1054E0009B009B18DB00B8337A68D318FB60FB681D
:1054F0001B78002B21D1FB681B789B001E4A944629
:1055000063441B681D4A13401C0080235B016340F9
:105510001C00102363401C00FB681B789B00164A8C
:105520009446634422001204120C15490A431A607F
:10553000FB6801229A70002319E0FB685B78002B5E
:1055400009D0FB6801229A70FB681B7810211800B3
:1055500000F02EF90AE0FB6801229A70FB681A78C5
:1055600080235B011900100000F05EF90023180091
:10557000BD4605B090BDC046005C0040BFBF000006
:105580008080000080B584B000AF78600A00FB1C0A
:105590001A70FB1C1B785BB2002B0CDAFB1C1B780F
:1055A0007F221A4013009B009B18DB0018337A6897
:1055B000D318FB6009E0FB1C1A7813009B009B18B2
:1055C000DB00B8337A68D318FB60FB685B78002B8C
:1055D0000ED0FB681B78180000F004FAFB681B78FB
:1055E0003021180000F0E4F8FB6800229A700FE008
:1055F000FB681B78180000F0C5F9FB681A78C02317
:105600009B011900100000F00FF9FB6800229A704E
:1056100000231800BD4604B080BDC04680B584B0EC
:1056200000AF78600A00FB1C1A700023FB607B68E7
:10563000FA1C12781A710023FB601BE0FB68FF2242
:1056400013409B00134A94466344FA68FF210A40C2
:10565000920010498C466244126811000E4A0A40BA
:105660000E491143FA68FF2002400A431A60FB68A2
:105670000133FB60FB68032BE0D9094BFA1C12785D
:10568000802149420A43D2B21A60C046BD4604B0E6
:1056900080BDC046005C00400F0F0000808000000D
:1056A0004C5C004080B582B000AF7860064B064A83
:1056B0001268802109020A431A607B6801229A70ED
:1056C000C046BD4602B080BD585C004080B582B087
:1056D00000AF0200BB1D1A80034BBA1D12881A606E
:1056E000C046BD4602B080BD405C004080B582B07F
:1056F00000AF0200BB1D1A80034BBA1D12881A604E
:10570000C046BD4602B080BD445C004080B582B05A
:1057100000AF0200BB1D1A80044BBA1D1288044959
:105720000A401A60C046BD4602B080BD505C0040D1
:10573000F8FF000080B582B000AF0200FB1D1A70B8
:10574000FB1D1B789B00044A944663441B689BB274
:105750001800BD4602B080BD005C004080B582B03C
:1057600000AF0200FB1D1A703B1D0A1C1A80FB1DB6
:105770001B789B000C4A94466344FA1D12789200F1
:1057800009498C466244126812B208490A4011B2B3
:105790003A1D0020125E0A4312B292B21A60C0464D
:1057A000BD4602B080BDC046005C00408F89FFFF4F
:1057B00090B583B000AF0200FB1D1A703B1D0A1CA0
:1057C0001A80FB1D1B789B00144A944663441B6897
:1057D0009BB2134A13409CB23B1D1B8810221340FE
:1057E0009BB2002B02D0102363409CB23B1D1B8850
:1057F000202213409BB2002B02D0202363409CB296
:10580000FB1D1B789B00054A94466344054A2243CE
:1058100092B21A60C046BD4603B090BD005C004025
:10582000BF8FFFFF8080FFFF90B583B000AF020005
:10583000FB1D1A703B1D0A1C1A80FB1D1B789B0068
:10584000164A944663441B689BB2154A13409CB2A7
:105850003B1D1A8880235B0113409BB2002B03D0B1
:1058600080235B0163409CB23B1D1A8880239B010F
:1058700013409BB2002B03D080239B0163409CB25A
:10588000FB1D1B789B00054A94466344054A22434E
:1058900092B21A60C046BD4603B090BD005C0040A5
:1058A0008FBFFFFF8080FFFF80B582B000AF020096
:1058B000FB1D1A70FB1D1B789B000B4A944663442A
:1058C000FA1D1278920008498C466244126812B29E
:1058D00006490A4012B206490A4312B292B21A604D
:1058E000C046BD4602B080BD005C00400F0E000007
:1058F0008081FFFF80B582B000AF0200FB1D1A70EF
:10590000FB1D1B789B000A4A94466344FA1D1278DB
:10591000920007498C46624412681100054A0A4009
:1059200005490A431A60C046BD4602B080BDC04664
:10593000005C00400F0F000080C0000080B582B006
:1059400000AF0200FB1D1A70FB1D1B789B000A4A6A
:1059500094466344FA1D1278920007498C466244CB
:1059600012681100054A0A4005490A431A60C046F8
:10597000BD4602B080BDC046005C00400F0F000075
:10598000C080000080B582B000AF0200FB1D1A701D
:10599000FB1D1B789B00104A944663441B681A0049
:1059A0008023DB01134012D0FB1D1B789B000A4AA9
:1059B00094466344FA1D1278920007498C4662446B
:1059C00012681100054A0A4005490A431A60C04698
:1059D000BD4602B080BDC046005C00400F0F000015
:1059E00080C0000080B582B000AF0200FB1D1A70BD
:1059F000FB1D1B789B000F4A944663441B681A00EA
:105A00004023134012D0FB1D1B789B00094A94468B
:105A10006344FA1D1278920006498C46624412686B
:105A20001100054A0A4005490A431A60C046BD46AE
:105A300002B080BD005C00400F0F0000C08000007D
:105A400080B582B000AF0200FB1D1A703B1D0A1C1E
:105A50001A800B4B1B681B041A0CFB1D1B78DB0008
:105A6000D318084A9446634419003B1D1B88012241
:105A700093439BB20B80C046BD4602B080BDC0467A
:105A8000505C00400060004080B582B000AF020072
:105A9000FB1D1A703B1D0A1C1A800B4B1B681B0454
:105AA0001A0CFB1D1B78DB00D318084A944663448C
:105AB00019003B1D1B88012293439BB20B80C046FB
:105AC000BD4602B080BDC046505C0040046000404E
:105AD00080B582B000AF0200FB1D1A703B1D0A1C8E
