:020000040800F2
:10000000001800209D090008610900086D0900081A
:1000100000000000000000000000000000000000E0
:10002000000000000000000000000000750900084A
:10003000000000000000000081090008150B000806
:10004000ED090008ED090008ED090008ED090008B8
:10005000ED090008ED090008ED090008ED090008A8
:10006000ED090008ED090008ED090008ED09000898
:10007000ED090008ED090008ED090008ED09000888
:10008000ED090008ED09000800000000ED09000876
:10009000ED090008ED090008ED090008ED09000868
:1000A000ED090008ED090008ED090008ED09000858
:1000B000ED09000800000000ED0900088D090008A6
:1000C00010B5064C2378002B07D1054B002B02D02E
:1000D000044800E000BF0123237010BDBC000020D5
:1000E00000000000183D0008044B10B5002B03D0A1
:1000F0000349044800E000BF10BDC04600000000F6
:10010000C0000020183D0008002243088B4274D331
:1001100003098B425FD3030A8B4244D3030B8B4208
:1001200028D3030C8B420DD3FF22090212BA030C11
:100130008B4202D31212090265D0030B8B4219D3F2
:1001400000E0090AC30B8B4201D3CB03C01A524112
:10015000830B8B4201D38B03C01A5241430B8B425A
:1001600001D34B03C01A5241030B8B4201D30B0343
:10017000C01A5241C30A8B4201D3CB02C01A52416A
:10018000830A8B4201D38B02C01A5241430A8B422D
:1001900001D34B02C01A5241030A8B4201D30B0216
:1001A000C01A5241CDD2C3098B4201D3CB01C01A30
:1001B000524183098B4201D38B01C01A524143093A
:1001C0008B4201D34B01C01A524103098B4201D328
:1001D0000B01C01A5241C3088B4201D3CB00C01A95
:1001E000524183088B4201D38B00C01A524143080D
:1001F0008B4201D34B00C01A5241411A00D2014632
:10020000524110467047FFE701B5002000F006F8A4
:1002100002BDC0460029F7D076E770477047C04658
:1002200080B584B000AF78600A00FB1C1A707B6850
:1002300084229B5801337F221340FB607B6880221D
:100240009A58FB689A4201D101230BE07B68842213
:100250009B587A68F91C0978D1547B688421FA6824
:100260005A5000231800BD4604B080BD80B582B04E
:1002700000AF786039607B6880229A587B6884215F
:100280005B589A4201D1012310E07B6880229B5881
:100290007A68D25C3B681A707B6880229B58013375
:1002A0007F221A407B6880215A5000231800BD46E7
:1002B00002B080BD80B582B000AF78607B688422D8
:1002C0009A587B6880215B589A4207D37B688422C6
:1002D0009A587B6880215B58D31A07E07B68842298
:1002E0009A587B6880215B58D31A80331800BD462A
:1002F00002B080BD80B500AFC046BD4680BDC046DF
:1003000080B582B000AF0200FB1D1A70C046BD462A
:1003100002B080BD80B500AFC046BD4680BDC046BE
:1003200080B500AFC046BD4680BDC04680B500AFB9
:10033000C046BD4680BDC04680B582B000AF104B00
:100340001A68BB1D1A80BB1DBA1D128808210A43FA
:100350001A800B4BBA1D12881A60094B1A68BB1D14
:100360001A80BB1DBA1D128804210A431A80044B4F
:10037000BA1D12881A60C046BD4602B080BDC04694
:10038000405C004080B582B000AF0B4B1A68BB1DCB
:100390001A80BB1DBA1D128804218A431A80064B9D
:1003A000BA1D12881A60044BBF2212021A60C0469E
:1003B000BD4602B080BDC046405C004080B584B000
:1003C00000AF0200FB1D1A70FB1D1B78072B03D02A
:1003D000424BFA1D12781A70404B1B78DBB2052B8A
:1003E00000D970E09A003E4BD3181B689F463D4BE6
:1003F0001B68002B05D1FFF7C5FF384B06221A708A
:1004000068E0364B05221A7064E0FFF7BBFF334B00
:1004100004221A70334B01221A605BE02F4B022238
:100420005A702E4B03221A7054E02C4B5B78DBB2CF
:10043000013BDAB2294B5A70284B5B78DBB2002BB8
:1004400045D1264B04221A7041E0274B1A680E232F
:10045000FB181A800E23FB180E22BA1812881021DE
:100460000A431A80204B0E22BA1812881A601B4BBE
:1004700005221A70194B0A225A702BE0174B5B7831
:10048000DBB2013BDAB2154B5A70144B5B78DBB22E
:10049000002B1ED1144B1A680E23FB181A800E2352
:1004A000FB180E22BA18128810218A431A800E4BAC
:1004B0000E22BA1812881A60084B06221A70094BCD
:1004C00000221A6005E0054B06221A7002E0C046C1
:1004D00000E0C046C046BD4604B080BD100100200B
:1004E000AC3D0008D8000020405C004080B582B0E0
:1004F00000AF02003960FB1D1A703B6812221A809F
:10050000024B1800BD4602B080BDC046C43D000885
:1005100080B582B000AF02003960FB1D1A703B68E5
:1005200004221A80024B1800BD4602B080BDC046AE
:10053000D83D000880B582B000AF02003960FB1DD5
:100540001A703A680449054B180001F0CDF8024BC7
:100550001800BD4602B080BD28030020303D0008D1
:1005600080B582B000AF02003960FB1D1A703A6896
:100570000449054B180001F0B7F8024B1800BD46BE
:1005800002B080BD28030020543D000880B582B031
:1005900000AF02003960FB1D1A703B681A221A80F6
:1005A000024B1800BD4602B080BDC046300000209E
:1005B00080B582B000AF02003960FB1D1A703A6846
:1005C0000449054B180001F08FF8024B1800BD4696
:1005D00002B080BD28030020683D000880B582B0CD
:1005E00000AF02003960FB1D1A703A680449054BE0
:1005F000180001F079F8024B1800BD4602B080BD2A
:1006000028030020743D000880B584B000AF104B73
:100610001B68FB600F4B1B68BB600F4B1B687B604C
:10062000FA687B68D318FB60FB68002B0BD00B4982
:10063000FB680822180000F015F80949BB6804227D
:10064000180000F00FF8C046BD4604B080BDC0469B
:10065000ACF7FF1FB0F7FF1FB4F7FF1F32000020F9
:100660004200002080B586B000AFF860B960FB1D85
:100670001A701723FB1800221A701723FB18002288
:100680001A7031E0FB681B0F092B0DD81723FB18DC
:100690001B785B001A00BB689B18FA68120FD2B275
:1006A0003032D2B21A700CE01723FB181B785B00B3
:1006B0001A00BB689B18FA68120FD2B23732D2B256
:1006C0001A70FB681B01FB601723FB181B785B008B
:1006D0000133BA68D31800221A701723FB181A784E
:1006E0001723FB1801321A701723FA18FB1D127812
:1006F0001B789A42C6D3C046BD4606B080BDC046F0
:1007000080B582B000AF786080231B0401211800FF
:1007100003F0F8F9002003F0BFF900F01FF8C0461D
:10072000BD4602B080BDC04680B584B000AF7860E1
:100730000C23FB181F221A700C23FB1801225A707D
:100740000C23FB1801229A700C23FB18180003F0ED
:10075000F9F9C046BD4604B080BDC04680B500AFC3
:1007600080231B050121180003F0CCF980239B0591
:10077000180003F093FA012003F072FA012003F04D
:1007800051FAC046BD4680BD80B500AF1B4B1B4A29
:10079000126801210A431A60184B184A5268184916
:1007A0000A405A60154B154A126816490A401A60E9
:1007B000124B124A126814490A401A600F4B0F4A32
:1007C000526812490A405A600C4B0C4AD26A0F21F7
:1007D0008A43DA62094B094A126B0D490A401A63CF
:1007E000064B064A526B0B490A405A63034B0022E0
:1007F0009A6000F087F8C046BD4680BD00100240F8
:100800000CB8FF80FFFFF6FEFFFFFBFFFF7FC0FF7E
:10081000ACFEFFFFFEFFFEFF80B584B000AF0023FB
:10082000FB600023BB6000237B6000233B602F4BF9
:100830005B680C221340FB60FB68042B0CD002D8D1
:10084000002B05D03AE0082B0AD00C2B32D035E033
:10085000274B284A1A6035E0254B264A1A6031E0BA
:10086000224B5A68F0239B031340BB601F4B5A680E
:10087000C0235B0213407B60BB689B0C0233BB60F0
:100880007B68002B05D1BB681B4A5A43184B1A6082
:1008900018E0164BDB6A0F22134001333B603968C6
:1008A0001448FFF731FC03001A00BB685A43104B91
:1008B0001A6007E00E4B114A1A6003E00C4B0D4A18
:1008C0001A60C046094B5B68F02213401B090C4AB2
:1008D000D35CDBB2FB60064B1A68FB68DA40044B62
:1008E0001A60C046BD4604B080BDC046001002403C
:1008F0004C00002000127A0000093D00006CDC0270
:100900005000002080B500AF134B11221A60134B2A
:10091000124A52685A60114B104A52685A600F4B83
:100920000E4A526B802149020A435A63C0460B4B60
:100930005A6B80239B021340F9D0084B074A526838
:1009400003218A435A60054B044A526803210A4333
:100950005A60C046BD4680BD0020024000100240E3
:1009600080B500AFC046BD4680BDC04680B500AF73
:10097000FEE7C04680B500AFC046BD4680BDC0465C
:1009800080B500AFC046BD4680BDC04680B500AF53
:1009900001F0E8FEC046BD4680BDC0460D48854614
:1009A000002103E00C4B5B58435004310B480C4BC7
:1009B00042189A42F6D30B4A02E000231360043235
:1009C000094B9A42F9D3FFF7DFFE03F07FF900F0FD
:1009D000D7F8FEE700180020883E0008000000203D
:1009E000BC000020BC000020B40C0020FEE700008A
:1009F000B0B582B000AF02003960FB1D1A70FB1D5C
:100A00001B787F2B32D92F4CFB1D1B781A000F232C
:100A10001340083B99082B4AFB1D1B7818000F2335
:100A20000340083B9B0806339B00D31804331B6824
:100A3000FA1D1278100003220240D200FF209040DD
:100A40000200D2431A403B689B01FF201840FB1D67
:100A50001B781D0003232B40DB00984003001A4342
:100A60008B1D9B00E31804331A6027E0164CFB1D16
:100A70001B785BB29B081449FA1D127852B2920897
:100A8000C03292005258F91D097808000321014034
:100A9000C900FF2088400100C94311403A68920113
:100AA000FF201040FA1D1278150003222A40D200C0
:100AB000904002000A43C0339B001A51C046BD4615
:100AC00002B0B0BD00ED00E000E100E080B582B012
:100AD00000AF78607B68013B0C4A934201D9012347
:100AE00010E00B4B7A68013A5A6001235B42032104
:100AF0001800FFF77DFF064B00229A60044B072287
:100B00001A6000231800BD4602B080BDFFFFFF0041
:100B100010E000E080B500AF0D4B1B68002B04D047
:100B20000B4B1B685A1E0A4B1A600A4B1B685A1C57
:100B3000084B1A60074B1B68642B05D9064B012232
:100B40001A70044B00221A60C046BD4680BDC046E4
:100B500014010020DC000020E000002080B582B0FD
:100B600000AF7860054B7A681A60C046034B1B687B
:100B7000002BFBD1C046BD4602B080BD1401002051
:100B800080B582B000AFFFF7FFFDFFF745FE2F4BAA
:100B90001A68FA2359011000FFF7B6FA030018008B
:100BA000FFF794FF05235B42180003F021F800F0E3
:100BB00041F900F045F9FA235B001800FFF7CEFF7A
:100BC00000F044F9FA235B001800FFF7C7FF00F0BC
:100BD0004BF8FA239B001800FFF7C0FF1C4B1B7853
:100BE000002BFBD01A4B00221A701A4B1B781A00EC
:100BF000042313400BD0174B1B7804229343DAB223
:100C0000144B1A70144B1421180000F091F8114B7A
:100C10001B781A0001231340E0D0104B0B21180061
:100C200000F086F80E4B180000F0D8F80200FB1D0B
:100C30001A70FB1D1A780A4B1100180000F078F8A2
:100C4000084B0121180000F073F8C7E74C000020A2
:100C5000E000002012010020843D00089C3D0008B7
:100C600018010020A83D000880B500AF0121012037
:100C700002F028FF0E4B0E4A126810210A431A6038
:100C80000C4B0D4A0D490E4800F050FE0D4B1B78E1
:100C900001229343DAB20B4B1A700B4B80220021D6
:100CA0009950094B842200219950C046BD4680BD11
:100CB00000000140000000209800002014000020E7
:100CC000C0010020120100203801002080B500AFD3
:100CD00000231800BD4680BD80B500AF002318007A
:100CE000BD4680BD80B584B000AFF860B9607A6061
:100CF000FB68202B14D10D4B1B781A0002231340E4
:100D00000DD10A4B1B7802221343DAB2074B1A703B
:100D1000064B1B7804221343DAB2044B1A70C04608
:100D200000231800BD4604B080BDC046120100205B
:100D300080B584B000AF786039600023FB6018E0B4
:100D4000104B1B687968FA688A1811780E4AD154DA
:100D50000C4B1B685A1C0B4B1A600A4B1A688023F9
:100D60001B019A4202D1074B00221A60FB68013333
:100D7000FB60FA683B689A42E2D300231800BD4644
:100D800004B080BDF4000020B404002080B584B01D
:100D900000AF786039600F4B1B7801221343DAB241
:100DA0000C4B1A700023FB600BE07A68FB68D318C9
:100DB0001A78094B11001800FFF732FAFB6801336B
:100DC000FB60FA683B689A42EFD300231800BD46E7
:100DD00004B080BD120100203801002080B584B02D
:100DE00000AF7860114B1B7801229343DAB20F4BAE
:100DF0001A700F4B1800FFF75DFA0300BB60002369
:100E0000FB600AE07A68FB68D218094B11001800F1
:100E1000FFF72CFAFB680133FB60FA68BB689A4263
:100E2000F0D3BB681800BD4604B080BD120100209D
:100E30003801002080B500AFC046BD4680BDC04629
:100E400080B500AFC046BD4680BDC04680B500AF8E
:100E5000C046BD4680BDC04680B584B000AF786056
:100E600039600F23FB1800221A703B685B78092B4E
:100E700035D89A00214BD3181B689F463A687B6887
:100E80001100180000F08EF930E03A687B6811001C
:100E9000180000F06FFA29E03A687B68110018002A
:100EA00000F0B0FA22E03A687B681100180000F008
:100EB00027FB1BE03A687B681100180000F054FB28
:100EC00014E03A687B681100180000F077FB0DE031
:100ED0003A687B681100180000F08EFB06E03A6863
:100EE0007B681100180000F0F1FBC0460F23FB18CF
:100EF0001B781800BD4604B080BDC046DC3D00082C
:100F000090B585B000AF786039600F23FB180022E0
:100F10001A707B689B78032B26D13B689B88DBB2D9
:100F2000012B1AD87A68AC235B00D3589B680F2238
:100F3000BC1839687A6810009847030023703B6832
:100F4000DB88002B17D10F23FB181B78002B12D145
:100F50007B68180000F0BAFC0DE03A687B6811006D
:100F6000180000F0B3FB06E03A687B681100180037
:100F700000F0ACFB00E0C0460F23FB181B78180004
:100F8000BD4605B090BDC04680B584B000AF786066
:100F900039600023BB600F23FB1800221A703B68E6
:100FA0009A880E23FB181A703B685B78012B4CD093
:100FB000032B03D0002B00D18EE0ECE07B689B7804
:100FC000022B02D0032B13D036E00E23FB181B7824
:100FD000002B38D00E23FB181B78802B33D00E2328
:100FE000FB181A787B681100180001F07BFF2AE0DB
:100FF0003B685B88002B11D10E23FB181B78002B5C
:101000000CD00E23FB181B78802B07D00E23FB1867
:101010001A787B681100180001F064FF7A68AC232D
:101020005B00D3589B6839687A68100098477B68E2
:10103000180000F04BFC07E03A687B6811001800CC
:1010400000F044FB00E0C046A5E07B689B78022BE3
:1010500002D0032B13D036E00E23FB181B78002B95
:1010600038D00E23FB181B78802B33D00E23FB18AF
:101070001A787B681100180001F034FF2AE03B6801
:101080005B88002B11D10E23FB181B78002B0CD092
:101090000E23FB181B78802B07D00E23FB181A7821
:1010A0007B681100180001F08BFF7A68AC235B00AD
:1010B000D3589B6839687A68100098477B68180095
:1010C00000F004FC07E03A687B681100180000F0AB
:1010D000FDFA00E0C0465EE07B689B78022B02D000
:1010E000032B13D04EE00E23FB181B78002B50D09F
:1010F0000E23FB181B78802B4BD00E23FB181A787D
:101100007B681100180001F0EDFE42E00E23FB1891
:101110001B785BB2002B14DA0E23FB181B787F229E
:101120001A40796813009B009B18DB00CB181A3318
:101130001B78002B02D00123BB601BE00023BB60A7
:1011400018E00E23FB181B785BB2002B12DB0E237A
:10115000FB181A787968BA2013009B009B18DB00F3
:10116000CB181B181B78002B02D00123BB6001E0B9
:101170000023BB600823F9187B680222180000F0E6
:1011800027FB07E03A687B681100180000F09EFA20
:1011900000E0C046C0460F23FB181B781800BD4670
:1011A00004B080BD80B584B000AF786039603B6822
:1011B0005B881B0A9BB2072B00D9AAE09A006B4BF5
:1011C000D3181B689F467A68B0235B00D3581A680F
:1011D0007B68DB68DBB20A217918180090470300AE
:1011E000FB603B68DB88402B00D099E00A23FB18AA
:1011F00008221A8094E07A68AC235B00D3581A6AFC
:101200007B68DB68DBB20A2179181800904703007D
:10121000FB607A68B2235B00F968D15081E03B68DB
:101220005B88DBB2052B5ED89A00514BD3181B6844
:101230009F467A68B0235B00D3585A687B68DB68A6
:10124000DBB20A217918180090470300FB6051E0D7
:101250007A68B0235B00D3589A687B68DB68DBB29E
:101260000A217918180090470300FB6042E07A6871
:10127000B0235B00D358DA687B68DB68DBB20A21F5
:101280007918180090470300FB6033E07A68B023B8
:101290005B00D3581A697B68DB68DBB20A217918D6
:1012A000180090470300FB6024E07A68B0235B00DD
:1012B000D3585A697B68DB68DBB20A2179181800B9
:1012C00090470300FB6015E07A68B0235B00D358B9
:1012D0009A697B68DB68DBB20A21791818009047AD
:1012E0000300FB6006E03A687B681100180000F01C
:1012F000EDF937E015E03A687B681100180000F05E
:10130000E5F92FE03A687B681100180000F0DEF97B
:1013100028E03A687B681100180000F0D7F921E056
:10132000C0460A23FB181B88002B1BD03B68DB88B8
:10133000002B17D03B68DA880A23FB181B88181C7F
:10134000111C8AB283B29A4200D9011C8AB20A23C4
:10135000FB181A800A23FB181A88F9687B681800A2
:1013600000F036FABD4604B080BDC046043E000819
:10137000243E000880B584B000AF786039603B68D7
:101380009B88002B31D13B68DB88002B2DD13B683B
:101390005B88DAB20F23FB187F210A401A707B6842
:1013A0009B78032B06D13A687B681100180000F087
:1013B0008DF920E07B680F22BA1812781A710F237A
:1013C000FB181A780E4B1A607B68180000F07EFA42
:1013D0000F23FB181B78002B03D07B6802229A7026
:1013E00009E07B6801229A7005E03A687B68110089
:1013F000180000F06BF9C046BD4604B080BDC04681
:10140000E400002080B582B000AF786039603B68AE
:101410005B88DAB2394B1A70384B1B78012B06D92E
:101420003A687B681100180000F050F962E07B68B0
:101430009B78022B02D0032B1CD054E02F4B1B783F
:10144000002B12D02D4B1A787B681A707B68032210
:101450009A702A4B1A787B681100180000F048FC3B
:101460007B68180000F032FA44E07B68180000F056
:101470002DFA3FE0214B1B78002B12D17B68022212
:101480009A701E4B1A787B681A701C4B1A787B680E
:101490001100180000F048FC7B68180000F016FAF4
:1014A00028E07B681A78154B1B789A4216D07B6827
:1014B0001A787B681100180000F036FC0F4B1A7880
:1014C0007B681A700D4B1A787B681100180000F0C9
:1014D0000FFC7B68180000F0F9F90BE07B6818003E
:1014E00000F0F4F906E03A687B681100180000F09B
:1014F000EDF8C046C046BD4602B080BDE800002001
:1015000080B584B000AF786039600023FB603B6831
:10151000DB88012B06D03A687B681100180000F0C8
:10152000D5F81CE07B689B78022B02D0032B08D0F7
:101530000EE00C23F9187B680122180000F048F92E
:101540000DE079687B680122180000F041F906E09F
:101550003A687B681100180000F0B8F8C046C04631
:10156000BD4604B080BDC04680B584B000AF786091
:1015700039600023FB607B689B78023B012B11D80C
:101580000123FB607B689B68002B03D0FB68022271
:101590001343FB600C23F9187B680222180000F04B
:1015A00017F906E03A687B681100180000F08EF821
:1015B000C046C046BD4604B080BDC04680B582B0BE
:1015C00000AF786039603B685B88012B0FD17B6886
:1015D00001229A607A68AC235B00D3589B68396813
:1015E0007A68100098477B68180000F06FF9C046D1
:1015F000BD4602B080BDC04680B582B000AF786005
:1016000039607B689B78023B012B14D83B685B8870
:10161000012B17D17B6800229A607A68AC235B00AB
:10162000D3589B6839687A68100098477B6818001F
:1016300000F04CF906E03A687B681100180000F0F1
:1016400045F800E0C046C046BD4602B080BDC04679
:1016500080B582B000AF786039607B681A7C3B68E7
:101660001A707B685A7C3B685A707B689B7C9AB284
:101670007B68DB7C9BB21B029BB2D3189AB23B689F
:101680005A807B681B7D9AB27B685B7D9BB21B0294
:101690009BB2D3189AB23B689A807B689B7D9AB2C2
:1016A0007B68DB7D9BB21B029BB2D3189AB23B686E
:1016B000DA803B68DB881A007B68DA637B6801228A
:1016C0005A70C046BD4602B080BDC04680B582B0EB
:1016D00000AF786039607B680021180001F002FCDF
:1016E000C046BD4602B080BD80B586B000AFF86090
:1016F000B9607A601723FB1800221A70FB68002B70
:1017000044D0FB68180000F045F8030001339BB299
:10171000DB189AB27B681A801723FB181B781722F4
:10172000BA18591C11701A00BB689B187A68128885
:10173000D2B21A701723FB181B781722BA18591C3B
:1017400011701A00BB689B1803221A701AE0172345
:10175000FB181B781722BA18591C11701A00BB68A5
:101760009A18FB68591CF9601B7813701723FB1833
:101770001B781722BA18591C11701A00BB689B18E5
:1017800000221A70FB681B78002BE0D1C046BD46D2
:1017900006B080BD80B584B000AF78600F23FB1821
:1017A00000221A7009E00F23FB181A780F23FB1888
:1017B00001321A707B6801337B607B681B78002BD9
:1017C000F1D10F23FB181B781800BD4604B080BD73
:1017D00080B586B000AFF860B960BB1D1A801723D2
:1017E000FB1800221A70BB1D1A88FB689A63BB1D88
:1017F0001A88FB685A63FB6802225A70BB1D1B885B
:10180000BA68F868002101F0D7FA1723FB181B7893
:101810001800BD4606B080BD80B586B000AFF86048
:10182000B960BB1D1A801723FB1800221A70BB1D5C
:101830001B88BA68F868002101F0BEFA1723FB186C
:101840001B781800BD4606B080BDC04680B586B086
:1018500000AFF860B960BB1D1A801723FB18002287
:101860001A70BB1D1A88FB68D8215A50BB1D1A88F4
:10187000FB68D4215A50FB6803225A70BB1D1B8899
:10188000BA68F868002101F035FA1723FB181B78B5
:101890001800BD4606B080BD80B586B000AFF860C8
:1018A000B960BB1D1A801723FB1800221A70BB1DDC
:1018B0001B88BA68F868002101F01CFA1723FB188E
:1018C0001B781800BD4606B080BDC04680B584B008
:1018D00000AF78600F23FB1800221A707B68042287
:1018E0005A70786800230022002101F065FA0F2366
:1018F000FB181B781800BD4604B080BD80B584B0CD
:1019000000AF78600F23FB1800221A707B68052255
:101910005A70786800230022002101F0EBF90F23B0
:10192000FB181B781800BD4604B080BD80B584B09C
:1019300000AFF860B9607A603B60FB681800FEF7A2
:10194000DFFEFB68180000F027F8FA68AC235B00A4
:101950007968D150FA68AE235B003968D150FA68D3
:10196000B0235B00B968D150FEF74EFEFB6818004B
:1019700000F0A2FFFA68AE235B00D3581B689847BB
:10198000FB681800FEF7D0FEFB68180001F0A8FB0A
:10199000C046BD4604B080BD80B582B000AF78605F
:1019A00000231800BD4602B080BDC04680B584B09B
:1019B00000AF78600823FA187B6811001800FFF761
:1019C00047FE0823FB181B781A001F231340012B26
:1019D0000BD0022B11D0002B17D10823FA187B68EB
:1019E00011001800FFF738FA1BE00823FA187B688B
:1019F00011001800FFF784FA13E00823FA187B6837
:101A000011001800FFF7C0FA0BE00823FB181B7841
:101A10007F229343DAB27B681100180001F062FA6A
:101A2000C04600231800BD4604B080BD80B584B018
:101A300000AF78600A00FB1C1A70FB1C1B78002B9F
:101A40003AD17B68B833FB607B685B78032B48D165
:101A5000FB68DA69FB68DB689A4215D9FB68DA69CA
:101A6000FB68DB68D21AFB68DA61FB681969FB68FE
:101A7000DA68FB68DB699A4200D91A0092B27B6887
:101A80001800FFF709FF2CE07A68AC235B00D358FD
:101A90001B69002B0BD07B689B78032B07D17A68DE
:101AA000AC235B00D3581B697A68100098477B68A9
:101AB0001800FFF70BFF14E07A68AC235B00D358E3
:101AC0009B69002B0DD07B689B78032B09D17A682A
:101AD000AC235B00D3589B69FA1C11787A6810001C
:101AE000984700231800BD4604B080BD80B584B07F
:101AF00000AF78600A00FB1C1A70FB1C1B78002BDF
:101B000000D069E07B681833FB607B685B78022B50
:101B10004ED1FB68DA69FB68DB689A4210D9FB6832
:101B2000DA69FB68DB68D21AFB68DA61FB6819695D
:101B3000FB68DB699AB27B681800FFF76DFE60E016
:101B4000FB681A6AFB68DB6819001000FEF762FB8D
:101B50000B1E15D1FB681A6AFB68DB689A420FD32B
:101B6000FB681A6AFB685B6A9A4209D27B680022AA
:101B700000211800FFF750FEFB6800225A6240E087
:101B80007A68AC235B00D358DB68002B0BD07B68F2
:101B90009B78032B07D17A68AC235B00D358DB68B2
:101BA0007A68100098477B681800FFF7A7FE28E0C6
:101BB0007B685B78042B24D1144B1B68002B20D04E
:101BC000124B1B68DAB27B681100180001F044FA6E
:101BD0000E4B00221A6014E07A68AC235B00D358E5
:101BE0005B69002B0DD07B689B78032B09D17A6849
:101BF000AC235B00D3585B69FA1C11787A6810003B
:101C0000984700231800BD4604B080BDE4000020C2
:101C100080B582B000AF7860786840230022002150
:101C200000F076FE786880230022802100F070FEAC
:101C3000786800234022002100F0B8FE7868002375
:101C40004022802100F0B2FE7B6801229A707A68FF
:101C5000AE235B00D3585A687B68DB68DBB21800A0
:101C6000904700231800BD4602B080BD80B582B009
:101C700000AF78607A68AE235B00D3581B69984741
:101C80007B68DA787B689A7000231800BD4602B042
:101C900080BDC04680B582B000AF78607B689A781E
:101CA0007B68DA707B6804229A707A68AE235B00E6
:101CB000D358DB68984700231800BD4602B080BDAA
:101CC00080B582B000AF78607A68AC235B00D358EF
:101CD000DB69002B07D07A68AC235B00D358DB6943
:101CE0007A681000984700231800BD4602B080BDF6
:101CF00080B582B000AF78600A00FB1C1A707A6869
:101D0000AC235B00D3581B68FA1C11787A6810006A
:101D100098477A68AE235B00D3589B6898470023A6
:101D20001800BD4602B080BD80B582B000AF7860BB
:101D30000A00FB1C1A707A68AC235B00D3585B68FE
:101D4000FA1C11787A681000984700231800BD46E5
:101D500002B080BD80B582B000AF78600A00FB1C85
:101D60001A707868C0230022812100F0D1FD802301
:101D70005B0078680022822100F0CAFD88235B00A6
:101D800078680022032100F0C3FD78680223402216
:101D9000812100F00BFE786802234022032100F02D
:101DA00005FE786803230822822100F0FFFD074B1F
:101DB0001B689847064A78684023032100F09AFF81
:101DC00000231800BD4602B080BDC0466000002060
:101DD0006C04002080B582B000AF78600A00FB1C64
:101DE0001A707B688121180000F0FEFE7B680321D9
:101DF000180000F0F9FE7B688221180000F0F4FE64
:101E0000034B5B68984700231800BD4602B080BDB5
:101E10006000002080B584B000AF786039600E2388
:101E2000FB183A221A80444BBB603B681B781A00AF
:101E3000602313403FD0202B35D13B68DB88002B3B
:101E400027D03B681B785BB2002B10DA3B4B9B68BA
:101E50003A68527810003A68D288394998473B6806
:101E6000DA8837497B681800FFF7B2FC19E03B6855
:101E70005B781A00334B1A603B68DB881A00324BE0
:101E80001A603B68DA882E497B681800FFF7DEFC91
:101E900007E02A4B9B683A68527810000022002124
:101EA0009847002344E03A687B6811001800FFF768
:101EB0000DFC02233CE03B685B780A2B1DD00B2B0A
:101EC00022D0062B33D13B685B881B0A9BB2212BA7
:101ED0000AD11E4BBB603B68DB880E22BA1899B250
:101EE0003A2900D93A2313800E23FB181A88B968BF
:101EF0007B681800FFF76CFC19E015497B6801222C
:101F00001800FFF765FC12E03B685B88DBB2002B32
:101F100006D13B685B88DBB21A000D4B1A6005E006
:101F20003A687B6811001800FFF7D0FBC046002319
:101F30001800BD4604B080BD453E0008600000208A
:101F4000AC04002094000020040100204E3E000854
:101F5000EC00002090B583B000AF78600A4B1B689E
:101F6000FF2B0BD0094B9C68074B1868084B1A686D
:101F7000084B1900A047044BFF221A6000231800E9
:101F8000BD4603B090BDC046940000206000002014
:101F900004010020AC04002080B584B000AF78605C
:101FA0000A00FB1C1A70304B1B78012B56D12F4BAB
:101FB0001B68002B11D12E4B1B68012B09D12C4B18
:101FC00000221A60786800230022812100F0F4FECC
:101FD00044E0254B00221A7040E0244B1B68402B44
:101FE00015D9244B1A680E23FB181A800C23FB18F2
:101FF00040221A801F4B1B6840331A001D4B1A6089
:102000001A4B1B68403B1A00184B1A601AE0194B18
:102010001A680E23FB181A80144B1A680C23FB183D
:102020001A80144B1A68114B1B68D218114B1A6096
:102030000E4B00221A600D4B1B68402B02D10C4B3B
:1020400001221A600E23FB181A880B4BD2180C239E
:10205000FB181B887868812100F0AEFE0023180071
:10206000BD4604B080BDC04600010020FC00002039
:10207000F0000020F8000020B404002080B584B0F7
:1020800000AF78600A00FB1C1A70FB1C1A78796894
:10209000D02013009B009B18DB00CB181B181A687C
:1020A0000E23FB181A80094B1B690E22BA181188DF
:1020B000074A10009847064A78684023032100F039
:1020C00019FE00231800BD4604B080BD600000204A
:1020D0006C04002080B582B000AF7860094B1B68AB
:1020E000591C084A1160052B06D1064B00221A60C4
:1020F0007B68180000F008F800231800BD4602B005
:1021000080BDC0460801002080B584B000AF786073
:102110003D4B1B78012B00D173E03C4B1A688023A8
:102120001B019A4202D1394B00221A60374B1A68C0
:10213000374B1B689A4203D1334B00221A7060E080
:10214000324B1A68324B1B689A4207D92F4B1B68D7
:1021500080221201D21A2F4B1A6006E02C4B1A680B
:102160002A4B1B68D21A2B4B1A602A4B1B68402B38
:1021700015D9264B1A680E23FB181A800C23FB185E
:1021800040221A80214B1B6840331A001F4B1A60F3
:10219000204B1B68403B1A001E4B1A6022E01B4B71
:1021A0001A680E23FB181A801A4B1A680C23FB18A6
:1021B0001A80164B1A68174B1B68D218134B1A60FB
:1021C000144B00221A600C23FB181B88402B02D1F1
:1021D000114B01221A600E4B1B68402B02D10C4B95
:1021E00000221A60084B01221A700E23FB181A886D
:1021F0000A4BD2180C23FB181B887868812100F049
:10220000DBFDBD4604B080BD00010020F8000020C9
:10221000F4000020FC000020F0000020B4040020A6
:1022200080B582B000AF02003960FB1D1A703B68B8
:1022300043221A80024B1800BD4602B080BDC04642
:102240003C3E000890B587B000AF1623FB18002273
:102250001A803B1D00221A806BE2BB1D1B889BB2BB
:10226000DAB21323FB180F210A401A701323FB184C
:102270001B78002B00D0DDE0BB1D1B889BB21A0031
:10228000102313401FD1C54BC44A1268C4490A40E9
:102290001A60C44BFB60FB681B78180001F0B0F9B2
:1022A00003001A00FB689A61FB681A69FB689B6966
:1022B000D218FB681A61BC4B1B685B68BB4A0021E3
:1022C0001000984735E2BA4BFB60B44B1B689AB2DA
:1022D0003B1D1A803B1D1B889BB21A0080231B01EB
:1022E00013401ED0FB681B78180001F0A7F903000B
:1022F0001A00FB689A61FB689988FB689B699AB22F
:10230000AC4B180001F096FBA44BA44A1268AA49F2
:102310000A401A60A44B1B689B68A44A10009847A7
:1023200007E23B1D1B889BB21BB2002B00DB00E2C7
:102330009A4B9A4A1268A0490A401A60FB681B78B7
:10234000180001F07BF903001A00FB689A61FB6832
:102350009B69002B10D0FB681869FB689988FB68A3
:102360009B699BB21A0001F065FBFB681A69FB6868
:102370009B69D218FB681A618B4B1B681B688B4AE0
:102380000021100098478D4B1B681B041B0C8C4AC6
:1023900094466344BB60FB68DB683E2B1DD9FB6839
:1023A000DB685A091423FB181A80FB68DB681F22BC
:1023B000134006D11423FB181A881423FB18013A82
:1023C0001A801423FB181B889B021BB27D4A1343FF
:1023D0001BB29AB2BB681A8018E0FB68DB685A0827
:1023E0001423FB181A80FB68DB680122134006D017
:1023F0001423FB181A881423FB1801321A801423A3
:10240000FB181B889B029AB2BB681A80634B1B683F
:102410009BB26D4A13409CB280235B0163409CB227
:1024200080239B0163409CB25C4B684A224392B27A
:102430001A607EE11323FB181B789B00574A9446D1
:1024400063441B689AB23B1D1A803B1D1B889BB2DC
:102450001BB2002B00DBC5E01323FB181B789B008D
:102460004E4A944663441322BA18127892004B499C
:102470008C466244126850490A401A601323FB18C4
:102480001A7813009B009B18DB00B8331A00474BE7
:10249000D318FB60FB689B7A002B18D1FB681B7874
:1024A0001622BC18180001F0C9F803002380162377
:1024B000FB181B88002B4CD0FB681869FB689988B7
:1024C0001623FB181B881A0001F0B4FA41E0FB68E0
:1024D0001B78180000F04CFE03001A008023DB017B
:1024E000134018D0FB681B781622BC18180001F0A6
:1024F000DBF9030023801623FB181B88002B22D056
:10250000FB681869FB68D9881623FB181B881A001A
:1025100001F090FA17E0FB681B781622BC1818002F
:1025200001F0E0F9030023801623FB181B88002B21
:1025300009D0FB681869FB6819891623FB181B88EA
:102540001A0001F077FAFB681B780021180001F0EF
:10255000E7F9FB689A691623FB181B88D218FB68F9
:102560009A61FB681A691623FB181B88D218FB684E
:102570001A61FB685B69002B06D01623FB181A88CA
:10258000FB68DB689A4223D2074B1B681B68FA681A
:102590001178064A1000984724E0C046005C0040CD
:1025A0000F8F0000D801002090000020C001002003
:1025B00078020020D00100208F0F0000505C004006
:1025C000066000400080FFFF8FBFFFFF8080FFFF9D
:1025D000FB681978FB681A69FB685B699BB25C4809
:1025E00000F088FB3B1D1B889BB21A008023134020
:1025F00000D19EE01323FB181A7813009B009B1850
:10260000DB0018331A00524BD318FB601323FB185E
:102610001B789B004F4A944663441322BA181278E1
:1026200092004C498C46624412684B490A401A6039
:10263000FB689B7A002B17D1FB681B78180000F011
:10264000DFFF03001A00FB689A61FB689B69002B9F
:1026500049D0FB681869FB689988FB689B699BB245
:102660001A0001F0A1F93EE0FB681B78180000F0A9
:102670007FFD03001A004023134017D0FB681B782E
:10268000180001F011F903001A00FB689A61FB6859
:102690009B69002B21D0FB681869FB68D988FB680F
:1026A0009B699BB21A0001F07FF916E0FB681B786A
:1026B000180001F017F903001A00FB689A61FB6823
:1026C0009B69002B09D0FB681869FB681989FB68B6
:1026D0009B699BB21A0001F067F9FB681B78012126
:1026E000180001F01DF9FB681B78180000F088FF46
:1026F00003001A00FB689A61FB681A69FB689B6912
:10270000D218FB681A61FB685B69002B08D1134B78
:102710001B685B68FA6811780D4A1000984708E05A
:10272000FB681978FB681A69FB685B69084800F068
:1027300043FB0B4B1B689AB2BB1D111C198013B2D3
:10274000002B00DA89E5C046BD4607B090BDC04603
:10275000C0010020005C00400F8F000090000020AE
:10276000445C004080B582B000AFBB1D00221A80DF
:10277000474B1B689AB2BB1D1A80BB1D1B889BB2BE
:102780001A00444B1B681A4080231B02134001D0DF
:10279000FFF758FDBB1D1B889BB21A003D4B1B6801
:1027A0001A408023DB0013400DD0394B3A4A1A609F
:1027B0003A4B1B681B693A4A10009847384B002176
:1027C000180000F049FCBB1D1B889BB21A00314B5E
:1027D0001B681A4080239B01134002D02C4B314AC6
:1027E0001A60BB1D1B889BB21A002A4B1B681A403B
:1027F00080235B0113400BD0254B2B4A1A60274BDB
:102800001B689B69264A100098470020FDF7D6FDFB
:10281000BB1D1B889BB21A001E4B1B681A408023ED
:102820001B0113400AD01A4B204A1A601B4B1B682D
:102830005B691B4A10009847FDF77EFDBB1D1B8896
:102840009BB21A00134B1B681A4080239B00134055
:1028500008D00F4B164A1A60104B1B68DB68104AF1
:1028600010009847BB1D1B889BB21A00094B1B68C0
:102870001A4080235B00134005D0054B0D4A1A60B7
:102880000720FDF79BFDC046BD4602B080BDC04697
:10289000445C00400C010020FFFB00009000002081
:1028A000C0010020FFDF0000FFEF0000FFF7000085
:1028B000FFFD0000FFFE000080B582B000AF786031
:1028C0007B6801229A707B6800221A717B68002263
:1028D0009A607B680122DA60012000F015FC00207C
:1028E00000F012FC002000F01FFC002000F02CFC87
:1028F000064BBF2212021A60044B1B689BB21800E1
:1029000000F002FCC046BD4602B080BD0C010020B4
:1029100080B586B000AFF860080011007B600A2324
:10292000FB18021C1A800823FB180A1C1A800A23B1
:10293000FB181B88802213400DD00A23FB181B882C
:102940007F221A4013009B009B18DB001833FA68A3
:10295000D3187B610CE00A23FB181B887F221A40E6
:1029600013009B009B18DB00B833FA68D3187B6117
:102970000823FB181B88002B07D17B6900229A7261
:102980007B689AB27B699A800BE07B6901229A721C
:102990007B689AB27B69DA807B681B0C9AB27B6990
:1029A0001A8100231800BD4606B080BD90B587B0DF
:1029B00000AFF8600C00100019000A23FB18221C5D
:1029C0001A800823FB18021C1A80FB1D0A1C1A70AF
:1029D0000A23FB181B888022134010D00A23FB18FF
:1029E0001B887F221A4013009B009B18DB001833C2
:1029F000FA68D3187B617B6901225A700FE00A23C1
:102A0000FB181B887F221A4013009B009B18DB00D9
:102A1000B833FA68D3187B617B6900225A700823A7
:102A2000FB181A887B69DA607B69FA1D1278DA7004
:102A30000A23FB181B88DBB27F221340DAB27B69C2
:102A40001A707B691B78002B08D17B6900225A62BF
:102A50007B690022DA617B6900221A627B690022AD
:102A60001A617B6900225A617B6900229A617B6945
:102A700000229A707B69DB78012B21D002DC002BCD
:102A800005D026E0022B0BD0032B10D021E07B6970
:102A90001A7880239B001900100000F07DFB18E0DD
:102AA0007B691B780021180000F076FB11E07B6940
:102AB0001A78C023DB001900100000F06DFB08E05D
:102AC0007B691A788023DB001900100000F064FB9A
:102AD000C0467B699B7A002B36D17B695B78002BE3
:102AE00013D07B691A787B699B881900100000F06D
:102AF000C5FC7B691B78180000F092FC7B691B7891
:102B00002021180000F072FB69E07B691A787B696C
:102B10009B881900100000F0D5FC7B691A787B694E
:102B2000DB689BB21900100000F010FD7B691B7878
:102B3000180000F045FC7B691A78C0239B0119003E
:102B4000100000F08FFB4AE07B691B78180000F052
:102B5000C9FB7B6918787B69D9887B691B891A0056
:102B600000F08AFD7B695B78002B1DD17B691B78A7
:102B7000180000F025FC7B691B78180000F050FC61
:102B80007B691B78180000F0F7FB7B691A78C0237B
:102B90009B011900100000F065FB7B691B78002188
:102BA000180000F023FB1AE07B691B78180000F086
:102BB00007FC7B691B78180000F032FC7B691B78EE
:102BC000180000F0B5FB7B691B780021180000F0AD
:102BD0000DFB7B691B780021180000F043FB0023EC
:102BE0001800BD4607B090BD80B584B000AF7860D6
:102BF0000A00FB1C1A70FB1C1B785BB2002B0CDA62
:102C0000FB1C1B787F221A4013009B009B18DB00E3
:102C100018337A68D318FB600BE0FB1C1B787F220B
:102C20001A4013009B009B18DB00B8337A68D31856
:102C3000FB60FB689B7A002B1BD1FB685B78002B49
:102C40000BD0FB681B78180000F0EAFBFB681B78D0
:102C50000021180000F0CAFA46E0FB681B78180053
:102C600000F0AEFBFB681B780021180000F0FAFAB8
:102C70003AE0FB685B78002B1BD1FB681B781800DF
:102C800000F09EFBFB681B78180000F0C9FBFB6896
:102C90001B78180000F070FBFB681B7800211800FF
:102CA00000F0E0FAFB681B780021180000F09EFAA3
:102CB0001AE0FB681B78180000F082FBFB681B78A9
:102CC000180000F0ADFBFB681B78180000F030FB2B
:102CD000FB681B780021180000F088FAFB681B785D
:102CE0000021180000F0BEFA00231800BD4604B011
:102CF00080BDC04680B586B000AFF86008007A603D
:102D000019000B23FB18021C1A700823FB180A1C5D
:102D10001A8000233B610B23FB181B787F221A408B
:102D200013009B009B18DB00B833FA68D3187B6153
:102D30007B697A681A610823FB181A887B695A61D3
:102D40007B6900229A617B695A697B69DB689A42D8
:102D500009D97B69DB683B613A697B695B699A1ACF
:102D60007B695A6105E07B695B693B617B69002295
:102D70005A617B699B7A002B08D17B691B783A6981
:102D800092B21100180000F0E1FB08E07B691878AE
:102D90007B695B783A6992B2190000F0ABFC7B6901
:102DA0001A78C0239B011900100000F05BFA002381
:102DB0001800BD4606B080BD80B588B000AFF86091
:102DC0007A603B600B23FB180A1C1A7000237B619E
:102DD0000B23FB181B787F221A4013009B009B18C3
:102DE000DB001833FA68D318BB610B23FB181B7880
:102DF0007F221340DAB2BB691A70BB697A681A6124
:102E0000BB693A685A61BB6900229A61BB695A6919
:102E1000BB69DB689A4209D9BB69DB687B617A6967
:102E2000BB695B699A1ABB695A6105E0BB695B695A
:102E30007B61BB6900225A61BB699B7A002B11D16F
:102E4000BB691869BB699B887A6992B2190000F066
:102E5000ABFDBB691B787A6992B21100180000F0D3
:102E600055FB33E01E23FB1800221A80BB6918783B
:102E7000BB695B787A6992B2190000F03BFCBB69D0
:102E80001B78180000F074F903001A004023134067
:102E900005D01E23FB18BA6912891A8004E01E238C
:102EA000FB18BA69D2881A80BB6918697B699AB223
:102EB0001E23FB181B88190000F076FDBB691A78E9
:102EC000BB695B781900100000F02AFDBB691B7814
:102ED0003021180000F08AF900231800BD4608B020
:102EE00080BDC04690B585B000AF78600A00FB1C7D
:102EF0001A70FB1C1B785BB2002B0CDAFB1C1B78D6
:102F00007F221A4013009B009B18DB0018337A685D
:102F1000D318FB6009E0FB1C1A7813009B009B1878
:102F2000DB00B8337A68D318FB60FB681B78002B92
:102F300021D1FB681B789B001E4A944663441B68A2
:102F40001D4A13401C0080235B0163401C001023BA
:102F500063401C00FB681B789B00164A9446634440
:102F600022001204120C15490A431A60FB68012260
:102F70009A70002319E0FB685B78002B09D0FB688E
:102F800001229A70FB681B781021180000F02EF9BE
:102F90000AE0FB6801229A70FB681A7880235B01C3
:102FA0001900100000F05EF900231800BD4605B0BE
:102FB00090BDC046005C0040BFBF000080800000A4
:102FC00080B584B000AF78600A00FB1C1A70FB1C4F
:102FD0001B785BB2002B0CDAFB1C1B787F221A409B
:102FE00013009B009B18DB0018337A68D318FB6032
:102FF00009E0FB1C1A7813009B009B18DB00B83318
:103000007A68D318FB60FB685B78002B0ED0FB68F6
:103010001B78180000F004FAFB681B7830211800B8
:1030200000F0E4F8FB6800229A700FE0FB681B7860
:10303000180000F0C5F9FB681A78C0239B0119003D
:10304000100000F00FF9FB6800229A7000231800AE
:10305000BD4604B080BDC04680B584B000AF786086
:103060000A00FB1C1A700023FB607B68FA1C1278B4
:103070001A710023FB601BE0FB68FF2213409B00DA
:10308000134A94466344FA68FF210A4092001049AB
:103090008C466244126811000E4A0A400E491143E0
:1030A000FA68FF2002400A431A60FB680133FB60A4
:1030B000FB68032BE0D9094BFA1C127880214942A6
:1030C0000A43D2B21A60C046BD4604B080BDC046B5
:1030D000005C00400F0F0000808000004C5C00404E
:1030E00080B582B000AF7860064B064A1268802136
:1030F00009020A431A607B6801229A70C046BD46E5
:1031000002B080BD585C004080B582B000AF0200C4
:10311000BB1D1A80034BBA1D12881A60C046BD46FB
:1031200002B080BD405C004080B582B000AF0200BC
:10313000BB1D1A80034BBA1D12881A60C046BD46DB
:1031400002B080BD445C004080B582B000AF020098
:10315000BB1D1A80044BBA1D128804490A401A602C
:10316000C046BD4602B080BD505C0040F8FF000084
:1031700080B582B000AF0200FB1D1A70FB1D1B78EA
:103180009B00044A944663441B689BB21800BD46EA
:1031900002B080BD005C004080B582B000AF02008C
:1031A000FB1D1A703B1D0A1C1A80FB1D1B789B001F
:1031B0000C4A94466344FA1D1278920009498C46E1
:1031C0006244126812B208490A4011B23A1D002046
:1031D000125E0A4312B292B21A60C046BD4602B0F5
:1031E00080BDC046005C00408F89FFFF90B583B072
:1031F00000AF0200FB1D1A703B1D0A1C1A80FB1D4C
:103200001B789B00144A944663441B689BB2134A84
:1032100013409CB23B1D1B88102213409BB2002B15
:1032200002D0102363409CB23B1D1B882022134018
:103230009BB2002B02D0202363409CB2FB1D1B7865
:103240009B00054A94466344054A224392B21A60A1
:10325000C046BD4603B090BD005C0040BF8FFFFF7D
:103260008080FFFF90B583B000AF0200FB1D1A7095
:103270003B1D0A1C1A80FB1D1B789B00164A9446B6
:1032800063441B689BB2154A13409CB23B1D1A88CD
:1032900080235B0113409BB2002B03D080235B0192
:1032A00063409CB23B1D1A8880239B0113409BB254
:1032B000002B03D080239B0163409CB2FB1D1B7835
:1032C0009B00054A94466344054A224392B21A6021
:1032D000C046BD4603B090BD005C00408FBFFFFFFD
:1032E0008080FFFF80B582B000AF0200FB1D1A7026
:1032F000FB1D1B789B000B4A94466344FA1D127811
:10330000920008498C466244126812B206490A408B
:1033100012B206490A4312B292B21A60C046BD46C2
:1033200002B080BD005C00400F0E00008081FFFFF6
:1033300080B582B000AF0200FB1D1A70FB1D1B7828
:103340009B000A4A94466344FA1D1278920007498A
:103350008C46624412681100054A0A4005490A4336
:103360001A60C046BD4602B080BDC046005C004049
:103370000F0F000080C0000080B582B000AF0200D7
:10338000FB1D1A70FB1D1B789B000A4A9446634480
:10339000FA1D1278920007498C46624412681100A7
:1033A000054A0A4005490A431A60C046BD4602B0B4
:1033B00080BDC046005C00400F0F0000C0800000D0
:1033C00080B582B000AF0200FB1D1A70FB1D1B7898
:1033D0009B00104A944663441B681A008023DB015B
:1033E000134012D0FB1D1B789B000A4A944663448D
:1033F000FA1D1278920007498C4662441268110047
:10340000054A0A4005490A431A60C046BD4602B053
:1034100080BDC046005C00400F0F000080C000006F
:1034200080B582B000AF0200FB1D1A70FB1D1B7837
:103430009B000F4A944663441B681A0040231340C4
:1034400012D0FB1D1B789B00094A94466344FA1D69
:103450001278920006498C46624412681100054AAF
:103460000A4005490A431A60C046BD4602B080BD05
:10347000005C00400F0F0000C080000080B582B0EB
:1034800000AF0200FB1D1A703B1D0A1C1A800B4B7B
:103490001B681B041A0CFB1D1B78DB00D318084AA1
:1034A0009446634419003B1D1B88012293439BB241
:1034B0000B80C046BD4602B080BDC046505C004097
:1034C0000060004080B582B000AF0200FB1D1A70A2
:1034D0003B1D0A1C1A800B4B1B681B041A0CFB1D9E
:1034E0001B78DB00D318084A9446634419003B1D3F
:1034F0001B88012293439BB20B80C046BD4602B09D
:1035000080BDC046505C00400460004080B582B081
:1035100000AF0200FB1D1A703B1D0A1C1A80094BEC
:103520001B681B041A0CFB1D1B78DB00D318064A12
:10353000944663441A003B1D1B881380C046BD4659
:1035400002B080BD505C00400260004080B584B095
:1035500000AF0200FB1D1A703B1D0A1C1A80254B90
:103560001B681B041A0CFB1D1B78DB00D318224AB6
:1035700094466344BB603B1D1B883E2B1DD90E2324
:10358000FB183A1D128852091A803B1D1B881F2206
:10359000134006D10E23FB181A880E23FB18013A9C
:1035A0001A800E23FB181B889B021BB2134A13437D
:1035B0001BB29AB2BB681A8018E00E23FB183A1DA2
:1035C000128852081A803B1D1B880122134006D026
:1035D0000E23FB181A880E23FB1801321A800E23C3
:1035E000FB181B889B029AB2BB681A80C046BD4676
:1035F00004B080BD505C0040066000400080FFFFCA
:1036000080B582B000AF0200FB1D1A70094B1B6829
:103610001B041A0CFB1D1B78DB00D318064A9446CA
:1036200063441B889B059B0D9BB21800BD4602B0EE
:1036300080BDC046505C00400260004080B582B052
:1036400000AF0200FB1D1A70094B1B681B041A0C0B
:10365000FB1D1B78DB00D318064A944663441B8885
:103660009B059B0D9BB21800BD4602B080BDC046B5
:10367000505C00400660004090B583B000AF04008D
:1036800008001100FB1D221C1A703B1D021C1A8031
:10369000BB1C0A1C1A80144B1B681B041A0CFB1D54
:1036A0001B78DB00D318114A9446634419003B1D74
:1036B0001B88012293439BB20B800B4B1B681B049E
:1036C0001A0CFB1D1B78DB00D318094A944663448F
:1036D0001900BB1C1B88012293439BB20B80C04680
:1036E000BD4603B090BDC046505C00400060004045
:1036F0000460004090B587B000AF040008001100DE
:10370000FB1D221C1A70BB1D021C1A703B1D0A1CDB
:103710001A80BB1D1B78002B47D15F4B1B681B0415
:103720001A0CFB1D1B78DB00D3185C4A94466344DB
:103730003B613B1D1B883E2B1DD91623FB183A1DF0
:10374000128852091A803B1D1B881F22134006D184
:103750001623FB181A881623FB18013A1A80162321
:10376000FB181B889B021BB24D4A13431BB29AB233
:103770003B691A802CE01623FB183A1D1288520868
:103780001A803B1D1B880122134006D01623FB180C
:103790001A881623FB1801321A801623FB181B887F
:1037A0009B029AB23B691A8012E0BB1D1B78012B69
:1037B0000ED1394B1B681B041A0CFB1D1B78DB0058
:1037C000D318364A944663441A003B1D1B88138065
:1037D000BB1D1B78002B47D12F4B1B681B041A0CF9
:1037E000FB1D1B78DB00D3182E4A94466344FB6014
:1037F0003B1D1B883E2B1DD91423FB183A1D128834
:1038000052091A803B1D1B881F22134006D1142326
:10381000FB181A881423FB18013A1A801423FB188A
:103820001B889B021BB21E4A13431BB29AB2FB6851
:103830001A802CE01423FB183A1D128852081A80B3
:103840003B1D1B880122134006D01423FB181A8845
:103850001423FB1801321A801423FB181B889B02C7
:103860009AB2FB681A8012E0BB1D1B78012B0ED1A7
:10387000094B1B681B041A0CFB1D1B78DB00D318BB
:10388000084A944663441A003B1D1B881380C046B7
:10389000BD4607B090BDC046505C0040026000408D
:1038A0000080FFFF0660004080B582B000AF0200DC
:1038B000FB1D1A70094B1B681B041A0CFB1D1B789F
:1038C000DB00D318064A944663441B889B059B0D76
:1038D0009BB21800BD4602B080BDC046505C00409F
:1038E0000260004080B582B000AF0200FB1D1A707C
:1038F000094B1B681B041A0CFB1D1B78DB00D3183B
:10390000064A944663441B889B059B0D9BB2180096
:10391000BD4602B080BDC046505C0040066000401D
:1039200080B582B000AF0200FB1D1A70BB1D0A1CDF
:103930001A70BB1D1B78002B13D1FB1D1B789B003D
:10394000154A94466344FA1D1278920012498C4637
:10395000624412681100114A0A4011490A431A6070
:1039600016E0BB1D1B78012B12D1FB1D1B789B00A1
:10397000094A94466344FA1D1278920006498C461F
:10398000624412681100054A0A4006490A431A6057
:10399000C046BD4602B080BD005C00400F0F000075
:1039A000C080000080C0000080B586B000AF7860A5
:1039B00008001100BB1C021C1A803B000A1C1A8064
:1039C0003B001B8801335B10FB60BB1C1B88184A43
:1039D000944663443B61FB687B6121E07B681A7815
:1039E0000A23FB181A807B6801337B607B681B7895
:1039F0001B021AB20A23FB1800215B5E13431AB2A2
:103A00000823FB181A803B699A1C3A610822BA18ED
:103A100012881A807B6801337B607B69013B7B6184
:103A20007B69002BDAD1C046BD4606B080BDC046DA
:103A30000060004080B586B000AF786008001100DB
:103A4000BB1C021C1A803B000A1C1A803B001B880E
:103A500001335B10FB60BB1C1B880E4A9446634419
:103A60003B61FB687B610DE07B685A1C7A603A69B8
:103A7000911C396112881A807B6801337B607B69F5
:103A8000013B7B617B69002BEED1C046BD4606B091
:103A900080BDC0460060004080B582B000AF786055
:103AA000074B074A126B80218A431A63044B044A6E
:103AB000116B7A680A431A63C046BD4602B080BDE6
:103AC0000010024080B582B000AF78600A00FB1C95
:103AD0001A70FB1C1B78002B06D0094B084A916911
:103AE0007A680A439A6106E0054B054A926979684B
:103AF000C9430A409A61C046BD4602B080BDC04677
:103B00000010024080B582B000AF78600A00FB1C54
:103B10001A70FB1C1B78002B06D0094B084AD16990
:103B20007A680A43DA6106E0054B054AD26979688A
:103B3000C9430A40DA61C046BD4602B080BDC046F6
:103B40000010024080B584B000AF78600023FB60B5
:103B50007B689B78002B39D0244A7B681B789B08B4
:103B6000DBB2C0339B009B58FB607B681B781A005C
:103B700003231340DB00FF229A401300DA43FB6863
:103B80001340FB607B685B789B01FF221A407B68D7
:103B90001B78190003230B40DB009A401300FA68DE
:103BA0001343FB6011497B681B789B08DBB2C03371
:103BB0009B00FA685A500D4B7A68127811001F2248
:103BC0000A40012191400A001A600AE007497B6817
:103BD0001B781A001F23134001229A4013008022F1
:103BE0008B50C046BD4604B080BDC04600E100E039
:103BF00080B582B000AF78607B68042B06D1084B9B
:103C0000074A126804210A431A6005E0044B044A7B
:103C1000126804218A431A60C046BD4602B080BDC6
:103C200010E000E080B582B000AF0200FB1D1A700A
:103C3000FB1D1B78002B06D0084B084A1268202178
:103C40000A431A6005E0054B044A126820218A43A2
:103C50001A60C046BD4602B080BDC046006C004040
:103C600080B582B000AF0200FB1D1A70FB1D1B78EF
:103C7000002B06D0084B084A126840210A431A60FC
:103C800005E0054B044A126840218A431A60C04689
:103C9000BD4602B080BDC046006C004080B582B019
:103CA00000AF7860074B074A526807490A405A60DC
:103CB000044B044A51687A680A435A60C046BD46BC
:103CC00002B080BD006C0040FFFFFFCF0E4B70B50F
:103CD00000251E000D4CE41AA410A54204D0AB0030
:103CE000F35898470135F8E700F016F8084B00251F
:103CF0001E00084CE41AA410A54204D0AB00F358EF
:103D000098470135F8E770BD803E0008803E000806
:103D1000803E0008843E0008F8B5C046F8BC08BCE8
:103D20009E467047F8B5C046F8BC08BC9E46704732
:103D300053544D3332205669727475616C20436F51
:103D40006D506F727420696E204653204D6F64650C
:103D50000000000053544D6963726F656C656374B5
:103D6000726F6E696373000056435020436F6E6636
:103D70006967000056435020496E7465726661633E
:103D8000650000002D2D2D2D504F565F5553424498
:103D9000656D6F2D2D2D2D0A00000000796F7520A7
:103DA00074797065643A20000A000000EE03000890
:103DB0000A0400081C0400082A0400084A04000839
:103DC0007C040008120100020000004083044057F8
:103DD000000201020301000004030904B40E0008FC
:103DE000D00E0008DE0E0008C20E0008DE0E00082D
:103DF0008A0E00087C0E0008DE0E0008A60E0008E1
:103E0000980E000812130008C6110008F6110008E9
:103E10001E1200081213000812130008F612000800
:103E20000413000832120008501200086E12000835
:103E30008C120008AA120008C812000809024300E8
:103E4000020100C032090400000102020100052441
:103E500000100105240100010424020205240600CB
:103E600001070582030800FF09040100020A00009F
:103E70000007050302400000070581024000000022
:043E8000E90000084D
:043E8400C100000871
:103E8800F5020008010300081503000821030008D3
:103E98002D030008ED04000811050008610500085D
:103EA800350500088D050008B1050008DD05000886
:103EB8001A030000000000000000000000000000DD
:103EC800000000000000000000000000006CDC02A0
:103ED80000000000000000000102030406070809B2
:103EE800CD0C0008D90C0008E50C0008310D0008BD
:103EF8008D0D00082D1A0008ED1A0008AD190008EC
:103F0800C11C0008111C0008951C00086D1C000845
:103F180074000020FF000000551D0008D51D000892
:103F2800151E000800000000551F0008991F000812
:0C3F38007D200008D52000082122000890
:040000050800099D49
:00000001FF
