:020000040800F2
:100000000018002071200008452000084D2000083D
:1000100000000000000000000000000000000000E0
:100020000000000000000000000000005520000853
:1000300000000000000000005D200008E931000819
:10004000C1200008C1200008C1200008C12000080C
:10005000C1200008C1200008C1200008C1200008FC
:10006000C1200008C1200008C1200008C1200008EC
:10007000C1200008C1200008C1200008C1200008DC
:10008000C1200008C120000800000000C1200008B5
:10009000C1200008C1200008C1200008C1200008BC
:1000A000C1200008C1200008C1200008C1200008AC
:1000B000C120000800000000C120000865200008E1
:1000C00010B5064C2378002B07D1054B002B02D02E
:1000D000044800E000BF0123237010BD240100206C
:1000E00000000000A074000808B5044B002B03D0EA
:1000F0000348044900E000BF08BDC04600000000FE
:10010000A074000828010020002934D00123002217
:1001100010B488422CD301242407A14204D2814286
:1001200002D209011B01F8E7E400A14204D2814296
:1001300002D249005B00F8E7884201D3401A1A4313
:100140004C08A04202D3001B5C0822438C08A0424A
:1001500002D3001B9C082243CC08A04202D3001B00
:10016000DC082243002803D01B0901D00909E3E77A
:10017000101C10BC7047002801D00020C04307B4F9
:10018000024802A14018029003BDC04619000000B9
:100190000029F0D003B5FFF7B9FF0EBC4243891A1E
:1001A0001847C0467047C0468446101C62468C46BD
:1001B000191C634600E0C0461FB500F05DFF002833
:1001C00001D40021C8421FBD10B500F08DFE404291
:1001D000013010BD10B500F04FFF002801DB0020FA
:1001E00010BD012010BDC04610B500F045FF00282D
:1001F00001DD002010BD012010BDC04610B500F08B
:10020000BDFE002801DC002010BD012010BDC0464D
:1002100010B500F0B3FE002801DA002010BD012067
:1002200010BDC0460000000038B50E4B0C4A041C3F
:100230000D1CFFF7EDFF002804D1201C291C01F044
:1002400053FD38BD074B064A201C291C01F022FA39
:1002500001F04AFD80231B06C018F2E7C046C046E5
:10026000000000000000E041F8B55F4656464446F5
:100270004D46F0B40C034D00CE0F610A440F2143EC
:10028000C400180380465800400D8246D80F8446AB
:100290004046400A530F0343D0006D0D371C834680
:1002A0005246664500D19DE0AF1A002F00DC03E105
:1002B000002A38D1184300D0E4E0630709D00F23A7
:1002C0002340042B05D0231DA342A44164420919F5
:1002D0001C1C080200D478E0CE4B6A1C9A4200D164
:1002E00005E1CD4BE4081940480752054902044393
:1002F0000B0B520D371C002000211B03201C1C0B74
:100300000B0D1B05C54D2343520552081D401543D7
:100310006D006D08FF07291C39433CBC9046994687
:10032000A246AB46F8BDBB488542C6D0802000043B
:100330000343382F00DDECE01F2F00DD20E12020FB
:10034000C01B1A1C814682405846F840024394461E
:1003500058464A469040421E9041FB406246024346
:100360001F1CA21A9442A4416442C91B091B141CFD
:100370000B02A2D549024F0A002F00D1C4E0381C5D
:1003800001F058FD021C083A1F2A00DDB7E02821C1
:10039000091A201C9740C84007439440954200DD4D
:1003A000A9E0551B691C1F2900DDD8E01F22551B41
:1003B0003B1C221CAB40CA40AC40651EAC41134301
:1003C000CF401C43391C002577E74807E4086A053D
:1003D000C908520D371C04438E4B9D4248D0090377
:1003E0000B0B88E7AA1A9446002A00DC98E05046D6
:1003F000002853D08748854200D15EE78020000462
:1004000003436246382A00DDFDE01F2A00DD4BE190
:1004100020226046101A1A1C824082469146584695
:100420006246D0404A460243904658465246904063
:10043000421E9041424602436046C3401219A24206
:10044000A441644259180919141C080200D434E765
:10045000704B01359D4200D124E16F4B600819407B
:10046000012323401C1C0443CB071C43490824E7F9
:100470000B1C234300D1C7E180231B030B431B0349
:100480001B0B38E7013F002F64D15846221A9442D3
:10049000A4416442C91A091B141C69E75846184351
:1004A00000D10AE70122524294446046002800D05D
:1004B000C5E058460219C2E7002F72D1681C4005FA
:1004C000400D012800DCDEE05A46A21A9442BF41EA
:1004D000C81A7F42C71B380200D488E05A46141B52
:1004E000A3459241591A52428F1A664644E7371C77
:1004F00000230024FFE64849AD1A3940DDE6271CF9
:1005000028388740002449E7201C01F093FC203064
:1005100038E75A461A43531E9A41D2B2002720E7C1
:10052000002A00D0DDE0681C4205520D012A00DCE3
:100530008EE0384DA84200D1B3E05D462A19A242B0
:10054000A441644259180919CC07520814434908B8
:10055000051CB2E62F48854200D0EAE6ADE62B1C2A
:100560001F3B3A1CDA40131C20296DD03F22551B3B
:10057000AF403C43601E84411C43002100259CE6A3
:10058000381C20381A1CC240101C202F5ED040227C
:10059000D71BBB405A461A43531E9A4102430027B9
:1005A000DFE6002D3CD01B4DAA4500D194E080250C
:1005B0002D047F422943382F00DDADE01F2F00DDE1
:1005C0002CE12025ED1B081C261CA840FE40AC4059
:1005D0000643651EAC413443F9405D462C1BA345E0
:1005E00092415B1A5242991A55466646C0E6131C60
:1005F0003B43141C002B00D0BEE600270022002540
:1006000000210024E8E65A461A43531E9A41D2B20A
:10061000002313E7FF070000FFFF7FFFFFFF0F80AE
:100620000D1C254358D0FF43002F51D1041BA34577
:100630009241591A5242891A5546664698E696489A
:10064000854200D0DDE638E6002792E70023A1E7E7
:10065000081C2043002D00D0C0E0002800D1FBE0A2
:100660005846184300D128E658460219A242A44130
:10067000644259180919141C0A0200D41DE6874B5C
:100680000125194019E6081C2043002D39D1002806
:100690006DD15946194300D1BDE0191C5C46664630
:1006A0000BE6051C2A1CABE7604620381A1CC2402A
:1006B00060469146202800D1ABE04022121A9340B8
:1006C0005A461A43531E9A414B461A430023B5E635
:1006D000714DAA4500D06EE7191C5C46554666462A
:1006E000EBE5002D1ED10D1C254373D0D543002D05
:1006F0006DD15C445C459241591852428918554667
:10070000A3E6002849D15946194300D196E0191CA7
:100710005C466646604DD0E50C43611E8C41E4B2F8
:1007200000215AE75C4DAA4554D05542802210045E
:100730000143382D00DD85E01F2D00DD95E02022EE
:10074000501B0A1C84468240201CE840024390460D
:1007500062469440601E844142461443E9405C4432
:100760005C459241CB185242991855466DE6584661
:10077000184300D1A1E55846271ABC429241C81A35
:100780005242801A02026AD55846041BA345924180
:10079000591A5242891A66468FE55846184336D090
:1007A0004807E40804438020C9080003014208D038
:1007B000DD08054205D15946CA085C071443291CC7
:1007C0006646630FC9001943E400334D75E5324AAC
:1007D0009245AED1191C5C4655466EE5002837D0CF
:1007E0005846184313D080254807E408C9082D034C
:1007F00004432942E5D0D8082842E2D15D46EA0800
:100800005C071443011CDCE70023002473E5224D40
:1008100053E5002354E700270022F1E63D1C203D6C
:100820000A1CEA40151C202F31D04026F71BB94086
:100830000C43611E8C412C430021CEE6164A002752
:10084000151CDDE60C43611E8C41E4B2002186E7F5
:10085000191C5C46104D30E5191C5C462DE5031C47
:100860003B43D8D0011C3C1C27E5202040424019C6
:100870000A1CC2409046202D0BD04020451BA940A9
:100880000C43611E8C4145462C43002167E7002143
:10089000CEE70021F4E7C046FF070000FFFF7FFF1F
:1008A000F0B5564644465F464D46F0B41F1C0B0358
:1008B0001B0B98464B0087B0041C81465B0DC80F8C
:1008C000161C9A460090002B51D06A4B9A4531D0A5
:1008D0008022414652030A43630FD2001A43664BFB
:1008E00090460025E20091469A44002402953B037D
:1008F0001B0B9B46FD0F7B00311C5B0D019560D0EF
:100900005C4A934254D08021584649030143720FF8
:10091000C9001143584A8B469B18F1000020009AE9
:1009200004436A4003920F2C00D9ADE0534EA4005B
:100930003459A746404604436ED1002102250824BD
:10094000884689460295D2E7009C0298C3464946EC
:100950000194022864D0032800D1ABE2012800D022
:1009600038E2019A002402400025A14660E0434697
:1009700023434AD04046002800D1C0E101F05AFA92
:10098000031E272B00DDB3E128210D1A211C083B93
:100990004246E9409A400D1C1543221C9A40A84645
:1009A0009146374B00251B1A9A46002402959EE774
:1009B0005A4616430320002EB1D1B346002102202F
:1009C000ADE75A4632431BD05B46002B00D18AE18B
:1009D000584601F02FFA272800DD7DE12822171A5A
:1009E000011C321C08395B46FA408B40171C1F4320
:1009F000331C8B40BB46191C214B1B1A00208EE771
:100A00000027BB460021012089E70020012504249E
:100A10008046814602956AE703250C24029566E725
:100A2000019C0394039D01222A400024114DA146FC
:100A3000002000212403260B0C0D2405114B344308
:100A40002D0523402B435B005B08D207191C484649
:100A5000114307B03CBC90469946A246AB46F0BD58
:100A60000022802424039146024DE1E70024002562
:100A7000A146DDE7FF07000001FCFFFF4875000805
:100A80000DFCFFFFFFFF0F805546ED1A0495D8457A
:100A900000D953E100D14EE1049C0025013C4E46B3
:100AA00004944746A946584603020C0E1C4309020B
:100AB000250C23041B0C0091381C291C0193FFF703
:100AC00023FB019983464143381C8A46291CFFF7C2
:100AD0005FFB330C090419438A450CD95B4609199D
:100AE000013B8C4200D947E18A4500D844E102220B
:100AF0005242934409195346CB1A181C291C984694
:100B0000FFF702FB071C0198291C784382464046E8
:100B1000FFF73EFB36040B04360C33439A4509D9E4
:100B20001B197A1E9C4200D924E19A4500D821E184
:100B3000023F1B195E4632041743380CBB46009E29
:100B4000009F51463F0C32045B1A5946BA46120CBC
:100B50000F043F0C904651467A434F434146414370
:100B600056467043CF19160CBE19B14202D98027E0
:100B70007F02C019310C12043604120C4018B6184A
:100B8000834200D2C4E000D1BEE0191A4846861B59
:100B9000B145BF417F42CF1BA74200D113E1291CC1
:100BA000381CFFF7B1FA019902904143381C89467D
:100BB000291CFFF7EDFA330C0904194389450CD9B8
:100BC000029B0919013B8C4200D9FFE0894500D8FE
:100BD000FCE0029F0919023F02974F46CF1B381CC9
:100BE000291C0597FFF790FA071C0198291C7843E8
:100BF00081460598FFF7CCFA36040904360C0E43FB
:100C0000B14509D936197B1EB44200D9E0E0B1459F
:100C100000D8DDE0023F3619029D4946761A2904C4
:100C200039430B0457460A0C1B0C404645465843B3
:100C300055437B437A43EB18070CDB199D4202D9DD
:100C400080256D0252191D0C00041B04000C521962
:100C50001B18964235D300D1FCE001231943049EB2
:100C6000994FF519002D00DCA1E0480709D00F23AA
:100C70000B40042B05D00B1D8B42894149428B440C
:100C8000191C5A46D20107D5904B5C46049E80271A
:100C90001C40FF00A346F5198D4B9D427ADD039C55
:100CA0000122224000248B4DA146C1E6802424036A
:100CB000474627424CD13C432403240B009A854DE0
:100CC000B6E63619481EB4425ED9011C9642C4D11C
:100CD000009E9E42C1D1C2E7031C283B311C9940B3
:100CE0008B46002188E6301C01F0A4F8203072E623
:100CF000283B211C994000228846914651E6201C41
:100D000001F098F820303BE60021B14500D33DE7E3
:100D1000009F5A46B944B945BF417F423F19FB186D
:100D2000013A9C421ED2984200D97EE000D1B5E043
:100D3000191A93462AE7894500D8ADE64846464643
:100D400042467708D3074608C0071E438146AAE6F5
:100D50005846204212D1044324032A1C240B8946FE
:100D60005C4D65E6A342E3D1009F4F45DBD9211AD4
:100D700093460BE7171CDDE69B46BCE63C43240389
:100D8000240B009A534D53E6B24259D800D18AE061
:100D9000011C62E75F46C9087B07039E0B437C0288
:100DA0006D0501229946240B6D0D324040E64A4BF9
:100DB000049FDB1B382B10DD039C01222240002402
:100DC0000025A14634E60121494248E7029304E7A1
:100DD0001F1C21E7019C039441E71F2B40DC3F4887
:100DE000049F0C1C3A1858469140DC409040204328
:100DF0000A1C511E8A41011C11435A46DA40131C39
:100E0000480709D00F220A40042A05D00A1D8A4249
:100E1000894149425B18111C1A0234D5039C0122F6
:100E2000224000240125A14602E6009F02214942FA
:100E3000B9448B44B945894149420919CB18A4E604
:100E4000009D881E6900A942AD416D422C193619DA
:100E500000913AE7002B00D033E70024009437E7F5
:100E60001F4A049C5D46121BD5402A1C202B1FD014
:100E70001C4E5F46A3199F403B1C19434B1E9941D2
:100E800011430023BCE75A07C9080A43039F914650
:100E90005B0201221C0B3A400025C9E54E45C4D82F
:100EA0009346002172E6009F9F42C9D3011C0FE7C1
:100EB0000023E2E7802424035F463C432403240B01
:100EC000019A8946034DB3E5FF030000FFFFFFFED3
:100ED000FE070000FF07000002FCFFFF1E040000E9
:100EE000E2FBFFFF3E040000F0B55F4656464D466C
:100EF0004446F0B40D1C041C8046E80F81461803DC
:100F00000F03000B3F0B83B084461B48009749003A
:100F10005E00DF0F490D9246760DBB4681420CD034
:100F20001548864210D00120B14215D003B03CBC18
:100F300090469946A246AB46F0BD009F012027434C
:100F4000F4D10D488642EED1604602430120002ACA
:100F5000ECD10120B142E9D1009B6345E6D1D045F7
:100F6000E4D1D94506D00029E0D11C43201C441E01
:100F7000A041DBE70020D9E7FF070000F0B55F469E
:100F800056464D464446F0B4CD0FDE0FAC461D0329
:100F90002D0BB146374E0F034C00AB465D0080462B
:100FA0003F0B640D92466D0DB44232D0314EB542C6
:100FB00035D0002C0ED1384341424141081C002D50
:100FC0000BD0002919D1CC452DD0654668420123AC
:100FD000184318E0002DF6D1281C59460A43534205
:100FE0005341002806D1002BEDD06346584201231F
:100FF000184308E00020002B05D14A4650425041DA
:101000004042012318433CBC90469946A246AB4659
:10101000F0BD3E1C0643C9D002204042F3E75E46C5
:101020001643C6D0F8E7AC4207DC0BDA614648420B
:101030004841404201231843E5E7664670420123D8
:101040001843E0E75F450AD80ED000205F45DAD2AA
:10105000654668426841404201231843D3E762462F
:10106000504201231843CEE7D045F8D80020D045A0
:10107000EED3C8E7FF070000F0B556464D4644469C
:101080005F46F0B40D1C83B0041C0190E80F81464C
:1010900018030F03000B3F0B8446354800974900A7
:1010A0005E00DF0F490D9246760DB846814234D07E
:1010B0002F48864236D0002918D0002E1FD1341C6C
:1010C00067463A4353425341002C1FD00020002B67
:1010D00005D142465042504140420123184303B0DB
:1010E0003CBC90469946A246AB46F0BD00980443EE
:1010F00060426041041C002EE2D00028E9D1C145C5
:1011000015D04F46784201231843E8E7002BF6D06C
:101110004B46584201231843E1E7009F0220274332
:10112000DDD1C5E7674602201743D8D1C3E7B142F6
:1011300004DD4A46504201231843D0E7B14207DBA1
:1011400000986045E4D80AD0009F00206745C6D2C9
:101150004F4678427841404201231843BFE7019A45
:101160005245D5D8019A00205245F1D3B7E7C04681
:10117000FF070000F0B5564644465F464D46F0B4C2
:101180001F1C0B031B0B9A464B0087B0041C8046A8
:101190005B0DC80F161C02938146002B68D0694B6B
:1011A0000299994232D08022534652031A43D20008
:1011B000630F1A439246644AE00089188046029100
:1011C000002400253B031B0B9B467800FB0F321CC1
:1011D000400D039300D175E05A4B984269D08022AC
:1011E000594652030A43730FD2001A43564B934693
:1011F000C018F200002303994E4671401C430F2C87
:1012000000D9A9E0514EA4003459A74653461C43C7
:1012100000D087E00025AA46A84608240225D1E789
:101220004946022D6CD0032D00D117E2012D00D0CC
:1012300058E10D40EDB20024A9460023A04600204D
:10124000002125030A0D1C052D0B1205404B2A43D6
:10125000134023435B004C465B08E207191C4046E1
:10126000114307B03CBC90469946A246AB46F0BD40
:101270005346234350D05346002B00D184E15046BF
:1012800000F0D8FD031E272B00DD76E128210D1A82
:10129000211C083B5246E9409A400D1C1543221C74
:1012A0009A40AA4690462B4B00241B1A0293002515
:1012B00088E75B461E430323002E9CD1B3460022E1
:1012C000022398E75B46334321D05846002800D1DB
:1012D0004EE100F0AFFD272800DD42E128210F1A82
:1012E000021C311C083A5B46F94093400F1C1F4317
:1012F000331C9340BB461A1C164B181A00237AE77E
:1013000001230B4000249946A0460E4B97E7002787
:10131000BB46002201236EE7002104248A4688464A
:1013200001254FE70C2403254CE700258024A9461E
:101330002403A846034B82E7DA46904603991D1C16
:101340006FE7C046FF07000001FCFFFF887500083B
:10135000FFFF0F800DFCFFFF029F160C3818049052
:101360004046070C0004000C1204120C031C5343EB
:10137000041C3D1C7443554398463B1C734364193D
:10138000A44644460293230C63449D4204D9029D23
:10139000802464022D1902951D0C039545462C04EA
:1013A0001B04240C1C1905945C46230C051C584393
:1013B0002404240C8446381C604365435F43814603
:1013C000CC44280C6044BB46814502D980277F026B
:1013D000BB442D04070C2D0C000440195546BC4697
:1013E0002F04E3448446280C3D0C2F1C5743B84679
:1013F0002F1C77434243B94647463F0C9144BA46B7
:10140000D14446434A4502D980225202B6184F467B
:101410003A0CB6183A0447463F043F0CB8462F1C16
:1014200067435D434443584365190190380C2D18B8
:101430004244B846AC4204D9019880235B02C018EC
:101440000190039C029F201C6044C0196045A44188
:1014500047466442A4462B043C049946240C4C4461
:10146000A046D8448018C246E24490429241574672
:1014700052429146F219E245BF417F424B46BC467B
:10148000D845BF41D4187F4263461F432D0C7F19B6
:10149000B24292414C45AD4152426D421543019ECC
:1014A0007D19AB19E20D5B02059F134342023A43DB
:1014B0009A46531E9A41C30D101C184364022043E0
:1014C00080465046C0010DD5454601225646049C33
:1014D0006B082A401A43F30701341A437608049430
:1014E0009046B246049E634FF319002B61DD4046DF
:1014F00040070BD00F2244462240042A06D0424621
:101500000432424580414042824490465546ED01B6
:1015100007D5594B5646049F80201E40C000B24656
:101520003B18564A934200DDEAE644465546E20837
:101530006807104301226C025B050A408046240BB9
:101540005B0D91467BE6DA4690461D1C69E68024D9
:101550002403574627421CD13C432403240B484B09
:101560006DE6031C283B311C99408B460022C3E6E4
:10157000301C00F05FFC2030ADE6283B211C994078
:1015800000228A4690468EE6201C00F053FC203054
:1015900078E65846204207D1044303992403240BDC
:1015A00089469046364B4AE63C432403240B344B91
:1015B00045E6344B049E9B1B382B06DD01230B4074
:1015C00000249946A046002339E61F2B25DC049C05
:1015D0002D4D46466019524644468640DC408240C6
:1015E0005746301C2243DF40441EA04102433B1CAF
:1015F000540709D00F201040042805D0101D904238
:10160000924152429B18021C1D021AD501230B4025
:1016100000249946A046012311E61C48049C554627
:10162000001BC540281C202B16D0194E5746A21966
:1016300097403A1C43461A43531E9A4102430023E3
:10164000D6E758075B02D2081C0B01230B4010435E
:10165000994680460023F2E50022EBE7802424032C
:1016600050460123044319402403240B8946044BAC
:10167000E5E5C046FF030000FFFFFFFEFE07000098
:10168000FF07000002FCFFFF1E040000E2FBFFFF5B
:101690003E040000F8B55F46564644464D46F0B459
:1016A0000C034D00CF0F610A440F2143C4001803FF
:1016B000DE0F8046B44646465800760A530F334341
:1016C000D600C94A6D0DBA46400DB346904200D1CE
:1016D000EBE06246012672409446674500D1A1E0E6
:1016E0002F1A002F00DC08E100283BD15846184390
:1016F00000D0E8E0600709D00F232340042B05D079
:10170000231DA342A441644209191C1C0A0200D4EF
:1017100079E0B54B6A1C9A4200D109E1B34BE40869
:1017200019404807044349025205012750460B0B54
:10173000520D0740002000211B03201C1C0B0B0D29
:101740001B05AB4D2343520552081D4015436D0048
:101750006D08FF07291C39433CBC90469946A246B8
:10176000AB46F8BDA0488542C4D0802000040343A6
:10177000382F00DDF0E01F2F00DD24E12020C01B0A
:101780001A1C5E468240FE40324394465A468240CE
:10179000101C421E9041FB40624602431F1CA21ACD
:1017A0009442A4416442C91B091B141C0A02A1D51E
:1017B00049024F0A002F00D1C9E0381C00F03AFB63
:1017C000021C083A1F2A00DDBCE02821231C091A4C
:1017D0009740CB401F439440954200DDAEE0551B3F
:1017E000691C1F2900DDDDE01F22551B3B1C221C4C
:1017F000AB40CA40AC40651EAC411343CF401C43D4
:10180000391C002576E74807E4086A050127564693
:10181000C908520D37400443734B9D4249D0090318
:101820000B0B87E72A1A9446002A00DC9BE000286D
:1018300055D06D48854200D15CE780200004034309
:101840006046382800DD09E11F2800DD50E16246CE
:101850002020801A1E1C8640B1465E46D6404A466D
:1018600032435E4686409046301C421E90414246BE
:1018700002436046C3401219A242A441644259186F
:101880000919141C080200D434E7574B01359D4256
:1018900000D142E1554B60081940012323401C1C34
:1018A0000443CB071C43490824E71E4300D014E738
:1018B0000FE70B1C234300D1CFE180231B030B4315
:1018C0001B031B0B36E7013F002F66D15E46A21BB0
:1018D0009442A4416442C91A091B141C66E7584685
:1018E000184300D106E701267642B444604600283A
:1018F00000D0CAE05E463219BEE7002F7AD1681CDC
:101900004005400D012800DCE3E05A46A21A94424B
:10191000BF41C81A7F42C71B3E0200D492E058461E
:10192000041BA3459241591A52428F1AE24641E7DD
:10193000534601271F4000240023FBE62B49AD1A24
:101940003940D7E6271C28388740002444E7201C6C
:1019500000F070FA203033E75A461A43531E9A417A
:10196000D2B200271BE7002A00D0E1E0681C460540
:10197000760D012E00DC91E01B4DA84200D1F7E06E
:101980005E463219A242A441644259180919CC0793
:10199000520814434908051CACE61348854200D0A0
:1019A000E6E6A7E62B1C1F3B3E1CDE40331C20292D
:1019B00070D03F22551BAF403C43601E84411C4306
:1019C0000021002596E6381C20381E1CC640301C1D
:1019D000202F61D04022D71BBB405A461A43531ECA
:1019E0009A4102430027DAE6FF070000FFFF7FFF6E
:1019F000FFFF0F80002D38D0B94DA84200D192E0F2
:101A000080252D047F422943382F00DDAAE01F2FB7
:101A100000DD2CE12025ED1B0E1CAE40B046261C3F
:101A2000FE404246AC401643651EAC413443F9408B
:101A30005A46141BA34592415B1A5242991A051C3F
:101A4000E246B3E6131C3B43141C002B00D0B1E666
:101A500000270022002500210024DDE65A461A4313
:101A6000531E9A41D2B2002305E70D1C25435AD0DC
:101A7000FF43002F53D15A46141BA3459241591AD4
:101A80005242891A051CE24690E69548854200D0EC
:101A9000D6E62FE600278FE700239EE7081C2043A9
:101AA000002D00D0C3E0002800D1F6E058461843CE
:101AB00000D11FE658460219A242A44164425918B7
:101AC0000919141C0A0200D414E6864B012519409A
:101AD00010E6081C2043002D3AD1002800D089E0F0
:101AE0005946194300D1BFE0191C5C46E24601E6A5
:101AF000604620381A1CC2406646101C202E00D1B9
:101B0000B0E04022921B93405A461A43531E9A411A
:101B100002430023AFE6724D00272A1C9BE7704D5D
:101B2000A84200D070E7191C5C46051CE246E1E5BE
:101B3000002D20D10D1C254375D0D543002D6FD12C
:101B40005C445C459241591852428918051C99E63B
:101B5000002835D159461943DDD0191C5C46E246B0
:101B60005F4DC7E50C43611E8C41E4B200215FE785
:101B7000051C021C6FE75A4DA84254D055428022E2
:101B800016043143382D00DD81E01F2D00DD91E08A
:101B90002022561B0A1CB446B240261CEE4032439B
:101BA000904662469440661EB44142461443E94062
:101BB0005C445C459241CB1852429918051C61E681
:101BC000584618434CD04807E40804438020C9080D
:101BD0000003014208D0DD08054205D15946CA0874
:101BE0005C071443291CE246630FC9001943E40053
:101BF0003B4D7FE55846184300D17BE55E46A71B69
:101C0000BC429241C81A5242801A06024CD558462C
:101C1000041BA3459241591A5242891AE24669E5CA
:101C20002F4A9042AED1191C5C46051C62E5002883
:101C300036D05846184313D080254807E408C90811
:101C40002D0304432942CFD0D8082842CCD15D4689
:101C5000EA085C071443011CC6E70023002469E579
:101C60001F4D47E500234FE700270022F3E63D1C08
:101C7000203D0E1CEE40351C202F2DD04026F71B9A
:101C8000B9400C43611E8C412C430021D0E60C432B
:101C9000611E8C41E4B200218AE7191C5C4629E5EB
:101CA000191C5C460E4D25E5031C3B43DCD0011C92
:101CB0003C1C1FE52026764276190A1CF24090460D
:101CC000202D0BD04026751BA9400C43611E8C4172
:101CD00045462C4300216BE70021D2E70021F4E7C1
:101CE000FF070000FFFF7FFF70B50B1C124C0903BC
:101CF0000E0B5900021C490DDD0F0020A14211DD21
:101D00000E4881420FDC8020400306430C48401AF5
:101D10001F280BDD0B4A521AD640321C5042002DB0
:101D200000D1101C70BD084BE818FBE7074BC24000
:101D3000C9188E403243F1E7FE0300001D04000085
:101D40003304000013040000FFFFFF7FEDFBFFFFE3
:101D5000F8B5041E31D0C70F00D04442201C00F05B
:101D600069F8184D2D1A0A2819DD0B388440240310
:101D70006D05240B6D0D3A1C0026002000210B0D73
:101D80002403240B1B0523430F4C2D051C402C431F
:101D900064006408D307211C301C1943F8BD061CDD
:101DA0001536231CB3401E1C0B23181AC4402403F1
:101DB0006D05240B6D0D3A1CDFE700220025002481
:101DC0000026DAE71E040000FFFF0F8010B5041E96
:101DD00028D000F02FF8154A121A0A2815DD0B3802
:101DE000844024035205240B520D002300200021BF
:101DF0002403181C0B0D240B1B0523430C4C12054C
:101E00001C4014436400610810BD031C1533211CE1
:101E100099400B1C0B21081AC44024035205240BC3
:101E2000520DE3E7002200240023DFE71E04000038
:101E3000FFFF0F801C2101231B04984201D3000CDB
:101E400010391B0A984201D3000A08391B0998422D
:101E500001D30009043902A2105C40187047C04643
:101E60000403020201010101000000000000000063
:101E700080B500AF1B4B1B4A126801210A431A6050
:101E8000184B184A5168184A0A405A60154B154AAF
:101E90001168164A0A401A60124B124A1168144A15
:101EA0000A401A600F4B0F4A5168124A0A405A60A2
:101EB0000C4B0C4AD26A0F218A43DA62094B094A59
:101EC000116B0D4A0A401A63064B064A516B0B4AC6
:101ED0000A405A63034B00229A6000F085F8BD4621
:101EE00080BDC046001002400CB8FF80FFFFF6FE28
:101EF000FFFFFBFFFF7FC0FFACFEFFFFFEFFFEFF0B
:101F000080B584B000AF0023FB600023BB600023DA
:101F10007B6000233B602E4B5A680C231340FB6010
:101F2000FB68042B0CD002D8002B05D039E0082B1D
:101F30000AD00C2B31D034E0264B274A1A6034E00B
:101F4000244B254A1A6030E0214B5A68F0239B034A
:101F50001340BB601E4B5A68C0235B0213407B607A
:101F6000BB689B0C0233BB607B68002B05D1BB6850
:101F70001A4A5A43174B1A6017E0154BDA6A0F23B7
:101F8000134001333B6014483968FEF7BDF8031C69
:101F9000BA685A430F4B1A6007E00E4B104A1A609A
:101FA00003E00C4B0C4A1A60C046094B5A68F023F8
:101FB00013401B090B4AD35CDBB2FB60054B1A686C
:101FC000FB68DA40034B1A60BD4604B080BDC046D2
:101FD000001002400000002000127A0000093D00BD
:101FE000006CDC020400002080B500AF134B11220E
:101FF0001A60134B124A52685A60114B104A5268C9
:102000005A600F4B0E4A526B802149020A435A63B1
:10201000C0460B4B5A6B80239B021340F9D0084BF0
:10202000074A526803218A435A60054B044A5268A2
:1020300003210A435A60BD4680BDC04600200240CD
:102040000010024080B500AFBD4680BD80B500AF36
:10205000FEE7C04680B500AFBD4680BD80B500AF8D
:10206000BD4680BD80B500AF02F0DEFEBD4680BD3E
:102070000D488546002103E00C4B5B58435004316A
:102080000B480C4B42189A42F6D30B4A02E000234D
:1020900013600432094B9A42F9D3FFF7E9FE04F0CA
:1020A00067FC01F0D5F8FEE700180020E076000894
:1020B0000000002024010020240100200C0E00203C
:1020C000FEE7000080B584B000AF78600A1CFB1CFE
:1020D0001A707A688423D3585A1C7F231340FB60FC
:1020E0007A688023D258FB689A4201D101230BE021
:1020F0007A688423D3587A68F91C0978D1547A68AD
:102100008423F968D1500023181CBD4604B080BD5B
:1021100080B500AFBD4680BD80B582B000AF021C67
:10212000FB1D1A70BD4602B080BDC04680B500AF31
:10213000BD4680BD80B500AFBD4680BD80B500AF57
:10214000BD4680BD80B582B000AF0F4B1A68BB1D85
:102150001A80BB1DBA1D128808210A431A800A4B37
:10216000BA1D12881A60084B1A68BB1D1A80BB1D65
:10217000BA1D128804210A431A80034BBA1D128823
:102180001A60BD4602B080BD405C004080B582B0A0
:1021900000AF0A4B1A68BB1D1A80BB1DBA1D1288FE
:1021A00004218A431A80054BBA1D12881A60034B1A
:1021B000BF2212021A60BD4602B080BD405C0040E2
:1021C00080B584B000AF021CFB1D1A70FB1D1B788C
:1021D000072B03D0414BFA1D12781A703F4B1B7826
:1021E000DBB2052B00D972E09A003D4BD3181B6877
:1021F0009F463C4B1B68002B05D1FFF7C7FF374BB1
:1022000006221A7067E0354B05221A7063E0FFF76B
:10221000BDFF324B04221A70324B01221A605AE081
:102220002E4B02225A702D4B03221A7053E02B4B77
:102230005B78DBB2013BDAB2284B5A70274B5B78F4
:10224000DBB2002B03D1254B04221A7043E042E09D
:10225000254B1A683B1C0E331A803B1C0E333A1C6C
:102260000E32128810210A431A801F4B3A1C0E327C
:1022700012881A60194B05221A70184B0A225A70DC
:1022800029E0164B5B78DBB2013BDAB2134B5A7094
:10229000124B5B78DBB2002B18D1134B1A683B1C36
:1022A0000E331A803B1C0E333A1C0E32128810215A
:1022B0008A431A800C4B3A1C0E3212881A60074B64
:1022C00006221A70074B00221A6004E003E0034B59
:1022D00006221A70C046BD4604B080BD88010020A9
:1022E000C875000840010020405C004080B582B005
:1022F00000AF021C3960FB1D1A703B6812221A8065
:10230000024B181CBD4602B080BDC046E0750008F7
:1023100080B582B000AF021C3960FB1D1A703B68AB
:1023200004221A80024B181CBD4602B080BDC04674
:10233000F475000880B582B000AF021C3960FB1D47
:102340001A700649064A3B68081C111C1A1C01F049
:10235000E9FC034B181CBD4602B080BDB8740008F0
:102360007C04002080B582B000AF021C3960FB1DE8
:102370001A700649064A3B68081C111C1A1C01F019
:10238000D1FC034B181CBD4602B080BDDC740008B4
:102390007C04002080B582B000AF021C3960FB1DB8
:1023A0001A703B681A221A80024B181CBD4602B0F4
:1023B00080BDC0464400002080B582B000AF021C42
:1023C0003960FB1D1A700649064A3B68081C111C3F
:1023D0001A1C01F0A7FC034B181CBD4602B080BDBF
:1023E000F07400087C04002080B582B000AF021CAD
:1023F0003960FB1D1A700649064A3B68081C111C0F
:102400001A1C01F08FFC034B181CBD4602B080BDA6
:10241000FC7400087C04002080B584B000AF104B31
:102420001B68FB600F4B1B68BB600F4B1B687B601E
:10243000FA687B68D318FB60FB68002B0DD0FA6844
:102440000A4B101C191C082200F014F8BA68084B3B
:10245000101C191C042200F00DF8BD4604B080BD0C
:10246000ACF7FF1FB0F7FF1FB4F7FF1F46000020B7
:102470005600002080B586B000AFF860B960FB1D43
:102480001A703B1C173300221A703B1C17330022B2
:102490001A702FE0FB681B0F092B0CD83B1C17335D
:1024A0001B785B00BA68D318FA68120FD2B23032C8
:1024B000D2B21A700BE03B1C17331B785B00BA6872
:1024C000D318FA68120FD2B23732D2B21A70FB6840
:1024D0001B01FB603B1C17331B785B000133BA68A0
:1024E000D31800221A703B1C17331A783B1C173381
:1024F00001321A703A1C1732FB1D12781B789A426F
:10250000C8D3BD4606B080BD80B582B000AF78604C
:1025100080231B04181C012103F0E0FE002003F0BF
:102520008BFE00F01BF8BD4602B080BD80B584B0C4
:1025300000AF78603B1C0C331F221A703B1C0C331D
:1025400001225A703B1C0C3301229A703B1C0C3345
:10255000181C03F0E1FEBD4604B080BD80B500AF9D
:1025600080231B05181C012103F0B8FE80239B0566
:10257000181C04F0E5F9012004F0C6F9012004F06C
:10258000A7F9BD4680BDC04680B500AF012001213E
:1025900003F086FE0E4B0E4A126810210A431A60A1
:1025A0000C480D490D4A0E4B01F0E2FC0D4B1B7817
:1025B000DBB201229343DAB20A4B1A700A4A802333
:1025C0000021D150084A84230021D150BD4680BD4E
:1025D0000000014014020020280000209800002084
:1025E000140000208A0100208C01002080B500AF7B
:1025F0000023181CBD4680BD80B500AF0023181C09
:10260000BD4680BD80B584B000AFF860B9607A6027
:10261000FB68222B10D10B4B1B78DBB21A1C022358
:10262000134008D0074B1B78DBB202229343DAB287
:10263000044B1A70FFE7C0460023181CBD4604B0C7
:1026400080BDC0468A01002080B584B000AF7860AC
:1026500039603B68002B20D00023FB6018E0224B40
:102660001B687968FA688A181178204AD1541E4B81
:102670001B685A1C1C4B1A601B4B1A6880231B01D9
:102680009A4202D1184B00221A60FB680133FB60AA
:10269000FA683B689A42E2D321E00023BB6018E06D
:1026A000114B1B687968BA688A1811780F4AD1549F
:1026B0000D4B1B685A1C0C4B1A600B4B1A6880237D
:1026C0001B019A4202D1084B00221A60BB680133F9
:1026D000BB607A68BB68D3181B78002BE0D100235D
:1026E000181CBD4604B080BD600100200806002013
:1026F00080B584B000AF78603960204B1B78DBB2C6
:102700001A1C0223134019D11D4A80230021D150E5
:102710001B4A84230021D150184B1B78DBB20222C4
:102720001343DAB2154B1A70144B1B78DBB2042238
:102730001343DAB2114B1A7000231BE00F4B1B78C6
:10274000DBB201221343DAB20C4B1A700023FB6098
:102750000BE07A68FB68D3181B78094A101C191C17
:10276000FFF7B0FCFB680133FB60FA683B689A42F4
:10277000EFD30023181CBD4604B080BD8A010020A1
:102780008C01002090B587B002AF3960FB1D011CA1
:102790001970BB1D1A703B1C0E3300221A70C04604
:1027A000404A80231B02101C191C03F0F5FE031C79
:1027B000012BF5D03B4B802292010092181C3A214C
:1027C0000122002303F09EFEC046364B181C022156
:1027D00003F0E2FE031C002BF7D0324AFB1D1B78EE
:1027E000101C191C03F0BEFEC0462E4B181C4021C5
:1027F00003F0D2FE031C002BF7D02A49BB1D1A7828
:1028000080239B04902080010090081C3A2103F053
:1028100079FE3B1C0F3300221A7027E0C046214B83
:10282000181C042103F0B8FE031C002BF7D0BB1DBD
:102830001B78012B0BD93B1C0F331B783A68D4183B
:10284000184B181C03F09CFE031C237007E03C1C73
:102850000E34144B181C03F093FE031C23703B1C16
:102860000F331A783B1C0F3301321A703A1C0F32A7
:10287000BB1D12781B789A42D0D3C046094B181C56
:10288000202103F089FE031C002BF7D0054B181CF8
:10289000202103F0A7FE3B1C0E331B78181CBD46FD
:1028A00005B090BD0054004080B584B002AF0A1C52
:1028B000FB1D011C1970BB1D1A70C0462C4A8023D9
:1028C0001B02101C191C03F067FE031C012BF5D022
:1028D000274A80235B04802189010091101C3A2142
:1028E000012203F00FFEC046214B181C022103F009
:1028F00053FE031C002BF7D01D4AFB1D1B78101C38
:10290000191C03F02FFEC046194B181C802103F040
:1029100043FE031C002BF7D0154A80239B040021A3
:102920000091101C3A21012203F0ECFDC046104B2F
:10293000181C022103F030FE031C002BF7D00C4AB8
:10294000BB1D1B78101C191C03F00CFEC046084B65
:10295000181C202103F020FE031C002BF7D0044B91
:10296000181C202103F03EFEBD4602B080BDC046CB
:102970000054004090B585B000AFFB1D1870BB1D22
:1029800019707B1D1A703C1C0F34FB1D1A78174BF5
:10299000101C191C0122FFF7F5FE031C23707B1D80
:1029A0001B78002B09D03B1C0F33391C0F31BA1D8B
:1029B000097812780A431A700BE0BB1D1B78DB43C1
:1029C000DBB23A1C0F3212781340DAB23B1C0F33E1
:1029D0001A70FB1D1A783B1C0F331B78101C191C36
:1029E000FFF762FFBD4605B090BDC0467C030020E6
:1029F00080B500AF0F4B1B78002B01D1002316E0F0
:102A00002A2001210022FFF7B5FF642000F00EFC10
:102A1000094B0B20191C0122FFF7B4FE031C002BED
:102A200001D0012303E0034B00221A700023181C7D
:102A3000BD4680BD440100207C03002080B500AF6E
:102A40000F4B1B78002B01D0002316E02A20012118
:102A50000122FFF78FFF642000F0E8FB094B0B20F9
:102A6000191C0122FFF78EFE031C012B01D001234C
:102A700003E0034B01221A700023181CBD4680BDE1
:102A8000440100207C03002080B58AB000AF802381
:102A90009B02181C012103F0E5FB8023DB03181CBB
:102AA000012103F0DFFB80239B03181C012103F0AD
:102AB00015FC3B1C203303221A603B1C20330222EE
:102AC0001A713B1C203301229A713B1C20330022D7
:102AD0005A713C4A3B1C2033101C191C03F08EFD1C
:102AE000384B181C0021012203F03CFE354B181C0A
:102AF0000121012203F036FE3B1C20330C221A6018
:102B00003B1C203300221A713B1C20330122DA7156
:102B10003B1C203303225A719023DA053B1C2033DF
:102B2000101C191C03F06AFD3B1D00225A613B1D5D
:102B300000225A603B1DAB221A613B1D00229A60A5
:102B40003B1D00229A613B1D0022DA603B1D1E4A9C
:102B50001A601E4A3B1D101C191C03F04DFC1B4B38
:102B6000181C012103F0B0FC322000F05FFB184B71
:102B70000D20191C0122FFF705FE031C5A2B01D062
:102B800001231BE02B2002210122FFF7F3FE2A2064
:102B900029210122FFF7EEFE0D4B0B20191C01220B
:102BA000FFF7F0FD031C012B04D00A4B00221A7022
:102BB000022303E0074B01221A700023181CBD46B4
:102BC0000AB080BD001400480A0210000054004002
:102BD0007C0300204401002080B582B000AF021CBD
:102BE000FB1D1A70FFF704FF031C002B01D001230B
:102BF00021E02A203E210022FFF7BCFEFB1D1B78AE
:102C0000002B02D0012B06D00BE02A20022101224A
:102C1000FFF7B0FE07E02A2028210122FFF7AAFED5
:102C200001E0022307E0FFF709FF031C002B01D09E
:102C3000032300E00023181CBD4602B080BDC0463F
:102C400080B584B000AF3B1C08330120191C03225F
:102C5000FFF798FD3B1C08331B78DAB23B1D1A7056
:102C60003B1C08335B78DAB23B1D5A703B1C0833BF
:102C70009B78DAB23B1D9A703B1C0C333A1D1188CD
:102C8000198092789A703A1C0C3200231078FF2138
:102C90000140FF2083430B435078FF21014009028C
:102CA000064803400B439178FF220A40120404496E
:102CB0000B401343181CBD4604B080BDFF00FFFF4E
:102CC000FFFF00FF80B592B000AF80239B02181C6D
:102CD000012103F0C7FA80235B01181C012103F0D6
:102CE000DFFA0120012103F0BDFA3B1C4033A02292
:102CF0001A603B1C403302221A713B1C40330022F5
:102D00009A713B1C403303225A719023DA053B1C15
:102D10004033101C191C03F071FC3B1C2C33102297
:102D20009A813B1C2C3301221A813B1C2C3302223A
:102D3000DA803B1C2C33E022D2009A803B1C2C33DF
:102D40008022D2011A803B1C2C330022DA813B1CEA
:102D50002C33822252005A803B1C2C33802292005A
:102D60005A811E4A3B1C2C33101C191C03F09EF97F
:102D70001A4B181C0221012203F03AFA174B181CB7
:102D8000012103F015FA3B1C10229A603B1C002223
:102D90009A62134A3B1C5A603B1C0022DA613B1CBE
:102DA00080225A613B1C00221A623B1C0D4A1A60A9
:102DB0003B1C00229A613B1C00221A613B1C8022B2
:102DC00092015A62084A3B1C101C191C03F018FDA2
:102DD00000F00CF9BD4612B080BDC0460030014085
:102DE0000C0400200C3001403000024080B582B05D
:102DF00000AFFB1D00221A70BB1D00221A70484B49
:102E0000181C002103F038FD7B1D00221A700EE013
:102E1000BB1D1B78434A0021D154BB1D1A78BB1D32
:102E200001321A707B1D1A787B1D01321A707B1DCE
:102E30001B78032BECD93B1D00221A7048E0BB1D08
:102E40001B78FA1D1178384A89008A5C2021494292
:102E50000A43D1B2334AD154BB1D1A78BB1D01328B
:102E60001A70BB1D1B78FA1D12782F4992008A1820
:102E700051782C4AD154BB1D1A78BB1D01321A70EF
:102E8000BB1D1B78FA1D1278274992008A18917889
:102E9000244AD154BB1D1A78BB1D01321A70BB1DC8
:102EA0001B78FA1D1278204992008A18D1781D4AA1
:102EB000D154BB1D1A78BB1D01321A70FB1D1A7844
:102EC000FB1D01321A703B1D1A783B1D01321A702E
:102ED0003B1D1B780F2BB2D9FB1C00221A700EE091
:102EE000BB1D1B780F4A0021D154BB1D1A78BB1D96
:102EF00001321A70FB1C1A78FB1C01321A70FB1C81
:102F00001B78072BECD9064B181C4C2103F0D2FC84
:102F1000034B181C012103F0AFFCBD4602B080BD7D
:102F2000300002400C040020CC03002080B584B0A7
:102F300000AF0A1CBB1D011C19807B1D1A707B1D74
:102F40001B781F2B02D97B1D1F221A70254B7A1D5F
:102F500012781A703B1C0E3300221A8037E0BB1D1A
:102F60001A883B1C0E331B881A410123134008D0DA
:102F70003B1C0E331B881C4A99001A4B1B688B5054
:102F80001EE03B1C0E331A88174B92000021D154CF
:102F90003B1C0E331B88144A9B00D31800225A7026
:102FA0003B1C0E331B88104A9B00D31800229A70DA
:102FB0003B1C0E331B880C4A9B00D3180022DA708E
:102FC0003B1C0E331A883B1C0E3301321A803B1C0B
:102FD0000E331B880F2BC2D9FFF708FFBD4604B084
:102FE00080BDC046C8030020CC03002080B582B05D
:102FF00000AFBB1D00221A801FE0BB1D1A88134BB7
:1030000092000021D154BB1D1B88104A9B00D3188D
:1030100000225A70BB1D1B880C4A9B00D31800224B
:103020009A70BB1D1B88094A9B00D3180022DA70D6
:10303000BB1D1A88BB1D01321A80BB1D1B880F2BBC
:10304000DBD9FFF7D3FEBD4602B080BDCC03002024
:1030500080B582B000AF80239B02181C012103F0D1
:1030600001F93B1C02221A603B1C01221A713B1C15
:1030700000229A713B1C03225A719023DA053B1CF3
:10308000101C191C03F0BAFABD4602B080BDC04640
:1030900080B500AF9023DB05181C0221012203F04C
:1030A00049FBBD4680BDC04680B500AF9023DB051F
:1030B000181C0221002203F03DFBBD4680BDC04626
:1030C000B0B582B000AF021C3960FB1D1A70FB1D49
:1030D0001B787F2B32D93049FB1D1B781A1C0F231C
:1030E0001340083B98082C4AFB1D1B781C1C0F231F
:1030F0002340083B9B0806339B00D3185B68FA1DEE
:103100001278141C03222240D200FF24251C954073
:103110002A1CD2431A403B689C01FF231C40FB1D24
:103120001B781D1C03232B40DB00251C9D402B1C02
:103130001A43831D9B00CB185A6029E0174BFA1DD8
:10314000127852B292081549F81D007840B28008F2
:10315000C03080004158F81D0078041C0320204036
:10316000C000FF24251C8540281CC0430840396846
:103170008C01FF210C40F91D09780D1C0321294009
:10318000C900251C8D40291C0143C0329200D1503A
:10319000BD4602B0B0BDC04600ED00E000E100E079
:1031A00080B582B000AF78607B685A1E0C4B9A42A3
:1031B00001D9012310E00B4B7A68013A5A600123D0
:1031C0005B42181C0321FFF77BFF064B00229A602D
:1031D000044B07221A600023181CBD4602B080BDB4
:1031E000FFFFFF0010E000E080B500AF0C4B1B6854
:1031F000002B04D00A4B1B685A1E094B1A60094B5E
:103200001B685A1C074B1A60064B1B68052B05D917
:10321000054B01221A70034B00221A60BD4680BD87
:1032200058040020480100204C01002080B582B0E5
:1032300000AF7860054B7A681A60C046034B1B6884
:10324000002BFBD1BD4602B080BDC0465804002013
:1032500090B585B000AFFEF70BFEFEF751FE824B36
:103260001B68181CFA235901FCF74EFF031C181C9D
:10327000FFF796FF05235B42181C03F0A3F8FFF746
:10328000E7FEFFF705FFFA235B00181CFFF7CEFFF0
:10329000FFF70AFFFA235B00181CFFF7C7FFFFF7D1
:1032A00073F9FFF7F1FBFFF70DFD0020FFF794FC2A
:1032B000031C1A1C6D4B1A706D4B1B78002B00D130
:1032C000CBE06B4B00221A70FFF7BAFC031C1A1CF0
:1032D0003B1D111C19701104090E59701202120EB7
:1032E0009A703B1D1B785BB23A1D127852B25A435A
:1032F0003B1D5B785BB2391D497849B24B43D2180C
:103300003B1D9B785BB2391D897849B24B43D3187A
:10331000181CFEF71DFD031C0C1C181C211C03F0BF
:1033200077FF031C0C1C181C211CFCF77DFF031CE1
:10333000BB60B868FEF74AFD031C0C1C181C211C5E
:10334000484B474AFDF716FF031C0C1C181C211C98
:10335000FCF76AFF031CBB603B1C0E3300221A8083
:103360003B1C0D3300221A7030E03B1C0D331A78E1
:10337000BB681B0A9A4210D83B1C0D331B780122F4
:10338000111C99400B1C9AB23B1C0E331B88134333
:103390009AB23B1C0E331A8011E03B1C0D331B7894
:1033A0000122111C99400B1C9BB2DB439BB23A1CBF
:1033B0000E32128813409AB23B1C0E331A803B1C0B
:1033C0000D331A783B1C0D3301321A703B1C0D3340
:1033D0001B780F2BC9D93B1C0E331B88181C0221EC
:1033E000FFF7A4FD234B1B78DBB21A1C0423134008
:1033F0000CD0204B1B78DBB204229343DAB21D4B76
:103400001A701D4B181C1421FFF71EF9194B1B785D
:10341000DBB21A1C022313401FD0144B1B78002B65
:103420000DD0124B1B781549154A081C111C1A1C8B
:1034300003F0CEFA114B181C1321FFF705F90F49C1
:10344000104ABB68081C111C1A1C03F0C1FA0B4B74
:10345000181C0021FFF7F8F82EE72DE7C046C046FC
:103460003333333333332F40000000204D0100202D
:103470004C0100208A0100200C7500085C0400202B
:10348000287500083C75000880B584B000AF7860EE
:1034900039603B1C0F3300221A703B685B78092BA4
:1034A00035D89A00214BD3181B689F467A683B6831
:1034B000101C191C00F092F930E07A683B68101C6F
:1034C000191C00F079FA29E07A683B68101C191C75
:1034D00000F0BAFA22E07A683B68101C191C00F070
:1034E00031FB1BE07A683B68101C191C00F05EFB86
:1034F00014E07A683B68101C191C00F081FB0DE099
:103500007A683B68101C191C00F098FB06E07A688A
:103510003B68101C191C00F0F7FBC0463B1C0F3326
:103520001B78181CBD4604B080BDC046F875000865
:1035300090B585B000AF786039603B1C0F33002236
:103540001A707B689B78032B28D13B689B88DBB281
:10355000012B1BD87A68AC235B00D3589B683C1CBA
:103560000F3479683A68081C111C9847031C2370B3
:103570003B68DB88002B10D13B1C0F331B78002BE2
:103580000BD17B68181C00F0BFFC0EE07A683B682A
:10359000101C191C00F0B8FB07E006E07A683B68D5
:1035A000101C191C00F0B0FBC0463B1C0F331B78ED
:1035B000181CBD4605B090BD80B584B000AF7860E2
:1035C00039600023BB603B1C0F3300221A703B683C
:1035D0009A883B1C0E331A703B685B78012B4DD0E8
:1035E000032B03D0002B00D190E0EFE07B689B78A9
:1035F000022B02D0032B14D038E03B1C0E331B7877
:10360000002B0DD03B1C0E331B78802B08D07A6822
:103610003B1C0E331B78101C191C01F0C5FF2CE05D
:103620002BE03B685B88002B11D13B1C0E331B78D1
:10363000002B0CD03B1C0E331B78802B07D07A68F4
:103640003B1C0E331B78101C191C01F0ADFF7A686F
:10365000AC235B00D3589B6879683A68081C111C3E
:1036600098477B68181C00F04FFC06E07A683B68BE
:10367000101C191C00F048FBC046A7E07B689B7833
:10368000022B02D0032B14D038E03B1C0E331B78E6
:10369000002B0DD03B1C0E331B78802B08D07A6892
:1036A0003B1C0E331B78101C191C01F07DFF2CE015
:1036B0002BE03B685B88002B11D13B1C0E331B7841
:1036C000002B0CD03B1C0E331B78802B07D07A6864
:1036D0003B1C0E331B78101C191C01F0D1FF7A68BB
:1036E000AC235B00D3589B6879683A68081C111CAE
:1036F00098477B68181C00F007FC06E07A683B6876
:10370000101C191C00F000FBC0465FE07B689B7832
:10371000022B02D0032B14D050E03B1C0E331B783D
:10372000002B0DD03B1C0E331B78802B08D07A6801
:103730003B1C0E331B78101C191C01F035FF44E0B4
:1037400043E03B1C0E331B785BB2002B14DA3B1CAE
:103750000E331A787F231A407968131C9B009B183C
:10376000DB00CB1818339B78002B02D00123BB6001
:103770001BE00023BB6018E03B1C0E331B785BB2E0
:10378000002B12DB3B1C0E331A787868B821131C0F
:103790009B009B18DB00C3185B189B78002B02D0A2
:1037A0000123BB6001E00023BB607A683B1C083347
:1037B000101C191C022200F025FB06E07A683B6809
:1037C000101C191C00F0A0FAC046C0463B1C0F3369
:1037D0001B78181CBD4604B080BDC04680B584B0BF
:1037E00000AF786039603B685B881B0A9BB2072B8F
:1037F00000D9B2E09A006E4BD3181B689F467A68D6
:10380000B0235B00D3581A687B68DB68D9B23B1CD5
:103810000A33081C191C9047031CFB603B68DB88BB
:10382000402B04D13B1C0A3308221A809CE09BE009
:103830007A68AC235B00D3581A6A7B68DB68D9B21C
:103840003B1C0A33081C191C9047031CFB607A6858
:10385000B2235B00F968D15086E03B685B88DBB23D
:10386000052B64D89A00534BD3181B689F467A687F
:10387000B0235B00D3585A687B68DB68D9B23B1C25
:103880000A33081C191C9047031CFB6056E07A6839
:10389000B0235B00D3589A687B68DB68D9B23B1CC5
:1038A0000A33081C191C9047031CFB6046E07A6829
:1038B000B0235B00D358DA687B68DB68D9B23B1C65
:1038C0000A33081C191C9047031CFB6036E07A6819
:1038D000B0235B00D3581A697B68DB68D9B23B1C04
:1038E0000A33081C191C9047031CFB6026E07A6809
:1038F000B0235B00D3585A697B68DB68D9B23B1CA4
:103900000A33081C191C9047031CFB6016E07A68F8
:10391000B0235B00D3589A697B68DB68D9B23B1C43
:103920000A33081C191C9047031CFB6006E07A68E8
:103930003B68101C191C00F0E7F936E014E07A68C7
:103940003B68101C191C00F0DFF92EE07A683B6818
:10395000101C191C00F0D8F927E07A683B68101C8D
:10396000191C00F0D1F920E03B1C0A331B88002B06
:103970001BD03B68DB88002B17D03B68DB883A1CE8
:103980000A32128898B291B2884200D9131C9AB2B6
:103990003B1C0A331A803B1C0A331B887968FA687F
:1039A000081C111C1A1C00F02DFABD4604B080BD85
:1039B000207600084076000880B584B000AF7860BB
:1039C00039603B689B88002B32D13B68DB88002B39
:1039D0002ED13B685B88D9B23B1C0F337F220A4053
:1039E0001A707B689B78032B06D17A683B68101CA1
:1039F000191C00F089F91AE07B683A1C0F32127822
:103A00001A713B1C0F331A780E4B1A607B68181C16
:103A100000F07AFA3B1C0F331B78002B03D07B6835
:103A200002229A7003E07B6801229A7006E005E0AA
:103A30007A683B68101C191C00F066F9BD4604B09A
:103A400080BDC0465001002080B582B000AF7860D4
:103A500039603B685B88DAB2394B1A70384B1B7897
:103A6000012B06D97A683B68101C191C00F04CF930
:103A700063E07B689B78022B02D0032B1CD055E0BF
:103A80002F4B1B78002B12D02D4B1A787B681A70A5
:103A90007B6803229A702A4B1B787A68101C191CC9
:103AA00000F054FC7B68181C00F02EFA45E07B689F
:103AB000181C00F029FA40E0214B1B78002B12D192
:103AC0007B6802229A701E4B1A787B681A701C4B16
:103AD0001B787A68101C191C00F056FC7B68181CB7
:103AE00000F012FA21E07B681A78154B1B789A4295
:103AF00016D07B681B787A68101C191C00F044FCF7
:103B00000F4B1A787B681A700D4B1B787A68101C63
:103B1000191C00F01BFC7B68181C00F0F5F904E090
:103B20007B68181C00F0F0F907E006E07A683B6853
:103B3000101C191C00F0E8F8C046BD4602B080BD5C
:103B40005401002080B584B000AF78603960002354
:103B5000FB603B68DB88012B06D07A683B68101C51
:103B6000191C00F0D1F81EE07B689B78022B02D074
:103B7000032B09D010E07A683B1C0C33101C191C75
:103B8000012200F03FF90EE07B687A68101C191CD6
:103B9000012200F037F906E07A683B68101C191C16
:103BA00000F0B2F8C046BD4604B080BD80B584B018
:103BB00000AF786039600023FB607B689B78023B34
:103BC000012B12D80123FB607B689B68002B03D07C
:103BD000FB6802221343FB607A683B1C0C33101C09
:103BE000191C022200F00EF906E07A683B68101CEE
:103BF000191C00F089F8C046BD4604B080BDC0461F
:103C000080B582B000AF786039603B685B88012B7B
:103C100010D17B6801229A607A68AC235B00D3588C
:103C20009B6879683A68081C111C98477B68181CC7
:103C300000F06AF9BD4602B080BDC04680B582B0D2
:103C400000AF786039607B689B78023B012B16D807
:103C50003B685B88012B11D17B6800229A607A68EF
:103C6000AC235B00D3589B6879683A68081C111C28
:103C700098477B68181C00F047F907E006E07A686F
:103C80003B68101C191C00F03FF8C046BD4602B04E
:103C900080BDC04680B582B000AF786039607B6877
:103CA0001A7C3B681A707B685A7C3B685A707B6848
:103CB0009B7C1A1C7B68DB7C1B029BB2D3189AB2DC
:103CC0003B685A807B681B7D1A1C7B685B7D1B02EE
:103CD0009BB2D3189AB23B689A807B689B7D1A1C72
:103CE0007B68DB7D1B029BB2D3189AB23B68DA80FB
:103CF0003B68DB881A1C7B68DA637B6801225A7098
:103D0000BD4602B080BDC04680B582B000AF7860CD
:103D100039607B68181C002101F046FCBD4602B0EA
:103D200080BDC04680B586B000AFF860B9607A60EB
:103D30003B1C173300221A70FB68002B40D0FB6835
:103D4000181C00F041F8031C01339BB2DB189AB237
:103D50007B681A803B1C17331B783A1C1732591C9E
:103D60001170BA68D3187A681288D2B21A703B1CE4
:103D700017331B783A1C1732591C1170BA68D318C4
:103D800003221A7018E03B1C17331B783A1C1732B9
:103D9000591C1170BA68D218FB68591CF9601B785D
:103DA00013703B1C17331B783A1C1732591C1170C7
:103DB000BA68D31800221A70FB681B78002BE2D176
:103DC000BD4606B080BDC04680B584B000AF786007
:103DD0003B1C0F3300221A7009E03B1C0F331A788A
:103DE0003B1C0F3301321A707B6801337B607B68A8
:103DF0001B78002BF1D13B1C0F331B78181CBD46E0
:103E000004B080BD80B586B000AFF860B960BB1D5E
:103E10001A803B1C173300221A70BB1D1A88FB68DE
:103E20009A63BB1D1A88FB685A63FB6802225A70AA
:103E3000BB1D1B88F968BA68081C002101F018FB3B
:103E40003B1C17331B78181CBD4606B080BDC0460E
:103E500080B586B000AFF860B960BB1D1A803B1C0E
:103E6000173300221A70BB1D1B88F968BA68081C3A
:103E7000002101F0FDFA3B1C17331B78181CBD46CE
:103E800006B080BD80B586B000AFF860B960BB1DDC
:103E90001A803B1C173300221A70BB1D1988FA6860
:103EA000D823D150BB1D1988FA68D423D150FB68A0
:103EB00003225A70F968BA68BB1D1B88081C0021D0
:103EC00001F074FA3B1C17331B78181CBD4606B072
:103ED00080BDC04680B586B000AFF860B960BB1D3C
:103EE0001A803B1C173300221A70F968BA68BB1D90
:103EF0001B88081C002101F059FA3B1C17331B7862
:103F0000181CBD4606B080BD80B584B000AF786097
:103F10003B1C0F3300221A707B6804225A707B68A6
:103F2000181C00210022002301F0A2FA3B1C0F33D1
:103F30001B78181CBD4604B080BDC04680B584B057
:103F400000AF78603B1C0F3300221A707B6805229B
:103F50005A707B68181C00210022002301F026FA09
:103F60003B1C0F331B78181CBD4604B080BDC046F7
:103F700080B584B000AFF860B9607A603B60FB68E0
:103F8000181CFEF7C1FAFB68181C00F027F8FA6845
:103F9000AC235B007968D150FA68AE235B003968C6
:103FA000D150FA68B0235B00B968D150FEF734FAFB
:103FB000FB68181C00F0E0FFFA68AE235B00D358E2
:103FC0001B689847FB68181CFEF7B0FAFB68181CC2
:103FD00001F0E0FBBD4604B080BDC04680B582B0B4
:103FE00000AF78600023181CBD4602B080BDC046FB
:103FF00080B584B000AF78607A683B1C0833101C31
:10400000191CFFF747FE3B1C08331B781A1C1F23A3
:104010001340012B0BD0022B11D0002B17D17A6843
:104020003B1C0833101C191CFFF72EFA1BE07A68A2
:104030003B1C0833101C191CFFF77AFA13E07A684E
:104040003B1C0833101C191CFFF7B6FA0BE03B1C95
:1040500008331B787F229343DBB27A68101C191C4B
:1040600001F0A2FAC0460023181CBD4604B080BD72
:1040700080B584B000AF78600A1CFB1C1A70FB1C72
:104080001B78002B3CD17B68B833FB607B685B7886
:10409000032B4BD1FB68DA69FB68DB689A4217D9BE
:1040A000FB68DA69FB68DB68D21AFB68DA61FB68D7
:1040B0001969FB68D868FB68DA69031C934200D968
:1040C000131C9BB27A68101C1A1CFFF703FF2DE02B
:1040D0007A68AC235B00D3581B69002B0BD07B683C
:1040E0009B78032B07D17A68AC235B00D3581B69FC
:1040F0007A68101C98477B68181CFFF705FF15E0CD
:104100007A68AC235B00D3589B69002B0ED07B6888
:104110009B78032B0AD17A68AC235B00D3589B6948
:104120007968FA1C1278081C111C98470023181C87
:10413000BD4604B080BDC04680B584B000AF786095
:104140000A1CFB1C1A70FB1C1B78002B00D06CE0B7
:104150007B681833FB607B685B78022B51D1FB686E
:10416000DA69FB68DB689A4212D9FB68DA69FB6896
:10417000DB68D21AFB68DA61FB681A69FB68DB69E5
:104180009BB27968081C111C1A1CFFF761FE62E0E3
:10419000FB681A6AFB68DB68101C191CFBF7F8FF48
:1041A0000B1C002B15D1FB681A6AFB68DB689A426E
:1041B0000FD3FB681A6AFB685B6A9A4209D27B6874
:1041C000181C00210022FFF743FEFB6800225A6200
:1041D00041E07A68AC235B00D358DB68002B0BD03E
:1041E0007B689B78032B07D17A68AC235B00D3589C
:1041F000DB687A68101C98477B68181CFFF79EFEE6
:1042000029E07B685B78042B25D1154B1B68002BBC
:1042100021D0134B1B68DBB27A68101C191C01F00B
:104220007BFA0F4B00221A6015E07A68AC235B0022
:10423000D3585B69002B0ED07B689B78032B0AD187
:104240007A68AC235B00D3585B697968FA1C1278F2
:10425000081C111C98470023181CBD4604B080BDE3
:104260005001002080B582B000AF78607B68181CD8
:1042700000210022402300F0ABFE7B68181C802147
:104280000022802300F0A4FE7B68181C002140223D
:10429000002300F0E7FE7B68181C802140220023E9
:1042A00000F0E0FE7B6801229A707A68AE235B0022
:1042B000D3585A687B68DB68DBB2181C9047002330
:1042C000181CBD4602B080BD80B582B000AF7860DA
:1042D0007A68AE235B00D3581B6998477B68DA780D
:1042E0007B689A700023181CBD4602B080BDC04692
:1042F00080B582B000AF78607B689A787B68DA70AE
:104300007B6804229A707A68AE235B00D358DB681E
:1043100098470023181CBD4602B080BD80B582B00E
:1043200000AF78607A68AC235B00D358DB69002B60
:1043300007D07A68AC235B00D358DB697A68101C1D
:1043400098470023181CBD4602B080BD80B582B0DE
:1043500000AF78600A1CFB1C1A707A68AC235B0003
:10436000D3581B687968FA1C1278081C111C9847EE
:104370007A68AE235B00D3589B6898470023181CCB
:10438000BD4602B080BDC04680B582B000AF786047
:104390000A1CFB1C1A707A68AC235B00D3585B685C
:1043A0007968FA1C1278081C111C98470023181C05
:1043B000BD4602B080BDC04680B582B000AF786017
:1043C0000A1CFB1C1A707B68181C81210022C02368
:1043D00000F0FEFD7A6880235B00101C8221002221
:1043E00000F0F6FD7A6888235B00101C0321002290
:1043F00000F0EEFD7B68181C81214022022300F0B2
:1044000031FE7B68181C03214022022300F02AFEA3
:104410007B68181C82210822032300F023FE084B2E
:104420001B6898477A68074B101C03211A1C40230D
:1044300000F0BCFF0023181CBD4602B080BDC04682
:1044400060000020C005002080B582B000AF786019
:104450000A1CFB1C1A707B68181C812100F020FFCD
:104460007B68181C032100F01BFF7B68181C82214D
:1044700000F016FF034B5B6898470023181CBD46ED
:1044800002B080BD6000002080B584B000AF7860CD
:1044900039603B1C0E333A221A80484BBB603B68A4
:1044A0001B781A1C6023134044D0202B3AD13B6860
:1044B000DB88002B2CD03B681B78DBB25BB2002B77
:1044C00012DA3F4B9B683A685278101C3A68D288DF
:1044D0003C4998473B68DB8879683A4A081C111CBC
:1044E0001A1CFFF78FFC1BE03B685B781A1C364BED
:1044F0001A603B68DB881A1C344B1A603B68DB8807
:104500007968304A081C111C1A1CFFF7BBFC07E035
:104510002B4B9B683A685278101C00210022984768
:10452000002347E07A683B68101C191CFFF7ECFB7E
:1045300002233FE03B685B780A2B1FD00B2B25D072
:10454000062B36D13B685B881B0A9BB2212B0AD114
:104550001F4BBB603B68DB883A1C0E3299B23A298C
:1045600000D93A2313807968BA683B1C0E331B8844
:10457000081C111C1A1CFFF745FC1AE07A68154B41
:10458000101C191C0122FFF73DFC12E03B685B8800
:10459000DBB2002B06D13B685B88DBB21A1C0D4BEB
:1045A0001A6005E07A683B68101C191CFFF7ACFB29
:1045B000C0460023181CBD4604B080BD61760008CB
:1045C0006000002000060020940000207001002000
:1045D0006A7600085801002090B583B000AF78607B
:1045E0000B4B1B68FF2B0DD00A4B9C68084B1968BE
:1045F000094B1B68094A081C111C1A1CA047044BD4
:10460000FF221A600023181CBD4603B090BDC046AF
:1046100094000020600000207001002000060020AF
:1046200080B584B000AF78600A1CFB1C1A70314B57
:104630001B78012B58D1304B1B68002B12D12F4B0C
:104640001B68012B0AD12D4B00221A607B68181CB5
:1046500081210022002300F00BFF45E0254B0022C2
:104660001A7041E0244B1B68402B15D9244B1A6863
:104670003B1C0E331A803B1C0C3340221A80204B0B
:104680001B681A1C40321E4B1A601B4B1B681A1CFD
:10469000403A194B1A601AE0194B1A683B1C0E334A
:1046A0001A80154B1A683B1C0C331A80144B1A687D
:1046B000114B1B68D218124B1A600F4B00221A6064
:1046C0000D4B1B68402B02D10C4B01221A603B1C86
:1046D0000E331A880B4BD2183B1C0C331B8879689D
:1046E000081C812100F0C4FE0023181CBD4604B044
:1046F00080BDC0466C010020680100205C010020E4
:10470000640100200806002080B584B000AF786006
:104710000A1CFB1C1A70FB1C1A787868D021131C29
:104720009B009B18DB00C3185B181A683B1C0E33F8
:104730001A800B4B1B693A1C0E3212880949081C5F
:10474000111C98477A68074B101C03211A1C402340
:1047500000F02CFE0023181CBD4604B080BDC046EE
:1047600060000020C005002080B582B000AF7860F6
:10477000094B1B68591C084A1160052B06D1064BD2
:1047800000221A607B68181C00F008F80023181C2F
:10479000BD4602B080BDC0467401002080B584B023
:1047A00000AF78603E4B1B78012B00D174E03D4B8D
:1047B0001A6880231B019A4202D13A4B00221A60E8
:1047C000384B1A68384B1B689A4203D1344B00228D
:1047D0001A7061E0334B1A68334B1B689A4207D951
:1047E000304B1B6880221201D21A304B1A6006E04F
:1047F0002D4B1A682B4B1B68D21A2C4B1A602B4B73
:104800001B68402B15D9274B1A683B1C0E331A80A6
:104810003B1C0C3340221A80224B1B681A1C40326E
:10482000204B1A60214B1B681A1C403A1F4B1A6020
:1048300022E01C4B1A683B1C0E331A801B4B1A6873
:104840003B1C0C331A80174B1A68184B1B68D21884
:10485000144B1A60154B00221A603B1C0C331B884A
:10486000402B02D1124B01221A600F4B1B68402BC8
:1048700002D10D4B00221A60094B01221A703B1C19
:104880000E331A880B4BD2183B1C0C331B887968EB
:10489000081C812100F0ECFDBD4604B080BDC0467F
:1048A0006C010020640100206001002068010020EC
:1048B0005C0100200806002080B582B000AF021C19
:1048C0003960FB1D1A703B6843221A80024B181C8A
:1048D000BD4602B080BDC0465876000890B587B08E
:1048E00000AF3B1C163300221A803B1D00221A80A9
:1048F00082E2BB1D1B889BB2D9B23B1C13330F2233
:104900000A401A703B1C13331B78002B00D0E6E0E2
:10491000BB1D1B889BB21A1C1023134021D1CD4B09
:10492000CC4A126892B2111CCB4A0A401A60CB4B97
:10493000FB60FB681B78181C01F09EF9031C1A1C15
:10494000FB689A61FB681A69FB689B69D218FB686F
:104950001A61C34B1B685B68C24A101C0021984750
:104960004AE2C14BFB60BB4B1B689AB23B1D1A80ED
:104970003B1D1B889BB21A1C80231B01134022D0B5
:10498000FB681B78181C01F093F9031C1A1CFB68C8
:104990009A61FB689A88FB689B699BB2B349081CC3
:1049A000111C1A1C01F056FBAA4BAA4A126892B2BB
:1049B000111CAF4A0A401A60A94B1B689B68A94AA0
:1049C000101C984718E23B1D1B889BB29BB21BB280
:1049D000002B00DB10E29F4B9E4A126892B2111C22
:1049E000A34A0A401A60FB681B78181C01F060F9A2
:1049F000031C1A1CFB689A61FB689B69002B12D090
:104A0000FB681969FB689A88FB689B699BB2081C64
:104A1000111C1A1C01F01EFBFB681A69FB689B69DC
:104A2000D218FB681A618E4B1B681B688D4A101CDC
:104A3000002198478F4B1B689BB28F495B18BB6066
:104A4000FB68DB683E2B1DD9FB68DB685A093B1C01
:104A500014331A80FB68DA681F23134006D13B1C0D
:104A600014331A883B1C1433013A1A803B1C14334C
:104A70001B889B029BB2814A13439BB29AB2BB68CC
:104A80001A8018E0FB68DB685A083B1C14331A8054
:104A9000FB68DA680123134006D03B1C14331A88E4
:104AA0003B1C143301321A803B1C14331B889B02BD
:104AB0009AB2BB681A80674B1B689AB2704B13405E
:104AC0009CB280235B0163409CB280239B016340C6
:104AD0009CB2604B6B4A224392B21A608CE13B1C41
:104AE00013331B789B005B4A9B181B689AB23B1DD3
:104AF0001A803B1D1B889BB29BB21BB2002B00DBB4
:104B0000CCE03B1C13331B789B0052495B183A1CCA
:104B10001332127892004F495218126892B2111C47
:104B2000534A0A401A603B1C13331A78131C9B002B
:104B30009B18DB001A1CB8324A4BD318FB60FB6889
:104B40009B7A002B1AD1FB681B783C1C1634181C6E
:104B500001F0AEF8031C23803B1C16331B88002B8E
:104B600052D0FB681969FB689A883B1C16331B8876
:104B7000081C111C1A1C01F06DFA45E0FB681B783B
:104B8000181C00F04FFE031C1A1C8023DB0113408D
:104B90001AD0FB681B783C1C1634181C01F0A2F9D3
:104BA000031C23803B1C16331B88002B26D0FB687C
:104BB0001969FB68DA883B1C16331B88081C111C1A
:104BC0001A1C01F047FA19E0FB681B783C1C1634EC
:104BD000181C01F0A3F9031C23803B1C16331B880F
:104BE000002B0BD0FB681969FB681A893B1C163334
:104BF0001B88081C111C1A1C01F02CFAFB681B787E
:104C0000181C002101F0A6F9FB689A693B1C1633B9
:104C10001B88D218FB689A61FB681A693B1C163323
:104C20001B88D218FB681A61FB685B69002B06D0F1
:104C30003B1C16331A88FB68DB689A4224D2084B67
:104C40001B681B68FA6812780649081C111C9847F3
:104C500024E0C046005C00400F8F00002C020020C2
:104C60009000002014020020CC020020240200202A
:104C70008F0F0000505C0040066000400080FFFF86
:104C80008FBFFFFF8080FFFFFB681978FB681A6900
:104C9000FB685B699BB25F4800F088FB3B1D1B888B
:104CA0009BB21A1C8023134000D1A5E03B1C133398
:104CB0001A78131C9B009B18DB001A1C1832554BEA
:104CC000D318FB603B1C13331B789B00524A9B1884
:104CD0003A1C1332127892004F495218126892B25D
:104CE000111C4E4A0A401A60FB689B7A002B19D1AE
:104CF000FB681B78181C00F0BFFF031C1A1CFB6824
:104D00009A61FB689B69002B4FD0FB681969FB68AF
:104D10009A88FB689B699BB2081C111C1A1C01F045
:104D20005BF942E0FB681B78181C00F07BFD031C5C
:104D30001A1C4023134019D0FB681B78181C01F083
:104D4000D1F8031C1A1CFB689A61FB689B69002B55
:104D500025D0FB681969FB68DA88FB689B699BB200
:104D6000081C111C1A1C01F037F918E0FB681B78AD
:104D7000181C01F0D3F8031C1A1CFB689A61FB682D
:104D80009B69002B0BD0FB681969FB681A89FB68CB
:104D90009B699BB2081C111C1A1C01F01DF9FB68D1
:104DA0001B78181C012101F0D5F8FB681B78181C32
:104DB00000F062FF031C1A1CFB689A61FB681A6909
:104DC000FB689B69D218FB681A61FB685B69002B62
:104DD00009D1134B1B685B68FA6812780D49081CEF
:104DE000111C984708E0FB681978FB681A69FB6892
:104DF0005B69084800F03CFB0A4B1B689BB2BA1D7C
:104E0000191C11809BB21BB2002B00DA71E5BD4664
:104E100007B090BD14020020005C00400F8F00001E
:104E200090000020445C004080B582B000AFBB1D04
:104E300000221A80464B1B689AB2BB1D1A80BB1D0C
:104E40001B889BB21A1C434B1B681A4080231B0211
:104E5000134001D0FFF742FDBB1D1B889BB21A1CFB
:104E60003C4B1B681A408023DB0013400DD0384BAD
:104E7000394A1A60394B1B681B69394A101C98471C
:104E8000374B181C002100F047FCBB1D1B889BB250
:104E90001A1C304B1B681A4080239B01134002D020
:104EA0002B4B304A1A60BB1D1B889BB21A1C294B26
:104EB0001B681A4080235B0113400BD0244B2A4A05
:104EC0001A60264B1B689B69254A101C98470020D6
:104ED000FDF776F9BB1D1B889BB21A1C1D4B1B6886
:104EE0001A4080231B0113400AD0194B1F4A1A6035
:104EF0001A4B1B685B691A4A101C9847FDF722F988
:104F0000BB1D1B889BB21A1C124B1B681A408023C6
:104F10009B00134008D00E4B154A1A600F4B1B68BC
:104F2000DB680F4A101C9847BB1D1B889BB21A1CDC
:104F3000084B1B681A4080235B00134005D0044BCC
:104F40000C4A1A600720FDF73BF9BD4602B080BD50
:104F5000445C004078010020FFFB0000900000202E
:104F600014020020FFDF0000FFEF0000FFF7000049
:104F7000FFFD0000FFFE000080B582B000AF78604A
:104F80007B6801229A707B6800221A717B6800227C
:104F90009A607B680122DA60012000F00FFC00209B
:104FA00000F00CFC002000F019FC002000F026FCB2
:104FB000064BBF2212021A60044B1B689BB2181CDE
:104FC00000F0FCFBBD4602B080BDC0467801002069
:104FD00080B586B000AFF8607B603B1C0A33198057
:104FE0003B1C08331A803B1C0A331A888023134069
:104FF0000DD03B1C0A331A887F231A40131C9B00D8
:105000009B18DB001833FA68D3187B610CE03B1C5B
:105010000A331A887F231A40131C9B009B18DB005D
:10502000B833FA68D3187B613B1C08331B88002B0C
:1050300007D17B6900229A727B689AB27B699A8059
:105040000BE07B6901229A727B689AB27B69DA80F5
:105050007B681B0C9AB27B691A810023181CBD4621
:1050600006B080BD80B586B000AFF860081C111C8A
:105070001A1C3B1C0A3318803B1C08331980FB1D8B
:105080001A703B1C0A331A888023134010D03B1C33
:105090000A331A887F231A40131C9B009B18DB00DD
:1050A0001833FA68D3187B617B6901225A700FE0CC
:1050B0003B1C0A331A887F231A40131C9B009B1841
:1050C000DB00B833FA68D3187B617B6900225A7021
:1050D0003B1C08331A887B69DA607B69FA1D1278F9
:1050E000DA703B1C0A331B88DAB27F231340DAB232
:1050F0007B691A707B691B78002B08D17B690022C1
:105100005A627B690022DA617B6900221A627B693C
:1051100000221A617B6900225A617B6900229A6130
:105120007B6900229A707B69DB78012B21D002DC3D
:10513000002B05D026E0022B0BD0032B10D021E052
:105140007B691A7880239B00101C191C00F07EFBE1
:1051500018E07B691B78181C002100F077FB11E038
:105160007B691A78C023DB00101C191C00F06EFB51
:1051700008E07B691A788023DB00101C191C00F002
:1051800065FBC0467B699B7A002B36D17B695B78D7
:10519000002B13D07B691A787B699B88101C191C23
:1051A00000F0B4FC7B691B78181C00F083FC7B6961
:1051B0001B78181C202100F06FFB6BE07B691A78CC
:1051C0007B699B88101C191C00F0C0FC7B691A7855
:1051D0007B69DB689BB2101C191C00F0F5FC7B6935
:1051E0001B78181C00F038FC7B691A78C0239B01DF
:1051F000101C191C00F08AFB4CE07B691B78181C02
:1052000000F0C2FB7B6919787B69DA887B691B89AE
:10521000081C111C1A1C00F067FD7B695B78002BD1
:105220001DD17B691B78181C00F016FC7B691B786C
:10523000181C00F03FFC7B691B78181C00F0EAFB8F
:105240007B691A78C0239B01101C191C00F05EFBBF
:105250007B691B78181C002100F01EFB1AE07B699B
:105260001B78181C00F0F8FB7B691B78181C00F0F9
:1052700021FC7B691B78181C00F0AAFB7B691B785A
:10528000181C002100F008FB7B691B78181C00210A
:1052900000F03CFB0023181CBD4606B080BDC04694
:1052A00080B584B000AF78600A1CFB1C1A70FB1C30
:1052B0001B785BB2002B0CDAFB1C1A787F231A4098
:1052C000131C9B009B18DB0018337A68D318FB6013
:1052D0000BE0FB1C1A787F231A40131C9B009B18C1
:1052E000DB00B8337A68D318FB60FB689B7A002B2D
:1052F0001BD1FB685B78002B0BD0FB681B78181C5C
:1053000000F0D8FBFB681B78181C002100F0C4FAE1
:1053100046E0FB681B78181C00F09EFBFB681B78BE
:10532000181C002100F0F2FA3AE0FB685B78002BD1
:105330001BD1FB681B78181C00F08EFBFB681B78E8
:10534000181C00F0B7FBFB681B78181C00F062FB10
:10535000FB681B78181C002100F0D8FAFB681B784A
:10536000181C002100F098FA1AE0FB681B78181C42
:1053700000F072FBFB681B78181C00F09BFBFB68BD
:105380001B78181C00F024FBFB681B78181C0021FC
:1053900000F082FAFB681B78181C002100F0B6FAB6
:1053A0000023181CBD4604B080BDC04680B586B041
:1053B00000AFF8607A601A1C3B1C0B3319703B1C61
:1053C00008331A8000233B613B1C0B331A787F2380
:1053D0001A40131C9B009B18DB00B833FA68D318E3
:1053E0007B617B697A681A613B1C08331A887B6988
:1053F0005A617B6900229A617B695A697B69DB6823
:105400009A4209D97B69DB683B617B695A693B69D0
:10541000D21A7B695A6105E07B695B693B617B69F4
:1054200000225A617B699B7A002B08D17B691A782C
:105430003B699BB2101C191C00F0C6FB0AE07B699B
:1054400019787B695A783B699BB2081C111C1A1C9D
:1054500000F07CFC7B691A78C0239B01101C191C8E
:1054600000F054FA0023181CBD4606B080BDC046AB
:1054700080B588B000AFF8607A603B603B1C0B33AE
:105480000A1C1A7000237B613B1C0B331A787F23A4
:105490001A40131C9B009B18DB001833FA68D318C2
:1054A000BB613B1C0B331A787F231340DAB2BB6914
:1054B0001A70BB697A681A61BB693A685A61BB693C
:1054C00000229A61BB695A69BB69DB689A4209D9B3
:1054D000BB69DB687B61BB695A697B69D21ABB69AE
:1054E0005A6105E0BB695B697B61BB6900225A6157
:1054F000BB699B7A002B13D1BB691969BB699A8878
:105500007B699BB2081C111C1A1C00F065FDBB696D
:105510001A787B699BB2101C191C00F037FB37E02E
:105520003B1C1E3300221A80BB691978BB695A786C
:105530007B699BB2081C111C1A1C00F007FCBB699C
:105540001B78181C00F06EF9031C1A1C4023134032
:1055500005D03B1C1E33BA6912891A8004E03B1C3B
:105560001E33BA69D2881A80BB6919697B699BB2FC
:105570003A1C1E321288081C111C1A1C00F02CFD4B
:10558000BB691A78BB695B78101C191C00F0E2FC3F
:10559000BB691B78181C302100F07EF90023181C11
:1055A000BD4608B080BDC04690B585B000AF7860FC
:1055B0000A1CFB1C1A70FB1C1B785BB2002B0CDA5C
:1055C000FB1C1A787F231A40131C9B009B18DB00DE
:1055D00018337A68D318FB6009E0FB1C1A78131C97
:1055E0009B009B18DB00B8337A68D318FB60FB681C
:1055F0001B78002B20D1FB681B789B001D4A9B1851
:105600001B689BB21A1C1C4B141C1C4080235B01A2
:1056100063401C1C102363401C1CFB681B789B0010
:10562000144A9B18A2B215490A4392B21A60FB6849
:1056300001229A70002319E0FB685B78002B09D0E7
:10564000FB6801229A70FB681B78181C102100F07F
:1056500023F90AE0FB6801229A70FB681A7880231C
:105660005B01101C191C00F051F90023181CBD46E9
:1056700005B090BD005C0040BFBF00008080FFFF10
:1056800080B584B000AF78600A1CFB1C1A70FB1C4C
:105690001B785BB2002B0CDAFB1C1A787F231A40B4
:1056A000131C9B009B18DB0018337A68D318FB602F
:1056B00009E0FB1C1A78131C9B009B18DB00B83315
:1056C0007A68D318FB60FB685B78002B0ED0FB6810
:1056D0001B78181C00F0EEF9FB681B78181C3021B1
:1056E00000F0DAF8FB6800229A700FE0FB681B7884
:1056F000181C00F0B1F9FB681A78C0239B01101C3C
:10570000191C00F003F9FB6800229A700023181C92
:10571000BD4604B080BDC04680B584B000AF78609F
:105720000A1CFB1C1A700023FB607B68FA1C1278B1
:105730001A710023FB6017E0FB68DBB29B00114984
:105740005B18FA68D2B292000E495218126892B2EF
:10575000111C0D4A0A400D491143FA68D2B20A439E
:105760001A60FB680133FB60FB68032BE4D9084B2C
:10577000FA1C1278802149420A43D2B21A60BD460F
:1057800004B080BD005C00400F0F0000808000006E
:105790004C5C004080B582B000AF7860064B064A92
:1057A0001268802109020A431A607B6801229A70FC
:1057B000BD4602B080BDC046585C004080B582B096
:1057C00000AF021CBB1D1A80034BBA1D12881A6061
:1057D000BD4602B080BDC046405C004080B582B08E
:1057E00000AF021CBB1D1A80034BBA1D12881A6041
:1057F000BD4602B080BDC046445C004080B582B06A
:1058000000AF021CBB1D1A80044BBA1D1188044A4C
:105810000A401A60BD4602B080BDC046505C0040E0
:10582000F8FF000080B582B000AF021CFB1D1A70AB
:10583000FB1D1B789B00044A9B181B689BB2181C1D
:10584000BD4602B080BDC046005C004080B582B05D
:1058500000AF0A1CFB1D011C19703B1D1A80FB1DAB
:105860001B789B000A495B18FA1D127892000849C0
:105870005218126892B2111C064A0A4091B23A1D9F
:1058800012880A4392B292B21A60BD4602B080BD3D
:10589000005C00408F89FFFF90B583B000AF0A1C09
:1058A000FB1D011C19703B1D1A80FB1D1B789B0002
:1058B000134A9B181B689AB2124B13409CB23B1DB3
:1058C0001A88102313409BB2002B02D01023634090
:1058D0009CB23B1D1A88202313409BB2002B02D0A0
:1058E000202363409CB2FB1D1B789B00044A9B183D
:1058F000054A224392B21A60BD4603B090BDC0462D
:10590000005C0040BF8FFFFF8080FFFF90B583B039
:1059100000AF0A1CFB1D011C19703B1D1A80FB1DEA
:105920001B789B00154A9B181B689AB2144B1340B6
:105930009CB23B1D1A8880235B0113409BB2002B55
:1059400003D080235B0163409CB23B1D1A888023F7
:105950009B0113409BB2002B03D080239B0163402B
:105960009CB2FB1D1B789B00044A9B18054A2243EE
:1059700092B21A60BD4603B090BDC046005C0040C4
:105980008FBFFFFF8080FFFF80B582B000AF021C99
:10599000FB1D1A70FB1D1B789B000A495B18FA1D42
:1059A0001278920007495218126892B2111C064AE6
:1059B0000A4092B205490A4392B292B21A60BD46B9
:1059C00002B080BD005C00400F0E00008081FFFF30
:1059D00080B582B000AF021CFB1D1A70FB1D1B7846
:1059E0009B0009495B18FA1D12789200064952186B
:1059F000126892B2111C054A0A4005490A431A600E
:105A0000BD4602B080BDC046005C00400F0F0000E4
:105A100080C0000080B582B000AF021CFB1D1A7070
:105A2000FB1D1B789B0009495B18FA1D1278920038
:105A300006495218126892B2111C054A0A400549DB
:105A40000A431A60BD4602B080BDC046005C0040FB
:105A50000F0F0000C080000080B582B000AF021CB4
:105A6000FB1D1A70FB1D1B789B000F495B181B6800
:105A70009BB21A1C8023DB01134011D0FB1D1B7845
:105A80009B00094A9B18FA1D127892000649521889
:105A9000126892B2111C054A0A4005490A431A606D
:105AA000BD4602B080BDC046005C00400F0F000044
:105AB00080C0000080B582B000AF021CFB1D1A70D0
:105AC000FB1D1B789B000E495B181B689BB21A1CC0
:105AD0004023134011D0FB1D1B789B00084A9B18E4
